:020000040000fa
:080000000002040000000000f2
:020000040000fa
:040008009a04000056
:020000040000fa
:04000c009a04000052
:020000040000fa
:040010009a0400004e
:020000040000fa
:040014009a0400004a
:020000040000fa
:040018009a04000046
:020000040000fa
:04001c009a04000042
:020000040000fa
:040020009a0400003e
:020000040000fa
:040024009a0400003a
:020000040000fa
:040028009a04000036
:020000040000fa
:04002c009a04000032
:020000040000fa
:040030009a0400002e
:020000040000fa
:0400340004030000c1
:020000040000fa
:040038009a04000026
:020000040000fa
:04003c009a04000022
:020000040000fa
:040040009a0400001e
:020000040000fa
:040044009a0400001a
:020000040000fa
:040048009a04000016
:020000040000fa
:04004c009a04000012
:020000040000fa
:040050009a0400000e
:020000040000fa
:040054009a0400000a
:020000040000fa
:040058009a04000006
:020000040000fa
:04005c009a04000002
:020000040000fa
:040060009a040000fe
:020000040000fa
:040064009a040000fa
:020000040000fa
:040068009a040000f6
:020000040000fa
:04006c009a040000f2
:020000040000fa
:040070009a040000ee
:020000040000fa
:040074009a040000ea
:020000040000fa
:040078009a040000e6
:020000040000fa
:04007c009a040000e2
:020000040000fa
:040080009a040000de
:020000040000fa
:040084009a040000da
:020000040000fa
:040088009a040000d6
:020000040000fa
:04008c009a040000d2
:020000040000fa
:040090009a040000ce
:020000040000fa
:040094009a040000ca
:020000040000fa
:040098009a040000c6
:020000040000fa
:04009c009a040000c2
:020000040000fa
:0400a0009a040000be
:020000040000fa
:0400a4009a040000ba
:020000040000fa
:0400a8009a040000b6
:020000040000fa
:0400ac009a040000b2
:020000040000fa
:0400b0009a040000ae
:020000040000fa
:0400b4009a040000aa
:020000040000fa
:0400b8009a040000a6
:020000040000fa
:0400bc009a040000a2
:020000040000fa
:0400c0009a0400009e
:020000040000fa
:0400c4009a0400009a
:020000040000fa
:0400c8009a04000096
:020000040000fa
:0400cc009a04000092
:020000040000fa
:0400d0009a0400008e
:020000040000fa
:0400d4009a0400008a
:020000040000fa
:0400d8009a04000086
:020000040000fa
:0400dc009a04000082
:020000040000fa
:0400e0009a0400007e
:020000040000fa
:0400e4009a0400007a
:020000040000fa
:0400e8009a04000076
:020000040000fa
:0400ec009a04000072
:020000040000fa
:0400f0009a0400006e
:020000040000fa
:0400f4009a0400006a
:020000040000fa
:0400f8009a04000066
:020000040000fa
:0400fc009a04000062
:020000040000fa
:040100009a0400005d
:020000040000fa
:040104009a04000059
:020000040000fa
:040108009a04000055
:020000040000fa
:04010c009a04000051
:020000040000fa
:040110009a0400004d
:020000040000fa
:040114009a04000049
:020000040000fa
:040118009a04000045
:020000040000fa
:04011c009a04000041
:020000040000fa
:040120009a0400003d
:020000040000fa
:040124009a04000039
:020000040000fa
:040128009a04000035
:020000040000fa
:04012c009a04000031
:020000040000fa
:040130009a0400002d
:020000040000fa
:040134009a04000029
:020000040000fa
:040138009a04000025
:020000040000fa
:04013c009a04000021
:020000040000fa
:040140009a0400001d
:020000040000fa
:040144009a04000019
:020000040000fa
:040148009a04000015
:020000040000fa
:04014c009a04000011
:020000040000fa
:040150009a0400000d
:020000040000fa
:040154009a04000009
:020000040000fa
:040158009a04000005
:020000040000fa
:04015c009a04000001
:020000040000fa
:040160009a040000fd
:020000040000fa
:040164009a040000f9
:020000040000fa
:040168009a040000f5
:020000040000fa
:04016c009a040000f1
:020000040000fa
:040170009a040000ed
:020000040000fa
:040174009a040000e9
:020000040000fa
:040178009a040000e5
:020000040000fa
:04017c009a040000e1
:020000040000fa
:040180009a040000dd
:020000040000fa
:040184009a040000d9
:020000040000fa
:040188009a040000d5
:020000040000fa
:04018c009a040000d1
:020000040000fa
:040190009a040000cd
:020000040000fa
:040194009a040000c9
:020000040000fa
:040198009a040000c5
:020000040000fa
:04019c009a040000c1
:020000040000fa
:0401a0009a040000bd
:020000040000fa
:0401a4009a040000b9
:020000040000fa
:0401a8009a040000b5
:020000040000fa
:0401ac009a040000b1
:020000040000fa
:0401b0009a040000ad
:020000040000fa
:0401b4009a040000a9
:020000040000fa
:0401b8005e040000e1
:020000040000fa
:040208009a04000054
:020000040000fa
:04020c009a04000050
:020000040000fa
:040210009a0400004c
:020000040000fa
:040214009a04000048
:020000040000fa
:040218009a04000044
:020000040000fa
:04021c009a04000040
:020000040000fa
:040220009a0400003c
:020000040000fa
:040224009a04000038
:020000040000fa
:040228009a04000034
:020000040000fa
:04022c009a04000030
:020000040000fa
:040230009a0400002c
:020000040000fa
:040234009a04000028
:020000040000fa
:040238009a04000024
:020000040000fa
:04023c009a04000020
:020000040000fa
:040240009a0400001c
:020000040000fa
:040244009a04000018
:020000040000fa
:040248009a04000014
:020000040000fa
:04024c009a04000010
:020000040000fa
:040250009a0400000c
:020000040000fa
:040254009a04000008
:020000040000fa
:040258009a04000004
:020000040000fa
:04025c009a04000000
:020000040000fa
:040260009a040000fc
:020000040000fa
:040264009a040000f8
:020000040000fa
:040268009a040000f4
:020000040000fa
:04026c009a040000f0
:020000040000fa
:040270009a040000ec
:020000040000fa
:040274009a040000e8
:020000040000fa
:040278009a040000e4
:020000040000fa
:04027c009a040000e0
:020000040000fa
:040280009a040000dc
:020000040000fa
:040284009a040000d8
:020000040000fa
:040288009a040000d4
:020000040000fa
:04028c009a040000d0
:020000040000fa
:040290009a040000cc
:020000040000fa
:040294009a040000c8
:020000040000fa
:040298009a040000c4
:020000040000fa
:04029c009a040000c0
:020000040000fa
:0402a0009a040000bc
:020000040000fa
:0402a4009a040000b8
:020000040000fa
:0402a8009a040000b4
:020000040000fa
:0402ac009a040000b0
:020000040000fa
:0402b0009a040000ac
:020000040000fa
:0402b4009a040000a8
:020000040000fa
:0402b8009a040000a4
:020000040000fa
:0402bc009a040000a0
:020000040000fa
:0402c0009a0400009c
:020000040000fa
:0402c4009a04000098
:020000040000fa
:0402c8009a04000094
:020000040000fa
:0402cc009a04000090
:020000040000fa
:0402d0009a0400008c
:020000040000fa
:0402d4009a04000088
:020000040000fa
:0402d8009a04000084
:020000040000fa
:0402dc009a04000080
:020000040000fa
:0402e0009a0400007c
:020000040000fa
:0402e4009a04000078
:020000040000fa
:0402e8009a04000074
:020000040000fa
:0402ec009a04000070
:020000040000fa
:0402f0009a0400006c
:020000040000fa
:0402f4009a04000068
:020000040000fa
:0402f8009a04000064
:020000040000fa
:0402fc009a04000060
:020000040000fa
:040300009a0400005b
:020000040000fa
:040304009a04000057
:020000040000fa
:040308009a04000053
:020000040000fa
:04030c009a0400004f
:020000040000fa
:040310009a0400004b
:020000040000fa
:040314009a04000047
:020000040000fa
:040318009a04000043
:020000040000fa
:04031c009a0400003f
:020000040000fa
:040320009a0400003b
:020000040000fa
:040324009a04000037
:020000040000fa
:040328009a04000033
:020000040000fa
:04032c009a0400002f
:020000040000fa
:040330009a0400002b
:020000040000fa
:040334009a04000027
:020000040000fa
:040338009a04000023
:020000040000fa
:04033c009a0400001f
:020000040000fa
:040340009a0400001b
:020000040000fa
:040344009a04000017
:020000040000fa
:040348009a04000013
:020000040000fa
:04034c009a0400000f
:020000040000fa
:040350009a0400000b
:020000040000fa
:040354009a04000007
:020000040000fa
:040358009a04000003
:020000040000fa
:04035c009a040000ff
:020000040000fa
:040360009a040000fb
:020000040000fa
:040364009a040000f7
:020000040000fa
:040368009a040000f3
:020000040000fa
:04036c009a040000ef
:020000040000fa
:040370009a040000eb
:020000040000fa
:040374009a040000e7
:020000040000fa
:040378009a040000e3
:020000040000fa
:04037c009a040000df
:020000040000fa
:040380009a040000db
:020000040000fa
:040384009a040000d7
:020000040000fa
:040388009a040000d3
:020000040000fa
:04038c009a040000cf
:020000040000fa
:040390009a040000cb
:020000040000fa
:040394009a040000c7
:020000040000fa
:040398009a040000c3
:020000040000fa
:04039c009a040000bf
:020000040000fa
:0403a0009a040000bb
:020000040000fa
:0403a4009a040000b7
:020000040000fa
:0403a8009a040000b3
:020000040000fa
:0403ac009a040000af
:020000040000fa
:0403b0009a040000ab
:020000040000fa
:0403b4009a040000a7
:020000040000fa
:0403b8009a040000a3
:020000040000fa
:100400008f9920008efe24000e018800000000005d
:10041000000020000000e000020032000001200087
:100420002002880014000700440107000000e000db
:1004300003003a008015210001002000020037006f
:100440000000200001002000810f70000100320038
:1004500014000700000020000000e000020032004d
:100460000000020000000000ea4c02000000000052
:100470000040da000000fe004440a90020002000f7
:100480000000e0000300320010002000900188000e
:100490004440a800000006008a1f78008b1f7800e7
:1004a00000000600a1028800800478000000eb0034
:1004b0001f003700e284440054a0b4009905ba003c
:1004c000e284440054a0b4009906ba00e2844400d7
:1004d00054a0b4000006eb00476fde00fd07b20039
:1004e000ae018800636ce10003003a00eaff0700f8
:1004f0000000eb000e003700606ce10008003a00dd
:10050000004deb000a05e800020039003420ec0041
:100510000af0a0008b05e900f9ff3e000400370057
:100520006168e100010032000086eb000b0007006b
:1005300019c7ba001905ba000e04e00003003a001a
:100540000a00e000dbff3a0000000600fe07b200f0
:10055000ae0288008a047800f5ff37000cd0a300b3
:10056000e20f4d001c00390089027800354dba00b9
:100570000a05e800020039003420ec000af0a0006f
:100580008b05e9000f003200254dba000a05e8008e
:10059000020039003420ec000af0a0008b05e900cd
:1005a000080032000c00e0000600320015cdba0051
:1005b0000a05e800020039003420ec000af0a0002f
:1005c0008b05e9008984e80054a0b4000b00e0002a
:1005d000e2ff3a00000006009902ba00055d7800cb
:1005e0008b05e900f7ff3200c82ade00055d7800c0
:1005f0008b05e900f3ff32000c00e000f1ff320050
:1006000019ddba00eeff3700809fbe00829fbe005a
:10061000849fbe00869fbe00889fbe008a9fbe004a
:100620008c1f78003200f8003400f8001000200021
:10063000a001880010002000900188000200fa004c
:100640000005eb000a0f78000a4080004955de00e3
:100650008005eb000a0545008b854d000c822000cb
:100660000c0545001a0f78001a4080004f55de0037
:100670008005eb000a0545008b854d000c9220009b
:100680000c0545001a0578001e0f45002a40800021
:100690004f55de008005eb000a0545008b854d00b7
:1006a0000c9220000c0545001a0578001e0f45002d
:1006b0003a4080004b55de008005eb000a054500fe
:1006c0008b854d004c9220000c0545001a057800e2
:1006d0001e0f45001e0578004655dd005a1688009d
:1006e0000b4080004a4080000a8545000a4088008f
:1006f0001b4080005a4080000a8545001a4088004f
:100700002b4080006a4080000a8545002a4088000e
:100710003b4080007a4080000a8545003a408800ce
:100720009a4080000a05e8009a4088009b408000bb
:100730000a0024008a8f550054003a001228ef0066
:10074000ea4080000a05e800ea408800eb408000ab
:10075000ca2b20008a8f550001003a001c28ef00a8
:10076000ea4080008005eb000a0545008b854d00be
:10077000c8a62100091020000804450089844d0006
:100780009a01800008f0a4008984d20099018800b1
:10079000180478009a01880048408800e8408000ea
:1007a0008004eb000804440089844c0046ad22001c
:1007b000071020000603440087834c009801800046
:1007c00006f0a4008783d200970188001603780002
:1007d0009801880056408800e64080008003eb00c6
:1007e0000603430087834b00445c23000510200070
:1007f0000402430085824b009601800004f0a400af
:100800008582d20095018800140278009601880044
:1008100064408800e44080008002eb000402420053
:1008200085824a00420b240003102000020142008e
:1008300083814a009401800002f0a4008381d200e9
:1008400093018800120178009401880072408800aa
:10085000e24080008001eb000201410083814900f9
:10086000c055220001102000000041008180490095
:100870009201800000f0a4008180d20091018800e4
:100880001000780092018800804088008460a900f0
:100890000080fa003400f9003200f9004f067800b9
:1008a0004f05be004f04be004f03be004f02be0006
:1008b0004f01be004f00be0000400600801f7800c0
:1008c0003200f8003400f80010002000a001880079
:1008d00010002000900188000000fa0050388000cd
:1008e000700060000000e000040032001428ef00f7
:1008f0001a28ef000a87a900080037005038800046
:10090000680060000000e00004003200a0408000a9
:100910000000e800a04088000a67a9009080a900b4
:100920000080fa003400f9003200f9004f0078002e
:10093000004006000040da000000fe000000050054
:1009400003f0a200889fbe008a9fbe008c1f780023
:10095000f9000700000133006450e1004f0032004d
:100960006420e1005200320003826c0007003b006b
:100970000905d0000306d000820f54000c065d006c
:100980000200390002003200890178000306780075
:100990008582550004003d000003fd008103fd0039
:1009a0008502ea008b854200840f720002003b0042
:1009b00060001000e08018006011b8000005eb0036
:1009c0007a28e1000a00390006007800c75ddd00e2
:1009d000f707b200878075002d0037008281710013
:1009e0000a017800610560008180d1000080d30099
:1009f0008502e900f9ff3b000604400087844800b7
:100a000002003b0060041400e0841c000988a3007d
:100a1000070032008a8171008281710061016400e7
:100a20008904d1000884d3008b05e8001700370043
:100a30000978a30013003a000b00e0001300340013
:100a40008b05e9000804440089844c000a447400c2
:100a50000978a3000d003a000b00e0000700340005
:100a60008b05e9000804440089844c0001003a0029
:100a70000b0020000978a300f7ff32000001eb0013
:100a800002003700828171000a0178006f000700c0
:100a90000cf0a70001f0a000b80037006420e100ce
:100aa00002003a00838f6c00b80033000801be00da
:100ab0000200be00b1003700889fbe008a9fbe00c2
:100ac0008c1f78009c000700a300330003866c0095
:100ad0006450e1002e0032006420e1003300320057
:100ae0006150e1002f0032006120e100310032004e
:100af00085855500eb07b0000900200008042000a0
:100b0000050037000804440089844c000a003100c5
:100b10000603430087834b000001530081815b0083
:100b2000f8ff33000203be000800a00008044400e0
:100b300089844c00f6ff3900c639dd00830173005b
:100b400001003200130020008904d1000884d30082
:100b50000998a300050032000800a7000300a000c8
:100b60008904d1000884d3008b05e8008904d100f2
:100b70000884d3000001eb000281d200330007009b
:100b800001f0a1000cf0a70001f0a0007b003700ed
:100b90006420e1007d0032000801be000200be00ba
:100ba000f7ff37006120e100780032006000b800f4
:100bb000f3ff37000000200001f82700f0ff3700a6
:100bc000f4ff2f00840037000001be00450007003d
:100bd0000470a70003f0a1006509b10016003200ff
:100be0000d0035006828e10006003500f0ff2f00f9
:100bf000f1ff27000300e00013003b000100280084
:100c00000000050000004000818048008502e900e6
:100c1000fcff3a0008003700f88f420002003c0059
:100c20008000eb00000005008100d1000080d300af
:100c30008502e800fcff3a000300e00002003b00f0
:100c400060001000e0801800000006008100200015
:100c5000618055000b003d000b00200061fe2f005d
:100c60000100e1001d003400828171006101640017
:100c70008904d1000884d3000000e800faff3a009c
:100c80007100200061006400030070000200600039
:100c90000900320061044400e0844c000988a5008a
:100ca000050032008b05e8006808e10002003a0008
:100cb0008904d1000884d300f20f20000258e1001b
:100cc00005003d00c75ddd00f907b20089807500b1
:100cd00008007800000006000bf827008b00780061
:100ce00000000500c70ade00f107b200f50fb200f0
:100cf00008003200e1cf4200020032000170a00083
:100d000024000500810f7000010032000408050076
:100d100044000500810f700002003a001400050035
:100d20008502e9000000400081c04800fcff3b0054
:100d30000170a000240005000004be00e9ff0700c8
:100d40000003be000405be000200be00e5ff070070
:100d5000844f7500000006000200be006450e100f0
:100d6000050036006420e100020036000968a30097
:100d700001003a000800be000160a0004f067800a4
:100d80004f05be004f04be0000000600f0ff2f001c
:100d9000f1ff2700f9ff37006022b80006022000ab
:100da0000000d0008180d2000482d2008582d2006f
:100db0000000a0000202520083825a0003003100aa
:100dc0000202420083824a000000a1000603e900fb
:100dd000f3ff3a0000000600889fbe008a9fbe0015
:100de000841f7800d4ff07004f0078001100330003
:100df000f0ff2f00838f6c0006003b0004056500a8
:100e00000a00a7000800370009f0a6001000200023
:100e100008003700820f5400838f5c000300390004
:100e20001000200001003e000000200009f0a70093
:100e30000000ea004f05be004f04be000000e000c5
:040e400000000600a8
:020000040000fa
:100e44000000fa000a87a9000887a8000a67a90019
:100e54000867a800a080a8000080fa00000006002f
:100e64000600fa00889fbe00000f78001107980062
:100e7400220798001e007800e20f50005400320050
:100e8400e20f500005003e000000e0000a003200be
:100e9400e10f50002b003200d9003700e40f50005e
:100ea40091003200e40f50006c003900e50f50004f
:100eb400b0003200d2003700a0032000304b88007d
:100ec4000014200001002000404b8800514b880092
:100ed400000f200001002000604b8800714b880047
:100ee4000002200001002000a04b8800b14b8800c4
:100ef4000001200001002000c04b8800d14b880075
:100f04000002200001002000e04b8800f14b880023
:100f14005000200001002000004c8800114c880083
:100f24003000200001002000204c8800314c880053
:100f34005000200001002000404c8800514c8800e3
:100f4400af00370050042000304b8800000520001b
:100f540001002000404b8800514b8800001e2000f7
:100f640001002000604b8800714b880000022000c3
:100f740001002000a04b8800b14b88000001200034
:100f840001002000c04b8800d14b880000022000e3
:100f940001002000e04b8800f14b8800a0002000f5
:100fa40001002000004c8800114c880050002000f3
:100fb40001002000204c8800314c8800a000200053
:100fc40001002000404c8800514c88008c00370000
:100fd400f0022000304b8800000a200001002000ad
:100fe400404b8800514b8800001e20000100200067
:100ff400604b8800714b8800000220000100200033
:10100400a04b8800b14b8800800120000100200023
:10101400c04b8800d14b8800000220000100200052
:10102400e04b8800f14b8800a00020000100200064
:10103400004c8800114c8800500020000100200062
:10104400204c8800314c8800a000200001002000c2
:10105400404c8800514c8800690037009001200002
:10106400304b88000014200001002000404b880011
:10107400514b8800001e200001002000604b8800b6
:10108400714b88000002200001002000a04b880062
:10109400b14b88000003200001002000c04b8800f1
:1010a400d14b88000002200001002000e04b8800a2
:1010b400f14b8800a000200001002000004c8800b3
:1010c400114c88005000200001002000204c8800b2
:1010d400314c8800a000200001002000404c880012
:1010e400514c88004600370010012000304b880026
:1010f400001e200001002000404b8800514b880056
:10110400001e200001002000604b8800714b880005
:101114000002200001002000a04b8800b14b880091
:101124000004200001002000c04b8800d14b88003f
:101134000002200001002000e04b8800f14b8800f1
:10114400a000200001002000004c8800114c880001
:101154005000200001002000204c8800314c880001
:10116400a000200001002000404c8800514c880061
:1011740023003700b0002000304b880000282000f6
:1011840001002000404b8800514b8800001e2000c5
:1011940001002000604b8800714b88000001200092
:1011a40001002000a04b8800b14b880000062000fd
:1011b40001002000c04b8800d14b880000032000b0
:1011c40001002000e04b8800f14b8800a0002000c3
:1011d40001002000004c8800114c880020002000f1
:1011e40001002000204c8800314c880010022000af
:1011f40001002000404c8800514c88000000000091
:101204009e009000214b88002e0090008000eb008f
:10121400804b8800914b8800644b8000754b8000a4
:10122400404b8000514b80000001be000400be0012
:10123400d8fe0700604c8800714c88001e009000a6
:10124400e20f500020003a00424b8000534b8000d4
:10125400604b8000714b8000009ab9000402780052
:10126400028bb90086027800050242000014b8001f
:101274000902420084047800804b8000914b800076
:101284000001be008000200001002000c1fe070014
:101294000001be000800be00befe070000004000c2
:1012a40081804800804c8800914c8800804c8000ec
:1012b400914c80008100d1000080d300a04c8800b4
:1012c400b14c88001a003700424b8000534b800019
:1012d400604b8000714b8000009ab90004027800d2
:1012e400028bb90086027800050242000014b8009f
:1012f4000902420084047800804b8000914b8000f6
:101304000001be008000200001002000a1fe0700b3
:101314000001be000800be009efe0700804c88004d
:10132400914c88006000b800a04c8800b14c880043
:10133400824c8000934c800000c0220011002000e9
:10134400800f5100818f590003003e000600070002
:1013540010c0b300010037000040eb004f04be0092
:101364000080fa00000006000400fa00889fbe0016
:101374008a9fbe008c9fbe004487a8003c4b80001f
:101384000c4678000c74a1000c86fb00c966dd00d5
:10139400313a800011079800fc1f20001e029000c3
:1013a4000c0662000c8676003c3a880000c02500da
:1013b4000100200000007800c03888000ac0250021
:1013c4000b0020000a00be004008de008000780008
:1013d400f00f200000806000d038880008c025008d
:1013e400090020000800be00000078006038880072
:1013f40006c02500070020000600be004008de00ed
:1014040080007800f00f20000080600070388800b1
:1014140004c02500050020000400be000000780080
:101424008038880002c02500030020000200be00ae
:101434004008de0080007800f00f2000008060008b
:1014440090388800404b8000514b800000007800a9
:10145400a0388800604b8000714b80000000780049
:10146400b03888002139800080ff2f0000806000a0
:101474000000a000203988000080eb00f0398800cb
:10148400404b8000514b800080007800f07f2000aa
:1014940080806000f07f200000806000a23880001f
:1014a40001802f008100610001007000a0388800d5
:1014b400a1388000f07f200080806000f07f200051
:1014c40000806000e238800001802f00810061000c
:1014d40001007000e0388800604b8000714b800090
:1014e40080007800f07f200080806000f07f200082
:1014f40000806000b238800001802f00810061000c
:1015040001007000b0388800b1388000f07f2000fe
:1015140080806000f07f200000806000f23880004e
:1015240001802f008100610001007000f038880004
:10153400a04b8000b14b800000017800c04b8000bc
:10154400d14b80000000780000014100e04b800096
:10155400f14b80000000780000014100404b800006
:10156400514b80000000780080004100f07f200093
:1015740080806000f07f20000080600002398000dd
:1015840001802f0081006100010070000039880093
:10159400024c8000134c8000204c8000314c8000b1
:1015a4000201400083814800404c8000514c80007f
:1015b40002004000838048000000780000004000e2
:1015c40000017800604b8000714b800000007800bf
:1015d40080004100f07f200080806000f07f2000c8
:1015e400008060001239800001802f0081006100ba
:1015f400010070001039880026e7a9002647a900d9
:1016040026c7a9002627a8002607a80026a7a90000
:101614002687a900004c8000114c8000004178000e
:10162400204c8000314c8000004078000041410093
:10163400404c8000514c8000004078000040410044
:101644002fe7b7002fc7bf0029e7b700a04b8000e2
:10165400b14b800000417800c04b8000d14b80002a
:101664000040780000414100e04b8000f14b8000d5
:1016740000407800004041002ee7b7002ec7bf00ad
:1016840028e7b700004c8000114c8000004078002f
:101694002ce7b700a04b8000b14b800000407800dd
:1016a4002ae7b700204c8000314c800000407800cd
:1016b4002de7b700c04b8000d14b8000004078007c
:1016c4002be7b7002667a9002727a8002707a8004b
:1016d4000000eb00000f7800010037001e0fe80047
:1016e400804b8000914b80001e0178000002be00f8
:1016f400020378000603e900030033008502d100e9
:101704000482d300fbff37000401be001000200058
:1017140001002000800f5100818f5900efff3e002f
:101724001e00780000407800674060000080fb00e5
:10173400670060004500dd0022388000f1f12f00d1
:10174400810061000100700020388800203880008a
:101754004500de00674060000080fb006700600019
:101764004500dd0022398000f1f12f008100610085
:1017740001007000203988000887a8000867a800c5
:1017840005e7a80000e82300010020006b21070002
:101794004f06be004f05be004f04be000080fa0095
:1017a400000006000400fa00008fbe001e00be0008
:1017b40000007800c03888001e00be0000007800d9
:1017c400d03888000080fa00000006000000fa000b
:1017d400889fbe00000000000100370000000000e8
:1017e400303880006100600000f0a7000000ea00cb
:1017f4000000e9004f00de0031388000c708de0039
:10180400e1c060008180fb0080807000303880007f
:101814004600de00614060000080fb008100700033
:10182400303880004500de00614060000080fb002d
:10183400010070000000e000e8ff3a001000200002
:10184400d0408800000000000100370000000000c4
:10185400d04080000000e000fcff3a00204b8000f4
:10186400e20f500034003a001ec8bf000004e0003c
:101874001600320000c0250001002000c9ff070047
:10188400a04c8000b14c8000808fd2008180d200b7
:101894000000780000f0a10008c025000900200025
:1018a4000001d0008801d000030041004220a800bc
:1018b400898048004200a9004220ae004200a800ee
:1018c4000080d3003e01070015003700a04c8000c3
:1018d400b14c8000808fd2008180d200000078005b
:1018e40000f0a10002c02500030020000002d00087
:1018f4008202d000050042004220a80083804800f4
:101904004200a9004220ae004200a8000080d3009b
:10191400a4ff070000c025000100200028010700e3
:101924001ec8bf000080fb000000e9004f00de007d
:10193400004078001ee8b7004f04be000080fa00a3
:10194400000006000000fa000000eb00330107006d
:10195400604b8000714b800000017800404b800098
:10196400514b80000000780082017800000178006b
:101974008000eb000000eb00300107000080fa005b
:10198400000006000000fa00224b8000e20f510024
:1019940013003a00a24c8000b34c8000828fd20026
:1019a4008381d2000201780002f0a10000c025006a
:1019b400010020000202d0008002d0000500420095
:1019c4004220a800818049004200a9004220ae00c4
:1019d4004200a8000080d300f9000700d9ff0700e7
:1019e40000c0250001002000f5000700d5ff070016
:1019f4000080fa00000006000200fa00000f7800e0
:101a04001e00780005010700604b8000714b8000c8
:101a14000000780080017800120020008000eb00b4
:101a24000000eb0005010700604b8000714b800053
:101a340000017800404b8000514b8000000078008a
:101a44000000e90082017800120020008000eb0011
:101a5400fa000700604c8000714c8000000178009f
:101a6400404b8000514b80000000780082017800d8
:101a7400000178008000eb000000eb00ef0007009d
:101a8400604c8000714c800080017800404b8000e5
:101a9400514b8000000078000001e900604b800099
:101aa400714b800000027800604c8000714c800013
:101ab4000000780000005200800078000000eb0075
:101ac400de0007000080fa00000006000000fa00b3
:101ad40031e7a8000080fa00000006000400fa00c4
:101ae400004f7800110798001e4178000173200010
:101af400824878003107a8009e0090009139880040
:101b0400000000000100370000000000813980005f
:101b140000002400008060000000e000faff3a00aa
:101b24003107a9000080fa00000006000000fa0056
:101b3400000000000100370000000000343880007d
:101b4400620262000400e000fbff3a000082eb0046
:101b540004388800040025001438880000000000c0
:101b6400000000000100370000000000343880004d
:101b7400620262000400e000fbff3a000027ef006d
:101b84000410250014388800000000000000000044
:101b94000100370000000000343880006202620057
:101ba4000400e000fbff3a0082ff24000300200051
:101bb400020178000238880080ff24000100200020
:101bc4004008de0080007800f00f20008080600074
:101bd400002025000100700010388800000000007b
:101be40000000000010037000000000030388000d1
:101bf400620060000000e000fbff3a000027ef00f5
:101c0400008025001038880000000000000000005b
:101c140001003700000000003038800062006000de
:101c24000000e000fbff3a00404b8000514b800075
:101c3400000078004c01dd00604b8000714b800097
:101c4400000078000200700000388800404b8000db
:101c5400514b80004c09dd004400de00000071009f
:101c6400c408de00800078000090250001007000a8
:101c740010388800000000000080fa000000060010
:101c84000a00fa001007980021079800320798000c
:101c9400034f9800604b8000714b80000000780077
:101ca400750f50009e0078003e009000808f500019
:101cb400030031009e0078003107980003003700cc
:101cc40000000000010037000000000030388000f0
:101cd400620060000000e000fbff3a002e0090006c
:101ce400cc00dd003e009000010070000038880048
:101cf4002e009000c400de0000a02500010070004a
:101d040010388800000000001700370000000000b1
:101d140001003700000000003038800062006000dd
:101d24000000e000f9ff3a001e0090001040780027
:101d34000000fb00003888000e4890000004e0001a
:101d440003003a00003025001038880002003700f4
:101d54000038250010388800000000001e009000a4
:101d64000000e800100798001e0090001040780062
:101d74000004e000e7ff3a000080fa0000000600db
:101d84000200fa00000f78009e00780001388800f5
:101d940000002500103888000080fa0000000600ca
:101da4000200fa00000f78009e00780001388800d5
:101db40000102500103888000080fa00000006009a
:101dc4000400fa00008fbe0000000000010037008c
:101dd4000000000030388000610060000000e00076
:101de400fbff32001e00be0000007800603888004f
:101df4001e00be0000007800703888001e00be007f
:101e040000007800803888001e00be0000007800c2
:101e1400903888000080fa00000006000200fa00f2
:101e2400000f78009e0078000138880000602600ca
:101e3400103888000080fa00000006000800fa004c
:101e4400889fbe00000f78001107980022079800b1
:101e54003307980000000000010037000000000074
:101e640030388000620060000000e000fbff3a00b0
:101e7400404b8000514b8000800078001e00900091
:101e84000088b900000078001e0040000038880077
:101e94001e0078006103b8001e0090006101b800c4
:101ea400404b8000514b8000009ab9000402780036
:101eb400028cb90088027800050242000010b800c4
:101ec4000102420084007800060040008780480038
:101ed4004008de0080007800f00f20008080600061
:101ee4000030260001007000103888000000000057
:101ef40000000000010037000000000030388000be
:101f0400620060000000e000fbff3a002e00900039
:101f1400cc00dd003e009000010070000038880015
:101f24002e009000c400de00004026000100700076
:101f34001038880000000000000000000100370095
:101f44000000000030388000620060000000e00003
:101f5400fbff3a00000620000038880000702600cd
:101f640010388800000000004f04be000080fa0012
:101f7400000006000800fa00008fbe002207980047
:101f840033079800404b8000514b80002e01900095
:101f94000191b90002017800be019000009ab900d5
:101fa4008401780003014100ae0190000018b800dc
:101fb40001014100820078001e0f40005e97480036
:101fc4001e007800003888001e00be004008de00b5
:101fd40080007800f00f2000808060000030260030
:101fe4000100700010388800604c8000714c800043
:101ff4000000780000c0a0000038880000402600df
:1020040010388800000000000100370000000000c4
:1020140030388000620060000000e000fbff3a00fe
:102024000006200000388800007026001038880060
:10203400000000000080fa00000006002e00fa00f4
:10204400881f7800700f98000117980012179800e5
:1020540023179800341798004517980056179800ce
:10206400671798007e0990008e1190003e10900032
:10207400ce10900031fa070001f0a100100798007b
:10208400210798001e119000ae1190005e10900080
:10209400ee10900029fa070001f0a1003007980023
:1020a4004107980018c0b3003e019000ce01900093
:1020b4001e009000ae009000c0fa07000000e0008f
:1020c40001003c000044eb000804e000030032007f
:1020d4001e009000ae009000020037003e00900009
:1020e400ce00900050079800610798007e09900088
:1020f4008e1190003e109000ce1090000ffa070051
:102104005e019000ee0190006afa070070079800e3
:10211400010f98001e119000ae1190005e10900007
:10212400ee10900005fa07005e019000ee019000a9
:1021340060fa0700100f9800210f98000000eb00d0
:10214400000f7800330037007e0190008e09900064
:102154007e0890008e109000f9f90700700f980027
:10216400011798007e0890008e10900095fa0700e1
:1021740000007800cf80de00300f9800410f9800f7
:102184001e099000ae0990001e109000ae10900041
:10219400ebf9070010179800211798001e10900003
:1021a400ae10900087fa070000007800cf80de00b0
:1021b400500f9800610f9800424b8000534b8000f1
:1021c4003e089000ce089000800f5100818f590086
:1021d4000f003600624b8000734b80005e08900055
:1021e400ee089000800f5100818f590008003600de
:1021f4000ef897000080fb0008ff07005e099000be
:10220400ee0990003e089000ce08900059ff0700a8
:102214001e0fe8005e009000ee00900069fa0700cf
:10222400000078009e0f5000c7ff3e004f04780066
:102234000080fa00000006000a00fa0060479800d7
:1022440071479800024f98006e4090000080fb0098
:102254004300de00004f78007e4090000080fb00c9
:102264004200de00104798000e4890000080fb00fa
:102274004300de00204798001e80fb00cb00dd00f9
:102284001e4090000080fb004500dd0081007000ce
:102294002e4090000080fb00010070002007980091
:0c22a4002e0090000080fa0000000600f0
:020000040000fa
:1022b0002008000044010000820000008000860029
:1022c000008c000092009800009e0000a500aa006b
:1022d00000b00000b600bc0000c10000c600cb008a
:1022e00000d00000d500da0000de0000e200e600c9
:1022f00000ea0000ed00f00000f30000f500f80037
:1023000000fa0000fb00fd0000fe0000fe00ff00e0
:1023100000ff0000ff00fe0000fe0000fd00fb00cb
:1023200000fa0000f800f50000f30000f000ed00f6
:1023300000ea0000e600e20000de0000da00d5005e
:1023400000d00000cb00c60000c10000bc00b600f9
:1023500000b00000aa00a500009e000098009200b6
:10236000008c0000860080000079000073006d0082
:102370000067000061005a00005500004f0049004e
:10238000004300003e003900003400002f002a0006
:102390000025000021001d0000190000150012009a
:1023a000000f00000c000a000007000005000400f8
:1023b0000002000001000100000000000000000019
:1023c00000010000010002000004000005000700f9
:1023d000000a00000c000f00001200001500190098
:1023e000001d000021002500002a00002f003400fd
:1023f000003900003e004300004900004f00550036
:10240000005a000061006700006d00007300790051
:1024100000600000a0008000008f00009f00af005f
:1024200000bf0000cf00df0000ef0000ff00ef0062
:1024300000df0000cf00bf0000af00009f008f0052
:10244000008000007000600000500000400030007c
:1024500000200000100000000010000020003000ec
:102460000040000050006000007000001c080000e8
:102470000200000082000000ffff000000080000d2
:102480001400000080000000640900003400000017
:1024900080000000f84f0000080c000082000000df
:1024a0000000000000ff0000080006000804000013
:1024b00006100400000618000400060020040000b6
:1024c000062804000006300004000600380400005e
:1024d0000640040000064800040006005004000006
:1024e00006580400000660000400060068040000ae
:1024f0000670040000067800040006008004000056
:1025000006880400000690000400060098040000fd
:1025100006a004000006a80004000600b0040000a5
:1025200006b804000006c00004000600c80400004d
:1025300006d004000006d80004000600e0040000f5
:1025400006e804000006f00004000600f80400009d
:102550000600050000060800050006001005000042
:1025600006180500000620000500060028050000ea
:102570000630050000063800050006004005000092
:10258000064805000006500005000600580500003a
:1025900006600500000668000500060070050000e2
:1025a000067805000006800005000600880500008a
:1025b000069005000006980005000600a005000032
:1025c00006a805000006b00005000600b8050000da
:1025d00006c005000006c80005000600d005000082
:1025e00006d805000006e00005000600e80500002a
:1025f00006f005000006f8000500060000060000d1
:102600000608060000061000060006001806000076
:10261000062006000006280006000600300600001e
:1026200006380600000640000600060048060000c6
:10263000065006000006580006000600600600006e
:102640000668060000067000060006007806000016
:1026500006800600000688000600060090060000be
:10266000069806000006a00006000600a806000066
:1026700006b006000006b80006000600c00600000e
:1026800006c806000006d00006000600d8060000b6
:1026900006e006000006e80006000600f00600005e
:1026a00006f8060000060000070006000807000004
:1026b00006100700000618000700060020070000ab
:1026c0000628070000063000070006003807000053
:1026d00006400700000648000700060050070000fb
:1026e00006580700000660000700060068070000a3
:1026f000067007000006780007000600800700004b
:1027000006880700000690000700060098070000f2
:1027100006a007000006a80007000600b00700009a
:1027200006b807000006c00007000600c807000042
:1027300006d007000006d80007000600e0070000ea
:1027400006e807000006f00007000600f807000092
:102750000600080000060800080006001008000037
:1027600006180800000620000800060028080000df
:102770000630080000063800080006004008000087
:10278000064808000006500008000600580800002f
:1027900006600800000668000800060070080000d7
:1027a000067808000006800008000600880800007f
:1027b000069008000006980008000600a008000027
:1027c00006a808000006b00008000600b8080000cf
:1027d00006c008000006c80008000600d008000077
:1027e00006d808000006e00008000600e80800001f
:1027f00006f008000006f8000800060000090000c6
:10280000060809000006100009000600180900006b
:102810000620090000062800090006003009000013
:1028200006380900000640000900060048090000bb
:102830000650090000065800090006006009000063
:10284000066809000006700009000600780900000b
:1028500006800900000688000900060090090000b3
:10286000069809000006a00009000600a80900005b
:1028700006b009000006b80009000600c009000003
:1028800006c809000006d00009000600d8090000ab
:1028900006e009000006e80009000600f009000053
:1028a00006f80900000600000a000600080a0000f9
:1028b00006100a00000618000a000600200a0000a0
:1028c00006280a00000630000a000600380a000048
:1028d00006400a00000648000a000600500a0000f0
:1028e00006580a00000660000a000600680a000098
:1028f00006700a00000678000a000600800a000040
:1029000006880a00000690000a000600980a0000e7
:1029100006a00a000006a8000a000600b00a00008f
:1029200006b80a000006c0000a000600c80a000037
:1029300006d00a000006d8000a000600e00a0000df
:1029400006e80a000006f0000a000600f80a000087
:1029500006000b00000608000b000600100b00002c
:1029600006180b00000620000b000600280b0000d4
:1029700006300b00000638000b000600400b00007c
:1029800006480b00000650000b000600580b000024
:1029900006600b00000668000b000600700b0000cc
:1029a00006780b00000680000b000600880b000074
:1029b00006900b00000698000b000600a00b00001c
:1029c00006a80b000006b0000b000600b80b0000c4
:1029d00006c00b000006c8000b000600d00b00006c
:1029e00006d80b000006e0000b000600e80b000014
:1029f00006f00b000006f8000b000600000c0000bb
:102a0000000000000000000000001c002236220030
:102a10002a221c00001c3e002a3e22003e1c000010
:102a200000143e003e3e1c0008000000081c3e0052
:102a30003e1c080000081c001c083e003e08000068
:102a400000081c003e3e08001c00000000000000c2
:102a50000000000000000000000000000000000076
:102a60000000000000000000000000000000000066
:102a70000000000000003800302c1200120c000092
:102a80001c2222001c081c0008000000000000009e
:102a90000000000000302c00342c3400360600000a
:102aa000002a1c00361c2a00000004000c1c3c00fc
:102ab0001c0c0400001018001c1e1c001810000044
:102ac000081c3e00083e1c000800140014141400ea
:102ad00014001400003c2a002a2c2800282800009a
:102ae0001c220c00141822001c0000000000000032
:102af000001e1e0000081c003e083e001c081c00b2
:102b0000081c3e0008080800080008000808080023
:102b10003e1c080000000800183e180008000000d5
:102b200000080c003e0c080000000000000002003d
:102b300002023e0000001400143e140014000000c5
:102b400008081c001c3e3e0000003e003e1c1c000d
:102b50000808000000000000000000000000000065
:102b6000081c1c000808000008003600361200008f
:102b700000000000000014003e1414003e14000089
:102b8000041c02000c100e0008002600261008008d
:102b90000432320000040a000a042a00122c000049
:102ba0000c0c0400000000000000080004040400f5
:102bb00004040800000408000808080008040000d5
:102bc00000141c003e1c14000000000008083e0019
:102bd0000808000000000000000000000c0c0400c9
:102be000000000003e0000000000000000000000a7
:102bf000000c0c000000200010080400020000007f
:102c00001c2232002a2622001c0008000c080800a2
:102c100008081c00001c220020180400023e0000ce
:102c20001c2220001c2022001c001000181412007e
:102c30003e101000003e0200021e2000221c000078
:102c4000180402001e2222001c003e002010080072
:102c500004040400001c2200221c2200221c00008c
:102c60001c2222003c2010000c000000000c0c0074
:102c7000000c0c00000000000c0c00000c0c040008
:102c8000100804000204080010000000003e0000cc
:102c9000003e00000004080010201000080400009e
:102ca0001c2220001808000008001c00223a2a00fc
:102cb0003a021c00001c220022223e0022220000b8
:102cc0001e2222001e2222001e001c0022020200e0
:102cd00002221c00001e220022222200221e0000ce
:102ce0003e0202001e0202003e003e0002021e00e2
:102cf00002020200001c2200023a2200223c0000d4
:102d0000222222003e22220022001c000808080085
:102d100008081c000020200020202200221c0000a7
:102d200022120a00060a1200220002000202020019
:102d300002023e00002236002a2222002222000047
:102d400022262a003222220022001c0022222200f7
:102d500022221c00001e2200221e0200020200008d
:102d60001c222200222a12002c001e0022221e00f9
:102d700012222200001c2200021c2000221c000043
:102d80003e0808000808080008002200222222004d
:102d900022221c000022220022222200140800000d
:102da00022222a002a2a2a001400220022140800c3
:102db0001422220000222200221408000808000029
:102dc0001e100800040202001e001c00040404007f
:102dd00004041c0000000200040810002000000091
:102de0001c101000101010001c000800142200001d
:102df00000000000000000000000000000003f0094
:102e00000c0c08000000000000000000001c200066
:102e10003c223c00000202001e222200221e000072
:102e200000001c00220222001c002000203c220086
:102e300022223c00000000001c221e00021c000098
:102e4000180404001e04040004000000003c2200da
:102e5000223c20001c0202000e121200121200007e
:102e600008000800080808001800100000181000ea
:102e7000101012000c020200120a06000a120000d2
:102e800008080800080808001800000000162a00ba
:102e90002a222200000000000e121200121200006e
:102ea00000001c00222222001c000000001e220044
:102eb00022221e00020000003c222200223c2000b0
:102ec00000001a00240404000e000000001c020090
:102ed0001c201c00000004001e0404001408000054
:102ee0000000120012121a0014000000002222003a
:102ef000221408000000000022222a003e140000d4
:102f000000001200120c1200120000000012120049
:102f1000121c0800060000001e100c00021e00001b
:102f20001804040006040400180008000808000043
:102f300008080800000c100010301000100c0000f1
:102f4000140a000000000000000008001c362200e7
:102f5000223e000000ffff00ffffff00ffffff0019
:102f600055555500555555005555ff00ffffff00bd
:102f7000ffffff00ffffff00ffffff00ffffff005d
:102f8000ffffff00ffffff00ffffff00ffffff004d
:102f9000ffffff00ffffff00ffffff00ffffff003d
:102fa000ffffff00ffffff00ffffff00ffffff002d
:1034a000ffffff00ffffff00ffff00001408000008
:1034b0000800000080000000005c0000002c0000fc
:1034c000800000001e0800000200000082000000d2
:0834d0000100000000000000f3
:020000040000fa
:1034d80010030000e40200009302000093020000c1
:1034e800e4020000000000000000000000000000ee
:1034f80000000000000000000000000000000000c4
:10350800000000000000000000000000b8010000fa
:1035180010030000e4020000930200009302000080
:1035280093020000e4020000000000000000000018
:103538004b0200004b02000093020000b80100009b
:10354800b8010000000000000000000000000000ba
:10355800000000000000000000000000b8010000aa
:103568009302000093020000e40200001003000030
:103578001003000010030000930200002a0200005c
:103588002a0200004b0200004b0200004b02000020
:103598009302000093020000b8010000b801000087
:1035a800b8010000e4020000e4020000000000008e
:1035b8000000000000000000000000000000000003
:1035c80000000000000000000000000000000000f3
:1035d80010030000e40200009302000093020000c0
:1035e800e4020000000000000000000000000000ed
:1035f80000000000000000000000000000000000c3
:10360800000000000000000000000000b8010000f9
:1036180010030000e402000093020000930200007f
:103628000000000000000000e40200004b0200005f
:10363800000000000000000093020000b801000034
:10364800b8010000000000000000000000000000b9
:103658000000000000000000000000000000000062
:103668009302000093020000e4020000100300002f
:103678001003000010030000930200002a0200005b
:103688002a0200002a0200004b02000093020000f8
:1036980000000000b80100004b0200009302000087
:1036a800ba020000930200004b0200000b02000067
:1036b8000000000000000000b8010000d201000076
:1036c8000b0200000b020000ba020000ba02000060
:1036d800930200004b0200004b0200000b020000a6
:1036e8004b0200000b0200000b0200000b0200005e
:1036f8000b0200000b020000b8010000d20100001c
:103708000b0200000b020000ba020000ba0200001f
:1037180010030000ba020000930200004b020000f0
:103728004b02000093020000ba020000ba02000037
:10373800ba020000ba020000100300007003000083
:10374800a4030000a403000070030000700300003d
:103758001003000010030000ba020000100300006c
:103768007003000070030000100300001003000045
:10377800ba020000ba0200004b0200000b0200006f
:103788004b020000ba020000ba02000093020000d7
:103798009302000093020000e4020000e40200002b
:1037a800e4020000e4020000000000000000000045
:1037b8000000000000000000000000000000000001
:1037c80000000000000000000000000000000000f1
:1037d80000000000000000000000000000000000e1
:1037e80000000000000000000000000000000000d1
:1037f80000000000000000000000000000000000c1
:10380800000000000000000000000000b8010000f7
:1038180010030000e402000093020000930200007d
:1038280093020000e4020000000000000000000015
:103838000000000000000000000000000000000080
:103848000000000000000000000000000000000070
:1038580010030000e402000093020000930200003d
:103868009302000093020000e40200004b020000f3
:103878004b0200009302000093020000b801000010
:10388800b801000000000000000000000000000077
:103898000000000000000000000000000000000020
:1038a8009302000093020000e402000010030000ed
:1038b80010030000100300009302000093020000b0
:1038c8002a0200002a0200004b02000093020000b6
:1038d8009302000093020000b8010000b801000044
:1038e800b8010000e4020000000000000000000031
:1038f80000000000000000000000000000000000c0
:10390800000000000000000000000000b8010000f6
:1039180010030000e402000093020000930200007c
:10392800e4020000000000000000000000000000a9
:10393800000000000000000000000000000000007f
:10394800000000000000000000000000b8010000b6
:1039580010030000e402000093020000930200003c
:103968000000000000000000e40200004b0200001c
:10397800000000000000000093020000b8010000f1
:10398800b801000000000000000000000000000076
:10399800000000000000000000000000000000001f
:1039a8009302000093020000e402000010030000ec
:1039b80010030000100300009302000093020000af
:1039c8002a0200002a0200004b02000093020000b5
:1039d80000000000b80100004b0200009302000044
:1039e800ba020000930200004b0200000b02000024
:1039f8000000000000000000b8010000d201000033
:103a08000b0200000b020000ba020000ba0200001c
:103a1800930200004b0200004b0200000b02000062
:103a28004b0200000b0200000b0200000b0200001a
:103a38000b0200000b020000b8010000d2010000d8
:103a48000b0200000b020000ba020000ba020000dc
:103a580010030000ba020000930200004b020000ad
:103a68004b02000093020000ba020000ba020000f4
:103a7800ba020000ba020000100300007003000040
:103a8800a4030000a40300007003000070030000fa
:103a98001003000010030000ba0200001003000029
:103aa800700300007003000010030000ba02000059
:103ab800ba020000ba0200004b0200000b0200002c
:103ac8004b020000ba020000ba0200009302000094
:103ad8009302000093020000e4020000e4020000e8
:103ae800e4020000e4020000000000000000000002
:103af80000000000000000000000000000000000be
:103b080000000000000000000000000000000000ad
:103b1800000000000000000000000000000000009d
:103b2800000000000000000000000000000000008d
:103b3800000000000000000000000000000000007d
:103b4800000000000000000000000000000000006d
:103b580010030000e402000093020000930200003a
:103b680093020000e40200000000000000000000d2
:103b7800000000000000000000000000000000003d
:103b8800000000000000000000000000b801000074
:103b980010030000e40200009302000093020000fa
:103ba8000000000000000000e40200004b020000da
:103bb800000000000000000093020000b8010000af
:103bc800b801000000000000000000000000000034
:103bd80000000000000000000000000000000000dd
:103be8009302000093020000e402000010030000aa
:103bf800100300001003000093020000930200006d
:103c08002a0200002a0200004b0200009302000072
:103c18009302000093020000b8010000b801000000
:103c2800b8010000e4020000e40200000000000007
:103c3800000000000000000000000000000000007c
:103c4800000000000000000000000000000000006c
:103c580010030000e4020000930200009302000039
:103c680093020000e40200000000000000000000d1
:103c7800000000000000000000000000000000003c
:103c8800000000000000000000000000000000002c
:103c980010030000e40200009302000093020000f9
:103ca8000000000000000000e40200004b020000d9
:103cb800000000000000000093020000b8010000ae
:103cc800b801000000000000000000000000000033
:103cd80000000000000000000000000000000000dc
:103ce8009302000093020000e402000010030000a9
:103cf800100300001003000093020000930200006c
:103d08002a0200002a0200004b0200009302000071
:103d180000000000b80100004b0200009302000000
:103d2800ba020000930200004b0200000b020000e0
:103d38000000000000000000b8010000d2010000ef
:103d48000b0200000b020000ba020000ba020000d9
:103d5800930200004b0200004b0200000b0200001f
:103d68004b0200000b0200000b0200000b020000d7
:103d78000b0200000b020000b8010000d201000095
:103d88000b0200000b020000ba020000ba02000099
:103d980010030000ba020000930200004b0200006a
:103da8004b02000093020000ba020000ba020000b1
:103db800ba020000ba0200001003000070030000fd
:103dc800a4030000a40300007003000070030000b7
:103dd8001003000010030000ba02000010030000e6
:103de800700300007003000010030000ba02000016
:103df800ba020000ba0200004b0200000b020000e9
:103e08004b020000ba020000ba0200009302000050
:103e18009302000093020000e4020000e4020000a4
:103e2800e4020000e40200000000000000000000be
:103e38000000000000000000700300007003000094
:103e4800a403000070030000e40200004b0200001d
:103e58004b02000093020000e4020000e4020000ac
:103e6800e4020000e402000000000000000000007e
:103e780000000000700300007003000070030000e1
:103e8800dc03000070030000e40200004b020000a5
:103e98004b02000093020000e4020000e40200006c
:103ea800e4020000e402000000000000000000003e
:103eb80000000000700300007003000070030000a1
:103ec800dc03000070030000e40200004b02000065
:103ed8004b02000093020000e4020000e40200002c
:103ee800e4020000e40200000000000000000000fe
:103ef80000000000000000007003000070030000d4
:103f0800dc03000070030000e40200004b02000024
:103f18004b02000093020000e4020000e4020000eb
:103f2800e4020000e40200000000000000000000bd
:103f38000000000070030000700300007003000020
:103f4800dc03000070030000e40200004b020000e4
:103f58004b02000093020000e4020000e4020000ab
:103f6800e4020000e402000000000000000000007d
:103f78000000000010030000700300007003000040
:103f88007003000070030000000000000000000043
:103f98000000000010030000e4020000e40200003a
:103fa800e4020000e402000000000000000000003d
:103fb80000000000000000000000000000000000f9
:020000040000fa
:103fc8001400000014000000140000001400000099
:103fd80014000000000000000000000000000000c5
:103fe80000000000000000000000000000000000c9
:103ff80000000000000000000000000014000000a5
:104008001400000014000000140000001400000058
:104018001400000014000000000000000000000070
:104028001400000014000000140000001400000038
:104038001400000000000000000000000000000064
:104048000000000000000000000000001400000054
:104058001400000014000000140000001400000008
:1040680014000000140000001400000014000000f8
:1040780014000000140000001400000014000000e8
:1040880014000000140000001400000014000000d8
:1040980014000000140000001400000000000000dc
:1040a8000000000000000000000000000000000008
:1040b80000000000000000000000000000000000f8
:1040c8001400000014000000140000001400000098
:1040d80014000000000000000000000000000000c4
:1040e80000000000000000000000000000000000c8
:1040f80000000000000000000000000014000000a4
:104108001400000014000000140000001400000057
:10411800000000000000000014000000140000006f
:10412800000000000000000014000000140000005f
:104138001400000000000000000000000000000063
:104148000000000000000000000000000000000067
:104158001400000014000000140000001400000007
:1041680014000000140000001400000014000000f7
:1041780014000000140000001400000014000000e7
:1041880000000000140000001400000014000000eb
:1041980014000000140000001400000014000000c7
:1041a80000000000000000001400000014000000df
:1041b80014000000140000001400000014000000a7
:1041c8001400000014000000140000001400000097
:1041d8001400000014000000140000001400000087
:1041e8001400000014000000140000001400000077
:1041f8001400000014000000140000001400000067
:104208001400000014000000140000001400000056
:104218001400000014000000140000001400000046
:104228001400000014000000140000001400000036
:104238001400000014000000140000001400000026
:104248001400000014000000140000001400000016
:104258001400000014000000140000001400000006
:1042680014000000140000001400000014000000f6
:1042780014000000140000001400000014000000e6
:1042880014000000140000001400000014000000d6
:1042980014000000140000000000000000000000ee
:1042a8000000000000000000000000000000000006
:1042b80000000000000000000000000000000000f6
:1042c80000000000000000000000000000000000e6
:1042d80000000000000000000000000000000000d6
:1042e80000000000000000000000000000000000c6
:1042f80000000000000000000000000014000000a2
:104308001400000014000000140000001400000055
:10431800140000001400000000000000000000006d
:104328000000000000000000000000000000000085
:104338000000000000000000000000000000000075
:104348001400000014000000140000001400000015
:104358001400000014000000140000001400000005
:1043680014000000140000001400000014000000f5
:104378001400000000000000000000000000000021
:104388000000000000000000000000000000000025
:1043980014000000140000001400000014000000c5
:1043a80014000000140000001400000014000000b5
:1043b80014000000140000001400000014000000a5
:1043c8001400000014000000140000001400000095
:1043d80014000000140000000000000000000000ad
:1043e80000000000000000000000000000000000c5
:1043f80000000000000000000000000014000000a1
:104408001400000014000000140000001400000054
:104418001400000000000000000000000000000080
:104428000000000000000000000000000000000084
:104438000000000000000000000000001400000060
:104448001400000014000000140000001400000014
:10445800000000000000000014000000140000002c
:10446800000000000000000014000000140000001c
:104478001400000000000000000000000000000020
:104488000000000000000000000000000000000024
:1044980014000000140000001400000014000000c4
:1044a80014000000140000001400000014000000b4
:1044b80014000000140000001400000014000000a4
:1044c80000000000140000001400000014000000a8
:1044d8001400000014000000140000001400000084
:1044e800000000000000000014000000140000009c
:1044f8001400000014000000140000001400000064
:104508001400000014000000140000001400000053
:104518001400000014000000140000001400000043
:104528001400000014000000140000001400000033
:104538001400000014000000140000001400000023
:104548001400000014000000140000001400000013
:104558001400000014000000140000001400000003
:1045680014000000140000001400000014000000f3
:1045780014000000140000001400000014000000e3
:1045880014000000140000001400000014000000d3
:1045980014000000140000001400000014000000c3
:1045a80014000000140000001400000014000000b3
:1045b80014000000140000001400000014000000a3
:1045c8001400000014000000140000001400000093
:1045d80014000000140000000000000000000000ab
:1045e80000000000000000000000000000000000c3
:1045f80000000000000000000000000000000000b3
:1046080000000000000000000000000000000000a2
:104618000000000000000000000000000000000092
:104628000000000000000000000000000000000082
:104638000000000000000000000000000000000072
:104648001400000014000000140000001400000012
:10465800140000001400000000000000000000002a
:104668000000000000000000000000000000000042
:10467800000000000000000000000000140000001e
:1046880014000000140000001400000014000000d2
:1046980000000000000000001400000014000000ea
:1046a80000000000000000001400000014000000da
:1046b80014000000000000000000000000000000de
:1046c80000000000000000000000000000000000e2
:1046d8001400000014000000140000001400000082
:1046e8001400000014000000140000001400000072
:1046f8001400000014000000140000001400000062
:104708001400000014000000140000001400000051
:104718001400000014000000000000000000000069
:104728000000000000000000000000000000000081
:104738000000000000000000000000000000000071
:104748001400000014000000140000001400000011
:104758001400000014000000000000000000000029
:104768000000000000000000000000000000000041
:104778000000000000000000000000000000000031
:1047880014000000140000001400000014000000d1
:1047980000000000000000001400000014000000e9
:1047a80000000000000000001400000014000000d9
:1047b80014000000000000000000000000000000dd
:1047c80000000000000000000000000000000000e1
:1047d8001400000014000000140000001400000081
:1047e8001400000014000000140000001400000071
:1047f8001400000014000000140000001400000061
:104808000000000014000000140000001400000064
:104818001400000014000000140000001400000040
:104828000000000000000000140000001400000058
:104838001400000014000000140000001400000020
:104848001400000014000000140000001400000010
:104858001400000014000000140000001400000000
:1048680014000000140000001400000014000000f0
:1048780014000000140000001400000014000000e0
:1048880014000000140000001400000014000000d0
:1048980014000000140000001400000014000000c0
:1048a80014000000140000001400000014000000b0
:1048b80014000000140000001400000014000000a0
:1048c8001400000014000000140000001400000090
:1048d8001400000014000000140000001400000080
:1048e8001400000014000000140000001400000070
:1048f8001400000014000000140000001400000060
:10490800140000001400000014000000140000004f
:104918001400000014000000000000000000000067
:104928000000000000000000140000001400000057
:10493800140000001400000014000000140000001f
:10494800140000001400000014000000140000000f
:104958001400000014000000000000000000000027
:104968000000000014000000140000001400000003
:1049780014000000140000001400000014000000df
:1049880014000000140000001400000014000000cf
:1049980014000000140000000000000000000000e7
:1049a80000000000140000001400000014000000c3
:1049b800140000001400000014000000140000009f
:1049c800140000001400000014000000140000008f
:1049d80014000000140000000000000000000000a7
:1049e8000000000000000000140000001400000097
:1049f800140000001400000014000000140000005f
:104a0800140000001400000014000000140000004e
:104a18001400000014000000000000000000000066
:104a28000000000014000000140000001400000042
:104a3800140000001400000014000000140000001e
:104a4800140000001400000014000000140000000e
:104a58001400000014000000000000000000000026
:104a68000000000014000000140000001400000002
:104a78001400000014000000000000000000000006
:104a880000000000140000001400000014000000e2
:104a980014000000140000000000000000000000e6
:104aa80000000000000000000000000000000000fe
:020000040000fa
:104ab80003000000030000000300000002000000e3
:104ac80003000000000000000000000000000000db
:104ad80000000000000000000000000000000000ce
:104ae80000000000000000000000000000000000be
:104af80000000000000000000000000000000000ae
:104b0800000000000000000000000000000000009d
:104b1800000000000000000000000000000000008d
:104b2800000000000000000000000000000000007d
:104b3800000000000000000000000000000000006d
:104b4800000000000000000000000000000000005d
:104b5800000000000000000000000000000000004d
:104b6800000000000000000000000000000000003d
:104b7800000000000000000000000000000000002d
:104b8800000000000000000000000000000000001d
:104b9800000000000000000000000000000000000d
:104ba80000000000000000000000000000000000fd
:104bb80000000000000000000000000000000000ed
:104bc80000000000000000000000000000000000dd
:104bd80000000000000000000000000000000000cd
:104be80000000000000000000000000000000000bd
:104bf80000000000000000000000000000000000ad
:104c0800000000000000000000000000000000009c
:104c1800000000000000000000000000000000008c
:104c2800000000000000000000000000000000007c
:104c3800000000000000000000000000000000006c
:104c4800000000000000000000000000000000005c
:104c5800000000000000000000000000000000004c
:104c6800000000000000000000000000000000003c
:104c7800000000000000000000000000000000002c
:104c8800000000000000000000000000000000001c
:104c9800000000000000000000000000000000000c
:104ca80004000000050000000400000000000000ef
:104cb80005000000050000000500000000000000dd
:104cc80000000000050000000400000005000000ce
:104cd80000000000050000000500000005000000bd
:104ce80000000000000000000000000000000000bc
:104cf80000000000000000000000000000000000ac
:104d0800000000000000000000000000000000009b
:104d1800000000000000000000000000000000008b
:020000040000fa
:1055b800dc00000026010000720100002601000046
:1055c800f70000002601000072010000260100001b
:1055d800dc00000026010000720100002601000026
:1055e800f7000000260100007201000026010000fb
:1055f800dc00000026010000720100002601000006
:10560800f7000000260100007201000026010000da
:10561800dc000000260100007201000026010000e5
:10562800f7000000260100007201000026010000ba
:10563800dc0000004a010000880100004a01000067
:10564800dc0000004a010000880100004a01000057
:10565800dc000000150100008801000015010000b1
:10566800dc000000150100008801000015010000a1
:10567800dc00000026010000720100002601000085
:10568800f70000002601000072010000260100005a
:10569800dc00000026010000720100002601000065
:1056a800f70000002601000072010000260100003a
:1056b800dc00000026010000720100002601000045
:1056c800f70000002601000072010000260100001a
:1056d800dc00000026010000720100002601000025
:1056e800f7000000260100007201000026010000fa
:1056f800dc00000026010000720100002601000005
:10570800f7000000260100007201000026010000d9
:10571800dc000000260100007201000026010000e4
:10572800f7000000260100007201000026010000b9
:10573800dc0000004a010000880100004a01000066
:10574800dc0000004a010000880100004a01000056
:10575800dc000000150100008801000015010000b0
:10576800dc000000150100008801000015010000a0
:10577800e9000000260100005d010000b8010000fa
:10578800b8010000b801000000000000000000009f
:105798005d010000b80100005d010000000000008c
:1057a8004a010000880100004a01000000000000d2
:1057b8002601000026010000260100004a01000021
:1057c8005d0100005d0100005d0100005d01000059
:1057d8005d010000b80100005d010000000000004c
:1057e8004a010000880100004a0100000000000092
:1057f8002601000026010000260100004a010000e1
:105808005d0100005d0100005d0100005d01000018
:105818002601000088010000260100008801000020
:105828004a010000880100004a01000088010000c8
:105838005d010000b80100005d010000b801000032
:105848005d010000b80100005d010000b801000022
:1058580026010000880100002601000088010000e0
:1058680015010000880100001501000088010000f2
:10587800000000002601000072010000260100005f
:1058880000000000b80100007201000026010000bd
:10589800000000002601000072010000260100003f
:1058a80000000000b801000072010000260100009d
:1058b800000000002601000072010000260100001f
:1058c80000000000b801000072010000260100007d
:1058d80000000000260100007201000026010000ff
:1058e80000000000b801000072010000260100005d
:1058f80000000000260100007201000026010000df
:1059080000000000b801000072010000260100003c
:1059180000000000260100007201000026010000be
:1059280000000000b801000072010000260100001c
:10593800000000002601000072010000260100009e
:1059480000000000b80100007201000026010000fc
:10595800000000002601000072010000260100007e
:1059680000000000b80100007201000026010000dc
:105978009302000093020000e402000010030000fc
:1059880010030000100300009302000093020000bf
:105998002a0200002a0200004b02000093020000c5
:1059a8009302000093020000b8010000b801000053
:1059b800b8010000e4020000000000000000000040
:1059c80000000000000000000000000000000000cf
:1059d800000000000000000000000000b801000006
:1059e80010030000e402000093020000930200008c
:1059f800e4020000000000000000000000000000b9
:105a0800000000000000000000000000000000008e
:105a1800000000000000000000000000b8010000c5
:105a280010030000e402000093020000930200004b
:105a38000000000000000000e40200004b0200002b
:105a4800000000000000000093020000b801000000
:105a5800b801000000000000000000000000000085
:105a6800000000000000000000000000000000002e
:105a78009302000093020000e402000010030000fb
:105a880010030000100300009302000093020000be
:105a98002a0200002a0200004b02000093020000c4
:105aa80000000000b80100004b0200009302000053
:105ab800ba020000930200004b0200000b02000033
:105ac8000000000000000000b8010000d201000042
:105ad8000b0200000b020000ba020000ba0200002c
:105ae800930200004b0200004b0200000b02000072
:105af8004b0200000b0200000b0200000b0200002a
:105b08000b0200000b020000b8010000d2010000e7
:105b18000b0200000b020000ba020000ba020000eb
:105b280010030000ba020000930200004b020000bc
:105b38004b02000093020000ba020000ba02000003
:105b4800ba020000ba02000010030000700300004f
:105b5800a4030000a4030000700300007003000009
:105b68001003000010030000ba0200001003000038
:105b7800700300007003000010030000ba02000068
:105b8800ba020000ba0200004b0200000b0200003b
:105b98004b020000ba020000ba02000093020000a3
:105ba8009302000093020000e4020000e4020000f7
:105bb800e4020000e4020000000000000000000011
:105bc80000000000000000000000000000000000cd
:105bd80000000000000000000000000000000000bd
:105be80000000000000000000000000000000000ad
:105bf800000000000000000000000000000000009d
:105c0800000000000000000000000000000000008c
:105c1800000000000000000000000000000000007c
:105c280010030000e4020000930200009302000049
:105c380093020000e40200000000000000000000e1
:105c4800000000000000000000000000000000004c
:105c5800000000000000000000000000b801000083
:105c680010030000e4020000930200009302000009
:105c78000000000000000000e40200004b020000e9
:105c8800000000000000000093020000b8010000be
:105c9800b801000000000000000000000000000043
:105ca80000000000000000000000000000000000ec
:105cb8009302000093020000e402000010030000b9
:105cc800100300001003000093020000930200007c
:105cd8002a0200002a0200004b0200009302000082
:105ce8009302000093020000b8010000b801000010
:105cf800b8010000e4020000e40200000000000017
:105d0800000000000000000000000000000000008b
:105d1800000000000000000000000000000000007b
:105d280010030000e4020000930200009302000048
:105d380093020000e40200000000000000000000e0
:105d4800000000000000000000000000000000004b
:105d5800000000000000000000000000000000003b
:105d680010030000e4020000930200009302000008
:105d78000000000000000000e40200004b020000e8
:105d8800000000000000000093020000b8010000bd
:105d9800b801000000000000000000000000000042
:105da80000000000000000000000000000000000eb
:105db8009302000093020000e402000010030000b8
:105dc800100300001003000093020000930200007b
:105dd8002a0200002a0200004b0200009302000081
:105de80000000000b80100004b0200009302000010
:105df800ba020000930200004b0200000b020000f0
:105e08000000000000000000b8010000d2010000fe
:105e18000b0200000b020000ba020000ba020000e8
:105e2800930200004b0200004b0200000b0200002e
:105e38004b0200000b0200000b0200000b020000e6
:105e48000b0200000b020000b8010000d2010000a4
:105e58000b0200000b020000ba020000ba020000a8
:105e680010030000ba020000930200004b02000079
:105e78004b02000093020000ba020000ba020000c0
:105e8800ba020000ba02000010030000700300000c
:105e9800a4030000a40300007003000070030000c6
:105ea8001003000010030000ba02000010030000f5
:105eb800700300007003000010030000ba02000025
:105ec800ba020000ba0200004b02000006010000fe
:105ed8004b020000ba020000ba0200009302000060
:105ee8009302000093020000e4020000e4020000b4
:105ef800e4020000e40200000000000000000000ce
:105f080000000000000000007003000070030000a3
:105f1800a403000070030000e40200004b0200002c
:105f28004b02000093020000e4020000e4020000bb
:105f3800e4020000e402000000000000000000008d
:105f480000000000700300007003000070030000f0
:105f5800dc03000070030000e40200004b020000b4
:105f68004b02000093020000e4020000e40200007b
:105f7800e4020000e402000000000000000000004d
:105f880000000000700300007003000070030000b0
:105f9800dc03000070030000e40200004b02000074
:105fa8004b02000093020000e4020000e40200003b
:105fb800e4020000e402000000000000000000000d
:105fc80000000000000000007003000070030000e3
:105fd800dc03000070030000e40200004b02000034
:105fe8004b02000093020000e4020000e4020000fb
:105ff800e4020000e40200000000000000000000cd
:10600800000000007003000070030000700300002f
:10601800dc03000070030000e40200004b020000f3
:106028004b02000093020000e4020000e4020000ba
:10603800e4020000e402000000000000000000008c
:10604800000000001003000070030000700300004f
:106058007003000070030000000000000000000052
:106068000000000010030000e4020000e402000049
:10607800e4020000e402000000000000000000004c
:106088000000000000000000000000000000000008
:020000040000fa
:1060980000000000000000000000000000000000f8
:1060a8000c0000000c0000000c0000000c000000b8
:1060b8000c0000000c0000000c0000000c000000a8
:1060c8000c0000000c0000000c0000000c00000098
:1060d8000c0000000c0000000c0000000c00000088
:1060e8000c0000000c0000000c0000000c00000078
