:020000040000fa
:080000000002040000000000f2
:020000040000fa
:040008008605000069
:020000040000fa
:04000c008605000065
:020000040000fa
:040010008605000061
:020000040000fa
:04001400860500005d
:020000040000fa
:040018008605000059
:020000040000fa
:04001c008605000055
:020000040000fa
:040020008605000051
:020000040000fa
:04002400860500004d
:020000040000fa
:040028008605000049
:020000040000fa
:04002c008605000045
:020000040000fa
:040030008605000041
:020000040000fa
:0400340004030000c1
:020000040000fa
:040038008605000039
:020000040000fa
:04003c008605000035
:020000040000fa
:040040008605000031
:020000040000fa
:04004400860500002d
:020000040000fa
:040048008605000029
:020000040000fa
:04004c008605000025
:020000040000fa
:040050008605000021
:020000040000fa
:04005400dc040000c8
:020000040000fa
:040058002605000079
:020000040000fa
:04005c008605000015
:020000040000fa
:040060008605000011
:020000040000fa
:04006400860500000d
:020000040000fa
:040068008605000009
:020000040000fa
:04006c008605000005
:020000040000fa
:040070008605000001
:020000040000fa
:0400740086050000fd
:020000040000fa
:0400780086050000f9
:020000040000fa
:04007c0086050000f5
:020000040000fa
:0400800086050000f1
:020000040000fa
:0400840086050000ed
:020000040000fa
:0400880086050000e9
:020000040000fa
:04008c0086050000e5
:020000040000fa
:0400900086050000e1
:020000040000fa
:0400940086050000dd
:020000040000fa
:0400980086050000d9
:020000040000fa
:04009c0086050000d5
:020000040000fa
:0400a00086050000d1
:020000040000fa
:0400a40086050000cd
:020000040000fa
:0400a80086050000c9
:020000040000fa
:0400ac0086050000c5
:020000040000fa
:0400b00086050000c1
:020000040000fa
:0400b40086050000bd
:020000040000fa
:0400b80086050000b9
:020000040000fa
:0400bc0086050000b5
:020000040000fa
:0400c00086050000b1
:020000040000fa
:0400c40086050000ad
:020000040000fa
:0400c80086050000a9
:020000040000fa
:0400cc0086050000a5
:020000040000fa
:0400d00086050000a1
:020000040000fa
:0400d400860500009d
:020000040000fa
:0400d8008605000099
:020000040000fa
:0400dc008605000095
:020000040000fa
:0400e0008605000091
:020000040000fa
:0400e400860500008d
:020000040000fa
:0400e8008605000089
:020000040000fa
:0400ec008605000085
:020000040000fa
:0400f0008605000081
:020000040000fa
:0400f400860500007d
:020000040000fa
:0400f8008605000079
:020000040000fa
:0400fc008605000075
:020000040000fa
:040100008605000070
:020000040000fa
:04010400860500006c
:020000040000fa
:040108008605000068
:020000040000fa
:04010c008605000064
:020000040000fa
:040110008605000060
:020000040000fa
:04011400860500005c
:020000040000fa
:040118008605000058
:020000040000fa
:04011c008605000054
:020000040000fa
:040120008605000050
:020000040000fa
:04012400860500004c
:020000040000fa
:040128008605000048
:020000040000fa
:04012c008605000044
:020000040000fa
:040130008605000040
:020000040000fa
:04013400860500003c
:020000040000fa
:040138008605000038
:020000040000fa
:04013c008605000034
:020000040000fa
:040140008605000030
:020000040000fa
:04014400860500002c
:020000040000fa
:040148008605000028
:020000040000fa
:04014c008605000024
:020000040000fa
:040150008605000020
:020000040000fa
:04015400860500001c
:020000040000fa
:040158008605000018
:020000040000fa
:04015c008605000014
:020000040000fa
:040160008605000010
:020000040000fa
:04016400860500000c
:020000040000fa
:040168008605000008
:020000040000fa
:04016c008605000004
:020000040000fa
:040170008605000000
:020000040000fa
:0401740086050000fc
:020000040000fa
:0401780086050000f8
:020000040000fa
:04017c0086050000f4
:020000040000fa
:0401800086050000f0
:020000040000fa
:0401840086050000ec
:020000040000fa
:0401880086050000e8
:020000040000fa
:04018c0086050000e4
:020000040000fa
:0401900086050000e0
:020000040000fa
:0401940086050000dc
:020000040000fa
:0401980086050000d8
:020000040000fa
:04019c0086050000d4
:020000040000fa
:0401a00086050000d0
:020000040000fa
:0401a40086050000cc
:020000040000fa
:0401a80086050000c8
:020000040000fa
:0401ac0086050000c4
:020000040000fa
:0401b00086050000c0
:020000040000fa
:0401b40086050000bc
:020000040000fa
:0401b80084040000bb
:020000040000fa
:040208008605000067
:020000040000fa
:04020c008605000063
:020000040000fa
:04021000860500005f
:020000040000fa
:04021400860500005b
:020000040000fa
:040218008605000057
:020000040000fa
:04021c008605000053
:020000040000fa
:04022000860500004f
:020000040000fa
:04022400860500004b
:020000040000fa
:040228008605000047
:020000040000fa
:04022c008605000043
:020000040000fa
:04023000860500003f
:020000040000fa
:0402340004030000bf
:020000040000fa
:040238008605000037
:020000040000fa
:04023c008605000033
:020000040000fa
:04024000860500002f
:020000040000fa
:04024400860500002b
:020000040000fa
:040248008605000027
:020000040000fa
:04024c008605000023
:020000040000fa
:04025000860500001f
:020000040000fa
:04025400dc040000c6
:020000040000fa
:040258002605000077
:020000040000fa
:04025c008605000013
:020000040000fa
:04026000860500000f
:020000040000fa
:04026400860500000b
:020000040000fa
:040268008605000007
:020000040000fa
:04026c008605000003
:020000040000fa
:0402700086050000ff
:020000040000fa
:0402740086050000fb
:020000040000fa
:0402780086050000f7
:020000040000fa
:04027c0086050000f3
:020000040000fa
:0402800086050000ef
:020000040000fa
:0402840086050000eb
:020000040000fa
:0402880086050000e7
:020000040000fa
:04028c0086050000e3
:020000040000fa
:0402900086050000df
:020000040000fa
:0402940086050000db
:020000040000fa
:0402980086050000d7
:020000040000fa
:04029c0086050000d3
:020000040000fa
:0402a00086050000cf
:020000040000fa
:0402a40086050000cb
:020000040000fa
:0402a80086050000c7
:020000040000fa
:0402ac0086050000c3
:020000040000fa
:0402b00086050000bf
:020000040000fa
:0402b40086050000bb
:020000040000fa
:0402b80086050000b7
:020000040000fa
:0402bc0086050000b3
:020000040000fa
:0402c00086050000af
:020000040000fa
:0402c40086050000ab
:020000040000fa
:0402c80086050000a7
:020000040000fa
:0402cc0086050000a3
:020000040000fa
:0402d000860500009f
:020000040000fa
:0402d400860500009b
:020000040000fa
:0402d8008605000097
:020000040000fa
:0402dc008605000093
:020000040000fa
:0402e000860500008f
:020000040000fa
:0402e400860500008b
:020000040000fa
:0402e8008605000087
:020000040000fa
:0402ec008605000083
:020000040000fa
:0402f000860500007f
:020000040000fa
:0402f400860500007b
:020000040000fa
:0402f8008605000077
:020000040000fa
:0402fc008605000073
:020000040000fa
:04030000860500006e
:020000040000fa
:04030400860500006a
:020000040000fa
:040308008605000066
:020000040000fa
:04030c008605000062
:020000040000fa
:04031000860500005e
:020000040000fa
:04031400860500005a
:020000040000fa
:040318008605000056
:020000040000fa
:04031c008605000052
:020000040000fa
:04032000860500004e
:020000040000fa
:04032400860500004a
:020000040000fa
:040328008605000046
:020000040000fa
:04032c008605000042
:020000040000fa
:04033000860500003e
:020000040000fa
:04033400860500003a
:020000040000fa
:040338008605000036
:020000040000fa
:04033c008605000032
:020000040000fa
:04034000860500002e
:020000040000fa
:04034400860500002a
:020000040000fa
:040348008605000026
:020000040000fa
:04034c008605000022
:020000040000fa
:04035000860500001e
:020000040000fa
:04035400860500001a
:020000040000fa
:040358008605000016
:020000040000fa
:04035c008605000012
:020000040000fa
:04036000860500000e
:020000040000fa
:04036400860500000a
:020000040000fa
:040368008605000006
:020000040000fa
:04036c008605000002
:020000040000fa
:0403700086050000fe
:020000040000fa
:0403740086050000fa
:020000040000fa
:0403780086050000f6
:020000040000fa
:04037c0086050000f2
:020000040000fa
:0403800086050000ee
:020000040000fa
:0403840086050000ea
:020000040000fa
:0403880086050000e6
:020000040000fa
:04038c0086050000e2
:020000040000fa
:0403900086050000de
:020000040000fa
:0403940086050000da
:020000040000fa
:0403980086050000d6
:020000040000fa
:04039c0086050000d2
:020000040000fa
:0403a00086050000ce
:020000040000fa
:0403a40086050000ca
:020000040000fa
:0403a80086050000c6
:020000040000fa
:0403ac0086050000c2
:020000040000fa
:0403b00086050000be
:020000040000fa
:0403b40086050000ba
:020000040000fa
:0403b80084040000b9
:020000040000fa
:10040000efb220000ebf25000e01880000000000a2
:10041000000020000000e000020032000001200087
:100420002002880014000700ba0107000000e00065
:1004300003003a00404a2600010020000200370075
:100440000000200001002000810f70000100320038
:1004500014000700000020000000e000020032004d
:1004600000000200000000007864020000000000ac
:100470000040da000000fe004440a90020002000f7
:100480000000e0000300320010002000900188000e
:100490004440a800000006008a1f78008b1f7800e7
:1004a00000000600a1028800800478000000eb0034
:1004b0001f003700e284440054a0b4009905ba003c
:1004c000e284440054a0b4009906ba00e2844400d7
:1004d00054a0b4000006eb00476fde00fd07b20039
:1004e000ae018800636ce10003003a00eaff0700f8
:1004f0000000eb000e003700606ce10008003a00dd
:10050000004deb000a05e800020039003420ec0041
:100510000af0a0008b05e900f9ff3e000400370057
:100520006168e100010032000086eb000b0007006b
:1005300019c7ba001905ba000e04e00003003a001a
:100540000a00e000dbff3a0000000600fe07b200f0
:10055000ae0288008a047800f5ff37000cd0a300b3
:10056000e20f4d001c00390089027800354dba00b9
:100570000a05e800020039003420ec000af0a0006f
:100580008b05e9000f003200254dba000a05e8008e
:10059000020039003420ec000af0a0008b05e900cd
:1005a000080032000c00e0000600320015cdba0051
:1005b0000a05e800020039003420ec000af0a0002f
:1005c0008b05e9008984e80054a0b4000b00e0002a
:1005d000e2ff3a00000006009902ba00055d7800cb
:1005e0008b05e900f7ff3200c82ade00055d7800c0
:1005f0008b05e900f3ff32000c00e000f1ff320050
:1006000019ddba00eeff3700809fbe00829fbe005a
:10061000849fbe00869fbe00889fbe008a9fbe004a
:100620008c1f78003200f8003400f8001000200021
:10063000a001880010002000900188000200fa004c
:100640000005eb000a0f78000a4080004955de00e3
:100650008005eb000a0545008b854d002c832000aa
:100660000c0545009a057800ba4080000addb90003
:100670000a0578000a0f78001a4080004955de000c
:100680008005eb000a0545008b854d002c9320006a
:100690000c0545009a057800ca4080000addb900c3
:1006a0000a0578001e0f45002a4080004955de00eb
:1006b0008005eb000a0545008b854d002c9320003a
:1006c0000c0545009a057800da4080000addb90083
:1006d0000a0578001e0f45003a408000c955de002b
:1006e000caff2f000a8565008005eb000a0545005a
:1006f0008b854d002c8320000c0545009a05780061
:10070000ea4080000addb9000a0578001e0f4500a6
:100710009e0578000a0028000a856d000a0f7800ff
:100720001e0578005a1688000b4080004a40800061
:100730000a8545000a4088001b4080005a4080001e
:100740000a8545001a4088002b4080006a408000de
:100750000a8545002a4088003b4080007a4080009e
:100760000a8545003a4088009a4080000a05e80062
:100770009a4088009b4080000a0024008a8f550020
:1007800055003a001228ef00aa4080000a05e80050
:10079000aa408800ab408000ca2b20008a8f5500f9
:1007a00002003a0005e1a9001428ef00aa408000e9
:1007b0008005eb000a0545008b854d00a845240007
:1007c000091020000804450089844d009a0180002a
:1007d00008f0a4008984d2009901880018047800e8
:1007e0009a01880048408800a84080008004eb00ff
:1007f0000804440089844c00269d24000710200032
:100800000603440087834c009801800006f0a40092
:100810008783d2009701880016037800980188002a
:1008200056408800a64080008003eb00060343008a
:1008300087834b00a4f42400051020000402430029
:1008400085824b009601800004f0a4008582d200ce
:1008500095018800140278009601880064408800a1
:10086000a44080008002eb000402420085824a001e
:10087000224c2500031020000201420083814a001f
:100880009401800002f0a4008381d20093018800cb
:10089000120178009401880072408800a240800014
:1008a0008001eb000201410083814900a0a32500e3
:1008b0000110200000004100818049009201800069
:1008c00000f0a4008180d20091018800100078001f
:1008d00092018800804088008460a9000080fa00ae
:1008e0003400f9003200f9004f0678004f05be00d1
:1008f0004f04be004f03be004f02be004f01be00ba
:100900004f00be00004006003600f800809fbe0089
:10091000829fbe00849fbe00869fbe003200f8000a
:100920003400f80010002000a00188001000200012
:10093000900188000000fa005038800070006000cc
:100940000000e0000d003200004180000000e800df
:10095000004188001e28ef002228ef000a87a90026
:1009600000418000670060000000e00008003a00dd
:10097000be43020000000000050037005038800030
:10098000680060000000e000010032000a67a90072
:100990009080a9000080fa003400f9003200f900cc
:1009a0004f03be004f02be004f01be004f00be000d
:1009b0003600f90000400600809fbe00829fbe0006
:1009c000841f78003200f8003400f8001000200086
:1009d000a001880010002000900188000000fa00ab
:1009e00042822000124178000280fb003111800019
:1009f00081417800cf80de0064af2000000042001b
:100a0000034878000240e80024e8b70024c8bf008b
:100a10006f40600024e8b70026c8bf000040e8002f
:100a200026e8b7002004800000b0a1002004880060
:100a30000080fa003400f9003200f9004f0278001b
:100a40004f01be004f00be0000400600809fbe0068
:100a5000829fbe003200f8003400f8001000200031
:100a6000a001880010002000900188000000fa001a
:100a70001a00370082822000124178000280fb00b9
:100a8000cf80de0063b0200000804100104078007d
:100a90000080fb00201188000240e80028e8b70031
:100aa00028c8bf006f40600028e8b70029c8bf0011
:100ab0000040e90029e8b700111180000020200063
:100ac000008060000000e00004003200200480008c
:100ad00000c0a100200488000600370029c8bf001c
:100ae0000004e000e3ff3a00a004800000c0a10081
:100af000a00488000080fa003400f9003200f900f8
:100b00004f01be004f00be00004006000040da006a
:100b10000000fe000000050003f0a200889fbe0058
:100b20008a9fbe008c1f7800f90007000001330087
:100b30006450e1004f0032006420e10052003200b6
:100b400003826c0007003b000905d0000306d000bb
:100b5000820f54000c065d000200390002003200d2
:100b600089017800030678008582550004003d0065
:100b70000003fd008103fd008502ea008b85420031
:100b8000840f720002003b0060001000e08018003b
:100b90006011b8000005eb007a28e1000a00390076
:100ba00006007800c75ddd00f707b200878075009a
:100bb0002d003700828171000a0178006105600014
:100bc0008180d1000080d3008502e900f9ff3b005d
:100bd000060440008784480002003b0060041400c3
:100be000e0841c000988a300070032008a8171009c
:100bf00082817100610164008904d1000884d300fe
:100c00008b05e800170037000978a30013003a00ad
:100c10000b00e000130034008b05e90008044400d9
:100c200089844c000a4474000978a3000d003a003e
:100c30000b00e000070034008b05e90008044400c5
:100c400089844c0001003a000b0020000978a300c1
:100c5000f7ff32000001eb000200370082817100d3
:100c60000a0178006f0007000cf0a70001f0a00057
:100c7000b80037006420e10002003a00838f6c0066
:100c8000b80033000801be000200be00b10037000a
:100c9000889fbe008a9fbe008c1f78009c000700c2
:100ca000a300330003866c006450e1002e00320084
:100cb0006420e100330032006150e1002f00320077
:100cc0006120e1003100320085855500eb07b0005e
:100cd0000900200008042000050037000804440033
:100ce00089844c000a0031000603430087834b00cf
:100cf0000001530081815b00f8ff33000203be0056
:100d00000800a0000804440089844c00f6ff390064
:100d1000c639dd008301730001003200130020009a
:100d20008904d1000884d3000998a300050032008b
:100d30000800a7000300a0008904d1000884d300a4
:100d40008b05e8008904d1000884d3000001eb0082
:100d50000281d2003300070001f0a1000cf0a700cf
:100d600001f0a0007b0037006420e1007d0032002c
:100d70000801be000200be00f7ff37006120e1005d
:100d8000780032006000b800f3ff37000000200058
:100d900001f82700f0ff3700f4ff2f008400370030
:100da0000001be00450007000470a70003f0a10089
:100db0006509b100160032000d0035006828e10019
:100dc00006003500f0ff2f00f1ff27000300e000d0
:100dd00013003b0001002800000005000000400057
:100de000818048008502e900fcff3a0008003700d6
:100df000f88f420002003c008000eb00000005007c
:100e00008100d1000080d3008502e800fcff3a0099
:100e10000300e00002003b0060001000e0801800ca
:100e20000000060081002000618055000b003d009d
:100e30000b00200061fe2f000100e1001d003400c6
:100e400082817100610164008904d1000884d300ab
:100e50000000e800faff3a00710020006100640021
:100e600003007000020060000900320061044400c9
:100e7000e0844c000988a500050032008b05e800dd
:100e80006808e10002003a008904d1000884d30018
:100e9000f20f20000258e10005003d00c75ddd00b3
:100ea000f907b2008980750008007800000006008c
:100eb0000bf827008b00780000000500c70ade0051
:100ec000f107b200f50fb20008003200e1cf420096
:100ed000020032000170a00024000500810f7000a4
:100ee000010032000408050044000500810f700075
:100ef00002003a00140005008502e90000004000ed
:100f000081c04800fcff3b000170a00024000500e8
:100f10000004be00e9ff07000003be000405be0098
:100f20000200be00e5ff0700844f750000000600c8
:100f30000200be006450e100050036006420e100bc
:100f4000020036000968a30001003a000800be0054
:100f50000160a0004f0678004f05be004f04be00a0
:100f600000000600f0ff2f00f1ff2700f9ff370017
:100f70006022b800060220000000d0008180d2006c
:100f80000482d2008582d2000000a000020252003a
:100f900083825a00030031000202420083824a0029
:100fa0000000a1000603e900f3ff3a00000006007c
:100fb000889fbe008a9fbe00841f7800d4ff070070
:100fc0004f00780011003300f0ff2f00838f6c007a
:100fd00006003b00040565000a00a7000800370072
:100fe00009f0a6001000200008003700820f54000e
:100ff000838f5c00030039001000200001003e00d8
:101000000000200009f0a7000000ea004f05be0024
:0c1010004f04be000000e00000000600dd
:020000040000fa
:10101c0000000000000000000000000000000000c4
:10102c0000000000000000000000000000000000b4
:10103c0000000000000000000000000000000000a4
:10104c000000000000000000000000000000000094
:10105c000000000000000000000000000000000084
:10106c000000000000000000000000000000000074
:10107c00000000000001000001010000010100005f
:10108c00010100000101000001000000000000004f
:10109c000000000000000000000000000000000044
:1010ac000000000000000000000000000000000034
:1010bc000000000000000000000000000000000024
:1010cc000000000000000000000000000000000014
:1010dc000000000000000000000000000000000004
:1010ec0000000000000000000000000000000000f4
:1010fc0000000000000000000000000000000000e4
:10110c0000000000000000000000000000000000d3
:10111c0001010000010100000101000001010000bb
:10112c0001010000010100000101000001010000ab
:10113c00010100000101000001010000010100009b
:10114c00010100000101000001010000010100008b
:10115c000101000001010000010100000303000077
:10116c000303000001010000010100000101000067
:10117c00010100000101000000000000000000005f
:10118c000000000000000000000000000000000053
:10119c000000000000000000000000000000000043
:1011ac000000000000000000000000000000000033
:1011bc000000000000000000000000000000000023
:1011cc000000000000000000000000000000000013
:1011dc000000000000000000000000000000000003
:1011ec0000000000000000000000000000000000f3
:1011fc0001020000020200000202000002020000d4
:10120c0002020000020200000202000002020000c2
:10121c0002020000020200000202000002020000b2
:10122c0002020000020200000202000002020000a2
:10123c00010300000303000003030000030300008c
:10124c00030300000303000003030000030300007a
:10125c000303000003010000010100000101000074
:10126c000000000000000000000000000000000072
:10127c000000000000000000000000000000000062
:10128c000000000000000000000000000000000052
:10129c000000000000000000000000000000000042
:1012ac000000000000000000000000000000000032
:1012bc000000000000000000000000000000000022
:1012cc000000000000000000000000000000000012
:1012dc0001020000020200000202000002020000f3
:1012ec0002020000020200000202000002020000e2
:1012fc0002020000020200000202000002020000d2
:10130c0002020000020200000202000002020000c1
:10131c0001030000030300000303000003030000ab
:10132c000303000003030000030300000303000099
:10133c00030300000303000003030000030100008b
:10134c00010100000100000000000000000000008e
:10135c000000000000000000000000000000000081
:10136c000000000000000000000000000000000071
:10137c000000000000000000000000000000000061
:10138c000000000000000000000000000000000051
:10139c000000000000000000000000000000000041
:1013ac000000000000000000000000000000000031
:1013bc000102000002020000020200000202000012
:1013cc000202000002020000020200000202000001
:1013dc0002020000020200000202000002020000f1
:1013ec0002020000020200000202000002020000e1
:1013fc0001030000030300000303000003030000cb
:10140c0003030000030300000303000003030000b8
:10141c0003030000030300000303000003030000a8
:10142c0003030000010100000101000000000000a6
:10143c0000000000000000000000000000000000a0
:10144c000000000000000000000000000000000090
:10145c000000000000000000000000000000000080
:10146c000000000000000000000000000000000070
:10147c000000000000000000000000000000000060
:10148c000000000000000000000000000000000050
:10149c000102000002020000020200000202000031
:1014ac000202000002020000020200000202000020
:1014bc000202000002020000020200000202000010
:1014cc000202000002020000020200000202000000
:1014dc0001030000030300000303000003030000ea
:1014ec0003030000030300000303000003030000d8
:1014fc0003030000030300000303000003030000c8
:10150c0003030000030300000301000001010000bd
:10151c0000000000000000000000000000000000bf
:10152c0000000000000000000000000000000000af
:10153c00000000000000000000000000000000009f
:10154c00000000000000000000000000000000008f
:10155c00000000000000000000000000000000007f
:10156c00000000000000000000000000000000006f
:10157c000102000002020000020200000202000050
:10158c00020200000202000002020000020200003f
:10159c00020200000202000002020000020200002f
:1015ac00020200000202000002020000020200001f
:1015bc000103000003030000030300000303000009
:1015cc0003030000030300000303000003030000f7
:1015dc0003030000030300000303000003030000e7
:1015ec0003030000030300000303000003010000d9
:1015fc0001010000000000000000000000000000dd
:10160c0000000000000000000000000000000000ce
:10161c0000000000000000000000000000000000be
:10162c0000000000000000000000000000000000ae
:10163c00000000000000000000000000000000009e
:10164c00000000000000000000000000000000008e
:10165c00010200000202000002020000020200006f
:10166c00020200000202000002020000020200005e
:10167c00020200000202000002020000020200004e
:10168c00020200000202000002020000020200003e
:10169c000103000003030000030300000303000028
:1016ac000303000003030000030300000303000016
:1016bc000303000003030000030300000303000006
:1016cc0003030000030300000303000003030000f6
:1016dc0003010000010100000000000000000000f8
:1016ec0000000000000000000000000000000000ee
:1016fc0000000000000000000000000000000000de
:10170c0000000000000000000000000000000000cd
:10171c0000000000000000000000000000000000bd
:10172c0000000000000000000000000000000000ad
:10173c00010200000202000002020000020200008e
:10174c00020200000202000002020000020200007d
:10175c00020200000202000002020000020200006d
:10176c00020200000202000002020000020200005d
:10177c000103000003030000030300000303000047
:10178c000303000003030000030300000303000035
:10179c000303000003030000030300000303000025
:1017ac000303000003030000030300000303000015
:1017bc000303000003010000010000000000000012
:1017cc00000000000000000000000000000000000d
:1017dc0000000000000000000000000000000000fd
:1017ec0000000000000000000000000000000000ed
:1017fc0000000000000000000000000000000000dd
:10180c0000000000000000000000000000000000cc
:10181c0001020000020200000202000002020000ad
:10182c00020200000202000002020000020200009c
:10183c00020200000202000002020000020200008c
:10184c00020200000202000002020000020200007c
:10185c000103000003030000030300000303000066
:10186c000303000003030000030300000303000054
:10187c000303000003030000030300000303000044
:10188c000303000003030000030300000303000034
:10189c00030300000303000003010000010000002b
:1018ac00000000000000000000000000000000002c
:1018bc00000000000000000000000000000000001c
:1018cc00000000000000000000000000000000000c
:1018dc0000000000000000000000000000000000fc
:1018ec0000000000000000000000000000000000ec
:1018fc0001020000020200000202000002020000cd
:10190c0002020000020200000202000002020000bb
:10191c0002020000020200000202000002020000ab
:10192c00020200000202000002020000020200009b
:10193c000103000003030000030300000303000085
:10194c000303000003030000030300000303000073
:10195c000303000003030000030300000303000063
:10196c000303000003030000030300000303000053
:10197c000303000003030000030300000101000047
:10198c00000000000000000000000000000000004b
:10199c00000000000000000000000000000000003b
:1019ac00000000000000000000000000000000002b
:1019bc00000000000000000000000000000000001b
:1019cc00000000000000000000000000000000000b
:1019dc0001020000020200000202000002020000ec
:1019ec0002020000020200000202000002020000db
:1019fc0002020000020200000202000002020000cb
:101a0c0002020000020200000202000002020000ba
:101a1c0001030000030300000303000003030000a4
:101a2c000303000003030000030300000303000092
:101a3c000303000003030000030300000303000082
:101a4c000303000003030000030300000303000072
:101a5c000303000003030000030300000303000062
:101a6c000101000000000000000000000000000068
:101a7c00000000000000000000000000000000005a
:101a8c00000000000000000000000000000000004a
:101a9c00000000000000000000000000000000003a
:101aac00000000000000000000000000000000002a
:101abc00010200000202000002020000020200000b
:101acc0002020000020200000202000002020000fa
:101adc0002020000020200000202000002020000ea
:101aec0002020000020200000202000002020000da
:101afc0001030000030300000303000003030000c4
:101b0c0003030000030300000303000003030000b1
:101b1c0003030000030300000303000003030000a1
:101b2c000303000003030000030300000303000091
:101b3c000303000003030000030300000303000081
:101b4c000301000001000000000000000000000084
:101b5c000000000000000000000000000000000079
:101b6c000000000000000000000000000000000069
:101b7c000000000000000000000000000000000059
:101b8c000000000000000000000000000000000049
:101b9c00010200000202000002020000020200002a
:101bac000202000002020000020200000202000019
:101bbc000202000002020000020200000202000009
:101bcc0002020000020200000202000002020000f9
:101bdc0001030000030300000303000003030000e3
:101bec0003030000030300000303000003030000d1
:101bfc0003030000030300000303000003030000c1
:101c0c0003030000030300000303000003030000b0
:101c1c0003030000030300000303000003030000a0
:101c2c0003030000010100000000000000000000a0
:101c3c000000000000000000000000000000000098
:101c4c000000000000000000000000000000000088
:101c5c000000000000000000000000000000000078
:101c6c000000000000000000000000000000000068
:101c7c000102000002020000020200000202000049
:101c8c000202000002020000020200000202000038
:101c9c000202000002020000020200000202000028
:101cac000202000002020000020200000202000018
:101cbc000103000003030000030300000303000002
:101ccc0003030000030300000303000003030000f0
:101cdc0003030000030300000303000003030000e0
:101cec0003030000030300000303000003030000d0
:101cfc0003030000030300000303000003030000c0
:101d0c0003030000030300000100000000000000ba
:101d1c0000000000000000000000000000000000b7
:101d2c0000000000000000000000000000000000a7
:101d3c000000000000000000000000000000000097
:101d4c000000000000000000000000000000000087
:101d5c000102000002020000020200000202000068
:101d6c000202000002020000020200000202000057
:101d7c000202000002020000020200000202000047
:101d8c000202000002020000020200000202000037
:101d9c000103000003030000030300000303000021
:101dac00030300000303000003030000030300000f
:101dbc0003030000030300000303000003030000ff
:101dcc0003030000030300000303000003030000ef
:101ddc0003030000030300000303000003030000df
:101dec0003030000030300000301000000000000d7
:101dfc0000000000000000000000000000000000d7
:101e0c0000000000000000000000000000000000c6
:101e1c0000000000000000000000000000000000b6
:101e2c0000000000000000000000000000000000a6
:101e3c000102000002020000020200000202000087
:101e4c000202000002020000020200000202000076
:101e5c000202000002020000020200000202000066
:101e6c000202000002020000020200000202000056
:101e7c000103000003030000030300000303000040
:101e8c00030300000303000003030000030300002e
:101e9c00030300000303000003030000030300001e
:101eac00030300000303000003030000030300000e
:101ebc0003030000030300000303000003030000fe
:101ecc0003030000030300000303000001010000f2
:101edc0000000000000000000000000000000000f6
:101eec0000000000000000000000000000000000e6
:101efc0000000000000000000000000000000000d6
:101f0c0000000000000000000000000000000000c5
:101f1c0001020000020200000202000002020000a6
:101f2c000202000002020000020200000202000095
:101f3c000202000002020000020200000202000085
:101f4c000202000002020000020200000202000075
:101f5c00010300000303000003030000030300005f
:101f6c00030300000303000003030000030300004d
:101f7c00030300000303000003030000030300003d
:101f8c00030300000303000003030000030300002d
:101f9c00030300000303000003030000030300001d
:101fac00030300000303000003030000030100000f
:101fbc000000000000000000000000000000000015
:101fcc000000000000000000000000000000000005
:101fdc0000000000000000000000000000000000f5
:101fec0000000000000000000000000000010000e4
:101ffc0001020000020200000202000002020000c6
:10200c0002020000020200000202000002020000b4
:10201c0002020000020200000202000002020000a4
:10202c000202000002020000020200000202000094
:10203c00010300000303000003030000030300007e
:10204c00030300000303000003030000030300006c
:10205c00030300000303000003030000030300005c
:10206c00030300000303000003030000030300004c
:10207c00030300000303000003030000030300003c
:10208c00030300000303000003030000030300002c
:10209c000100000000000000000000000000000033
:1020ac000000000000000000000000000000000024
:1020bc000000000000000000000000000000000014
:1020cc000000000000000000000000000101000002
:1020dc0001020000020200000202000002020000e5
:1020ec0002020000020200000202000002020000d4
:1020fc0002020000020200000202000002020000c4
:10210c0002020000020200000202000002020000b3
:10211c00010300000303000003030000030300009d
:10212c00030300000303000003030000030300008b
:10213c00030300000303000003030000030300007b
:10214c00030300000303000003030000030300006b
:10215c00030300000303000003030000030300005b
:10216c00030300000303000003030000030300004b
:10217c00030100000000000000000000000000004f
:10218c000000000000000000000000000000000043
:10219c000000000000000000000000000000000033
:1021ac00000000000000000000010000010300001e
:1021bc000102000002020000020200000202000004
:1021cc0002020000020200000202000002020000f3
:1021dc0002020000020200000202000002020000e3
:1021ec0002020000020200000202000002020000d3
:1021fc0001030000030300000303000003030000bd
:10220c0003030000030300000303000003030000aa
:10221c00030300000303000003030000030300009a
:10222c00030300000303000003030000030300008a
:10223c00030300000303000003030000030300007a
:10224c00030300000303000003030000030300006a
:10225c00030300000100000000000000000000006b
:10226c000000000000000000000000000000000062
:10227c000000000000000000000000000000000052
:10228c00000000000000000001010000030300003a
:10229c000102000002020000020200000202000023
:1022ac000202000002020000020200000202000012
:1022bc000202000002020000020200000202000002
:1022cc0002020000020200000202000002020000f2
:1022dc0001030000030300000303000003030000dc
:1022ec0003030000030300000303000003030000ca
:1022fc0003030000030300000303000003030000ba
:10230c0003030000030300000303000003030000a9
:10231c000303000003030000030300000303000099
:10232c000303000003030000030300000303000089
:10233c000303000001010000000000000000000089
:10234c000000000000000000000000000000000081
:10235c000000000000000000000000000000000071
:10236c000000000000000000010300000303000057
:10237c000102000002020000020200000202000042
:10238c000202000002020000020200000202000031
:10239c000202000002020000020200000202000021
:1023ac000202000002020000020200000202000011
:1023bc0001030000030300000303000003030000fb
:1023cc0003030000030300000303000003030000e9
:1023dc0003030000030300000303000003030000d9
:1023ec0003030000030300000303000003030000c9
:1023fc0003030000030300000303000003030000b9
:10240c0003030000030300000303000003030000a8
:10241c0003030000030100000100000000000000a5
:10242c0000000000000000000000000000000000a0
:10243c000000000000000000000000000000000090
:10244c000000000000010000030300000303000073
:10245c000102000002020000020200000202000061
:10246c000202000002020000020200000202000050
:10247c000202000002020000020200000202000040
:10248c000202000002020000020200000202000030
:10249c00010300000303000003030000030300001a
:1024ac000303000003030000030300000303000008
:1024bc0003030000030300000303000003030000f8
:1024cc0003030000030300000303000003030000e8
:1024dc0003030000030300000303000003030000d8
:1024ec0003030000030300000303000003030000c8
:1024fc0003030000030300000100000000000000c3
:10250c0000000000000000000000000000000000bf
:10251c0000000000000000000000000000000000af
:10252c000000000001010000030300000303000091
:10253c000102000002020000020200000202000080
:10254c00020200000202000002020000020200006f
:10255c00020200000202000002020000020200005f
:10256c00020200000202000002020000020200004f
:10257c000103000003030000030300000303000039
:10258c000303000003030000030300000303000027
:10259c000303000003030000030300000303000017
:1025ac000303000003030000030300000303000007
:1025bc0003030000030300000303000003030000f7
:1025cc0003030000030300000303000003030000e7
:1025dc0003030000030300000301000000000000df
:1025ec0000000000000000000000000000000000df
:1025fc0000000000000000000000000000000000cf
:10260c0000010000010300000303000003030000ad
:10261c00010200000202000002020000020200009f
:10262c00020200000202000002020000020200008e
:10263c00020200000202000002020000020200007e
:10264c00020200000202000002020000020200006e
:10265c000103000003030000030300000303000058
:10266c000303000003030000030300000303000046
:10267c000303000003030000030300000303000036
:10268c000303000003030000030300000303000026
:10269c000303000003030000030300000303000016
:1026ac000303000003030000030300000303000006
:1026bc0003030000030300000301000001000000fd
:1026cc0000000000000000000000000000000000fe
:1026dc0000000000000000000000000000000000ee
:1026ec0000010000030300000303000003030000cb
:1026fc0001020000020200000202000002020000bf
:10270c0002020000020200000202000002020000ad
:10271c00020200000202000002020000020200009d
:10272c00020200000202000002020000020200008d
:10273c000103000003030000030300000303000077
:10274c000303000003030000030300000303000065
:10275c000303000003030000030300000303000055
:10276c000303000003030000030300000303000045
:10277c000303000003030000030300000303000035
:10278c000303000003030000030300000303000025
:10279c00030300000303000003030000010000001a
:1027ac00000000000000000000000000000000001d
:1027bc00000000000000000000000000000000000d
:1027cc0001010000030300000303000003030000e9
:1027dc0001020000020200000202000002020000de
:1027ec0002020000020200000202000002020000cd
:1027fc0002020000020200000202000002020000bd
:10280c0002020000020200000202000002020000ac
:10281c000103000003030000030300000303000096
:10282c000303000003030000030300000303000084
:10283c000303000003030000030300000303000074
:10284c000303000003030000030300000303000064
:10285c000303000003030000030300000303000054
:10286c000303000003030000030300000303000044
:10287c000303000003030000030300000301000036
:10288c00000000000000000000000000000000003c
:10289c00000000000000000000000000000000002c
:1028ac000103000003030000030300000303000006
:1028bc0001020000020200000202000002020000fd
:1028cc0002020000020200000202000002020000ec
:1028dc0002020000020200000202000002020000dc
:1028ec0002020000020200000202000002020000cc
:1028fc0002020000020200000202000002020000bc
:10290c0002020000020200000202000002020000ab
:10291c00020200000202000002020000020200009b
:10292c00020200000202000002020000020200008b
:10293c00020200000202000002020000020200007b
:10294c00020200000202000002020000020200006b
:10295c000303000003030000030300000301000055
:10296c00010000000000000000000000000000005a
:10297c00000000000000000000000000000100004a
:10298c000303000003030000030300000303000023
:10299c00010200000202000002020000020200001c
:1029ac00020200000202000002020000020200000b
:1029bc0002020000020200000202000002020000fb
:1029cc0002020000020200000202000002020000eb
:1029dc0002010000010100000101000001010000e2
:1029ec0001010000010100000101000001010000d3
:1029fc0001010000010100000101000001010000c3
:102a0c0001010000010100000101000001010000b2
:102a1c0001010000010100000101000001010000a2
:102a2c000101000001010000010100000102000091
:102a3c000303000003030000030300000303000072
:102a4c000100000000000000000000000000000079
:102a5c000000000000000000000000000001000069
:102a6c000303000003030000030300000303000042
:102a7c00010200000202000002020000020200003b
:102a8c00020200000202000002020000020200002a
:102a9c00020200000202000002020000020200001a
:102aac00020200000202000002020000020200000a
:102abc000201000001010000010100000101000001
:102acc0001010000010100000101000001010000f2
:102adc0001010000010100000101000001010000e2
:102aec0001010000010100000101000001010000d2
:102afc0001010000010100000101000001010000c2
:102b0c0001010000010100000101000001020000b0
:102b1c000303000003030000030300000303000091
:102b2c000101000000000000000000000000000097
:102b3c000000000000000000000000000103000085
:102b4c000303000003030000030300000303000061
:102b5c00010200000202000002020000020200005a
:102b6c000202000002020000020200000202000049
:102b7c000202000002020000020200000202000039
:102b8c000202000002020000020200000202000029
:102b9c000201000001010000010100000101000020
:102bac000101000001010000010100000101000011
:102bbc000101000001010000010100000101000001
:102bcc0001010000010100000101000001010000f1
:102bdc0001010000010100000101000001010000e1
:102bec0001010000010100000101000001020000d0
:102bfc0003030000030300000303000003030000b1
:102c0c0003010000000000000000000000000000b4
:102c1c0000000000000000000000000001030000a4
:102c2c000303000003030000030300000303000080
:102c3c000102000002020000020200000202000079
:102c4c000202000002020000020200000202000068
:102c5c000202000002020000020200000202000058
:102c6c000202000002020000020200000202000048
:102c7c00020100000101000001010000010100003f
:102c8c000101000001010000010100000101000030
:102c9c000101000001010000010100000101000020
:102cac000101000001010000010100000101000010
:102cbc000101000001010000010100000101000000
:102ccc0001010000010100000101000001020000ef
:102cdc0003030000030300000303000003030000d0
:102cec0003010000010000000000000000000000d3
:102cfc0000000000000000000001000003030000c1
:102d0c00030300000303000003030000030300009f
:102d1c000102000002020000020200000202000098
:102d2c000202000002020000020200000202000087
:102d3c000202000002020000020200000202000077
:102d4c000202000002020000020200000202000067
:102d5c00020100000101000001010000010100005e
:102d6c00010100000101000001010000010100004f
:102d7c00010100000101000001010000010100003f
:102d8c00010100000101000001010000010100002f
:102d9c00010100000101000001010000010100001f
:102dac00010100000101000001010000010200000e
:102dbc0003030000030300000303000003030000ef
:102dcc0003030000010000000000000000000000f0
:102ddc0000000000000000000001000003030000e0
:102dec0003030000030300000303000003030000bf
:102dfc0001020000020200000202000002020000b8
:102e0c0002020000020200000202000002020000a6
:102e1c000202000002020000020200000202000096
:102e2c000202000002020000020200000202000086
:102e3c00020100000101000001010000010100007d
:102e4c00010100000101000001010000010100006e
:102e5c00010100000101000001010000010100005e
:102e6c00010100000101000001010000010100004e
:102e7c00010100000101000001010000010100003e
:102e8c00010100000101000001010000010200002d
:102e9c00030300000303000003030000030300000e
:102eac00030300000101000000000000000000000e
:102ebc0000000000000000000101000003030000fe
:102ecc0003030000030300000303000003030000de
:102edc0001020000020200000202000002020000d7
:102eec0002020000020200000202000002020000c6
:102efc0002020000020200000202000002020000b6
:102f0c0002020000020200000202000002020000a5
:102f1c00020100000101000001010000010100009c
:102f2c00010100000101000001010000010100008d
:102f3c00010100000101000001010000010100007d
:102f4c00010100000101000001010000010100006d
:102f5c00010100000101000001010000010100005d
:102f6c00010100000101000001010000010200004c
:102f7c00030300000303000003030000030300002d
:102f8c00030300000301000000000000000000002b
:102f9c00000000000000000001030000030300001b
:102fac0003030000030300000303000003030000fd
:102fbc0001020000020200000202000002020000f6
:102fcc0002020000020200000202000002020000e5
:102fdc0002020000020200000202000002020000d5
:102fec0002020000020200000202000002020000c5
:102ffc0002010000010100000101000001010000bc
:10300c0001010000010100000101000001010000ac
:10301c00010100000101000001010000010100009c
:10302c00010100000101000001010000010100008c
:10303c00010100000101000001010000010100007c
:10304c00010100000101000001010000010200006b
:10305c00030300000303000003030000030300004c
:10306c00030300000301000000000000000000004a
:10307c000000000000010000010300000303000039
:10308c00030300000303000003030000030300001c
:10309c000102000002020000020200000202000015
:1030ac000202000002020000020200000202000004
:1030bc0002020000020200000202000002020000f4
:1030cc0002020000020200000202000002020000e4
:1030dc0002010000010100000101000001010000db
:1030ec0001010000010100000101000001010000cc
:1030fc0001010000010100000101000001010000bc
:10310c0001010000010100000101000001010000ab
:10311c00010100000101000001010000010100009b
:10312c00010100000101000001010000010200008a
:10313c00030300000303000003030000030300006b
:10314c000303000003030000010000000000000066
:10315c000000000000010000030300000303000056
:10316c00030300000303000003030000030300003b
:10317c000102000002020000020200000202000034
:10318c000202000002020000020200000202000023
:10319c000202000002020000020200000202000013
:1031ac000202000002020000020200000202000003
:1031bc0002010000010100000101000001010000fa
:1031cc0001010000010100000101000001010000eb
:1031dc0001010000010100000101000001010000db
:1031ec0001010000010100000101000001010000cb
:1031fc0001010000010100000101000001010000bb
:10320c0001010000010100000101000001020000a9
:10321c00030300000303000003030000030300008a
:10322c000303000003030000010000000000000085
:10323c000000000000010000030300000303000075
:10324c00030300000303000003030000030300005a
:10325c000102000002020000020200000202000053
:10326c000202000002020000020200000202000042
:10327c000202000002020000020200000202000032
:10328c000202000002020000020200000202000022
:10329c000201000001010000010100000101000019
:1032ac00010100000101000001010000010100000a
:1032bc0001010000010100000101000001010000fa
:1032cc0001010000010100000101000001010000ea
:1032dc0001010000010100000101000001010000da
:1032ec0001010000010100000101000001020000c9
:1032fc0003030000030300000303000003030000aa
:10330c0003030000030300000100000000000000a4
:10331c000000000000010000030300000303000094
:10332c000303000003030000030300000303000079
:10333c000102000002020000020200000202000072
:10334c000202000002020000020200000202000061
:10335c000202000002020000020200000202000051
:10336c000202000002020000020200000202000041
:10337c000201000001010000010100000101000038
:10338c000101000001010000010100000101000029
:10339c000101000001010000010100000101000019
:1033ac000101000001010000010100000101000009
:1033bc0001010000010100000101000001010000f9
:1033cc0001010000010100000101000001020000e8
:1033dc0003030000030300000303000003030000c9
:1033ec0003030000030300000301000000000000c1
:1033fc0000000000010300000303000003030000b1
:10340c000303000003030000030300000303000098
:10341c000102000002020000020200000202000091
:10342c000202000002020000020200000202000080
:10343c000202000002020000020200000202000070
:10344c000202000002020000020200000202000060
:10345c000201000001010000010100000101000057
:10346c000101000001010000010100000101000048
:10347c000101000001010000010100000101000038
:10348c000101000001010000010100000101000028
:10349c000101000001010000010100000101000018
:1034ac000101000001010000010100000102000007
:1034bc0003030000030300000303000003030000e8
:1034cc0003030000030300000301000000000000e0
:1034dc0000000000010300000303000003030000d0
:1034ec0003030000030300000303000003030000b8
:1034fc0001020000020200000202000002020000b1
:10350c00020200000202000002020000020200009f
:10351c00020200000202000002020000020200008f
:10352c00020200000202000002020000020200007f
:10353c000201000001010000010100000101000076
:10354c000101000001010000010100000101000067
:10355c000101000001010000010100000101000057
:10356c000101000001010000010100000101000047
:10357c000101000001010000010100000101000037
:10358c000101000001010000010100000102000026
:10359c000303000003030000030300000303000007
:1035ac0003030000030300000301000000000000ff
:1035bc0000000000010300000303000003030000ef
:1035cc0003030000030300000303000003030000d7
:1035dc0001020000020200000202000002020000d0
:1035ec0002020000020200000202000002020000bf
:1035fc0002020000020200000202000002020000af
:10360c00020200000202000002020000020200009e
:10361c000201000001010000010100000101000095
:10362c000101000001010000010100000101000086
:10363c000101000001010000010100000101000076
:10364c000101000001010000010100000101000066
:10365c000101000001010000010100000101000056
:10366c000101000001010000010100000102000045
:10367c000303000003030000030300000303000026
:10368c00030300000303000003010000010000001d
:10369c00000100000103000003030000030300000d
:1036ac0003030000030300000303000003030000f6
:1036bc0001020000020200000202000002020000ef
:1036cc0002020000020200000202000002020000de
:1036dc0002020000020200000202000002020000ce
:1036ec0002020000020200000202000002020000be
:1036fc0002010000010100000101000001010000b5
:10370c0001010000010100000101000001010000a5
:10371c000101000001010000010100000101000095
:10372c000101000001010000010100000101000085
:10373c000101000001010000010100000101000075
:10374c000101000001010000010100000102000064
:10375c000303000003030000030300000303000045
:10376c00030300000303000003030000010000003a
:10377c00000100000103000003030000030300002c
:10378c000303000003030000030300000303000015
:10379c00010200000202000002020000020200000e
:1037ac0002020000020200000202000002020000fd
:1037bc0002020000020200000202000002020000ed
:1037cc0002020000020200000202000002020000dd
:1037dc0002010000010100000101000001010000d4
:1037ec0001010000010100000101000001010000c5
:1037fc0001010000010100000101000001010000b5
:10380c0001010000010100000101000001010000a4
:10381c000101000001010000010100000101000094
:10382c000101000001010000010100000102000083
:10383c000303000003030000030300000303000064
:10384c000303000003030000030300000100000059
:10385c000001000003030000030300000303000049
:10386c000303000003030000030300000303000034
:10387c00010200000202000002020000020200002d
:10388c00020200000202000002020000020200001c
:10389c00020200000202000002020000020200000c
:1038ac0002020000020200000202000002020000fc
:1038bc0002010000010100000101000001010000f3
:1038cc0001010000010100000101000001010000e4
:1038dc0001010000010100000101000001010000d4
:1038ec0001010000010100000101000001010000c4
:1038fc0001010000010100000101000001010000b4
:10390c0001010000010100000101000001020000a2
:10391c000303000003030000030300000303000083
:10392c000303000003030000030300000100000078
:10393c000001000003030000030300000303000068
:10394c000303000003030000030300000303000053
:10395c00010200000202000002020000020200004c
:10396c00020200000202000002020000020200003b
:10397c00020200000202000002020000020200002b
:10398c00020200000202000002020000020200001b
:10399c000201000001010000010100000101000012
:1039ac000101000001010000010100000101000003
:1039bc0001010000010100000101000001010000f3
:1039cc0001010000010100000101000001010000e3
:1039dc0001010000010100000101000001010000d3
:1039ec0001010000010100000101000001020000c2
:1039fc0003030000030300000303000003030000a3
:103a0c000303000003030000030300000100000097
:103a1c000001000003030000030300000303000087
:103a2c000303000003030000030300000303000072
:103a3c00010200000202000002020000020200006b
:103a4c00020200000202000002020000020200005a
:103a5c00020200000202000002020000020200004a
:103a6c00020200000202000002020000020200003a
:103a7c000201000001010000010100000101000031
:103a8c000101000001010000010100000101000022
:103a9c000101000001010000010100000101000012
:103aac000101000001010000010100000101000002
:103abc0001010000010100000101000001010000f2
:103acc0001010000010100000101000001020000e1
:103adc0003030000030300000303000003030000c2
:103aec0003030000030300000303000001000000b7
:103afc0000010000030300000303000003030000a7
:103b0c000303000003030000030300000303000091
:103b1c00010200000202000002020000020200008a
:103b2c000202000002020000020200000202000079
:103b3c000202000002020000020200000202000069
:103b4c000202000002020000020200000202000059
:103b5c000201000001010000010100000101000050
:103b6c000101000001010000010100000101000041
:103b7c000101000001010000010100000101000031
:103b8c000101000001010000010100000101000021
:103b9c000101000001010000010100000101000011
:103bac000101000001010000010100000102000000
:103bbc0003030000030300000303000003030000e1
:103bcc0003030000030300000303000001010000d5
:103bdc0000010000030300000303000003030000c6
:103bec0003030000030300000303000003030000b1
:103bfc0001020000020200000202000002020000aa
:103c0c000202000002020000020200000202000098
:103c1c000202000002020000020200000202000088
:103c2c000202000002020000020200000202000078
:103c3c00020100000101000001010000010100006f
:103c4c000101000001010000010100000101000060
:103c5c000101000001010000010100000101000050
:103c6c000101000001010000010100000101000040
:103c7c000101000001010000010100000101000030
:103c8c00010100000101000001010000010200001f
:103c9c000303000003030000030300000303000000
:103cac0003030000030300000303000003010000f2
:103cbc0001010000030300000303000003030000e4
:103ccc0003030000030300000303000003030000d0
:103cdc0001020000020200000202000002020000c9
:103cec0002020000020200000202000002020000b8
:103cfc0002020000020200000202000002020000a8
:103d0c000202000002020000020200000202000097
:103d1c00020100000101000001010000010100008e
:103d2c00010100000101000001010000010100007f
:103d3c00010100000101000001010000010100006f
:103d4c00010100000101000001010000010100005f
:103d5c00010100000101000001010000010100004f
:103d6c00010100000101000001010000010200003e
:103d7c00030300000303000003030000030300001f
:103d8c000303000003030000030300000301000011
:103d9c000101000003030000030300000303000003
:103dac0003030000030300000303000003030000ef
:103dbc0001020000020200000202000002020000e8
:103dcc0002020000020200000202000002020000d7
:103ddc0002020000020200000202000002020000c7
:103dec0002020000020200000202000002020000b7
:103dfc0002010000010100000101000001010000ae
:103e0c00010100000101000001010000010100009e
:103e1c00010100000101000001010000010100008e
:103e2c00010100000101000001010000010100007e
:103e3c00010100000101000001010000010100006e
:103e4c00010100000101000001010000010200005d
:103e5c00030300000303000003030000030300003e
:103e6c000303000003030000030300000301000030
:103e7c000101000003030000030300000303000022
:103e8c00030300000303000003030000030300000e
:103e9c000102000002020000020200000202000007
:103eac0002020000020200000202000002020000f6
:103ebc0002020000020200000202000002020000e6
:103ecc0002020000020200000202000002020000d6
:103edc0002010000010100000101000001010000cd
:103eec0001010000010100000101000001010000be
:103efc0001010000010100000101000001010000ae
:103f0c00010100000101000001010000010100009d
:103f1c00010100000101000001010000010100008d
:103f2c00010100000101000001010000010200007c
:103f3c00030300000303000003030000030300005d
:103f4c00030300000303000003030000030100004f
:103f5c00010300000303000003030000030300003f
:103f6c00030300000303000003030000030300002d
:103f7c000102000002020000020200000202000026
:103f8c000202000002020000020200000202000015
:103f9c000202000002020000020200000202000005
:103fac0002020000020200000202000002020000f5
:103fbc0002010000010100000101000001010000ec
:103fcc0001010000010100000101000001010000dd
:103fdc0001010000010100000101000001010000cd
:103fec0001010000010100000101000001010000bd
:103ffc0001010000010100000101000001010000ad
:10400c00010100000101000001010000010200009b
:10401c00030300000303000003030000030300007c
:10402c00030300000303000003030000030100006e
:10403c00010300000303000003030000030300005e
:10404c00030300000303000003030000030300004c
:10405c000102000002020000020200000202000045
:10406c000202000002020000020200000202000034
:10407c000202000002020000020200000202000024
:10408c000202000002020000020200000202000014
:10409c00020100000101000001010000010100000b
:1040ac0001010000010100000101000001010000fc
:1040bc0001010000010100000101000001010000ec
:1040cc0001010000010100000101000001010000dc
:1040dc0001010000010100000101000001010000cc
:1040ec0001010000010100000101000001020000bb
:1040fc00030300000303000003030000030300009c
:10410c00030300000303000003030000030100008d
:10411c00010300000303000003030000030300007d
:10412c00030300000303000003030000030300006b
:10413c000102000002020000020200000202000064
:10414c000202000002020000020200000202000053
:10415c000202000002020000020200000202000043
:10416c000202000002020000020200000202000033
:10417c000202000002020000020200000202000023
:10418c000202000002020000020200000202000013
:10419c00020100000101000001010000010100000a
:1041ac0001010000010100000101000001010000fb
:1041bc0001010000010100000101000001010000eb
:1041cc0001010000010100000101000001020000da
:1041dc0003030000030300000303000003030000bb
:1041ec0003030000030300000303000003010000ad
:1041fc00010300000303000003030000030300009d
:10420c00030300000303000003030000030300008a
:10421c000102000002020000020200000202000083
:10422c000202000002020000020200000202000072
:10423c000202000002020000020200000202000062
:10424c000202000002020000020200000202000052
:10425c000202000002020000020200000202000042
:10426c000202000002020000020200000202000032
:10427c000201000001010000010100000101000029
:10428c00010100000101000001010000010100001a
:10429c00010100000101000001010000010100000a
:1042ac0001010000010100000101000001020000f9
:1042bc0003030000030300000303000003030000da
:1042cc0003030000030300000303000003010000cc
:1042dc0001030000030300000303000003030000bc
:1042ec0003030000030300000303000003030000aa
:1042fc0001020000020200000202000002020000a3
:10430c000202000002020000020200000202000091
:10431c000202000002020000020200000202000081
:10432c000202000002020000020200000202000071
:10433c000202000002020000020200000202000061
:10434c000202000002020000020200000202000051
:10435c000201000001010000010100000101000048
:10436c000101000001010000010100000101000039
:10437c000101000001010000010100000101000029
:10438c000101000001010000010100000102000018
:10439c0003030000030300000303000003030000f9
:1043ac0003030000030300000303000003010000eb
:1043bc0001010000030300000303000003030000dd
:1043cc0003030000030300000303000003030000c9
:1043dc0001020000020200000202000002020000c2
:1043ec0002020000020200000202000002020000b1
:1043fc0002020000020200000202000002020000a1
:10440c000202000002020000020200000202000090
:10441c000202000002020000020200000202000080
:10442c000202000002020000020200000202000070
:10443c000201000001010000010100000101000067
:10444c000101000001010000010100000101000058
:10445c000101000001010000010100000101000048
:10446c000101000001010000010100000102000037
:10447c000303000003030000030300000303000018
:10448c00030300000303000003030000030100000a
:10449c0001010000030300000303000003030000fc
:1044ac0003030000030300000303000003030000e8
:1044bc0001020000020200000202000002020000e1
:1044cc0002020000020200000202000002020000d0
:1044dc0002020000020200000202000002020000c0
:1044ec0002020000020200000202000002020000b0
:1044fc0002020000020200000202000002020000a0
:10450c00020200000202000002020000020200008f
:10451c000201000001010000010100000101000086
:10452c000101000001010000010100000101000077
:10453c000101000001010000010100000101000067
:10454c000101000001010000010100000102000056
:10455c000303000003030000030300000303000037
:10456c000303000003030000030300000301000029
:10457c00010100000303000003030000030300001b
:10458c000303000003030000030300000303000007
:10459c000102000002020000020200000202000000
:1045ac0002020000020200000202000002020000ef
:1045bc0002020000020200000202000002020000df
:1045cc0002020000020200000202000002020000cf
:1045dc0002020000020200000202000002020000bf
:1045ec0002020000020200000202000002020000af
:1045fc0002010000010100000101000001010000a6
:10460c000101000001010000010100000101000096
:10461c000101000001010000010100000101000086
:10462c000101000001010000010100000102000075
:10463c000303000003030000030300000303000056
:10464c000303000003030000030300000301000048
:10465c00000100000303000003030000030300003b
:10466c000303000003030000030300000303000026
:10467c00010200000202000002020000020200001f
:10468c00020200000202000002020000020200000e
:10469c0002020000020200000202000002020000fe
:1046ac0002020000020200000202000002020000ee
:1046bc0002020000020200000202000002020000de
:1046cc0002020000020200000202000002020000ce
:1046dc0002010000010100000101000001010000c5
:1046ec0001010000010100000101000001010000b6
:1046fc0001010000010100000101000001010000a6
:10470c000101000001010000010100000102000094
:10471c000303000003030000030300000303000075
:10472c000303000003030000030300000101000069
:10473c00000100000303000003030000030300005a
:10474c000303000003030000030300000303000045
:10475c00010200000202000002020000020200003e
:10476c00020200000202000002020000020200002d
:10477c00020200000202000002020000020200001d
:10478c00020200000202000002020000020200000d
:10479c0002020000020200000202000002020000fd
:1047ac0002020000020200000202000002020000ed
:1047bc0002010000010100000101000001010000e4
:1047cc0001010000010100000101000001010000d5
:1047dc0001010000010100000101000001010000c5
:1047ec0001010000010100000101000001020000b4
:1047fc000303000003030000030300000303000095
:10480c000303000003030000030300000101000088
:10481c000001000003030000030300000303000079
:10482c000303000003030000030300000303000064
:10483c00010200000202000002020000020200005d
:10484c00020200000202000002020000020200004c
:10485c00020200000202000002020000020200003c
:10486c00020200000202000002020000020200002c
:10487c00020200000202000002020000020200001c
:10488c00020200000202000002020000020200000c
:10489c000201000001010000010100000101000003
:1048ac0001010000010100000101000001010000f4
:1048bc0001010000010100000101000001010000e4
:1048cc0001010000010100000101000001020000d3
:1048dc0003030000030300000303000003030000b4
:1048ec0003030000030300000303000001000000a9
:1048fc000001000003030000030300000303000099
:10490c000303000003030000030300000303000083
:10491c00010200000202000002020000020200007c
:10492c00020200000202000002020000020200006b
:10493c00020200000202000002020000020200005b
:10494c00020200000202000002020000020200004b
:10495c00020200000202000002020000020200003b
:10496c00020200000202000002020000020200002b
:10497c000201000001010000010100000101000022
:10498c000101000001010000010100000101000013
:10499c000101000001010000010100000101000003
:1049ac0001010000010100000101000001020000f2
:1049bc0003030000030300000303000003030000d3
:1049cc0003030000030300000303000001000000c8
:1049dc0000010000030300000303000003030000b8
:1049ec0003030000030300000303000003030000a3
:1049fc00010200000202000002020000020200009c
:104a0c00020200000202000002020000020200008a
:104a1c00020200000202000002020000020200007a
:104a2c00020200000202000002020000020200006a
:104a3c00020200000202000002020000020200005a
:104a4c00020200000202000002020000020200004a
:104a5c000201000001010000010100000101000041
:104a6c000101000001010000010100000101000032
:104a7c000101000001010000010100000101000022
:104a8c000101000001010000010100000102000011
:104a9c0003030000030300000303000003030000f2
:104aac0003030000030300000303000001000000e7
:104abc0000010000010300000303000003030000d9
:104acc0003030000030300000303000003030000c2
:104adc0001020000020200000202000002020000bb
:104aec0002020000020200000202000002020000aa
:104afc00020200000202000002020000020200009a
:104b0c000202000002020000020200000202000089
:104b1c000202000002020000020200000202000079
:104b2c000202000002020000020200000202000069
:104b3c000201000001010000010100000101000060
:104b4c000101000001010000010100000101000051
:104b5c000101000001010000010100000101000041
:104b6c000101000001010000010100000102000030
:104b7c000303000003030000030300000303000011
:104b8c000303000003030000030300000100000006
:104b9c0000000000010300000303000003030000f9
:104bac0003030000030300000303000003030000e1
:104bbc0001020000020200000202000002020000da
:104bcc0002020000020200000202000002020000c9
:104bdc0002020000020200000202000002020000b9
:104bec0002020000020200000202000002020000a9
:104bfc000202000002020000020200000202000099
:104c0c000202000002020000020200000202000088
:104c1c00020100000101000001010000010100007f
:104c2c000101000001010000010100000101000070
:104c3c000101000001010000010100000101000060
:104c4c00010100000101000001010000010200004f
:104c5c000303000003030000030300000303000030
:104c6c000303000003030000030100000100000027
:104c7c000000000001030000030300000303000018
:104c8c000303000003030000030300000303000000
:104c9c0001020000020200000202000002020000f9
:104cac0002020000020200000202000002020000e8
:104cbc0002020000020200000202000002020000d8
:104ccc0002020000020200000202000002020000c8
:104cdc0002020000020200000202000002020000b8
:104cec0002020000020200000202000002020000a8
:104cfc00020100000101000001010000010100009f
:104d0c00010100000101000001010000010100008f
:104d1c00010100000101000001010000010100007f
:104d2c00010100000101000001010000010200006e
:104d3c00030300000303000003030000030300004f
:104d4c000303000003030000030100000000000047
:104d5c000000000001030000030300000303000037
:104d6c00030300000303000003030000030300001f
:104d7c000102000002020000020200000202000018
:104d8c000202000002020000020200000202000007
:104d9c0002020000020200000202000002020000f7
:104dac0002020000020200000202000002020000e7
:104dbc0002020000020200000202000002020000d7
:104dcc0002020000020200000202000002020000c7
:104ddc0002010000010100000101000001010000be
:104dec0001010000010100000101000001010000af
:104dfc00010100000101000001010000010100009f
:104e0c00010100000101000001010000010200008d
:104e1c00030300000303000003030000030300006e
:104e2c000303000003030000030100000000000066
:104e3c000000000001010000030300000303000058
:104e4c00030300000303000003030000030300003e
:104e5c000102000002020000020200000202000037
:104e6c000202000002020000020200000202000026
:104e7c000202000002020000020200000202000016
:104e8c000202000002020000020200000202000006
:104e9c0002020000020200000202000002020000f6
:104eac0002020000020200000202000002020000e6
:104ebc0002010000010100000101000001010000dd
:104ecc0001010000010100000101000001010000ce
:104edc0001010000010100000101000001010000be
:104eec0001010000010100000101000001020000ad
:104efc00030300000303000003030000030300008e
:104f0c000303000003030000030100000000000085
:104f1c000000000000010000030300000303000078
:104f2c00030300000303000003030000030300005d
:104f3c000102000002020000020200000202000056
:104f4c000202000002020000020200000202000045
:104f5c000202000002020000020200000202000035
:104f6c000202000002020000020200000202000025
:104f7c000202000002020000020200000202000015
:104f8c000202000002020000020200000202000005
:104f9c0002010000010100000101000001010000fc
:104fac0001010000010100000101000001010000ed
:104fbc0001010000010100000101000001010000dd
:104fcc0001010000010100000101000001020000cc
:104fdc0003030000030300000303000003030000ad
:104fec0003030000030300000101000000000000a7
:104ffc000000000000010000030300000303000098
:10500c00030300000303000003030000030300007c
:10501c000102000002020000020200000202000075
:10502c000202000002020000020200000202000064
:10503c000202000002020000020200000202000054
:10504c000202000002020000020200000202000044
:10505c000202000002020000020200000202000034
:10506c000202000002020000020200000202000024
:10507c00020100000101000001010000010100001b
:10508c00010100000101000001010000010100000c
:10509c0001010000010100000101000001010000fc
:1050ac0001010000010100000101000001020000eb
:1050bc0003030000030300000303000003030000cc
:1050cc0003030000030300000100000000000000c7
:1050dc0000000000000100000103000003030000b9
:1050ec00030300000303000003030000030300009c
:1050fc000102000002020000020200000202000095
:10510c000202000002020000020200000202000083
:10511c000202000002020000020200000202000073
:10512c000202000002020000020200000202000063
:10513c000202000002020000020200000202000053
:10514c000202000002020000020200000202000043
:10515c00020100000101000001010000010100003a
:10516c00010100000101000001010000010100002b
:10517c00010100000101000001010000010100001b
:10518c00010100000101000001010000010200000a
:10519c0003030000030300000303000003030000eb
:1051ac0003030000030300000100000000000000e6
:1051bc0000000000000000000103000003030000d9
:1051cc0003030000030300000303000003030000bb
:1051dc0001020000020200000202000002020000b4
:1051ec0002020000020200000202000002020000a3
:1051fc000202000002020000020200000202000093
:10520c000202000002020000020200000202000082
:10521c000202000002020000020200000202000072
:10522c000202000002020000020200000202000062
:10523c000201000001010000010100000101000059
:10524c00010100000101000001010000010100004a
:10525c00010100000101000001010000010100003a
:10526c000101000001010000010100000102000029
:10527c00030300000303000003030000030300000a
:10528c000303000003010000010000000000000007
:10529c0000000000000000000103000003030000f8
:1052ac0003030000030300000303000003030000da
:1052bc0001020000020200000202000002020000d3
:1052cc0002020000020200000202000002020000c2
:1052dc0002020000020200000202000002020000b2
:1052ec0002020000020200000202000002020000a2
:1052fc000202000002020000020200000202000092
:10530c000202000002020000020200000202000081
:10531c000201000001010000010100000101000078
:10532c000101000001010000010100000101000069
:10533c000101000001010000010100000101000059
:10534c000101000001010000010100000102000048
:10535c000303000003030000030300000303000029
:10536c000303000003010000000000000000000027
:10537c000000000000000000010100000303000019
:10538c0003030000030300000303000003030000f9
