:020000040000fa
:080000000002040000000000f2
:020000040000fa
:040008007a04000076
:020000040000fa
:04000c007a04000072
:020000040000fa
:040010007a0400006e
:020000040000fa
:040014007a0400006a
:020000040000fa
:040018007a04000066
:020000040000fa
:04001c007a04000062
:020000040000fa
:040020007a0400005e
:020000040000fa
:040024007a0400005a
:020000040000fa
:040028007a04000056
:020000040000fa
:04002c007a04000052
:020000040000fa
:040030007a0400004e
:020000040000fa
:0400340004030000c1
:020000040000fa
:040038007a04000046
:020000040000fa
:04003c007a04000042
:020000040000fa
:040040007a0400003e
:020000040000fa
:040044007a0400003a
:020000040000fa
:040048007a04000036
:020000040000fa
:04004c007a04000032
:020000040000fa
:040050007a0400002e
:020000040000fa
:040054007a0400002a
:020000040000fa
:040058007a04000026
:020000040000fa
:04005c007a04000022
:020000040000fa
:040060007a0400001e
:020000040000fa
:040064007a0400001a
:020000040000fa
:040068007a04000016
:020000040000fa
:04006c007a04000012
:020000040000fa
:040070007a0400000e
:020000040000fa
:040074007a0400000a
:020000040000fa
:040078007a04000006
:020000040000fa
:04007c007a04000002
:020000040000fa
:040080007a040000fe
:020000040000fa
:040084007a040000fa
:020000040000fa
:040088007a040000f6
:020000040000fa
:04008c007a040000f2
:020000040000fa
:040090007a040000ee
:020000040000fa
:040094007a040000ea
:020000040000fa
:040098007a040000e6
:020000040000fa
:04009c007a040000e2
:020000040000fa
:0400a0007a040000de
:020000040000fa
:0400a4007a040000da
:020000040000fa
:0400a8007a040000d6
:020000040000fa
:0400ac007a040000d2
:020000040000fa
:0400b0007a040000ce
:020000040000fa
:0400b4007a040000ca
:020000040000fa
:0400b8007a040000c6
:020000040000fa
:0400bc007a040000c2
:020000040000fa
:0400c0007a040000be
:020000040000fa
:0400c4007a040000ba
:020000040000fa
:0400c8007a040000b6
:020000040000fa
:0400cc007a040000b2
:020000040000fa
:0400d0007a040000ae
:020000040000fa
:0400d4007a040000aa
:020000040000fa
:0400d8007a040000a6
:020000040000fa
:0400dc007a040000a2
:020000040000fa
:0400e0007a0400009e
:020000040000fa
:0400e4007a0400009a
:020000040000fa
:0400e8007a04000096
:020000040000fa
:0400ec007a04000092
:020000040000fa
:0400f0007a0400008e
:020000040000fa
:0400f4007a0400008a
:020000040000fa
:0400f8007a04000086
:020000040000fa
:0400fc007a04000082
:020000040000fa
:040100007a0400007d
:020000040000fa
:040104007a04000079
:020000040000fa
:040108007a04000075
:020000040000fa
:04010c007a04000071
:020000040000fa
:040110007a0400006d
:020000040000fa
:040114007a04000069
:020000040000fa
:040118007a04000065
:020000040000fa
:04011c007a04000061
:020000040000fa
:040120007a0400005d
:020000040000fa
:040124007a04000059
:020000040000fa
:040128007a04000055
:020000040000fa
:04012c007a04000051
:020000040000fa
:040130007a0400004d
:020000040000fa
:040134007a04000049
:020000040000fa
:040138007a04000045
:020000040000fa
:04013c007a04000041
:020000040000fa
:040140007a0400003d
:020000040000fa
:040144007a04000039
:020000040000fa
:040148007a04000035
:020000040000fa
:04014c007a04000031
:020000040000fa
:040150007a0400002d
:020000040000fa
:040154007a04000029
:020000040000fa
:040158007a04000025
:020000040000fa
:04015c007a04000021
:020000040000fa
:040160007a0400001d
:020000040000fa
:040164007a04000019
:020000040000fa
:040168007a04000015
:020000040000fa
:04016c007a04000011
:020000040000fa
:040170007a0400000d
:020000040000fa
:040174007a04000009
:020000040000fa
:040178007a04000005
:020000040000fa
:04017c007a04000001
:020000040000fa
:040180007a040000fd
:020000040000fa
:040184007a040000f9
:020000040000fa
:040188007a040000f5
:020000040000fa
:04018c007a040000f1
:020000040000fa
:040190007a040000ed
:020000040000fa
:040194007a040000e9
:020000040000fa
:040198007a040000e5
:020000040000fa
:04019c007a040000e1
:020000040000fa
:0401a0007a040000dd
:020000040000fa
:0401a4007a040000d9
:020000040000fa
:0401a8007a040000d5
:020000040000fa
:0401ac007a040000d1
:020000040000fa
:0401b0007a040000cd
:020000040000fa
:0401b4007a040000c9
:020000040000fa
:0401b8007a040000c5
:020000040000fa
:040208007a04000074
:020000040000fa
:04020c007a04000070
:020000040000fa
:040210007a0400006c
:020000040000fa
:040214007a04000068
:020000040000fa
:040218007a04000064
:020000040000fa
:04021c007a04000060
:020000040000fa
:040220007a0400005c
:020000040000fa
:040224007a04000058
:020000040000fa
:040228007a04000054
:020000040000fa
:04022c007a04000050
:020000040000fa
:040230007a0400004c
:020000040000fa
:040234007a04000048
:020000040000fa
:040238007a04000044
:020000040000fa
:04023c007a04000040
:020000040000fa
:040240007a0400003c
:020000040000fa
:040244007a04000038
:020000040000fa
:040248007a04000034
:020000040000fa
:04024c007a04000030
:020000040000fa
:040250007a0400002c
:020000040000fa
:040254007a04000028
:020000040000fa
:040258007a04000024
:020000040000fa
:04025c007a04000020
:020000040000fa
:040260007a0400001c
:020000040000fa
:040264007a04000018
:020000040000fa
:040268007a04000014
:020000040000fa
:04026c007a04000010
:020000040000fa
:040270007a0400000c
:020000040000fa
:040274007a04000008
:020000040000fa
:040278007a04000004
:020000040000fa
:04027c007a04000000
:020000040000fa
:040280007a040000fc
:020000040000fa
:040284007a040000f8
:020000040000fa
:040288007a040000f4
:020000040000fa
:04028c007a040000f0
:020000040000fa
:040290007a040000ec
:020000040000fa
:040294007a040000e8
:020000040000fa
:040298007a040000e4
:020000040000fa
:04029c007a040000e0
:020000040000fa
:0402a0007a040000dc
:020000040000fa
:0402a4007a040000d8
:020000040000fa
:0402a8007a040000d4
:020000040000fa
:0402ac007a040000d0
:020000040000fa
:0402b0007a040000cc
:020000040000fa
:0402b4007a040000c8
:020000040000fa
:0402b8007a040000c4
:020000040000fa
:0402bc007a040000c0
:020000040000fa
:0402c0007a040000bc
:020000040000fa
:0402c4007a040000b8
:020000040000fa
:0402c8007a040000b4
:020000040000fa
:0402cc007a040000b0
:020000040000fa
:0402d0007a040000ac
:020000040000fa
:0402d4007a040000a8
:020000040000fa
:0402d8007a040000a4
:020000040000fa
:0402dc007a040000a0
:020000040000fa
:0402e0007a0400009c
:020000040000fa
:0402e4007a04000098
:020000040000fa
:0402e8007a04000094
:020000040000fa
:0402ec007a04000090
:020000040000fa
:0402f0007a0400008c
:020000040000fa
:0402f4007a04000088
:020000040000fa
:0402f8007a04000084
:020000040000fa
:0402fc007a04000080
:020000040000fa
:040300007a0400007b
:020000040000fa
:040304007a04000077
:020000040000fa
:040308007a04000073
:020000040000fa
:04030c007a0400006f
:020000040000fa
:040310007a0400006b
:020000040000fa
:040314007a04000067
:020000040000fa
:040318007a04000063
:020000040000fa
:04031c007a0400005f
:020000040000fa
:040320007a0400005b
:020000040000fa
:040324007a04000057
:020000040000fa
:040328007a04000053
:020000040000fa
:04032c007a0400004f
:020000040000fa
:040330007a0400004b
:020000040000fa
:040334007a04000047
:020000040000fa
:040338007a04000043
:020000040000fa
:04033c007a0400003f
:020000040000fa
:040340007a0400003b
:020000040000fa
:040344007a04000037
:020000040000fa
:040348007a04000033
:020000040000fa
:04034c007a0400002f
:020000040000fa
:040350007a0400002b
:020000040000fa
:040354007a04000027
:020000040000fa
:040358007a04000023
:020000040000fa
:04035c007a0400001f
:020000040000fa
:040360007a0400001b
:020000040000fa
:040364007a04000017
:020000040000fa
:040368007a04000013
:020000040000fa
:04036c007a0400000f
:020000040000fa
:040370007a0400000b
:020000040000fa
:040374007a04000007
:020000040000fa
:040378007a04000003
:020000040000fa
:04037c007a040000ff
:020000040000fa
:040380007a040000fb
:020000040000fa
:040384007a040000f7
:020000040000fa
:040388007a040000f3
:020000040000fa
:04038c007a040000ef
:020000040000fa
:040390007a040000eb
:020000040000fa
:040394007a040000e7
:020000040000fa
:040398007a040000e3
:020000040000fa
:04039c007a040000df
:020000040000fa
:0403a0007a040000db
:020000040000fa
:0403a4007a040000d7
:020000040000fa
:0403a8007a040000d3
:020000040000fa
:0403ac007a040000cf
:020000040000fa
:0403b0007a040000cb
:020000040000fa
:0403b4007a040000c7
:020000040000fa
:0403b8007a040000c3
:020000040000fa
:10040000af8920000eff27000e01880000000000c9
:10041000000020000000e000020032000001200087
:100420002002880014000700340107000000e000eb
:1004300003003a00e07f25000100200002003700a1
:100440000000200001002000810f70000100320038
:1004500014000700000020000000e000020032004d
:100460000000020000000000b6580200000000007a
:100470000040da000000fe004440a9000010220005
:100480000000e000030032000020200090018800fe
:100490004440a800000006008a1f78008b1f7800e7
:1004a00000000600a1028800800478000000eb0034
:1004b0001f003700e284440054a0b4009905ba003c
:1004c000e284440054a0b4009906ba00e2844400d7
:1004d00054a0b4000006eb00476fde00fd07b20039
:1004e000ae018800636ce10003003a00eaff0700f8
:1004f0000000eb000e003700606ce10008003a00dd
:10050000004deb000a05e800020039003420ec0041
:100510000af0a0008b05e900f9ff3e000400370057
:100520006168e100010032000086eb000b0007006b
:1005300019c7ba001905ba000e04e00003003a001a
:100540000a00e000dbff3a0000000600fe07b200f0
:10055000ae0288008a047800f5ff37000cd0a300b3
:10056000e20f4d001c00390089027800354dba00b9
:100570000a05e800020039003420ec000af0a0006f
:100580008b05e9000f003200254dba000a05e8008e
:10059000020039003420ec000af0a0008b05e900cd
:1005a000080032000c00e0000600320015cdba0051
:1005b0000a05e800020039003420ec000af0a0002f
:1005c0008b05e9008984e80054a0b4000b00e0002a
:1005d000e2ff3a00000006009902ba00055d7800cb
:1005e0008b05e900f7ff3200c82ade00055d7800c0
:1005f0008b05e900f3ff32000c00e000f1ff320050
:1006000019ddba00eeff3700809fbe00829fbe005a
:10061000849fbe00869fbe00889fbe008a9fbe004a
:100620008c9fbe003200f8003400f800100020005b
:10063000a001880000202000900188001200fa002c
:100640000000eb00000f7800004080004b00de004f
:1006500080004000a081200000804000100f780042
:10066000104080004b00de0080004000a081200090
:1006700000804000100078001e0f400020408000e5
:100680004b00de0080004000a08120000080400080
:10069000100078001e0f4000304080004b00de004c
:1006a00080004000a08520000080400010007800fd
:1006b0001e0f40001e0078004600dd005016880026
:1006c00001408000404080000080400000408800e1
:1006d00011408000504080000080400010408800a1
:1006e0002140800060408000008040002040880061
:1006f0003140800070408000008040003040880021
:10070000904080000000e800904088009140800008
:1007100000002400808f50006a003a001228ef0089
:10072000a04080000000e800a0408800a1408000b8
:10073000c02b2000808f500001003a001428ef00e9
:10074000a040800000004000000278004f80de00e2
:100750008002780002582200031020000200be0030
:100760000000420081804a009201800000f0a40055
:100770008180d200910188001000780092018800e9
:1007800040408800a0408000000040000004780045
:100790004f80de0080047800865e23000710200072
:1007a0000600be000000440081804c0092018000e1
:1007b00000f0a4008180d200910188001000780030
:1007c0009201880050408800a04080000000400056
:1007d00080007800110798004f80de002007980005
:1007e000820d240032079800031020004307980070
:1007f0003e009000ce0090001e019000ae019000df
:1008000000004100818049009201800000f0a400b6
:100810008180d20091018800100078009201880048
:1008200060408800a0408000000040008001780007
:10083000530798004f80de006007980081bc2400b9
:100840007107980002102000020f98007e009000af
:100850008e0890005e019000ee01900000004100c3
:10086000818049009201800000f0a4008180d200c4
:100870009101880010007800920188007040880083
:10088000a040800000004000000578004f80de009e
:10089000800578000c0723000d1020000c00be001e
:1008a0000000450081804d009201800000f0a4000e
:1008b0008180d200910188001000780092018800a8
:1008c000804088008460a9000080fa003400f900ac
:1008d0003200f9004f06be004f05be004f04be00b7
:1008e0004f03be004f02be004f01be004f00be00ce
:1008f000004006000040da000000fe000000050095
:020000040000fa
:1009000004000000040000000400000004000000d7
:1009100004000000040000000400000004000000c7
:1009200004000000040000000400000004000000b7
:1009300004000000040000000400000004000000a7
:020000040000fa
:104b000010030000e4020000930200009302000082
:104b1000e4020000010000000100000001000000ac
:104b20000100000001000000010000000100000081
:104b3000010000000100000001000000b8010000b9
:104b400010030000e4020000930200009302000042
:104b500093020000e40200000100000001000000d8
:104b60004b0200004b02000093020000b80100005d
:104b7000b801000001000000010000000100000079
:104b8000010000000100000001000000b801000069
:104b90009302000093020000e402000010030000f2
:104ba0001003000010030000930200002a0200001e
:104bb0002a0200004b0200004b0200004b020000e2
:104bc0009302000093020000b8010000b801000049
:104bd000b8010000e4020000e4020000010000004f
:104be00001000000010000000100000001000000c1
:104bf00001000000010000000100000001000000b1
:104c000010030000e4020000930200009302000081
:104c1000e4020000010000000100000001000000ab
:104c20000100000001000000010000000100000080
:104c3000010000000100000001000000b8010000b8
:104c400010030000e4020000930200009302000041
:104c50000100000001000000e40200004b0200001f
:104c6000010000000100000093020000b8010000f4
:104c7000b801000001000000010000000100000078
:104c80000100000001000000010000000100000020
:104c90009302000093020000e402000010030000f1
:104ca0001003000010030000930200002a0200001d
:104cb0002a0200002a0200004b02000093020000ba
:104cc00001000000b80100004b0200009302000048
:104cd000ba020000930200004b0200000b02000029
:104ce0000100000001000000b8010000d201000036
:104cf0000b0200000b020000ba020000ba02000022
:104d0000930200004b0200004b0200000b02000067
:104d10004b0200000b0200000b0200000b0200001f
:104d20000b0200000b020000b8010000d2010000dd
:104d30000b0200000b020000ba020000ba020000e1
:104d400010030000ba020000930200004b020000b2
:104d50004b02000093020000ba020000ba020000f9
:104d6000ba020000ba020000100300007003000045
:104d7000a4030000a40300007003000070030000ff
:104d80001003000010030000ba020000100300002e
:104d90007003000070030000100300001003000007
:104da000ba020000ba0200004b0200000b02000031
:104db0004b020000ba020000ba0200009302000099
:104dc0009302000093020000e4020000e4020000ed
:104dd000e4020000e4020000010000000100000005
:104de00001000000010000000100000001000000bf
:104df00001000000010000000100000001000000af
:104e0000010000000100000001000000010000009e
:104e1000010000000100000001000000010000008e
:104e2000010000000100000001000000010000007e
:104e3000010000000100000001000000b8010000b6
:104e400010030000e402000093020000930200003f
:104e500093020000e40200000100000001000000d5
:104e6000010000000100000001000000010000003e
:104e7000010000000100000001000000010000002e
:104e800010030000e40200009302000093020000ff
:104e90009302000093020000e40200004b020000b5
:104ea0004b0200009302000093020000b8010000d2
:104eb000b801000001000000010000000100000036
:104ec00001000000010000000100000001000000de
:104ed0009302000093020000e402000010030000af
:104ee0001003000010030000930200009302000072
:104ef0002a0200002a0200004b0200009302000078
:104f00009302000093020000b8010000b801000005
:104f1000b8010000e40200000100000001000000f0
:104f2000010000000100000001000000010000007d
:104f3000010000000100000001000000b8010000b5
:104f400010030000e402000093020000930200003e
:104f5000e402000001000000010000000100000068
:104f6000010000000100000001000000010000003d
:104f7000010000000100000001000000b801000075
:104f800010030000e40200009302000093020000fe
:104f90000100000001000000e40200004b020000dc
:104fa000010000000100000093020000b8010000b1
:104fb000b801000001000000010000000100000035
:104fc00001000000010000000100000001000000dd
:104fd0009302000093020000e402000010030000ae
:104fe0001003000010030000930200009302000071
:104ff0002a0200002a0200004b0200009302000077
:1050000001000000b80100004b0200009302000004
:10501000ba020000930200004b0200000b020000e5
:105020000100000001000000b8010000d2010000f2
:105030000b0200000b020000ba020000ba020000de
:10504000930200004b0200004b0200000b02000024
:105050004b0200000b0200000b0200000b020000dc
:105060000b0200000b020000b8010000d20100009a
:105070000b0200000b020000ba020000ba0200009e
:1050800010030000ba020000930200004b0200006f
:105090004b02000093020000ba020000ba020000b6
:1050a000ba020000ba020000100300007003000002
:1050b000a4030000a40300007003000070030000bc
:1050c0001003000010030000ba02000010030000eb
:1050d000700300007003000010030000ba0200001b
:1050e000ba020000ba0200004b0200000b020000ee
:1050f0004b020000ba020000ba0200009302000056
:105100009302000093020000e4020000e4020000a9
:10511000e4020000e40200000100000001000000c1
:10512000010000000100000001000000010000007b
:10513000010000000100000001000000010000006b
:10514000010000000100000001000000010000005b
:10515000010000000100000001000000010000004b
:10516000010000000100000001000000010000003b
:10517000010000000100000001000000010000002b
:1051800010030000e40200009302000093020000fc
:1051900093020000e4020000010000000100000092
:1051a00001000000010000000100000001000000fb
:1051b000010000000100000001000000b801000033
:1051c00010030000e40200009302000093020000bc
:1051d0000100000001000000e40200004b0200009a
:1051e000010000000100000093020000b80100006f
:1051f000b8010000010000000100000001000000f3
:10520000010000000100000001000000010000009a
:105210009302000093020000e4020000100300006b
:10522000100300001003000093020000930200002e
:105230002a0200002a0200004b0200009302000034
:105240009302000093020000b8010000b8010000c2
:10525000b8010000e4020000e402000001000000c8
:10526000010000000100000001000000010000003a
:10527000010000000100000001000000010000002a
:1052800010030000e40200009302000093020000fb
:1052900093020000e4020000010000000100000091
:1052a00001000000010000000100000001000000fa
:1052b00001000000010000000100000001000000ea
:1052c00010030000e40200009302000093020000bb
:1052d0000100000001000000e40200004b02000099
:1052e000010000000100000093020000b80100006e
:1052f000b8010000010000000100000001000000f2
:105300000100000001000000010000000100000099
:105310009302000093020000e4020000100300006a
:10532000100300001003000093020000930200002d
:105330002a0200002a0200004b0200009302000033
:1053400001000000b80100004b02000093020000c1
:10535000ba020000930200004b0200000b020000a2
:105360000100000001000000b8010000d2010000af
:105370000b0200000b020000ba020000ba0200009b
:10538000930200004b0200004b0200000b020000e1
:105390004b0200000b0200000b0200000b02000099
:1053a0000b0200000b020000b8010000d201000057
:1053b0000b0200000b020000ba020000ba0200005b
:1053c00010030000ba020000930200004b0200002c
:1053d0004b02000093020000ba020000ba02000073
:1053e000ba020000ba0200001003000070030000bf
:1053f000a4030000a4030000700300007003000079
:105400001003000010030000ba02000010030000a7
:10541000700300007003000010030000ba020000d7
:10542000ba020000ba0200004b0200000b020000aa
:105430004b020000ba020000ba0200009302000012
:105440009302000093020000e4020000e402000066
:10545000e4020000e402000001000000010000007e
:105460000100000001000000700300007003000054
:10547000a403000070030000e40200004b020000df
:105480004b02000093020000e4020000e40200006e
:10549000e4020000e402000001000000010000003e
:1054a00001000000700300007003000070030000a2
:1054b000dc03000070030000e40200004b02000067
:1054c0004b02000093020000e4020000e40200002e
:1054d000e4020000e40200000100000001000000fe
:1054e0000100000070030000700300007003000062
:1054f000dc03000070030000e40200004b02000027
:105500004b02000093020000e4020000e4020000ed
:10551000e4020000e40200000100000001000000bd
:105520000100000001000000700300007003000093
:10553000dc03000070030000e40200004b020000e6
:105540004b02000093020000e4020000e4020000ad
:10555000e4020000e402000001000000010000007d
:1055600001000000700300007003000070030000e1
:10557000dc03000070030000e40200004b020000a6
:105580004b02000093020000e4020000e40200006d
:10559000e4020000e402000001000000010000003d
:1055a0000100000010030000700300007003000001
:1055b0007003000070030000010000000100000003
:1055c0000100000010030000e4020000e4020000fb
:1055d000e4020000e40200000100000001000000fd
:1055e00001000000010000000100000001000000b7
:020000040000fa
:1055f000140000001400000014000000140000005b
:105600001400000000000000000000000000000086
:10561000000000000000000000000000000000008a
:105620000000000000000000000000001400000066
:10563000140000001400000014000000140000001a
:105640001400000014000000000000000000000032
:1056500014000000140000001400000014000000fa
:105660001400000000000000000000000000000026
:105670000000000000000000000000001400000016
:1056800014000000140000001400000014000000ca
:1056900014000000140000001400000014000000ba
:1056a00014000000140000001400000014000000aa
:1056b000140000001400000014000000140000009a
:1056c000140000001400000014000000000000009e
:1056d00000000000000000000000000000000000ca
:1056e00000000000000000000000000000000000ba
:1056f000140000001400000014000000140000005a
:105700001400000000000000000000000000000085
:105710000000000000000000000000000000000089
:105720000000000000000000000000001400000065
:105730001400000014000000140000001400000019
:105740000000000000000000140000001400000031
:105750000000000000000000140000001400000021
:105760001400000000000000000000000000000025
:105770000000000000000000000000000000000029
:1057800014000000140000001400000014000000c9
:1057900014000000140000001400000014000000b9
:1057a00014000000140000001400000014000000a9
:1057b00000000000140000001400000014000000ad
:1057c0001400000014000000140000001400000089
:1057d00000000000000000001400000014000000a1
:1057e0001400000014000000140000001400000069
:1057f0001400000014000000140000001400000059
:105800001400000014000000140000001400000048
:105810001400000014000000140000001400000038
:105820001400000014000000140000001400000028
:105830001400000014000000140000001400000018
:105840001400000014000000140000001400000008
:1058500014000000140000001400000014000000f8
:1058600014000000140000001400000014000000e8
:1058700014000000140000001400000014000000d8
:1058800014000000140000001400000014000000c8
:1058900014000000140000001400000014000000b8
:1058a00014000000140000001400000014000000a8
:1058b0001400000014000000140000001400000098
:1058c00014000000140000000000000000000000b0
:1058d00000000000000000000000000000000000c8
:1058e00000000000000000000000000000000000b8
:1058f00000000000000000000000000000000000a8
:105900000000000000000000000000000000000097
:105910000000000000000000000000000000000087
:105920000000000000000000000000001400000063
:105930001400000014000000140000001400000017
:10594000140000001400000000000000000000002f
:105950000000000000000000000000000000000047
:105960000000000000000000000000000000000037
:1059700014000000140000001400000014000000d7
:1059800014000000140000001400000014000000c7
:1059900014000000140000001400000014000000b7
:1059a00014000000000000000000000000000000e3
:1059b00000000000000000000000000000000000e7
:1059c0001400000014000000140000001400000087
:1059d0001400000014000000140000001400000077
:1059e0001400000014000000140000001400000067
:1059f0001400000014000000140000001400000057
:105a0000140000001400000000000000000000006e
:105a10000000000000000000000000000000000086
:105a20000000000000000000000000001400000062
:105a30001400000014000000140000001400000016
:105a40001400000000000000000000000000000042
:105a50000000000000000000000000000000000046
:105a60000000000000000000000000001400000022
:105a700014000000140000001400000014000000d6
:105a800000000000000000001400000014000000ee
:105a900000000000000000001400000014000000de
:105aa00014000000000000000000000000000000e2
:105ab00000000000000000000000000000000000e6
:105ac0001400000014000000140000001400000086
:105ad0001400000014000000140000001400000076
:105ae0001400000014000000140000001400000066
:105af000000000001400000014000000140000006a
:105b00001400000014000000140000001400000045
:105b1000000000000000000014000000140000005d
:105b20001400000014000000140000001400000025
:105b30001400000014000000140000001400000015
:105b40001400000014000000140000001400000005
:105b500014000000140000001400000014000000f5
:105b600014000000140000001400000014000000e5
:105b700014000000140000001400000014000000d5
:105b800014000000140000001400000014000000c5
:105b900014000000140000001400000014000000b5
:105ba00014000000140000001400000014000000a5
:105bb0001400000014000000140000001400000095
:105bc0001400000014000000140000001400000085
:105bd0001400000014000000140000001400000075
:105be0001400000014000000140000001400000065
:105bf0001400000014000000140000001400000055
:105c0000140000001400000000000000000000006c
:105c10000000000000000000000000000000000084
:105c20000000000000000000000000000000000074
:105c30000000000000000000000000000000000064
:105c40000000000000000000000000000000000054
:105c50000000000000000000000000000000000044
:105c60000000000000000000000000000000000034
:105c700014000000140000001400000014000000d4
:105c800014000000140000000000000000000000ec
:105c90000000000000000000000000000000000004
:105ca00000000000000000000000000014000000e0
:105cb0001400000014000000140000001400000094
:105cc00000000000000000001400000014000000ac
:105cd000000000000000000014000000140000009c
:105ce00014000000000000000000000000000000a0
:105cf00000000000000000000000000000000000a4
:105d00001400000014000000140000001400000043
:105d10001400000014000000140000001400000033
:105d20001400000014000000140000001400000023
:105d30001400000014000000140000001400000013
:105d4000140000001400000000000000000000002b
:105d50000000000000000000000000000000000043
:105d60000000000000000000000000000000000033
:105d700014000000140000001400000014000000d3
:105d800014000000140000000000000000000000eb
:105d90000000000000000000000000000000000003
:105da00000000000000000000000000000000000f3
:105db0001400000014000000140000001400000093
:105dc00000000000000000001400000014000000ab
:105dd000000000000000000014000000140000009b
:105de000140000000000000000000000000000009f
:105df00000000000000000000000000000000000a3
:105e00001400000014000000140000001400000042
:105e10001400000014000000140000001400000032
:105e20001400000014000000140000001400000022
:105e30000000000014000000140000001400000026
:105e40001400000014000000140000001400000002
:105e5000000000000000000014000000140000001a
:105e600014000000140000001400000014000000e2
:105e700014000000140000001400000014000000d2
:105e800014000000140000001400000014000000c2
:105e900014000000140000001400000014000000b2
:105ea00014000000140000001400000014000000a2
:105eb0001400000014000000140000001400000092
:105ec0001400000014000000140000001400000082
:105ed0001400000014000000140000001400000072
:105ee0001400000014000000140000001400000062
:105ef0001400000014000000140000001400000052
:105f00001400000014000000140000001400000041
:105f10001400000014000000140000001400000031
:105f20001400000014000000140000001400000021
:105f30001400000014000000140000001400000011
:105f40001400000014000000000000000000000029
:105f50000000000000000000140000001400000019
:105f600014000000140000001400000014000000e1
:105f700014000000140000001400000014000000d1
:105f800014000000140000000000000000000000e9
:105f900000000000140000001400000014000000c5
:105fa00014000000140000001400000014000000a1
:105fb0001400000014000000140000001400000091
:105fc00014000000140000000000000000000000a9
:105fd0000000000014000000140000001400000085
:105fe0001400000014000000140000001400000061
:105ff0001400000014000000140000001400000051
:106000001400000014000000000000000000000068
:106010000000000000000000140000001400000058
:106020001400000014000000140000001400000020
:106030001400000014000000140000001400000010
:106040001400000014000000000000000000000028
:106050000000000014000000140000001400000004
:1060600014000000140000001400000014000000e0
:1060700014000000140000001400000014000000d0
:1060800014000000140000000000000000000000e8
:1060900000000000140000001400000014000000c4
:1060a00014000000140000000000000000000000c8
:1060b00000000000140000001400000014000000a4
:1060c00014000000140000000000000000000000a8
:1060d00000000000000000000000000000000000c0
:020000040000fa
:1060e00003000000030000000300000002000000a5
:1060f000030000000000000001000000000000009c
:10610000000000000000000001000000000000008e
:10611000000000000000000000000000010000007e
:10612000010000000100000001000000000000006c
:10613000010000000100000000000000000000005d
:10614000000000000100000001000000000000004d
:10615000000000000000000000000000000000003f
:10616000000000000000000000000000010000002e
:10617000000000000100000001000000000000001d
:10618000000000000100000001000000000000000d
:1061900001000000000000000000000001000000fd
:1061a00000000000010000000100000000000000ed
:1061b00001000000000000000100000000000000dd
:1061c00000000000000000000000000000000000cf
:1061d00000000000000000000000000000000000bf
:1061e00001000000010000000100000001000000ab
:1061f000010000000000000000000000000000009e
:10620000000000000000000000000000000000008e
:10621000000000000000000000000000010000007d
:10622000010000000100000001000000010000006a
:10623000000000000000000001000000010000005c
:10624000000000000000000001000000000000004d
:10625000010000000000000000000000000000003d
:10626000000000000000000000000000000000002e
:10627000000000000100000001000000000000001c
:10628000000000000100000001000000000000000c
:1062900000000000010000000100000001000000fb
:1062a00000000000010000000100000001000000eb
:1062b00001000000010000000100000001000000da
:1062c00000000000000000000100000001000000cc
:1062d00004000000050000000400000001000000b0
:1062e000050000000500000005000000010000009e
:1062f000010000000500000004000000050000008f
:10630000000000000500000005000000050000007e
:10631000000000000100000000000000010000007b
:106320000100000001000000010000000100000069
:10633000010000000100000000000000010000005a
:10634000000000000100000001000000010000004a
:10635000010000000100000000000000010000003a
:10636000000000000100000001000000010000002a
:10637000010000000100000000000000010000001a
:10638000000000000100000001000000010000000a
:1063900001000000010000000100000000000000fa
:1063a00001000000010000000100000000000000ea
:1063b00000000000010000000000000000000000dc
:1063c00000000000000000000000000000000000cd
:1063d00000000000000000000000000000000000bd
:1063e00000000000000000000000000000000000ad
:1063f000000000000000000000000000000000009d
:10640000000000000000000000000000000000008c
:10641000000000000000000000000000010000007b
:106420000100000001000000010000000000000069
:10643000010000000100000000000000000000005a
:10644000000000000000000000000000000000004c
:10645000000000000000000000000000000000003c
:106460000100000001000000010000000000000029
:10647000000000000100000001000000000000001a
:10648000010000000000000001000000000000000a
:1064900001000000000000000000000000000000fb
:1064a00000000000000000000000000000000000ec
:1064b00000000000010000000100000000000000da
:1064c00000000000010000000000000001000000ca
:1064d00000000000010000000100000000000000ba
:1064e00000000000010000000100000000000000aa
:1064f000010000000100000000000000000000009a
:10650000000000000000000000000000000000008b
:10651000000000000000000000000000010000007a
:106520000100000001000000010000000100000067
:10653000010000000000000000000000000000005a
:10654000000000000000000000000000000000004b
:10655000000000000000000000000000010000003a
:106560000100000001000000010000000100000027
:106570000000000000000000010000000100000019
:10658000000000000000000001000000000000000a
:1065900001000000000000000000000000000000fa
:1065a00000000000000000000000000000000000eb
:1065b00000000000010000000100000000000000d9
:1065c00000000000010000000000000001000000c9
:1065d00000000000010000000100000000000000b9
:1065e00000000000010000000100000001000000a8
:1065f0000100000001000000010000000100000097
:106600000000000000000000010000000100000088
:106610000000000001000000000000000100000078
:106620000100000001000000010000000100000066
:106630000100000001000000000000000100000057
:106640000000000001000000010000000100000047
:106650000000000001000000000000000100000038
:106660000100000001000000010000000100000026
:106670000100000001000000000000000100000017
:106680000000000001000000010000000100000007
:1066900001000000010000000000000001000000f7
:1066a00000000000010000000100000001000000e7
:1066b00001000000010000000100000001000000d6
:1066c00000000000010000000100000001000000c7
:1066d00001000000010000000100000000000000b7
:1066e00001000000010000000100000000000000a7
:1066f0000000000001000000000000000000000099
:106700000000000000000000000000000000000089
:106710000000000000000000000000000000000079
:106720000000000000000000000000000000000069
:106730000000000000000000000000000000000059
:106740000000000000000000000000000000000049
:106750000000000000000000000000000000000039
:106760000100000001000000010000000000000026
:106770000100000001000000000000000000000017
:106780000000000000000000000000000000000009
:1067900000000000000000000000000001000000f8
:1067a00001000000010000000100000001000000e5
:1067b00000000000000000000100000001000000d7
:1067c00000000000000000000100000000000000c8
:1067d00001000000000000000000000000000000b8
:1067e00000000000000000000000000000000000a9
:1067f0000000000001000000010000000000000097
:106800000000000001000000000000000100000086
:106810000000000001000000010000000000000076
:106820000000000001000000010000000000000066
:106830000100000001000000000000000000000056
:106840000000000000000000000000000000000048
:106850000000000000000000000000000000000038
:106860000100000001000000010000000000000025
:106870000100000001000000000000000000000016
:106880000000000000000000000000000000000008
:1068900000000000000000000000000000000000f8
:1068a00001000000010000000100000001000000e4
:1068b00000000000000000000100000001000000d6
:1068c00000000000000000000100000000000000c7
:1068d00001000000000000000000000000000000b7
:1068e00000000000000000000000000000000000a8
:1068f0000000000001000000010000000000000096
:106900000000000001000000000000000100000085
:106910000000000001000000010000000100000074
:106920000000000001000000010000000100000064
:106930000100000001000000010000000100000053
:106940000000000000000000010000000100000045
:106950000000000001000000000000000100000035
:106960000100000001000000010000000100000023
:106970000100000001000000000000000100000014
:106980000000000001000000010000000100000004
:1069900000000000010000000000000001000000f5
:1069a00001000000010000000100000001000000e3
:1069b00001000000010000000000000001000000d4
:1069c00000000000010000000100000001000000c4
:1069d00001000000010000000100000001000000b3
:1069e00000000000010000000100000001000000a4
:1069f0000100000001000000010000000100000093
:106a00000000000001000000010000000100000083
:106a10000100000001000000010000000000000073
:106a20000100000001000000010000000000000063
:106a30000000000001000000000000000000000055
:106a40000000000000000000010000000100000044
:106a50000100000001000000010000000000000033
:106a60000100000001000000010000000000000023
:106a70000000000001000000000000000000000015
:106a80000000000001000000010000000100000003
:106a900001000000010000000100000000000000f3
:106aa00001000000010000000100000000000000e3
:106ab00000000000010000000000000000000000d5
:106ac00000000000010000000100000001000000c3
:106ad00001000000010000000100000000000000b3
:106ae00001000000010000000100000000000000a3
:106af0000000000001000000000000000000000095
:106b00000000000000000000010000000100000083
:106b10000100000001000000010000000000000072
:106b20000100000001000000010000000000000062
:106b30000000000001000000000000000000000054
:106b40000000000001000000010000000100000042
:106b50000100000001000000010000000000000032
:106b60000100000001000000010000000000000022
:106b70000000000001000000000000000000000014
:106b80000000000001000000010000000000000003
:106b900000000000010000000000000000000000f4
:106ba00000000000010000000100000000000000e3
:106bb00000000000010000000000000000000000d4
:106bc00000000000000000000000000000000000c5
:020000040000fa
:106bd00001000000010000000100000001000000b1
:106be000dc00000026010000720100002601000008
:106bf000f7000000260100007201000026010000dd
:106c0000dc000000260100007201000026010000e7
:106c1000f7000000260100007201000026010000bc
:106c2000dc000000260100007201000026010000c7
:106c3000f70000002601000072010000260100009c
:106c4000dc000000260100007201000026010000a7
:106c5000f70000002601000072010000260100007c
:106c6000dc0000004a010000880100004a01000029
:106c7000dc0000004a010000880100004a01000019
:106c8000dc00000015010000880100001501000073
:106c9000dc00000015010000880100001501000063
:106ca000dc00000026010000720100002601000047
:106cb000f70000002601000072010000260100001c
:106cc000dc00000026010000720100002601000027
:106cd000f7000000260100007201000026010000fc
:106ce000dc00000026010000720100002601000007
:106cf000f7000000260100007201000026010000dc
:106d0000dc000000260100007201000026010000e6
:106d1000f7000000260100007201000026010000bb
:106d2000dc000000260100007201000026010000c6
:106d3000f70000002601000072010000260100009b
:106d4000dc000000260100007201000026010000a6
:106d5000f70000002601000072010000260100007b
:106d6000dc0000004a010000880100004a01000028
:106d7000dc0000004a010000880100004a01000018
:106d8000dc00000015010000880100001501000072
:106d9000dc00000015010000880100001501000062
:106da000e9000000260100005d010000b8010000bc
:106db000b8010000b801000001000000010000005f
:106dc0005d010000b80100005d010000010000004d
:106dd0004a010000880100004a0100000100000093
:106de0002601000026010000260100004a010000e3
:106df0005d0100005d0100005d0100005d0100001b
:106e00005d010000b80100005d010000010000000c
:106e10004a010000880100004a0100000100000052
:106e20002601000026010000260100004a010000a2
:106e30005d0100005d0100005d0100005d010000da
:106e400026010000880100002601000088010000e2
:106e50004a010000880100004a010000880100008a
:106e60005d010000b80100005d010000b8010000f4
:106e70005d010000b80100005d010000b8010000e4
:106e800026010000880100002601000088010000a2
:106e900015010000880100001501000088010000b4
:106ea0000100000026010000720100002601000020
:106eb00001000000b801000072010000260100007e
:106ec0000100000026010000720100002601000000
:106ed00001000000b801000072010000260100005e
:106ee00001000000260100007201000026010000e0
:106ef00001000000b801000072010000260100003e
:106f000001000000260100007201000026010000bf
:106f100001000000b801000072010000260100001d
:106f2000010000002601000072010000260100009f
:106f300001000000b80100007201000026010000fd
:106f4000010000002601000072010000260100007f
:106f500001000000b80100007201000026010000dd
:106f6000010000002601000072010000260100005f
:106f700001000000b80100007201000026010000bd
:106f8000010000002601000072010000260100003f
:106f900001000000b801000072010000260100009d
:106fa0009302000093020000e402000010030000be
:106fb0001003000010030000930200009302000081
:106fc0002a0200002a0200004b0200009302000087
:106fd0009302000093020000b8010000b801000015
:106fe000b8010000e4020000010000000100000000
:106ff000010000000100000001000000010000008d
:10700000010000000100000001000000b8010000c4
:1070100010030000e402000093020000930200004d
:10702000e402000001000000010000000100000077
:10703000010000000100000001000000010000004c
:10704000010000000100000001000000b801000084
:1070500010030000e402000093020000930200000d
:107060000100000001000000e40200004b020000eb
:10707000010000000100000093020000b8010000c0
:10708000b801000001000000010000000100000044
:1070900001000000010000000100000001000000ec
:1070a0009302000093020000e402000010030000bd
:1070b0001003000010030000930200009302000080
:1070c0002a0200002a0200004b0200009302000086
:1070d00001000000b80100004b0200009302000014
:1070e000ba020000930200004b0200000b020000f5
:1070f0000100000001000000b8010000d201000002
:107100000b0200000b020000ba020000ba020000ed
:10711000930200004b0200004b0200000b02000033
:107120004b0200000b0200000b0200000b020000eb
:107130000b0200000b020000b8010000d2010000a9
:107140000b0200000b020000ba020000ba020000ad
:1071500010030000ba020000930200004b0200007e
:107160004b02000093020000ba020000ba020000c5
:10717000ba020000ba020000100300007003000011
:10718000a4030000a40300007003000070030000cb
:107190001003000010030000ba02000010030000fa
:1071a000700300007003000010030000ba0200002a
:1071b000ba020000ba0200004b0200000b020000fd
:1071c0004b020000ba020000ba0200009302000065
:1071d0009302000093020000e4020000e4020000b9
:1071e000e4020000e40200000100000001000000d1
:1071f000010000000100000001000000010000008b
:10720000010000000100000001000000010000007a
:10721000010000000100000001000000010000006a
:10722000010000000100000001000000010000005a
:10723000010000000100000001000000010000004a
:10724000010000000100000001000000010000003a
:1072500010030000e402000093020000930200000b
:1072600093020000e40200000100000001000000a1
:10727000010000000100000001000000010000000a
:10728000010000000100000001000000b801000042
:1072900010030000e40200009302000093020000cb
:1072a0000100000001000000e40200004b020000a9
:1072b000010000000100000093020000b80100007e
:1072c000b801000001000000010000000100000002
:1072d00001000000010000000100000001000000aa
:1072e0009302000093020000e4020000100300007b
:1072f000100300001003000093020000930200003e
:107300002a0200002a0200004b0200009302000043
:107310009302000093020000b8010000b8010000d1
:10732000b8010000e4020000e402000001000000d7
:107330000100000001000000010000000100000049
:107340000100000001000000010000000100000039
:1073500010030000e402000093020000930200000a
:1073600093020000e40200000100000001000000a0
:107370000100000001000000010000000100000009
:1073800001000000010000000100000001000000f9
:1073900010030000e40200009302000093020000ca
:1073a0000100000001000000e40200004b020000a8
:1073b000010000000100000093020000b80100007d
:1073c000b801000001000000010000000100000001
:1073d00001000000010000000100000001000000a9
:1073e0009302000093020000e4020000100300007a
:1073f000100300001003000093020000930200003d
:107400002a0200002a0200004b0200009302000042
:1074100001000000b80100004b02000093020000d0
:10742000ba020000930200004b0200000b020000b1
:107430000100000001000000b8010000d2010000be
:107440000b0200000b020000ba020000ba020000aa
:10745000930200004b0200004b0200000b020000f0
:107460004b0200000b0200000b0200000b020000a8
:107470000b0200000b020000b8010000d201000066
:107480000b0200000b020000ba020000ba0200006a
:1074900010030000ba020000930200004b0200003b
:1074a0004b02000093020000ba020000ba02000082
:1074b000ba020000ba0200001003000070030000ce
:1074c000a4030000a4030000700300007003000088
:1074d0001003000010030000ba02000010030000b7
:1074e000700300007003000010030000ba020000e7
:1074f000ba020000ba0200004b02000006010000c0
:107500004b020000ba020000ba0200009302000021
:107510009302000093020000e4020000e402000075
:10752000e4020000e402000001000000010000008d
:107530000100000001000000700300007003000063
:10754000a403000070030000e40200004b020000ee
:107550004b02000093020000e4020000e40200007d
:10756000e4020000e402000001000000010000004d
:1075700001000000700300007003000070030000b1
:10758000dc03000070030000e40200004b02000076
:107590004b02000093020000e4020000e40200003d
:1075a000e4020000e402000001000000010000000d
:1075b0000100000070030000700300007003000071
:1075c000dc03000070030000e40200004b02000036
:1075d0004b02000093020000e4020000e4020000fd
:1075e000e4020000e40200000100000001000000cd
:1075f00001000000010000007003000070030000a3
:10760000dc03000070030000e40200004b020000f5
:107610004b02000093020000e4020000e4020000bc
:10762000e4020000e402000001000000010000008c
:1076300001000000700300007003000070030000f0
:10764000dc03000070030000e40200004b020000b5
:107650004b02000093020000e4020000e40200007c
:10766000e4020000e402000001000000010000004c
:107670000100000010030000700300007003000010
:107680007003000070030000010000000100000012
:107690000100000010030000e4020000e40200000a
:1076a000e4020000e402000001000000010000000c
:1076b00001000000010000000100000001000000c6
:020000040000fa
:1076c00000000000000000000000000000000000ba
:1076d0000c0000000c0000000c0000000c0000007a
:1076e0000c0000000c0000000c0000000c0000006a
:1076f0000c0000000c0000000c0000000c0000005a
:107700000c0000000c0000000c0000000c00000049
:107710000c0000000c0000000c0000000c00000039
:107720000c0000000c0000000c0000000c00000029
:107730000c0000000c0000000c0000000c00000019
:107740000c0000000c0000000c0000000c00000009
:107750000c0000000c0000000c0000000c000000f9
:107760000c0000000c0000000c0000000c000000e9
:107770000c0000000c0000000c0000000c000000d9
:107780000c0000000c0000000c0000000c000000c9
:107790000c0000000c0000000c0000000c000000b9
:1077a0000c0000000c0000000c0000000c000000a9
:1077b0000c0000000c0000000c0000000c00000099
:1077c0000c0000000c0000000c0000000c00000089
:1077d0000c0000000c0000000c0000000c00000079
:1077e0000c0000000c0000000c0000000c00000069
:1077f0000c0000000c0000000c0000000c00000059
:107800000c0000000c0000000c0000000c00000048
:107810000c0000000c0000000c0000000c00000038
:107820000c0000000c0000000c0000000c00000028
:107830000c0000000c0000000c0000000c00000018
:107840000c0000000c0000000c0000000c00000008
:107850000c0000000c0000000c0000000c000000f8
:107860000c0000000c0000000c0000000c000000e8
:107870000c0000000c0000000c0000000c000000d8
:107880000c0000000c0000000c0000000c000000c8
:107890000c0000000c0000000c0000000c000000b8
:1078a0000c0000000a0000000000000000000000c2
:1078b0000a0000000a0000000a00000000000000aa
:1078c0000a0000000a0000000a000000000000009a
:1078d0000a0000000a0000000a0000000a00000080
:1078e0000a0000000a0000000a000000000000007a
:1078f0000a0000000a0000000a000000000000006a
:107900000a0000000a0000000a0000000000000059
:107910000a0000000a0000000a0000000a0000003f
:107920000a0000000a0000000a0000000000000039
:107930000a0000000a0000000a0000000a0000001f
:107940000a0000000a0000000a0000000a0000000f
:107950000a0000000a0000000a0000000a000000ff
:107960000a0000000a0000000a0000000a000000ef
:107970000a0000000a0000000a0000000a000000df
:107980000a0000000a0000000a0000000a000000cf
:10799000000000000a0000000c0000000c000000c5
:1079a000000000000c0000000c0000000c000000b3
:1079b000000000000a0000000c0000000c000000a5
:1079c000000000000c0000000c0000000c00000093
:1079d000000000000a0000000c0000000c00000085
:1079e000000000000c0000000c0000000c00000073
:1079f000000000000a0000000c0000000c00000065
:107a0000000000000c0000000c0000000c00000052
:107a1000000000000a0000000c0000000c00000044
:107a2000000000000c0000000c0000000c00000032
:107a3000000000000a0000000c0000000c00000024
:107a4000000000000c0000000c0000000c00000012
:107a5000000000000a0000000c0000000c00000004
:107a6000000000000c0000000c0000000c000000f2
:107a7000000000000a0000000c0000000c000000e4
:107a8000000000000c0000000c0000000c000000d2
:107a900000000000000000000000000000000000e6
:107aa00000000000000000000000000000000000d6
:107ab00000000000000000000000000000000000c6
:107ac00000000000000000000000000000000000b6
:020000040000fa
:1083c000e900000001000000e900000001000000d9
:1083d000060100000100000006010000010000008d
:1083e000060100000100000006010000010000007d
:1083f000060100000100000006010000010000006d
:10840000e900000001000000e90000000100000098
:10841000060100000100000006010000010000004c
:10842000e900000001000000e90000000100000078
:10843000060100000100000006010000010000002c
:10844000060100000100000006010000010000001c
:1084500026010000010000002601000001000000cc
:10846000e900000001000000e90000000100000038
:10847000dc00000001000000dc0000000100000042
:108480000100000001000000dc000000dc00000032
:10849000dc000000010000000100000001000000fd
:1084a0000100000001000000dc000000dc00000012
:1084b000dc000000010000000100000001000000dd
:1084c0000100000001000000dc000000dc000000f2
:1084d000dc000000010000000100000001000000bd
:1084e0000100000001000000dc000000dc000000d2
:1084f000dc0000000100000001000000010000009d
:108500000100000001000000dc000000dc000000b1
:10851000dc0000000100000001000000010000007c
:108520000100000001000000dc000000dc00000091
:10853000dc0000000100000001000000010000005c
:108540000100000001000000dc000000dc00000071
:10855000dc0000000100000001000000010000003c
:108560000100000001000000dc000000dc00000051
:10857000dc0000000100000001000000010000001c
:1085800001000000010000000100000001000000e7
:1085900001000000010000000100000001000000d7
:1085a00001000000010000000100000001000000c7
:1085b00001000000010000000100000001000000b7
:020000040000fa
:108e90000a000000030000000a00000003000000b8
:108ea0000a000000030000000a00000003000000a8
:108eb0000a000000030000000a0000000300000098
:108ec0000a000000030000000a0000000300000088
:108ed0000a000000030000000a0000000300000078
:108ee0000a000000030000000a0000000300000068
:108ef0000a000000030000000a0000000300000058
:108f00000a000000030000000a0000000300000047
:108f10000a000000030000000a0000000300000037
:108f20000a000000030000000a0000000300000027
:108f30000a000000030000000a0000000300000017
:108f40000a000000030000000a0000000300000007
:108f50000a000000030000000a00000003000000f7
:108f60000a000000030000000a00000003000000e7
:108f700000000000000000000c0000000c000000d9
:108f80000c000000000000000000000000000000d5
:108f900000000000000000000c0000000c000000b9
:108fa0000c000000000000000000000000000000b5
:108fb00000000000000000000c0000000c00000099
:108fc0000c00000000000000000000000000000095
:108fd00000000000000000000c0000000c00000079
:108fe0000c00000000000000000000000000000075
:108ff00000000000000000000c0000000c00000059
:109000000c00000000000000000000000000000054
:1090100000000000000000000c0000000c00000038
:109020000c00000000000000000000000000000034
:1090300000000000000000000c0000000c00000018
:109040000c00000000000000000000000000000014
:1090500000000000000000000c0000000c000000f8
:109060000c000000000000000000000000000000f4
:1090700000000000000000000000000000000000f0
:1090800000000000000000000000000000000000e0
:1090900000000000000000000000000000000000d0
:1090a00000000000000000000000000000000000c0
:020000040000fa
:109a6000490000004900000001000000490000001a
:109a70003e0000003e000000010000003e0000002b
:109a800049000000490000000100000049000000fa
:109a90003e0000003e000000010000003e0000000b
:109aa00049000000490000000100000049000000da
:109ab0003e0000003e000000010000003e000000eb
:109ac00049000000490000000100000049000000ba
:109ad0003e0000003e000000010000003e000000cb
:109ae000490000004900000001000000490000009a
:109af0003e0000003e000000010000003e000000ab
:109b00004900000049000000010000004900000079
:109b10003e0000003e000000010000003e0000008a
:109b20004900000049000000010000004900000059
:109b30003e0000003e000000010000003e0000006a
:109b40004900000049000000010000004900000039
:109b50003e0000003e000000010000003e0000004a
:109b600001000000010000000100000001000000f1
:109b700001000000010000000100000001000000e1
:109b800001000000010000000100000001000000d1
:109b900001000000010000000100000001000000c1
:020000040000fa
:10a550000f00000005000000000000000f000000d8
:10a560000f00000005000000000000000f000000c8
:10a570000f00000005000000000000000f000000b8
:10a580000f00000005000000000000000f000000a8
:10a590000f00000005000000000000000f00000098
:10a5a0000f00000005000000000000000f00000088
:10a5b0000f00000005000000000000000f00000078
:10a5c0000f00000005000000000000000f00000068
:10a5d0000f00000005000000000000000f00000058
:10a5e0000f00000005000000000000000f00000048
:10a5f0000f00000005000000000000000f00000038
:10a600000f00000005000000000000000f00000027
:10a610000f00000005000000000000000f00000017
:10a620000f00000005000000000000000f00000007
:10a630000f00000005000000000000000f000000f7
:10a640000f00000005000000000000000f000000e7
:10a6500000000000000000000000000000000000fa
:10a6600000000000000000000000000000000000ea
:10a6700000000000000000000000000000000000da
:10a6800000000000000000000000000000000000ca
:020000040000fa
:10ad70000200fa00889fbe008a9fbe008c9fbe0022
:10ad80004487a8003d3a8000fc1f20008c866600a6
:10ad90000ca028000d0676003c3a88000ad02b0053
:10ada0002b0020000a057800ca38880008d02b0044
:10adb00029002000404cde0088047800f80f2000b5
:10adc00008846400d838880006d02b0027002000b3
:10add000060378006638880004d02b002500200088
:10ade000402ade0084027800f40f20000482620012
:10adf0007438880002d02b00230020000201780064
:10ae00008238880000d02b00210020004008de009e
:10ae100080007800f00f20000080600090388800eb
:10ae20000080eb00f03988002139800080ff2f007e
:10ae3000008060000000a000203988000080eb0046
:10ae4000f0398800a138800000802f0080806000e9
:10ae50000005200001007000a0388800a1388000a3
:10ae6000f07f200080806000f07f20000080600084
:10ae7000e238800001802f00810061000100700035
:10ae8000e0388800b138800000802f0080806000aa
:10ae9000001e200001007000b0388800b13880002a
:10aea000f07f200080806000f07f20000080600044
:10aeb000f238800001802f008100610001007000e5
:10aec000f03888000139800000802f008080600009
:10aed00080092000010070000039880011398000cd
:10aee00000802f0080806000202120000100700081
:10aef0001039880026e7a9002647a90026c7a9001f
:10af00002627a8002607a80026a7a9002687a900ab
:10af100090c1b3002fe7b7002fc7bf0029e7b700e4
:10af200080c4b3002ee7b7002ec7bf0028e7b700e4
:10af3000a0c0b3002ce7b70000c2b3002ae7b700f7
:10af400050c0b3002de7b70080c0b3002be7b700b7
:10af50002667a9002727a8002707a8000000eb0004
:10af6000000f7800010037001e0fe80041002000ac
:10af70001e0078000088de00e10f5000faff3c0060
:10af80001e00780000407800674060000080fb00f1
:10af9000670060004500dd0022388000f1f12f00dd
:10afa0008100610001007000203888002038800096
:10afb0004500de00674060000080fb006700600025
:10afc0004500dd0022398000f1f12f008100610091
:10afd000010070002039880005e7a80000e8230080
:10afe00001002000530007004f06be004f05be00c1
:0caff0004f04be000080fa0000000600c4
:020000040000fa
:10affc001a08000080000000820000008000980009
:10b00c0000b00000c600da0000ea0000f500fd0008
:10b01c0000ff0000fd00f50000ea0000da00c600a9
:10b02c0000b0000098008000006700004f0039005d
:10b03c000025000015000a000002000000000200bc
:10b04c00000a000015002500003900004f006700c1
:10b05c00008000008f009f0000af0000bf00cf00f9
:10b06c0000df0000ef00ff0000ef0000df00cf006a
:10b07c0000bf0000af009f00008f00008000700038
:10b08c000060000050004000003000002000100064
:10b09c0000000000100020000030000040005000b4
:10b0ac0000600000700000001408000002000000a6
:10b0bc0082000000ffff00000008000014000000e8
:10b0cc008000000016080000020000008200000052
:10b0dc0006000000180800000200000080000000bc
:10b0ec0000bd0000004b000000010000000000004b
:020000040000fa
:10b0fc000000fa00001020001008880021058000d4
:10b10c00f0ff280080806000000025000100700026
:10b11c002005880005e1a8008460a9009460a800bf
:08b12c000080fa00000006009b
:020000040000fa
:10b13400f03fb1000180b10006003500ee030900c4
:10b1440000000000403fb1000180b100fbff3d0062
:10b154001000b000203fb00002003500008009005c
:08b164000000000000000600dd
:020000040000fa
:10b16c000400fa00000f780011079800e224ef00a9
:10b17c00e424ef00e624ef00ea24ef00ec24ef00d7
:10b18c00c822ef00f7fe0700d9ff0700ffff3700ca
:020000040000fa
:020000040005f5
:0457f400ffec0000c6
:020000040000fa
:020000040005f5
:0457f800be9b000054
:020000040000fa
:020000040005f5
:0457fc007fbf00006b
:00000001FF
