:020000040000fa
:080000000002040000000000f2
:020000040000fa
:10000800d2020000d2020000d2020000d202000098
:10001800d2020000d2020000d2020000d202000088
:10002800d2020000d2020000d202000028550000cf
:10003800d2020000d2020000d2020000d202000068
:10004800d2020000d2020000d2020000d202000058
:10005800d2020000d2020000d2020000d202000048
:10006800d2020000d2020000d2020000d202000038
:10007800d2020000d2020000d2020000d202000028
:10008800d2020000d2020000d2020000d202000018
:10009800d2020000d2020000d2020000d202000008
:1000a800d2020000d2020000d2020000d2020000f8
:1000b800d2020000d2020000d2020000d2020000e8
:1000c800d2020000d2020000d2020000d2020000d8
:1000d800d2020000d2020000d2020000d2020000c8
:1000e800d2020000d2020000d2020000d2020000b8
:1000f800d2020000d2020000d2020000d2020000a8
:10010800d2020000d2020000d2020000d202000097
:10011800d2020000d2020000d2020000d202000087
:10012800d2020000d2020000d2020000d202000077
:10013800d2020000d2020000d2020000d202000067
:10014800d2020000d2020000d2020000d202000057
:10015800d2020000d2020000d2020000d202000047
:10016800d2020000d2020000d2020000d202000037
:10017800d2020000d2020000d2020000d202000027
:10018800d2020000d2020000d2020000d202000017
:10019800d2020000d2020000d2020000d202000007
:1001a800d2020000d2020000d2020000d2020000f7
:1001b800d2020000d2020000d2020000d2020000e7
:1001c800d2020000d2020000d2020000d2020000d7
:1001d800d2020000d2020000d2020000d2020000c7
:1001e800d2020000d2020000d2020000d2020000b7
:0801f800d2020000d202000057
:020000040000fa
:10020800d2020000d2020000d2020000d202000096
:10021800d2020000d2020000d2020000d202000086
:10022800d2020000d2020000d202000028550000cd
:10023800d2020000d2020000d2020000d202000066
:10024800d2020000d2020000d2020000d202000056
:10025800d2020000d2020000d2020000d202000046
:10026800d2020000d2020000d2020000d202000036
:10027800d2020000d2020000d2020000d202000026
:10028800d2020000d2020000d2020000d202000016
:10029800d2020000d2020000d2020000d202000006
:1002a800d2020000d2020000d2020000d2020000f6
:1002b800d2020000d2020000d2020000d2020000e6
:1002c800d2020000d2020000d2020000d2020000d6
:1002d800d2020000d2020000d2020000d2020000c6
:1002e800d2020000d2020000d2020000d2020000b6
:1002f800d2020000d2020000d2020000d2020000a6
:10030800d2020000d2020000d2020000d202000095
:10031800d2020000d2020000d2020000d202000085
:10032800d2020000d2020000d2020000d202000075
:10033800d2020000d2020000d2020000d202000065
:10034800d2020000d2020000d2020000d202000055
:10035800d2020000d2020000d2020000d202000045
:10036800d2020000d2020000d2020000d202000035
:10037800d2020000d2020000d2020000d202000025
:10038800d2020000d2020000d2020000d202000015
:10039800d2020000d2020000d2020000d202000005
:1003a800d2020000d2020000d2020000d2020000f5
:1003b800d2020000d2020000d2020000d2020000e5
:1003c800d2020000d2020000d2020000d2020000d5
:1003d800d2020000d2020000d2020000d2020000c5
:1003e800d2020000d2020000d2020000d2020000b5
:0803f800d2020000d202000055
:020000040000fa
:10040000ef8120000eff27000e0188000000000091
:10041000000020000000e000020032000001200087
:10042000200288000c000700c08725000100200082
:100430000f000700000020000000e0000200320072
:1004400000000200000000005a58020000000000f6
:100450000040da000000fe00001022000000e00072
:1004600002003200002020009001880000000600f9
:10047000a1028800800078000000eb001a0037001d
:10048000e280400054a0b4009101ba00e280400034
:1004900054a0b4009102ba00e280400054a0b4001d
:1004a0000002eb00472bde00f507b200a601880032
:1004b000602ce10008003a000049eb000201e8006e
:1004c000020039003420ec0002f0a0008301e900b2
:1004d000f9ff3e00040037006128e100010032000e
:1004e0000082eb00040007001101ba000200e000e6
:1004f000e3ff3a000000060004d0a300e20f490029
:100500001c003900810278003549ba000201e80078
:10051000020039003420ec0002f0a0008301e90061
:100520000f0032002549ba000201e800020039003c
:100530003420ec0002f0a0008301e9000800320042
:100540000400e0000600320015c9ba000201e8000c
:10055000020039003420ec0002f0a0008301e90021
:100560008180e80054a0b4000300e000e2ff3a00fc
:10057000000006009102ba00055978008301e900e5
:10058000f7ff3200c82ade00055978008301e90030
:10059000f3ff32000400e000f1ff320011d9ba008d
:0c05a000eeff37000040da000000fe0013
:020000040000fa
:1005ac00040000000400000004000000040000002f
:1005bc00040000000400000004000000040000001f
:1005cc00040000000400000004000000040000000f
:1005dc0004000000040000000400000004000000ff
:020000040000fa
:1047ac004f000000540000005e0000005e0000009e
:1047bc005400000001000000010000000100000096
:1047cc0001000000010000000100000001000000d9
:1047dc000100000001000000010000008e0000003c
:1047ec004f000000540000005e0000005e0000005e
:1047fc005e000000540000000100000001000000f9
:10480c006a0000006a0000005e0000008e000000dc
:10481c008e000000010000000100000001000000fb
:10482c000100000001000000010000008e000000eb
:10483c005e0000005e000000540000004f0000000d
:10484c004f0000004f0000005e00000070000000f0
:10485c00700000006a0000006a0000006a0000009e
:10486c005e0000005e0000008e0000008e00000064
:10487c008e000000540000005400000001000000f5
:10488c000100000001000000010000000100000018
:10489c000100000001000000010000000100000008
:1048ac004f000000540000005e0000005e0000009d
:1048bc005400000001000000010000000100000095
:1048cc0001000000010000000100000001000000d8
:1048dc000100000001000000010000008e0000003b
:1048ec004f000000540000005e0000005e0000005d
:1048fc000100000001000000540000006a000000ec
:10490c0001000000010000005e0000008e000000ad
:10491c008e000000010000000100000001000000fa
:10492c000100000001000000010000000100000077
:10493c005e0000005e000000540000004f0000000c
:10494c004f0000004f0000005e00000070000000ef
:10495c0070000000700000006a0000005e000000a3
:10496c00010000008e0000006a0000005e000000e4
:10497c00590000005e0000006a0000007700000093
:10498c0001000000010000008e0000008600000005
:10499c00770000007700000059000000590000006b
:1049ac005e0000006a0000006a0000007700000052
:1049bc006a0000007700000077000000770000001c
:1049cc0077000000770000008e00000086000000d9
:1049dc00770000007700000059000000590000002b
:1049ec004f000000590000005e0000006a0000004b
:1049fc006a0000005e000000590000005900000031
:104a0c0059000000590000004f0000004700000052
:104a1c004300000043000000470000004700000076
:104a2c004f0000004f000000590000004f00000034
:104a3c0047000000470000004f0000004f0000003e
:104a4c0059000000590000006a00000077000000c7
:104a5c006a00000059000000590000005e000000d0
:104a6c005e0000005e0000005400000054000000d6
:104a7c005400000054000000010000000100000080
:104a8c000100000001000000010000000100000016
:104a9c000100000001000000010000000100000006
:104aac0001000000010000000100000001000000f6
:104abc0001000000010000000100000001000000e6
:104acc0001000000010000000100000001000000d6
:104adc000100000001000000010000008e00000039
:104aec004f000000540000005e0000005e0000005b
:104afc005e000000540000000100000001000000f6
:104b0c000100000001000000010000000100000095
:104b1c000100000001000000010000000100000085
:104b2c004f000000540000005e0000005e0000001a
:104b3c005e0000005e000000540000006a000000ef
:104b4c006a0000005e0000005e0000008e000000a5
:104b5c008e000000010000000100000001000000b8
:104b6c000100000001000000010000000100000035
:104b7c005e0000005e000000540000004f000000ca
:104b8c004f0000004f0000005e0000005e000000bf
:104b9c0070000000700000006a0000005e00000061
:104bac005e0000005e0000008e0000008e00000021
:104bbc008e00000054000000010000000100000005
:104bcc0001000000010000000100000001000000d5
:104bdc000100000001000000010000008e00000038
:104bec004f000000540000005e0000005e0000005a
:104bfc005400000001000000010000000100000052
:104c0c000100000001000000010000000100000094
:104c1c000100000001000000010000008e000000f7
:104c2c004f000000540000005e0000005e00000019
:104c3c000100000001000000540000006a000000a8
:104c4c0001000000010000005e0000008e0000006a
:104c5c008e000000010000000100000001000000b7
:104c6c000100000001000000010000000100000034
:104c7c005e0000005e000000540000004f000000c9
:104c8c004f0000004f0000005e0000005e000000be
:104c9c0070000000700000006a0000005e00000060
:104cac00010000008e0000006a0000005e000000a1
:104cbc00590000005e0000006a0000007700000050
:104ccc0001000000010000008e00000086000000c2
:104cdc007700000077000000590000005900000028
:104cec005e0000006a0000006a000000770000000f
:104cfc006a000000770000007700000077000000d9
:104d0c0077000000770000008e0000008600000095
:104d1c0077000000770000005900000059000000e7
:104d2c004f000000590000005e0000006a00000007
:104d3c006a0000005e0000005900000059000000ed
:104d4c0059000000590000004f000000470000000f
:104d5c004300000043000000470000004700000033
:104d6c004f0000004f000000590000004f000000f1
:104d7c0047000000470000004f00000059000000f1
:104d8c0059000000590000006a0000007700000084
:104d9c006a00000059000000590000005e0000008d
:104dac005e0000005e000000540000005400000093
:104dbc00540000005400000001000000010000003d
:104dcc0001000000010000000100000001000000d3
:104ddc0001000000010000000100000001000000c3
:104dec0001000000010000000100000001000000b3
:104dfc0001000000010000000100000001000000a3
:104e0c000100000001000000010000000100000092
:104e1c000100000001000000010000000100000082
:104e2c004f000000540000005e0000005e00000017
:104e3c005e000000540000000100000001000000b2
:104e4c000100000001000000010000000100000052
:104e5c000100000001000000010000008e000000b5
:104e6c004f000000540000005e0000005e000000d7
:104e7c000100000001000000540000006a00000066
:104e8c0001000000010000005e0000008e00000028
:104e9c008e00000001000000010000000100000075
:104eac0001000000010000000100000001000000f2
:104ebc005e0000005e000000540000004f00000087
:104ecc004f0000004f0000005e0000005e0000007c
:104edc0070000000700000006a0000005e0000001e
:104eec005e0000005e0000008e0000008e000000de
:104efc008e0000005400000054000000010000006f
:104f0c000100000001000000010000000100000091
:104f1c000100000001000000010000000100000081
:104f2c004f000000540000005e0000005e00000016
:104f3c005e000000540000000100000001000000b1
:104f4c000100000001000000010000000100000051
:104f5c000100000001000000010000000100000041
:104f6c004f000000540000005e0000005e000000d6
:104f7c000100000001000000540000006a00000065
:104f8c0001000000010000005e0000008e00000027
:104f9c008e00000001000000010000000100000074
:104fac0001000000010000000100000001000000f1
:104fbc005e0000005e000000540000004f00000086
:104fcc004f0000004f0000005e0000005e0000007b
:104fdc0070000000700000006a0000005e0000001d
:104fec00010000008e0000006a0000005e0000005e
:104ffc00590000005e0000006a000000770000000d
:10500c0001000000010000008e000000860000007e
:10501c0077000000770000005900000059000000e4
:10502c005e0000006a0000006a00000077000000cb
:10503c006a00000077000000770000007700000095
:10504c0077000000770000008e0000008600000052
:10505c0077000000770000005900000059000000a4
:10506c004f000000590000005e0000006a000000c4
:10507c006a0000005e0000005900000059000000aa
:10508c0059000000590000004f00000047000000cc
:10509c0043000000430000004700000047000000f0
:1050ac004f0000004f000000590000004f000000ae
:1050bc0047000000470000004f00000059000000ae
:1050cc0059000000590000006a0000007700000041
:1050dc006a00000059000000590000005e0000004a
:1050ec005e0000005e000000540000005400000050
:1050fc0054000000540000000100000001000000fa
:10510c000100000001000000470000004700000003
:10511c004300000047000000540000006a0000003b
:10512c006a0000005e000000540000005400000003
:10513c0054000000540000000100000001000000b9
:10514c00010000004700000047000000470000007d
:10515c003f00000047000000540000006a000000ff
:10516c006a0000005e0000005400000054000000c3
:10517c005400000054000000010000000100000079
:10518c00010000004700000047000000470000003d
:10519c003f00000047000000540000006a000000bf
:1051ac006a0000005e000000540000005400000083
:1051bc005400000054000000010000000100000039
:1051cc000100000001000000470000004700000043
:1051dc003f00000047000000540000006a0000007f
:1051ec006a0000005e000000540000005400000043
:1051fc0054000000540000000100000001000000f9
:10520c0001000000470000004700000047000000bc
:10521c003f00000047000000540000006a0000003e
:10522c006a0000005e000000540000005400000002
:10523c0054000000540000000100000001000000b8
:10524c00010000004f000000470000004700000074
:10525c0047000000470000000100000001000000b2
:10526c00010000004f00000054000000540000003a
:10527c005400000054000000010000000100000078
:10528c00010000000100000001000000010000000e
:020000040000fa
:10529c0014000000140000001400000014000000b2
:1052ac0014000000000000000000000000000000de
:1052bc0000000000000000000000000000000000e2
:1052cc0000000000000000000000000014000000be
:1052dc001400000014000000140000001400000072
:1052ec00140000001400000000000000000000008a
:1052fc001400000014000000140000001400000052
:10530c00140000000000000000000000000000007d
:10531c00000000000000000000000000140000006d
:10532c001400000014000000140000001400000021
:10533c001400000014000000140000001400000011
:10534c001400000014000000140000001400000001
:10535c0014000000140000001400000014000000f1
:10536c0014000000140000001400000000000000f5
:10537c000000000000000000000000000000000021
:10538c000000000000000000000000000000000011
:10539c0014000000140000001400000014000000b1
:1053ac0014000000000000000000000000000000dd
:1053bc0000000000000000000000000000000000e1
:1053cc0000000000000000000000000014000000bd
:1053dc001400000014000000140000001400000071
:1053ec000000000000000000140000001400000089
:1053fc000000000000000000140000001400000079
:10540c00140000000000000000000000000000007c
:10541c000000000000000000000000000000000080
:10542c001400000014000000140000001400000020
:10543c001400000014000000140000001400000010
:10544c001400000014000000140000001400000000
:10545c000000000014000000140000001400000004
:10546c0014000000140000001400000014000000e0
:10547c0000000000000000001400000014000000f8
:10548c0014000000140000001400000014000000c0
:10549c0014000000140000001400000014000000b0
:1054ac0014000000140000001400000014000000a0
:1054bc001400000014000000140000001400000090
:1054cc001400000014000000140000001400000080
:1054dc001400000014000000140000001400000070
:1054ec001400000014000000140000001400000060
:1054fc001400000014000000140000001400000050
:10550c00140000001400000014000000140000003f
:10551c00140000001400000014000000140000002f
:10552c00140000001400000014000000140000001f
:10553c00140000001400000014000000140000000f
:10554c0014000000140000001400000014000000ff
:10555c0014000000140000001400000014000000ef
:10556c001400000014000000000000000000000007
:10557c00000000000000000000000000000000001f
:10558c00000000000000000000000000000000000f
:10559c0000000000000000000000000000000000ff
:1055ac0000000000000000000000000000000000ef
:1055bc0000000000000000000000000000000000df
:1055cc0000000000000000000000000014000000bb
:1055dc00140000001400000014000000140000006f
:1055ec001400000014000000000000000000000087
:1055fc00000000000000000000000000000000009f
:10560c00000000000000000000000000000000008e
:10561c00140000001400000014000000140000002e
:10562c00140000001400000014000000140000001e
:10563c00140000001400000014000000140000000e
:10564c00140000000000000000000000000000003a
:10565c00000000000000000000000000000000003e
:10566c0014000000140000001400000014000000de
:10567c0014000000140000001400000014000000ce
:10568c0014000000140000001400000014000000be
:10569c0014000000140000001400000014000000ae
:1056ac0014000000140000000000000000000000c6
:1056bc0000000000000000000000000000000000de
:1056cc0000000000000000000000000014000000ba
:1056dc00140000001400000014000000140000006e
:1056ec00140000000000000000000000000000009a
:1056fc00000000000000000000000000000000009e
:10570c000000000000000000000000001400000079
:10571c00140000001400000014000000140000002d
:10572c000000000000000000140000001400000045
:10573c000000000000000000140000001400000035
:10574c001400000000000000000000000000000039
:10575c00000000000000000000000000000000003d
:10576c0014000000140000001400000014000000dd
:10577c0014000000140000001400000014000000cd
:10578c0014000000140000001400000014000000bd
:10579c0000000000140000001400000014000000c1
:1057ac00140000001400000014000000140000009d
:1057bc0000000000000000001400000014000000b5
:1057cc00140000001400000014000000140000007d
:1057dc00140000001400000014000000140000006d
:1057ec00140000001400000014000000140000005d
:1057fc00140000001400000014000000140000004d
:10580c00140000001400000014000000140000003c
:10581c00140000001400000014000000140000002c
:10582c00140000001400000014000000140000001c
:10583c00140000001400000014000000140000000c
:10584c0014000000140000001400000014000000fc
:10585c0014000000140000001400000014000000ec
:10586c0014000000140000001400000014000000dc
:10587c0014000000140000001400000014000000cc
:10588c0014000000140000001400000014000000bc
:10589c0014000000140000001400000014000000ac
:1058ac0014000000140000000000000000000000c4
:1058bc0000000000000000000000000000000000dc
:1058cc0000000000000000000000000000000000cc
:1058dc0000000000000000000000000000000000bc
:1058ec0000000000000000000000000000000000ac
:1058fc00000000000000000000000000000000009c
:10590c00000000000000000000000000000000008b
:10591c00140000001400000014000000140000002b
:10592c001400000014000000000000000000000043
:10593c00000000000000000000000000000000005b
:10594c000000000000000000000000001400000037
:10595c0014000000140000001400000014000000eb
:10596c000000000000000000140000001400000003
:10597c0000000000000000001400000014000000f3
:10598c0014000000000000000000000000000000f7
:10599c0000000000000000000000000000000000fb
:1059ac00140000001400000014000000140000009b
:1059bc00140000001400000014000000140000008b
:1059cc00140000001400000014000000140000007b
:1059dc00140000001400000014000000140000006b
:1059ec001400000014000000000000000000000083
:1059fc00000000000000000000000000000000009b
:105a0c00000000000000000000000000000000008a
:105a1c00140000001400000014000000140000002a
:105a2c001400000014000000000000000000000042
:105a3c00000000000000000000000000000000005a
:105a4c00000000000000000000000000000000004a
:105a5c0014000000140000001400000014000000ea
:105a6c000000000000000000140000001400000002
:105a7c0000000000000000001400000014000000f2
:105a8c0014000000000000000000000000000000f6
:105a9c0000000000000000000000000000000000fa
:105aac00140000001400000014000000140000009a
:105abc00140000001400000014000000140000008a
:105acc00140000001400000014000000140000007a
:105adc00000000001400000014000000140000007e
:105aec00140000001400000014000000140000005a
:105afc000000000000000000140000001400000072
:105b0c001400000014000000140000001400000039
:105b1c001400000014000000140000001400000029
:105b2c001400000014000000140000001400000019
:105b3c001400000014000000140000001400000009
:105b4c0014000000140000001400000014000000f9
:105b5c0014000000140000001400000014000000e9
:105b6c0014000000140000001400000014000000d9
:105b7c0014000000140000001400000014000000c9
:105b8c0014000000140000001400000014000000b9
:105b9c0014000000140000001400000014000000a9
:105bac001400000014000000140000001400000099
:105bbc001400000014000000140000001400000089
:105bcc001400000014000000140000001400000079
:105bdc001400000014000000140000001400000069
:105bec001400000014000000000000000000000081
:105bfc000000000000000000140000001400000071
:105c0c001400000014000000140000001400000038
:105c1c001400000014000000140000001400000028
:105c2c001400000014000000000000000000000040
:105c3c00000000001400000014000000140000001c
:105c4c0014000000140000001400000014000000f8
:105c5c0014000000140000001400000014000000e8
:105c6c001400000014000000000000000000000000
:105c7c0000000000140000001400000014000000dc
:105c8c0014000000140000001400000014000000b8
:105c9c0014000000140000001400000014000000a8
:105cac0014000000140000000000000000000000c0
:105cbc0000000000000000001400000014000000b0
:105ccc001400000014000000140000001400000078
:105cdc001400000014000000140000001400000068
:105cec001400000014000000000000000000000080
:105cfc00000000001400000014000000140000005c
:105d0c001400000014000000140000001400000037
:105d1c001400000014000000140000001400000027
:105d2c00140000001400000000000000000000003f
:105d3c00000000001400000014000000140000001b
:105d4c00140000001400000000000000000000001f
:105d5c0000000000140000001400000014000000fb
:105d6c0014000000140000000000000000000000ff
:105d7c000000000000000000000000000000000017
:020000040000fa
:105d8c0003000000030000000300000002000000fc
:105d9c0003000000000000000100000000000000f3
:105dac0000000000000000000100000000000000e6
:105dbc0000000000000000000000000001000000d6
:105dcc0001000000010000000100000000000000c4
:105ddc0001000000010000000000000000000000b5
:105dec0000000000010000000100000000000000a5
:105dfc000000000000000000000000000000000097
:105e0c000000000000000000000000000100000085
:105e1c000000000001000000010000000000000074
:105e2c000000000001000000010000000000000064
:105e3c000100000000000000000000000100000054
:105e4c000000000001000000010000000000000044
:105e5c000100000000000000010000000000000034
:105e6c000000000000000000000000000000000026
:105e7c000000000000000000000000000000000016
:105e8c000100000001000000010000000100000002
:105e9c0001000000000000000000000000000000f5
:105eac0000000000000000000000000000000000e6
:105ebc0000000000000000000000000001000000d5
:105ecc0001000000010000000100000001000000c2
:105edc0000000000000000000100000001000000b4
:105eec0000000000000000000100000000000000a5
:105efc000100000000000000000000000000000095
:105f0c000000000000000000000000000000000085
:105f1c000000000001000000010000000000000073
:105f2c000000000001000000010000000000000063
:105f3c000000000001000000010000000100000052
:105f4c000000000001000000010000000100000042
:105f5c000100000001000000010000000100000031
:105f6c000000000000000000010000000100000023
:105f7c000400000005000000040000000100000007
:105f8c0005000000050000000500000001000000f5
:105f9c0001000000050000000400000005000000e6
:105fac0000000000050000000500000005000000d6
:105fbc0000000000010000000000000001000000d3
:105fcc0001000000010000000100000001000000c1
:105fdc0001000000010000000000000001000000b2
:105fec0000000000010000000100000001000000a2
:105ffc000100000001000000000000000100000092
:10600c000000000001000000010000000100000081
:10601c000100000001000000000000000100000071
:10602c000000000001000000010000000100000061
:10603c000100000001000000010000000000000051
:10604c000100000001000000010000000000000041
:10605c000000000001000000000000000000000033
:10606c000000000000000000000000000000000024
:10607c000000000000000000000000000000000014
:10608c000000000000000000000000000000000004
:10609c0000000000000000000000000000000000f4
:1060ac0000000000000000000000000000000000e4
:1060bc0000000000000000000000000001000000d3
:1060cc0001000000010000000100000000000000c1
:1060dc0001000000010000000000000000000000b2
:1060ec0000000000000000000000000000000000a4
:1060fc000000000000000000000000000000000094
:10610c000100000001000000010000000000000080
:10611c000000000001000000010000000000000071
:10612c000100000000000000010000000000000061
:10613c000100000000000000000000000000000052
:10614c000000000000000000000000000000000043
:10615c000000000001000000010000000000000031
:10616c000000000001000000000000000100000021
:10617c000000000001000000010000000000000011
:10618c000000000001000000010000000000000001
:10619c0001000000010000000000000000000000f1
:1061ac0000000000000000000000000000000000e3
:1061bc0000000000000000000000000001000000d2
:1061cc0001000000010000000100000001000000bf
:1061dc0001000000000000000000000000000000b2
:1061ec0000000000000000000000000000000000a3
:1061fc000000000000000000000000000100000092
:10620c00010000000100000001000000010000007e
:10621c000000000000000000010000000100000070
:10622c000000000000000000010000000000000061
:10623c000100000000000000000000000000000051
:10624c000000000000000000000000000000000042
:10625c000000000001000000010000000000000030
:10626c000000000001000000000000000100000020
:10627c000000000001000000010000000000000010
:10628c0000000000010000000100000001000000ff
:10629c0001000000010000000100000001000000ee
:1062ac0000000000000000000100000001000000e0
:1062bc0000000000010000000000000001000000d0
:1062cc0001000000010000000100000001000000be
:1062dc0001000000010000000000000001000000af
:1062ec00000000000100000001000000010000009f
:1062fc000000000001000000000000000100000090
:10630c00010000000100000001000000010000007d
:10631c00010000000100000000000000010000006e
:10632c00000000000100000001000000010000005e
:10633c00010000000100000000000000010000004e
:10634c00000000000100000001000000010000003e
:10635c00010000000100000001000000010000002d
:10636c00000000000100000001000000010000001e
:10637c00010000000100000001000000000000000e
:10638c0001000000010000000100000000000000fe
:10639c0000000000010000000000000000000000f0
:1063ac0000000000000000000000000000000000e1
:1063bc0000000000000000000000000000000000d1
:1063cc0000000000000000000000000000000000c1
:1063dc0000000000000000000000000000000000b1
:1063ec0000000000000000000000000000000000a1
:1063fc000000000000000000000000000000000091
:10640c00010000000100000001000000000000007d
:10641c00010000000100000000000000000000006e
:10642c000000000000000000000000000000000060
:10643c00000000000000000000000000010000004f
:10644c00010000000100000001000000010000003c
:10645c00000000000000000001000000010000002e
:10646c00000000000000000001000000000000001f
:10647c00010000000000000000000000000000000f
:10648c000000000000000000000000000000000000
:10649c0000000000010000000100000000000000ee
:1064ac0000000000010000000000000001000000de
:1064bc0000000000010000000100000000000000ce
:1064cc0000000000010000000100000000000000be
:1064dc0001000000010000000000000000000000ae
:1064ec0000000000000000000000000000000000a0
:1064fc000000000000000000000000000000000090
:10650c00010000000100000001000000000000007c
:10651c00010000000100000000000000000000006d
:10652c00000000000000000000000000000000005f
:10653c00000000000000000000000000000000004f
:10654c00010000000100000001000000010000003b
:10655c00000000000000000001000000010000002d
:10656c00000000000000000001000000000000001e
:10657c00010000000000000000000000000000000e
:10658c0000000000000000000000000000000000ff
:10659c0000000000010000000100000000000000ed
:1065ac0000000000010000000000000001000000dd
:1065bc0000000000010000000100000001000000cc
:1065cc0000000000010000000100000001000000bc
:1065dc0001000000010000000100000001000000ab
:1065ec00000000000000000001000000010000009d
:1065fc00000000000100000000000000010000008d
:10660c00010000000100000001000000010000007a
:10661c00010000000100000000000000010000006b
:10662c00000000000100000001000000010000005b
:10663c00000000000100000000000000010000004c
:10664c00010000000100000001000000010000003a
:10665c00010000000100000000000000010000002b
:10666c00000000000100000001000000010000001b
:10667c00010000000100000001000000010000000a
:10668c0000000000010000000100000001000000fb
:10669c0001000000010000000100000001000000ea
:1066ac0000000000010000000100000001000000db
:1066bc0001000000010000000100000000000000cb
:1066cc0001000000010000000100000000000000bb
:1066dc0000000000010000000000000000000000ad
:1066ec00000000000000000001000000010000009c
:1066fc00010000000100000001000000000000008b
:10670c00010000000100000001000000000000007a
:10671c00000000000100000000000000000000006c
:10672c00000000000100000001000000010000005a
:10673c00010000000100000001000000000000004a
:10674c00010000000100000001000000000000003a
:10675c00000000000100000000000000000000002c
:10676c00000000000100000001000000010000001a
:10677c00010000000100000001000000000000000a
:10678c0001000000010000000100000000000000fa
:10679c0000000000010000000000000000000000ec
:1067ac0000000000000000000100000001000000db
:1067bc0001000000010000000100000000000000ca
:1067cc0001000000010000000100000000000000ba
:1067dc0000000000010000000000000000000000ac
:1067ec00000000000100000001000000010000009a
:1067fc00010000000100000001000000000000008a
:10680c000100000001000000010000000000000079
:10681c00000000000100000000000000000000006b
:10682c00000000000100000001000000000000005a
:10683c00000000000100000000000000000000004b
:10684c00000000000100000001000000000000003a
:10685c00000000000100000000000000000000002b
:10686c00000000000000000000000000000000001c
:020000040000fa
:10687c000100000001000000010000000100000008
:10688c001c010000d4000000a8000000d40000008f
:10689c00fd000000d4000000a8000000d40000009f
:1068ac001c010000d4000000a8000000d40000006f
:1068bc00fd000000d4000000a8000000d40000007f
:1068cc001c010000d4000000a8000000d40000004f
:1068dc00fd000000d4000000a8000000d40000005f
:1068ec001c010000d4000000a8000000d40000002f
:1068fc00fd000000d4000000a8000000d40000003f
:10690c001c010000bd0000009f000000bd00000045
:10691c001c010000bd0000009f000000bd00000035
:10692c001c010000e10000009f000000e1000000dd
:10693c001c010000e10000009f000000e1000000cd
:10694c001c010000d4000000a8000000d4000000ce
:10695c00fd000000d4000000a8000000d4000000de
:10696c001c010000d4000000a8000000d4000000ae
:10697c00fd000000d4000000a8000000d4000000be
:10698c001c010000d4000000a8000000d40000008e
:10699c00fd000000d4000000a8000000d40000009e
:1069ac001c010000d4000000a8000000d40000006e
:1069bc00fd000000d4000000a8000000d40000007e
:1069cc001c010000d4000000a8000000d40000004e
:1069dc00fd000000d4000000a8000000d40000005e
:1069ec001c010000d4000000a8000000d40000002e
:1069fc00fd000000d4000000a8000000d40000003e
:106a0c001c010000bd0000009f000000bd00000044
:106a1c001c010000bd0000009f000000bd00000034
:106a2c001c010000e10000009f000000e1000000dc
:106a3c001c010000e10000009f000000e1000000cc
:106a4c000c010000d4000000b20000008e00000019
:106a5c008e0000008e00000001000000010000000c
:106a6c00b20000008e000000b20000000100000027
:106a7c00bd0000009f000000bd00000001000000f0
:106a8c00d4000000d4000000d4000000bd000000c1
:106a9c00b2000000b2000000b2000000b200000022
:106aac00b20000008e000000b200000001000000e7
:106abc00bd0000009f000000bd00000001000000b0
:106acc00d4000000d4000000d4000000bd00000081
:106adc00b2000000b2000000b2000000b2000000e2
:106aec00d40000009f000000d40000009f000000b4
:106afc00bd0000009f000000bd0000009f000000d2
:106b0c00b20000008e000000b20000008e000000f9
:106b1c00b20000008e000000b20000008e000000e9
:106b2c00d40000009f000000d40000009f00000073
:106b3c00e10000009f000000e10000009f00000049
:106b4c0001000000d4000000a8000000d4000000e8
:106b5c00010000008e000000a8000000d40000001e
:106b6c0001000000d4000000a8000000d4000000c8
:106b7c00010000008e000000a8000000d4000000fe
:106b8c0001000000d4000000a8000000d4000000a8
:106b9c00010000008e000000a8000000d4000000de
:106bac0001000000d4000000a8000000d400000088
:106bbc00010000008e000000a8000000d4000000be
:106bcc0001000000d4000000a8000000d400000068
:106bdc00010000008e000000a8000000d40000009e
:106bec0001000000d4000000a8000000d400000048
:106bfc00010000008e000000a8000000d40000007e
:106c0c0001000000d4000000a8000000d400000027
:106c1c00010000008e000000a8000000d40000005d
:106c2c0001000000d4000000a8000000d400000007
:106c3c00010000008e000000a8000000d40000003d
:106c4c005e0000005e000000540000004f000000d9
:106c5c004f0000004f0000005e0000005e000000ce
:106c6c0070000000700000006a0000005e00000070
:106c7c005e0000005e0000008e0000008e00000030
:106c8c008e00000054000000010000000100000014
:106c9c0001000000010000000100000001000000e4
:106cac000100000001000000010000008e00000047
:106cbc004f000000540000005e0000005e00000069
:106ccc005400000001000000010000000100000061
:106cdc0001000000010000000100000001000000a4
:106cec000100000001000000010000008e00000007
:106cfc004f000000540000005e0000005e00000029
:106d0c000100000001000000540000006a000000b7
:106d1c0001000000010000005e0000008e00000079
:106d2c008e000000010000000100000001000000c6
:106d3c000100000001000000010000000100000043
:106d4c005e0000005e000000540000004f000000d8
:106d5c004f0000004f0000005e0000005e000000cd
:106d6c0070000000700000006a0000005e0000006f
:106d7c00010000008e0000006a0000005e000000b0
:106d8c00590000005e0000006a000000770000005f
:106d9c0001000000010000008e00000086000000d1
:106dac007700000077000000590000005900000037
:106dbc005e0000006a0000006a000000770000001e
:106dcc006a000000770000007700000077000000e8
:106ddc0077000000770000008e00000086000000a5
:106dec0077000000770000005900000059000000f7
:106dfc004f000000590000005e0000006a00000017
:106e0c006a0000005e0000005900000059000000fc
:106e1c0059000000590000004f000000470000001e
:106e2c004300000043000000470000004700000042
:106e3c004f0000004f000000590000004f00000000
:106e4c0047000000470000004f0000005900000000
:106e5c0059000000590000006a0000007700000093
:106e6c006a00000059000000590000005e0000009c
:106e7c005e0000005e0000005400000054000000a2
:106e8c00540000005400000001000000010000004c
:106e9c0001000000010000000100000001000000e2
:106eac0001000000010000000100000001000000d2
:106ebc0001000000010000000100000001000000c2
:106ecc0001000000010000000100000001000000b2
:106edc0001000000010000000100000001000000a2
:106eec000100000001000000010000000100000092
:106efc004f000000540000005e0000005e00000027
:106f0c005e000000540000000100000001000000c1
:106f1c000100000001000000010000000100000061
:106f2c000100000001000000010000008e000000c4
:106f3c004f000000540000005e0000005e000000e6
:106f4c000100000001000000540000006a00000075
:106f5c0001000000010000005e0000008e00000037
:106f6c008e00000001000000010000000100000084
:106f7c000100000001000000010000000100000001
:106f8c005e0000005e000000540000004f00000096
:106f9c004f0000004f0000005e0000005e0000008b
:106fac0070000000700000006a0000005e0000002d
:106fbc005e0000005e0000008e0000008e000000ed
:106fcc008e0000005400000054000000010000007e
:106fdc0001000000010000000100000001000000a1
:106fec000100000001000000010000000100000091
:106ffc004f000000540000005e0000005e00000026
:10700c005e000000540000000100000001000000c0
:10701c000100000001000000010000000100000060
:10702c000100000001000000010000000100000050
:10703c004f000000540000005e0000005e000000e5
:10704c000100000001000000540000006a00000074
:10705c0001000000010000005e0000008e00000036
:10706c008e00000001000000010000000100000083
:10707c000100000001000000010000000100000000
:10708c005e0000005e000000540000004f00000095
:10709c004f0000004f0000005e0000005e0000008a
:1070ac0070000000700000006a0000005e0000002c
:1070bc00010000008e0000006a0000005e0000006d
:1070cc00590000005e0000006a000000770000001c
:1070dc0001000000010000008e000000860000008e
:1070ec0077000000770000005900000059000000f4
:1070fc005e0000006a0000006a00000077000000db
:10710c006a000000770000007700000077000000a4
:10711c0077000000770000008e0000008600000061
:10712c0077000000770000005900000059000000b3
:10713c004f000000590000005e0000006a000000d3
:10714c006a0000005e0000005900000059000000b9
:10715c0059000000590000004f00000047000000db
:10716c0043000000430000004700000047000000ff
:10717c004f0000004f000000590000004f000000bd
:10718c0047000000470000004f00000059000000bd
:10719c0059000000590000006a000000ee000000d9
:1071ac006a00000059000000590000005e00000059
:1071bc005e0000005e00000054000000540000005f
:1071cc005400000054000000010000000100000009
:1071dc000100000001000000470000004700000013
:1071ec004300000047000000540000006a0000004b
:1071fc006a0000005e000000540000005400000013
:10720c0054000000540000000100000001000000c8
:10721c00010000004700000047000000470000008c
:10722c003f00000047000000540000006a0000000e
:10723c006a0000005e0000005400000054000000d2
:10724c005400000054000000010000000100000088
:10725c00010000004700000047000000470000004c
:10726c003f00000047000000540000006a000000ce
:10727c006a0000005e000000540000005400000092
:10728c005400000054000000010000000100000048
:10729c000100000001000000470000004700000052
:1072ac003f00000047000000540000006a0000008e
:1072bc006a0000005e000000540000005400000052
:1072cc005400000054000000010000000100000008
:1072dc0001000000470000004700000047000000cc
:1072ec003f00000047000000540000006a0000004e
:1072fc006a0000005e000000540000005400000012
:10730c0054000000540000000100000001000000c7
:10731c00010000004f000000470000004700000083
:10732c0047000000470000000100000001000000c1
:10733c00010000004f000000540000005400000049
:10734c005400000054000000010000000100000087
:10735c00010000000100000001000000010000001d
:020000040000fa
:10736c000000000000000000000000000000000011
:10737c000c0000000c0000000c0000000c000000d1
:10738c000c0000000c0000000c0000000c000000c1
:10739c000c0000000c0000000c0000000c000000b1
:1073ac000c0000000c0000000c0000000c000000a1
:1073bc000c0000000c0000000c0000000c00000091
:1073cc000c0000000c0000000c0000000c00000081
:1073dc000c0000000c0000000c0000000c00000071
:1073ec000c0000000c0000000c0000000c00000061
:1073fc000c0000000c0000000c0000000c00000051
:10740c000c0000000c0000000c0000000c00000040
:10741c000c0000000c0000000c0000000c00000030
:10742c000c0000000c0000000c0000000c00000020
:10743c000c0000000c0000000c0000000c00000010
:10744c000c0000000c0000000c0000000c00000000
:10745c000c0000000c0000000c0000000c000000f0
:10746c000c0000000c0000000c0000000c000000e0
:10747c000c0000000c0000000c0000000c000000d0
:10748c000c0000000c0000000c0000000c000000c0
:10749c000c0000000c0000000c0000000c000000b0
:1074ac000c0000000c0000000c0000000c000000a0
:1074bc000c0000000c0000000c0000000c00000090
:1074cc000c0000000c0000000c0000000c00000080
:1074dc000c0000000c0000000c0000000c00000070
:1074ec000c0000000c0000000c0000000c00000060
:1074fc000c0000000c0000000c0000000c00000050
:10750c000c0000000c0000000c0000000c0000003f
:10751c000c0000000c0000000c0000000c0000002f
:10752c000c0000000c0000000c0000000c0000001f
:10753c000c0000000c0000000c0000000c0000000f
:10754c000c0000000a000000000000000000000019
:10755c000a0000000a0000000a0000000000000001
:10756c000a0000000a0000000a00000000000000f1
:10757c000a0000000a0000000a0000000a000000d7
:10758c000a0000000a0000000a00000000000000d1
:10759c000a0000000a0000000a00000000000000c1
:1075ac000a0000000a0000000a00000000000000b1
:1075bc000a0000000a0000000a0000000a00000097
:1075cc000a0000000a0000000a0000000000000091
:1075dc000a0000000a0000000a0000000a00000077
:1075ec000a0000000a0000000a0000000a00000067
:1075fc000a0000000a0000000a0000000a00000057
:10760c000a0000000a0000000a0000000a00000046
:10761c000a0000000a0000000a0000000a00000036
:10762c000a0000000a0000000a0000000a00000026
:10763c00000000000a0000000c0000000c0000001c
:10764c00000000000c0000000c0000000c0000000a
:10765c00000000000a0000000c0000000c000000fc
:10766c00000000000c0000000c0000000c000000ea
:10767c00000000000a0000000c0000000c000000dc
:10768c00000000000c0000000c0000000c000000ca
:10769c00000000000a0000000c0000000c000000bc
:1076ac00000000000c0000000c0000000c000000aa
:1076bc00000000000a0000000c0000000c0000009c
:1076cc00000000000c0000000c0000000c0000008a
:1076dc00000000000a0000000c0000000c0000007c
:1076ec00000000000c0000000c0000000c0000006a
:1076fc00000000000a0000000c0000000c0000005c
:10770c00000000000c0000000c0000000c00000049
:10771c00000000000a0000000c0000000c0000003b
:10772c00000000000c0000000c0000000c00000029
:10773c00000000000000000000000000000000003d
:10774c00000000000000000000000000000000002d
:10775c00000000000000000000000000000000001d
:10776c00000000000000000000000000000000000d
:020000040000fa
:10806c000c010000010000000c01000001000000e8
:10807c00ee00000001000000ee0000000100000016
:10808c00ee00000001000000ee0000000100000006
:10809c00ee00000001000000ee00000001000000f6
:1080ac000c010000010000000c01000001000000a8
:1080bc00ee00000001000000ee00000001000000d6
:1080cc000c010000010000000c0100000100000088
:1080dc00ee00000001000000ee00000001000000b6
:1080ec00ee00000001000000ee00000001000000a6
:1080fc00d400000001000000d400000001000000ca
:10810c000c010000010000000c0100000100000047
:10811c001c010000010000001c0100000100000017
:10812c0001000000010000001c0100001c01000007
:10813c001c01000001000000010000000100000013
:10814c0001000000010000001c0100001c010000e7
:10815c001c010000010000000100000001000000f3
:10816c0001000000010000001c0100001c010000c7
:10817c001c010000010000000100000001000000d3
:10818c0001000000010000001c0100001c010000a7
:10819c001c010000010000000100000001000000b3
:1081ac0001000000010000001c0100001c01000087
:1081bc001c01000001000000010000000100000093
:1081cc0001000000010000001c0100001c01000067
:1081dc001c01000001000000010000000100000073
:1081ec0001000000010000001c0100001c01000047
:1081fc001c01000001000000010000000100000053
:10820c0001000000010000001c0100001c01000026
:10821c001c01000001000000010000000100000032
:10822c00010000000100000001000000010000003e
:10823c00010000000100000001000000010000002e
:10824c00010000000100000001000000010000001e
:10825c00010000000100000001000000010000000e
:020000040000fa
:108b3c000a000000030000000a000000030000000f
:108b4c000a000000030000000a00000003000000ff
:108b5c000a000000030000000a00000003000000ef
:108b6c000a000000030000000a00000003000000df
:108b7c000a000000030000000a00000003000000cf
:108b8c000a000000030000000a00000003000000bf
:108b9c000a000000030000000a00000003000000af
:108bac000a000000030000000a000000030000009f
:108bbc000a000000030000000a000000030000008f
:108bcc000a000000030000000a000000030000007f
:108bdc000a000000030000000a000000030000006f
:108bec000a000000030000000a000000030000005f
:108bfc000a000000030000000a000000030000004f
:108c0c000a000000030000000a000000030000003e
:108c1c0000000000000000000c0000000c00000030
:108c2c000c0000000000000000000000000000002c
:108c3c0000000000000000000c0000000c00000010
:108c4c000c0000000000000000000000000000000c
:108c5c0000000000000000000c0000000c000000f0
:108c6c000c000000000000000000000000000000ec
:108c7c0000000000000000000c0000000c000000d0
:108c8c000c000000000000000000000000000000cc
:108c9c0000000000000000000c0000000c000000b0
:108cac000c000000000000000000000000000000ac
:108cbc0000000000000000000c0000000c00000090
:108ccc000c0000000000000000000000000000008c
:108cdc0000000000000000000c0000000c00000070
:108cec000c0000000000000000000000000000006c
:108cfc0000000000000000000c0000000c00000050
:108d0c000c0000000000000000000000000000004b
:108d1c000000000000000000000000000000000047
:108d2c000000000000000000000000000000000037
:108d3c000000000000000000000000000000000027
:108d4c000000000000000000000000000000000017
:020000040000fa
:10970c00530300005303000001000000530300004a
:10971c00f4030000f403000001000000f403000057
:10972c00530300005303000001000000530300002a
:10973c00f4030000f403000001000000f403000037
:10974c00530300005303000001000000530300000a
:10975c00f4030000f403000001000000f403000017
:10976c0053030000530300000100000053030000ea
:10977c00f4030000f403000001000000f4030000f7
:10978c0053030000530300000100000053030000ca
:10979c00f4030000f403000001000000f4030000d7
:1097ac0053030000530300000100000053030000aa
:1097bc00f4030000f403000001000000f4030000b7
:1097cc00530300005303000001000000530300008a
:1097dc00f4030000f403000001000000f403000097
:1097ec00530300005303000001000000530300006a
:1097fc00f4030000f403000001000000f403000077
:10980c000100000001000000010000000100000048
:10981c000100000001000000010000000100000038
:10982c000100000001000000010000000100000028
:10983c000100000001000000010000000100000018
:020000040000fa
:10a1fc000f00000005000000000000000f00000030
:10a20c000f00000005000000000000000f0000001f
:10a21c000f00000005000000000000000f0000000f
:10a22c000f00000005000000000000000f000000ff
:10a23c000f00000005000000000000000f000000ef
:10a24c000f00000005000000000000000f000000df
:10a25c000f00000005000000000000000f000000cf
:10a26c000f00000005000000000000000f000000bf
:10a27c000f00000005000000000000000f000000af
:10a28c000f00000005000000000000000f0000009f
:10a29c000f00000005000000000000000f0000008f
:10a2ac000f00000005000000000000000f0000007f
:10a2bc000f00000005000000000000000f0000006f
:10a2cc000f00000005000000000000000f0000005f
:10a2dc000f00000005000000000000000f0000004f
:10a2ec000f00000005000000000000000f0000003f
:10a2fc000000000000000000000000000000000052
:10a30c000000000000000000000000000000000041
:10a31c000000000000000000000000000000000031
:10a32c000000000000000000000000000000000021
:020000040000fa
:10aa1c000000fa00041020001408880024058000af
:10aa2c0004c0a00004d0a10004e0a000240588000c
:10aa3c0005e1a8008460a9009460a8000080fa00d9
:10aa4c0000000600809fbe00829fbe00849fbe0057
:10aa5c00869fbe00889fbe008a9fbe008c9fbe0052
:10aa6c003200f80000202000900188003400fa0029
:10aa7c000002eb00040f7800044080000402420046
:10aa8c008402780044408000848f52000200310020
:10aa9c0054408000040f7800c440800061026200c2
:10aaac0004427800e04f520006003200d54080008e
:10aabc00046b2300848f5200020036000002eb006e
:10aacc00040f7800c440800062026200e00f520064
:10aadc0008003200d540800004402000048262004f
:10aaec00e00f5200030032001e0278000402d10075
:10aafc00040f7800144080000402420084027800a5
:10ab0c0064408000848f5200030031007540800047
:10ab1c0015079800020037000002eb00140798009c
:10ab2c00c440800064026200e00f52000600320054
:10ab3c00d5408000046b2300848f52000200360045
:10ab4c000002eb0014079800c44080006802620009
:10ab5c00e00f520008003200d54080000440200075
:10ab6c0004826200e00f5200030032001e029000cb
:10ab7c000402d100140798001e0290001e0f420020
:10ab8c00244080000402420084027800844080004b
:10ab9c00848f520003003100944080001407980009
:10abac00020037000002eb0014079800c44080003c
:10abbc0070026200e00f520006003200d5408000a7
:10abcc00046b2300848f5200020036000002eb005d
:10abdc0014079800c5408000040220000482620023
:10abec00e00f520008003200d540800004402000e5
:10abfc0004826200e00f5200030032001e0290003b
:10ac0c000402d100140798001e0290001e0f42008f
:10ac1c00344080000402420084027800a44080008a
:10ac2c00848f520003003100b54080001507980056
:10ac3c00020037000002eb0014079800c5408000aa
:10ac4c000404200004826200e00f5200060032006f
:10ac5c00d5408000046b2300848f52000200360024
:10ac6c000002eb0014079800c54080000408200087
:10ac7c0004826200e00f520008003200d5408000d0
:10ac8c000440200004826200e00f520003003200f6
:10ac9c001e0290000402d100140798001e029000be
:10acac001e0f42001e0278004822dd005416880058
:10acbc00044080000402e800044088000540800045
:10accc0044408000848f5200020036000002eb00ea
:10acdc0004408800144080000402e80014408800fe
:10acec001540800064408000848f520002003600c2
:10acfc000002eb0014408800244080000402e800ad
:10ad0c00244088002540800084408000848f5200bd
:10ad1c00020036000002eb00244088003440800022
:10ad2c000402e8003440880035408000a4408000d4
:10ad3c00848f5200020036000002eb003440880081
:10ad4c00d44080000402e800d4408800d540800044
:10ad5c0004002400848f5200c8003a000002eb006b
:10ad6c00d4408800e44080000402e800e4408800fd
:10ad7c00e5408000c42b2000848f520002003a0072
:10ad8c000002eb00e4408800e44080000402420032
:10ad9c00040078004fa2de0084007800663d22009b
:10adac00071020000602be00040240008582480005
:10adbc009601800004f0a4008582d20095018800e1
:10adcc00140278009601880044408800e44080001a
:10addc0004024200040478004fa2de0084047800d0
:10adec00e2942200031020000202be000402440080
:10adfc0085824c009601800004f0a4008582d2006c
:10ae0c00950188001402780096018800544088004f
:10ae1c00e440800004024200040678004fa2de00e9
:10ae2c0084067800ea4323000b1020000a02be00bf
:10ae3c000402460085824e009601800004f0a400b6
:10ae4c008582d20095018800140278009601880052
:10ae5c0064408800e440800004024200040378004f
:10ae6c00260798004fa2de0034079800679b23004a
:10ae7c004707980004102000540798004e029000d9
:10ae8c00de0290002e039000be03900004024300eb
:10ae9c0085824b009601800004f0a4008582d200cc
:10aeac00950188001402780096018800744088008f
:10aebc00e440800004024200840378006707980095
:10aecc004fa2de0074079800e4f22300040f9800f0
:10aedc0005102000150f98000e0a90009e0a900095
:10aeec006e039000fe0390000402430085824b0029
:10aefc009601800004f0a4008582d20095018800a0
:10af0c00140278009601880084408800e440800098
:10af1c000402420084037800270f98004fa2de0041
:10af2c00340f9800644a2400440f98000510200048
:10af3c00550f98004e0a9000de0a90002e0b9000e0
:10af4c00be0b90000402430085824b0096018000ea
:10af5c0004f0a4008582d2009501880014027800c8
:10af6c009601880094408800e4408000040242006e
:10af7c0084037800670f98004fa2de00740f9800ce
:10af8c00e4a1240004179800051020001517980060
:10af9c000e1290009e1290006e0b9000fe0b900013
:10afac000402430085824b009601800004f0a4004b
:10afbc008582d200950188001402780096018800e1
:10afcc00a4408800e440800004024200840378001e
:10afdc00271798004fa2de003417980064f924005c
:10afec004417980005102000551798004e12900039
:10affc00de1290002e139000be139000040243004a
:10b00c0085824b009601800004f0a4008582d2005a
:10b01c00950188001402780096018800b4408800dd
:10b02c00e440800004024200840378006717980013
:10b03c004fa2de007417980064ec2200041f9800e5
:10b04c0005102000151f98000e1a90009e1a9000f3
:10b05c006e139000fe1390000402430085824b0097
:10b06c009601800004f0a4008582d200950188002e
:10b07c001402780096018800c44088008460a900fe
:10b08c000080fa003200f9004f06be004f05be00ea
:10b09c004f04be004f03be004f02be004f01be0066
:10b0ac004f00be00004006000400fa00000f7800bc
:10b0bc00110798000002eb00142788000002eb0037
:10b0cc00242788000002eb00342788000002eb00e4
:10b0dc00542788000002eb00642788000002eb0074
:0cb0ec00441688004afe0700ffff3700f2
:020000040000fa
:10b0f8001c0800000200000082000000ffff0000a2
:10b10800000800001c000000800000000000000093
:020000040000fa
:020000040005f5
:0457f400ffec0000c6
:020000040000fa
:020000040005f5
:0457f800be9b000054
:020000040000fa
:020000040005f5
:0457fc007f3f0000eb
:00000001FF
