:020000040000fa
:080000000002040000000000f2
:020000040000fa
:04000800720400007e
:020000040000fa
:04000c00720400007a
:020000040000fa
:040010007204000076
:020000040000fa
:040014007204000072
:020000040000fa
:04001800720400006e
:020000040000fa
:04001c00720400006a
:020000040000fa
:040020007204000066
:020000040000fa
:040024007204000062
:020000040000fa
:04002800720400005e
:020000040000fa
:04002c00720400005a
:020000040000fa
:040030007204000056
:020000040000fa
:040034007e03000047
:020000040000fa
:04003800720400004e
:020000040000fa
:04003c00720400004a
:020000040000fa
:040040007204000046
:020000040000fa
:040044007204000042
:020000040000fa
:04004800720400003e
:020000040000fa
:04004c00720400003a
:020000040000fa
:040050007204000036
:020000040000fa
:040054007204000032
:020000040000fa
:04005800720400002e
:020000040000fa
:04005c00720400002a
:020000040000fa
:040060007204000026
:020000040000fa
:040064007204000022
:020000040000fa
:04006800720400001e
:020000040000fa
:04006c00720400001a
:020000040000fa
:040070007204000016
:020000040000fa
:040074007204000012
:020000040000fa
:04007800720400000e
:020000040000fa
:04007c00720400000a
:020000040000fa
:040080007204000006
:020000040000fa
:040084007204000002
:020000040000fa
:0400880072040000fe
:020000040000fa
:04008c0072040000fa
:020000040000fa
:0400900072040000f6
:020000040000fa
:0400940072040000f2
:020000040000fa
:0400980072040000ee
:020000040000fa
:04009c0072040000ea
:020000040000fa
:0400a00072040000e6
:020000040000fa
:0400a40072040000e2
:020000040000fa
:0400a80072040000de
:020000040000fa
:0400ac0072040000da
:020000040000fa
:0400b00072040000d6
:020000040000fa
:0400b40072040000d2
:020000040000fa
:0400b80072040000ce
:020000040000fa
:0400bc0072040000ca
:020000040000fa
:0400c00072040000c6
:020000040000fa
:0400c40072040000c2
:020000040000fa
:0400c80072040000be
:020000040000fa
:0400cc0072040000ba
:020000040000fa
:0400d00072040000b6
:020000040000fa
:0400d40072040000b2
:020000040000fa
:0400d80072040000ae
:020000040000fa
:0400dc0072040000aa
:020000040000fa
:0400e00072040000a6
:020000040000fa
:0400e40072040000a2
:020000040000fa
:0400e800720400009e
:020000040000fa
:0400ec00720400009a
:020000040000fa
:0400f0007204000096
:020000040000fa
:0400f4007204000092
:020000040000fa
:0400f800720400008e
:020000040000fa
:0400fc00720400008a
:020000040000fa
:040100007204000085
:020000040000fa
:040104007204000081
:020000040000fa
:04010800720400007d
:020000040000fa
:04010c007204000079
:020000040000fa
:040110007204000075
:020000040000fa
:040114007204000071
:020000040000fa
:04011800720400006d
:020000040000fa
:04011c007204000069
:020000040000fa
:040120007204000065
:020000040000fa
:040124007204000061
:020000040000fa
:04012800720400005d
:020000040000fa
:04012c007204000059
:020000040000fa
:040130007204000055
:020000040000fa
:040134007204000051
:020000040000fa
:04013800720400004d
:020000040000fa
:04013c007204000049
:020000040000fa
:040140007204000045
:020000040000fa
:040144007204000041
:020000040000fa
:04014800720400003d
:020000040000fa
:04014c007204000039
:020000040000fa
:040150007204000035
:020000040000fa
:040154007204000031
:020000040000fa
:04015800720400002d
:020000040000fa
:04015c007204000029
:020000040000fa
:040160007204000025
:020000040000fa
:040164007204000021
:020000040000fa
:04016800720400001d
:020000040000fa
:04016c007204000019
:020000040000fa
:040170007204000015
:020000040000fa
:040174007204000011
:020000040000fa
:04017800720400000d
:020000040000fa
:04017c007204000009
:020000040000fa
:040180007204000005
:020000040000fa
:040184007204000001
:020000040000fa
:0401880072040000fd
:020000040000fa
:04018c0072040000f9
:020000040000fa
:0401900072040000f5
:020000040000fa
:0401940072040000f1
:020000040000fa
:0401980072040000ed
:020000040000fa
:04019c0072040000e9
:020000040000fa
:0401a00072040000e5
:020000040000fa
:0401a40072040000e1
:020000040000fa
:0401a80072040000dd
:020000040000fa
:0401ac0072040000d9
:020000040000fa
:0401b00072040000d5
:020000040000fa
:0401b40072040000d1
:020000040000fa
:0401b80054030000ec
:020000040000fa
:04020800720400007c
:020000040000fa
:04020c007204000078
:020000040000fa
:040210007204000074
:020000040000fa
:040214007204000070
:020000040000fa
:04021800720400006c
:020000040000fa
:04021c007204000068
:020000040000fa
:040220007204000064
:020000040000fa
:040224007204000060
:020000040000fa
:04022800720400005c
:020000040000fa
:04022c007204000058
:020000040000fa
:040230007204000054
:020000040000fa
:040234007e03000045
:020000040000fa
:04023800720400004c
:020000040000fa
:04023c007204000048
:020000040000fa
:040240007204000044
:020000040000fa
:040244007204000040
:020000040000fa
:04024800720400003c
:020000040000fa
:04024c007204000038
:020000040000fa
:040250007204000034
:020000040000fa
:040254007204000030
:020000040000fa
:04025800720400002c
:020000040000fa
:04025c007204000028
:020000040000fa
:040260007204000024
:020000040000fa
:040264007204000020
:020000040000fa
:04026800720400001c
:020000040000fa
:04026c007204000018
:020000040000fa
:040270007204000014
:020000040000fa
:040274007204000010
:020000040000fa
:04027800720400000c
:020000040000fa
:04027c007204000008
:020000040000fa
:040280007204000004
:020000040000fa
:040284007204000000
:020000040000fa
:0402880072040000fc
:020000040000fa
:04028c0072040000f8
:020000040000fa
:0402900072040000f4
:020000040000fa
:0402940072040000f0
:020000040000fa
:0402980072040000ec
:020000040000fa
:04029c0072040000e8
:020000040000fa
:0402a00072040000e4
:020000040000fa
:0402a40072040000e0
:020000040000fa
:0402a80072040000dc
:020000040000fa
:0402ac0072040000d8
:020000040000fa
:0402b00072040000d4
:020000040000fa
:0402b40072040000d0
:020000040000fa
:0402b80072040000cc
:020000040000fa
:0402bc0072040000c8
:020000040000fa
:0402c00072040000c4
:020000040000fa
:0402c40072040000c0
:020000040000fa
:0402c80072040000bc
:020000040000fa
:0402cc0072040000b8
:020000040000fa
:0402d00072040000b4
:020000040000fa
:0402d40072040000b0
:020000040000fa
:0402d80072040000ac
:020000040000fa
:0402dc0072040000a8
:020000040000fa
:0402e00072040000a4
:020000040000fa
:0402e40072040000a0
:020000040000fa
:0402e800720400009c
:020000040000fa
:0402ec007204000098
:020000040000fa
:0402f0007204000094
:020000040000fa
:0402f4007204000090
:020000040000fa
:0402f800720400008c
:020000040000fa
:0402fc007204000088
:020000040000fa
:040300007204000083
:020000040000fa
:04030400720400007f
:020000040000fa
:04030800720400007b
:020000040000fa
:04030c007204000077
:020000040000fa
:040310007204000073
:020000040000fa
:04031400720400006f
:020000040000fa
:04031800720400006b
:020000040000fa
:04031c007204000067
:020000040000fa
:040320007204000063
:020000040000fa
:04032400720400005f
:020000040000fa
:04032800720400005b
:020000040000fa
:04032c007204000057
:020000040000fa
:040330007204000053
:020000040000fa
:04033400720400004f
:020000040000fa
:04033800720400004b
:020000040000fa
:04033c007204000047
:020000040000fa
:040340007204000043
:020000040000fa
:04034400720400003f
:020000040000fa
:04034800720400003b
:020000040000fa
:04034c007204000037
:020000040000fa
:040350007204000033
:020000040000fa
:04035400720400002f
:020000040000fa
:04035800720400002b
:020000040000fa
:04035c007204000027
:020000040000fa
:040360007204000023
:020000040000fa
:04036400720400001f
:020000040000fa
:04036800720400001b
:020000040000fa
:04036c007204000017
:020000040000fa
:040370007204000013
:020000040000fa
:04037400720400000f
:020000040000fa
:04037800720400000b
:020000040000fa
:04037c007204000007
:020000040000fa
:040380007204000003
:020000040000fa
:0403840072040000ff
:020000040000fa
:0403880072040000fb
:020000040000fa
:04038c0072040000f7
:020000040000fa
:0403900072040000f3
:020000040000fa
:0403940072040000ef
:020000040000fa
:0403980072040000eb
:020000040000fa
:04039c0072040000e7
:020000040000fa
:0403a00072040000e3
:020000040000fa
:0403a40072040000df
:020000040000fa
:0403a80072040000db
:020000040000fa
:0403ac0072040000d7
:020000040000fa
:0403b00072040000d3
:020000040000fa
:0403b40072040000cf
:020000040000fa
:0403b80054030000ea
:020000040000fa
:10040000cfbd21008efe24000e01880000000000f8
:10041000000020000000e000020032000001200087
:100420002002880014000700390107000000e000e6
:1004300003003a00c00e2200010020000200370035
:100440000000200001002000810f70000100320038
:1004500014000700000020000000e000020032004d
:1004600000000200000000000c610200000000001b
:100470000040da000000fe004440a90020462000b1
:100480000000e000030032000020200090018800fe
:100490004440a800000006008a1f78008b1f7800e7
:1004a00000000600a1028800800478000000eb0034
:1004b0001f003700e284440054a0b4009905ba003c
:1004c000e284440054a0b4009906ba00e2844400d7
:1004d00054a0b4000006eb00476fde00fd07b20039
:1004e000ae018800636ce10003003a00eaff0700f8
:1004f0000000eb000e003700606ce10008003a00dd
:10050000004deb000a05e800020039003420ec0041
:100510000af0a0008b05e900f9ff3e000400370057
:100520006168e100010032000086eb000b0007006b
:1005300019c7ba001905ba000e04e00003003a001a
:100540000a00e000dbff3a0000000600fe07b200f0
:10055000ae0288008a047800f5ff37000cd0a300b3
:10056000e20f4d001c00390089027800354dba00b9
:100570000a05e800020039003420ec000af0a0006f
:100580008b05e9000f003200254dba000a05e8008e
:10059000020039003420ec000af0a0008b05e900cd
:1005a000080032000c00e0000600320015cdba0051
:1005b0000a05e800020039003420ec000af0a0002f
:1005c0008b05e9008984e80054a0b4000b00e0002a
:1005d000e2ff3a00000006009902ba00055d7800cb
:1005e0008b05e900f7ff3200c82ade00055d7800c0
:1005f0008b05e900f3ff32000c00e000f1ff320050
:1006000019ddba00eeff3700ea40040000000000e8
:100610005c4004000000000088400400000000006e
:10062000aa5b040000000000285b0400000000003a
:10063000b240040000000000ea4204000000000094
:100640008250040000000000b25e040000000000c0
:100650003a4104000000000068410400000000006e
:100660009041040000000000c84d0400000000009c
:10067000805f04000000000002420400000000004f
:100680002a42040000000000544204000000000060
:10069000a210040000000000020b04000000000093
:1006a000be05040000000000801f78003200f80042
:1006b0003400f80010002000a00188000020200075
:1006c000900188000000fa0050388000700060003f
:1006d0000000e000030032000000eb0090de880024
:1006e0000a87a9009080a9000080fa003400f90070
:1006f0003200f9004f00780000400600809fbe00e5
:10070000821f78003200f8003400f800100020004a
:10071000a001880000202000900188000200fa005b
:100720000000eb00000f7800b0dc80004900de0024
:100730008000eb000000400081804800c269210079
:100740000200400090007800f0c680000088b900e8
:1007500000007800000f7800c0dc80004900de0057
:100760008000eb000000400081804800c279210039
:10077000020040009000780000c780000088b900a7
:10078000000078001e0f4000d0dc80004900de0031
:100790008000eb000000400081804800c279210009
:1007a000020040009000780010c780000088b90067
:1007b000000078001e0f4000e0dc8000c900de0071
:1007c000c0ff2f00008060008000eb0000004000b0
:1007d00081804800c269210002004000900078003a
:1007e00020c780000088b900000078001e0f40007c
:1007f0009e0078000000280000806800000f78004c
:100800001e00780050168800b1dc8000f0dc80000b
:1008100000804000b0dc8800c1dc800000dd80008a
:1008200000804000c0dc8800d1dc800010dd80004a
:1008300000804000d0dc8800e1dc800020dd80000a
:1008400000804000e0dc880040dd80000000e8001f
:1008500040dd880041dd800000002400808f5000d2
:1008600019003a000000eb0040dd8800e0c680007f
:100870000000e800e0c68800e0c68000e10f5000fc
:1008800003003a0005e1a9000000eb00e0c6880083
:10089000e0c680008000eb0042b92100000041006a
:1008a000104078000080fb00f0dc8800e0c680008b
:1008b0008000eb0052b92100000041001040780098
:1008c0000080fb0030dd88008460a9000080fa0011
:1008d0003400f9003200f9004f0178004f00be00eb
:1008e000004006000040da000000fe000a00fa00a6
:1008f00011002000b1bf9f00c0bf9f006a80570059
:100900007b0a07004fb897000080fa00000006003d
:1009100000000500839f68000100e00002003d0028
:1009200060001000e08018000300e00002003d00bd
:1009300060011100e0811900050007004f00e00090
:1009400002003b0060001000e0801800000006007c
:100950006022b800060220000000d0008180d20092
:100960000482d2008582d2000000a0000202520060
:1009700083825a00030031000202420083824a004f
:100980000000a1000603e900f3ff3a0000000600a2
:100990000000fa0068815700cfb89700f102070005
:1009a0000080fa0000000600f00007004c0107007c
:1009b000840107000b020700370207007a030700d3
:1009c0001c0337000000fa0068815700cfb8970079
:1009d000e40207000080fa0000000600e3000700c0
:1009e0003f010700ff0107002b0207007501070008
:1009f0006d0307000f0337000000fa0068815700fd
:100a0000cfb8970090d9800010007800d502070079
:100a10000080fa0000000600d40007003001070043
:100a200068010700ef0107001b0207005e030700d3
:100a300000033700100078006a2e0700cf80de0028
:100a400000000600e4874700889fbe008a9fbe0022
:100a50008c9fbe008e1f7800000378000204be0049
:100a60000405be00010778000400be0086bf9f0099
:100a7000550a07000006be000fbb9700e00f5400a8
:100a8000e08f5c0001003a006055b8000c01be0028
:100a9000860078000e007800e6ff07008c0f5000fb
:100aa0008d8f5800030032000801be00a8ff070028
:100ab0000005be000a00be004f0778004f06be00ca
:100ac0004f05be004f04be004f00b10000000600fd
:100ad00080007800010178000250a0001206b100e9
:100ae00010002000f90f5100040036000103b1008e
:100af000e98f5000010036000000eb000000060006
:100b0000f3ff37000200fa0001027800e0ff9f00c7
:100b1000140190000288a3000500320064019000d7
:100b2000005978008080fb00620298000c003700ba
:100b300012002000030020008f80e90004007800ec
:100b4000bcff07000001be008080eb00e00f5100f9
:100b5000e08f5900020032006ff897008080fb00a0
:100b6000010078000080fa0000000600e5ff370071
:100b700091d9800091007800fcff3700000006004a
:100b800040af210000000600fdff070090d788005d
:100b900080d78800000006000000060080b3210016
:100ba00000000600fdff0700b0d98800a0d988002a
:100bb00000000600889fbe008a9fbe008c9fbe007a
:100bc0008000780001007800040037003004e00065
:100bd00002003a00010054002100370000047800b0
:100be0008003eb0063036000e00f5300e08f5b00c5
:100bf000f6ff3a006104b800080378001806be004a
:100c000064044400e0844c00faef2f00ebef2f0067
:100c10000c0545008d854d000c86ea008d86ea00a6
:100c20008a0366008b81660000082800830260004a
:100c300000826300e00f5200e08f5a00eeff3200a6
:100c40000000eb006101b800020243000000e80070
:100c5000664179000204e000faff3a000100520008
:100c6000cf80de004f06be004f05be004f04be0021
:100c7000000006004600fa00889fbe008a1f780028
:100c80000004be000205780094bf9f00a5bf9f002e
:100c9000b6bf9f00c7bf9f000000eb00b09f9f0042
:100ca000a8af9f00c89f9f000080eb00b0af9f00df
:100cb0006022b8006033b80040fb2f000f004000f6
:100cc000490807001fba9700afba97003fbb9700cb
:100cd000cfbb9700120020008a00780040fb2f0055
:100ce0000f004000860507000900e00009003200ff
:100cf0004f9a9700afaa9700048252003fb3970023
:100d0000cfb397004fa5de000602420087024d00d8
:100d1000840c44004f0578004f04be000080fa00a8
:100d200000000600f4ff2f00f5ff2f000403be00b3
:100d3000d0ff37006022b80006002000070028001e
:100d4000ccff3700f4ff2f00f5ff2f006033b80011
:100d5000c8ff370004002000050028006033b800f9
:100d6000c4ff3700f3ff3700eeff3700ec87470082
:100d7000889fbe008a9fbe008c9fbe008e1f780099
:100d800000067800010478001807900028059000fc
:100d900098067800cdb79f00b80590003202be00db
:100da0002203be000400be000601be004f18de0094
:100db0006011b8008000eb00d0b79f00e1b79f0042
:100dc000f2b79f0083bf9f00800478000900e00015
:100dd000060032006000b8006011b8000402500044
:100de0008582580006035900878359000e00e000f1
:100df000020035000d10a100cdb79f000900e000f2
:100e000005003a004fb097000028a30002003a0006
:100e10000038a300020032008a00e9000100370018
:100e20008a007800f8815700a200200008007800ae
:100e3000920007000900e00003003a00cfb09700dd
:100e40000128a300080032000000e90000814500ed
:100e5000b1c2b3000900e00001003200d1c2b3000a
:100e600001497800050037000138a3000300320073
:100e70000000e90001c2b300817578006102b90089
:100e800048019000d801900061015100e0815900b3
:100e9000040151008581590080804500cfb2970040
:100ea0000a0278000c007800930207009c00900072
:100eb0000188a3000400320098009000810f5000c8
:100ec00001003d00010078004f0778004f06be008a
:100ed0004f05be004f04be00cf00b1000000060069
:100ee0000200fa00889fbe008a9fbe00800578003d
:100ef0000104780002007800180190002805900095
:100f000098007800b1bf9f00b80490000200e00094
:100f1000020035000110a100b1bf9f00ea81570017
:100f2000820020008a0078003002be002003be004c
:100f300008007800510007003fb99700f0006100f9
:100f4000030032000000e90001c3b300817478009f
:100f50003fb99700e8006100030032000000e9009b
:100f600001c2b300817478006102b90048019000a9
:100f7000d801900061015100e08159000401510045
:100f80008581590080804400bfba97000a0278002a
:100f90000b007800580207009b0090000188a30016
:100fa0000400320098009000810f500001003d00c5
:100fb000010078004f05be004f04be000080fa001b
:100fc00000000600ea874700889fbe008a9fbe0097
:100fd0008e1f780000047800020078000401be0033
:100fe0007287570084e2260055c72600049fbe0082
:100ff000c4962200040f78006c875700004feb0066
:1010000011059000a1049000910578000000e00017
:101010000200320000077800010037007287570095
:10102000e00f5100e08f590003003a000e007800f5
:10103000e0fe07000001be000a00e00005003500e8
:101040006150b900800f5100818f590001003600b6
:101050000001be008b027800090278008e00780043
:1010600008007800240207004f0778004f05be00f3
:101070004f04be00af00b10000000600f687470035
:10108000889fbe008a9fbe008c9fbe008e1f780086
:101090000605be000404be00f1b79f00f2af9f003a
:1010a000e3b79f00b0009000d1b79f001301780014
:1010b00082b79f0010079000d00090004000900081
:1010c00061005000e08058000006be000e00e00005
:1010d00001003d001e0020008040eb00dfb19700c2
:1010e000817178001400200084bf9f002100370028
:1010f00061065600e0865e007fa89700cf80de0084
:101100006109b90090b79f00a1b79f00b2b79f00d7
:10111000c3b79f000203be000002be000800be006d
:101120000a01be004e0907000002780084bf9f003c
:101130000ff097000043b000dfb0970080707e0092
:101140000e07e9007fb197000201e900f2b79f00a6
:101150001fb29700afb297003fb39700cfb397008d
:101160000800be000a01be00360907000205be00e5
:101170000004be00e00f5600e08f5e000d0034005a
:10118000e00f5400e08f5c00e00f5d00e08f5d0039
:10119000d7ff3a000e00e000d5ff3c00ffb19700fa
:1011a0000300e000030034000fb297000418a3000e
:1011b000cfff3a000fb897000000e00002003a00ad
:1011c000efb097001140a1000c0078004f077800a5
:1011d0004f06be004f05be004f04be006f01b100b8
:1011e000000006000200fa00889fbe008a9fbe0031
:1011f00000057800010478000200780018019000d2
:10120000a804900098007800b1bf9f00b805900036
:101210000200e000020035000110a100b1bf9f00f4
:10122000ea815700a2002000890078003002be0049
:101230002003be000800780090ff07006102b9009b
:1012400048019000d801900061015100e0815900ef
:10125000040151008581590080804500bfba970084
:10126000090278000a007800a30107009a009000a4
:101270000188a3000400320098009000810f500004
:1012800001003d00010078004f05be004f04be0084
:101290000080fa0000000600fe874700889fbe001d
:1012a0008a9fbe008c9fbe008e1f7800800478004d
:1012b000010478008205780018019000280590004c
:1012c00018007800d0b79f00b80090000200e0003e
:1012d000030035000010a100d0b79f0001003700c7
:1012e000120020005fb2970070026200e4b79f0016
:1012f000090032003b02be002b03be00e00f52008b
:10130000e08f5a00e00f5b00e08f5b0002003200cc
:101310000a87e900010037000a077800dfb297006a
:10132000e8826200f5b79f00010032000e07e90075
:101330003b02be002b03be00e4af9f00f5af9f0051
:1013400086b79f0097b79f0048069000d806900088
:1013500061065600e0865e008043eb0087707e00e9
:10136000daaf9f00010578006fb397007fb2970056
:10137000c9af9f00dfb49700b8af9f0002047800a8
:101380008bbf9f0083457800290037006106560017
:10139000e0865e00efaa97006f806200e90f5000c0
:1013a00002003c000003b000010037007005b000ef
:1013b0008b03fb001704b100f98f53000a003e00b5
:1013c000800378000750a0001706b100f98f530082
:1013d00005003e00b4b79f00a6b79f005207070064
:1013e0002fb397003fb2970000757e000804e90014
:1013f0000e07e9006fa89700ffa897000fb19700ac
:101400009fb19700450020008301d1000281d300e5
:101410008180d3000080d3008502e900faff3a0002
:10142000e0af9f00f1af9f0082b79f0093b79f008e
:10143000e10f5600e08f5e000f0034006fa89700a8
:10144000ffa897000fb197009fb19700e00f5000e1
:10145000e08f5800e00f5900e08f5900cbff3a00b1
:101460000800e000c9ff3c000e00e000020034006c
:101470000918a300c5ff3a00d9b79f008a00780079
:101480005fad9700f4b79f00cfac97003fac9700db
:101490008b4178008fbd97000600e00012003200fb
:1014a0003b02be002b03be00e4af9f00f5af9f00e0
:1014b00086b79f0097b79f00e00f5200e08f5a0059
:1014c000e00f5b00e08f5b00070032006106560012
:1014d000e0865e0083707e0061065600e0865e0056
:1014e00000c3b30080707e00ffb297000500e000eb
:1014f0000400320061065600e0865e0000c2b300c0
:1015000080707e0048019000d80190006101510078
:10151000e08159000c0151008d8159008c80400000
:10152000dfb297000a02780009007800f200070095
:10153000990090000188a3000400320098009000f8
:10154000810f500001003d00010078004f07780036
:101550004f06be004f05be004f04be00ef01b100b4
:10156000000006000200fa00881f780000047800de
:10157000e2bf9f006481570008007800b2020700b4
:10158000980090000148a300010032000080eb00a9
:101590004f0478000080fa0000000600881f7800e1
:1015a0008a9fbe000004780048029000d802900094
:1015b0000205be00840f5100858f590001003600de
:1015c0000405be000a01be00680090006b0507001c
:1015d000680090000a0040006004980048019000f4
:1015e000d80190000a0551008b8559004a049800e3
:1015f0005b0498000048eb004f05be004f047800e4
:101600000000060010007800762b0700cf80de0077
:1016100000000600100290000488a30001003200c0
:10162000deff37000448a30001003a0001fd070077
:101630000000060084082000848f50001d00320046
:101640000d003c0014082000848f50002700320059
:1016500002003c0004082000040037002408200099
:10166000848f50002a00320044082000848f5000ec
:101670004c003a003b003700040a2000848f5000e1
:101680002c00320004003c0004092000848f50002c
:1016900044003a002d003700020c2000828f5000d9
:1016a0001e003200020f2000828f50003d003a00e1
:1016b000340037009380e9000200e00005003200aa
:1016c000810978001102fb00cfa2de00612bb90076
:1016d0003100370081097800114278000482fb0054
:1016e0008002eb006033b8002b0037001302780053
:1016f000e40052000200e0000a0032008109780094
:101700001102be004fabde008603780022003700d6
:1017100093027800e88052000e00370093027800b0
:10172000e4805200810978001102be006033b800e5
:10173000190037009380e9008109780011027800d0
:10174000cfa2de00612bb90013003700130378002d
:10175000e8005300810978003102be002103be0079
:101760000d0037009380e9000200e000f2ff3a002c
:1017700081097800110278008002eb006033b80024
:10178000050037009380e900810978001102780094
:10179000cfa2de006033b8000498be000690be0001
:1017a000100005000000050044082000848f500050
:1017b000270032000a003c0014082000848f5000eb
:1017c0001c00320024082000848f500026003200c4
:1017d00004082000848f50002c003a001c003700c1
:1017e00004092000848f50001f00320004003c00d8
:1017f00084082000848f500024003a00070037003e
:10180000040a2000848f500011003200040c2000d4
:10181000848f50001d003a00060037009380e900d5
:1018200081097800910078000108780082487800ea
:10183000150037009380e900810978009100780055
:1018400001087800cf91de008288be000e003700cc
:101850009380e90081097800910078000108780000
:1018600082087800080037009380e9008109780039
:1018700091007800010878006112b900612bb9006d
:101880008498be008690be00100005000000050090
:10189000881f78008a9fbe000004780048029000ec
:1018a000d80290000205be00840f5100858f5900b8
:1018b000010036000405be000a01be006800900069
:1018c000ae040700680090000a0040006004980021
:1018d00048019000d80190000a0551008b855900fd
:1018e0004a0498005b0498000048eb004f05be00d6
:1018f0004f04780000000600f4874700889fbe0070
:101900008a9fbe008c9fbe008e1f78000005780065
:1019100081bf9f000204be008405780061876200d9
:1019200004003a006158b900800f5100818f5900be
:101930000a0039000801be008fb897000a0078003d
:1019400034ff07006158b900800f5400818f5c009c
:101950000200390088057800240037000886550009
:101960000c007800f00f5600010036000001200046
:101970006101b8000102200000fe2f000f004000ae
:10198000890407008c067800070037000201200058
:101990000300200001fe2f008f8040000a00780025
:1019a0001cff0700f0865600ef8f5600f7ff3e0041
:1019b0004461de0000ff2f000091b90002014600e3
:1019c000cf91de0001fe2f008f8040000a007800da
:1019d00010ff07000e00e00004003a000801be00fe
:1019e0008fb897000a0078000aff07000b00780004
:1019f0004f0778004f06be004f05be004f04be00e3
:101a00004f01b100000006000000050000000500c5
:101a100000000500800078000040eb000081fb0022
:101a2000cf91de000201410083814900e4b721002b
:101a3000e44279000504e00003003a00f0b7210019
:101a400060407900000006001102780094cf520037
:101a500004003a00f0b72100604079008408e800f3
:101a6000010037000040e800ea4f5000ebff36006d
:101a700000000600fc874700889fbe008a9fbe00ca
:101a80008c9fbe008e1f78008004780001057800ce
:101a900083057800040678000000eb0090b79f00f3
:101aa0008080eb00a1b79f00b0b79f00c2b79f0036
:101ab0000008200001002000d0b79f00e1b79f0080
:101ac0009a0078006022b8000004eb0002003700a2
:101ad0000804e8000602be0061407c006103420089
:101ae000e0834a000004e0000300320052c2b30069
:101af000824f5000f6ff3a000800e0000700320075
:101b00000401be0009007800f4b79f0085bf9f0064
:101b1000c0fe07007fb297001a0d42001a07780036
:101b200050c2b3009e4f100040013a000e07e8007b
:101b30000e0d7800100037009fb097000100a00044
:101b40000b0037009fb097000110a000080037007d
:101b50009fb097000120a000050037009fb09700bc
:101b60000130a000020037009fb097000140a000a4
:101b700091b79f00000de8001a00780090407800af
:101b8000b2c2b30082cf5000f1ff320007003c0028
:101b900002c2b30082cf5000f0ff320032c2b30065
:101ba00082cf500007003a00efff3700d2c2b300e7
:101bb00082cf5000e0ff320002c3b30082cf50005a
:101bc000e0ff3200a2c2b30082cf50000d003a0005
:101bd000000de8001c80e900000e7800100078007d
:101be000b0b79f000000e0000f003d009fb09700dd
:101bf0000100a20091b79f000000ea00b0b79f006b
:101c00000900370085010700b0b79f0001003700c9
:101c1000000de8001a0078009000fb000103b100fd
:101c2000e98f5000faff36001fb097000008a300ac
:101c3000020032000010a10090b79f001a00780047
:101c4000e1c2b30090cf100016003a008000eb0014
:101c5000a1b79f000000e800000d7800a1c2b3000a
:101c600090cf100006003a00000de8001c80e9004b
:101c7000000e780010007800a0b79f000900370020
:101c800066010700a0b79f0001003700000de800c3
:101c90001a0078009000fb000103b100e98f5000aa
:101ca000faff36000a0078005aff070080467800e5
:101cb0001a0078001000fb001405070091062000b0
:101cc000810f50003800320012003c004106200015
:101cd000810f5000340032000a003c001106200041
:101ce000810f50002000320031062000810f50008b
:101cf0009f00320051022000810f5000bc003a00ca
:101d0000b400370071062000810f5000b8003c007d
:101d10008700370001072000810f50005c0032006f
:101d200007003c00e1062000810f500079003200de
:101d3000f1062000810f5000ad003a003900370055
:101d400051072000810f500027003200810720003a
:101d5000810f50004200320031072000810f5000f7
:101d6000a3003a008f0037008d80fb000c01780043
:101d7000a0fd2f000f004000f60407000000e00067
:101d8000a90032001a007800000de80090417800a8
:101d9000a2fd2f000f014100fe80570009007800ce
:101da0001aff07000e0037008d80fb008c017800c1
:101db00012002000a0fd2f000f0040001dfe0700b4
:101dc0000000e000980032001a0de800a2fd2f008c
:101dd0000f014100fe80570009007800e3fb070077
:101de00000044400910037008d80fb008c017800d6
:101df0000001eb00a0fd2f000f0040000dfe0700ca
:101e00000000e000880032001a0de800a2fd2f005b
:101e10000f014100fe80570009007800f1fc070027
:101e2000efff37008d80fb008c0178000001eb0094
:101e3000a0fd2f000f004000fefd07000000e000a5
:101e4000790032001a0de800a2fd2f000f014100b9
:101e5000fe8057000900780021fc0700e0ff3700f2
:101e60008d80fb008c0178000001eb00a0fd2f00ad
:101e70000f004000effd07000000e0006a003200a4
:101e80001a007800000de800904178001b00370030
:101e90008c0178000001eb00010f2000a0fd2f0055
:101ea0000f004000e3fd07000000e0005e0032008c
:101eb0001a0de8005fa89700efa897007fa9970088
:101ec0008fb19700e00f5000e08f5800e00f5900ed
:101ed000e08f590008003a009fb597003fb5970082
:101ee00060b7210033fb07000001be000a02be00fc
:101ef00061b721004900370083c7b300a2fd2f005e
:101f00000f014100fe80570009007800e2fc070045
:101f1000b3ff37000b0144008d80fb008c0178007b
:101f2000a0fd2f000f0040001ffe07003e003700fd
:101f30008d80fb000c017800a0fd2f000f004000f9
:101f4000840407000000e000370032001a00780027
:101f5000000de80090417800a2fd2f000f01410024
:101f6000fe80570009007800a8fe07009cff37009c
:101f700000c8b30080cf56002b003a001a0de800cd
:101f80001c80e900000e78001040780080df9f0080
:101f9000140020000500200082fd2f000f014100e9
:101fa0000800370000c8b30080cf56001e003a007a
:101fb0001a0de8001c80e900000e78006022b800cd
:101fc00010017800fe80570009007800fdfb070033
:101fd00083ff370000c8b30080cf560012003a00dc
:101fe0001a0de8009fb297003fb297000800370033
:101ff0000e0d78000000eb0090b79f00b0b79f0077
:102000000080eb00a0b79f008002eb000502780083
:102010001200200003002000c1b721000900780051
:1020200035fe07006eff37001a0de8000800780043
:102030004f0778004f06be004f05be004f04be009c
:10204000cf01b100000006008200fa00889fbe00a8
:102050008a1f78000005780082047800c13f9f0045
:102060000004eb00100037000902780088017800b6
:10207000a2f72f000f01410081f72f008f80400051
:102080000a0078007bfe070008004000880f50001f
:1020900004003d00b0042000c0de88000084eb0096
:1020a00004003700000478004f3897001004e00067
:1020b000edff3a00080078004f0578004f04be009d
:1020c0000080fa0000000600889fbe000004be00e9
:1020d0000000eb000800e00018003200180090003b
:1020e0000058a3000d003200e80090007800900036
:1020f000808f500009003600480a90006011b80037
:102100008000eb000800780004000100e800900067
:102110000080eb000100e000080032000000eb004e
:10212000300c980070049800600498000900e000ea
:102130000200320018007800ecf907004f04be00de
:1021400000000600889fbe000004be000000eb00f7
:102150000800e00025003200180090000058a3009d
:1021600011003200e800900078009000808f50004d
:1021700009003600480a90006011b8008000eb00aa
:102180000800780004000100e80090000080eb00e7
:102190000100e000150032000000eb00300c980058
:1021a00070049800600498000812900018109000c5
:1021b000800f520006003100000252001100200082
:1021c000cfa2de00612bb90018007800650207007d
:1021d0000000eb0010149800001498000900e000c3
:1021e0000200320018007800c0f907004f04be005a
:1021f000000006008000780010002000020220008d
:10220000828f500004003200e9805000e48f5000bb
:10221000010036000000eb0000000600889fbe00b1
:102220008a9fbe008c9fbe00800578000004eb00f2
:102230006146b8000c864500e0864e000c0578002b
:10224000eb447c000900fb00eaff07000804e800fb
:102250000000e000f6ff3a00b0c2b30080cf5400a7
:1022600005003200d0c2b3008000eb0080cf5400e4
:1022700005003a00020037008000eb000100370043
:10228000110020000c05e8000001eb0002007800be
:10229000030037006a02b900030052000003b000d7
:1022a000ea4179000201e8008301fb0004fd2f00f0
:1022b00003024200e90f5200f6ff36000100e00081
:1022c00001003a000000ea004f06be004f05be00c4
:1022d0004f04be00000006008000780010002000bf
:1022e00002022000828f500004003200e98050007a
:1022f000e48f5000010036000000eb0000000600f3
:102300006f02b000889fbe008a9fbe008c9fbe00f7
:102310008e1f78000006780001077800820478009c
:10232000d4af9f00e5af9f00f6af9f0087b79f0037
:1023300040022000800f57007d003e00e10f570053
:102340007b0032000c109000cc109000810f5000e8
:1023500003003100b086fb00001698000300370030
:102360000c007800c5020700800678000d00780098
:10237000d9ff07000000e000f2ff3a00b0022000a1
:10238000808f5600050032008002eb0085af9f0071
:10239000d0022000808f560010003a00dd82b2008b
:1023a0000df0a7008d06ea008d06e900cfeede00f5
:1023b0008daf9f000c109000cc109000810f50004a
:1023c00003003100b086fb000016980003003700c0
:1023d0000c007800a9020700800678000e00e000db
:1023e00002003200f00f570042003a0000032000c4
:1023f000808f56003c003a000c109000cc109000ea
:10240000810f500003003100b086fb0000169800d9
:10241000030037000c00780098020700800678005f
:102420008d0078000150a00080072000808f5000b0
:102430002a003a000c109000cc109000810f500040
:1024400003003100b086fb0000169800030037003f
:102450000c0078008902070080067800008f2100b8
:1024600060c07e000e012000ef4f50008d0036004e
:102470004c1090000000e000030032008c1090002f
:102480008100e900011698000900e0000c0032000c
:102490006022b8006033b800d4af9f00e5af9f0062
:1024a000f6af9f0087b79f000000e000a101320057
:1024b0000c1090000000e900001698009d01370004
:1024c0006022b8006033b8000c00780046020700b4
:1024d0006000b8006011b800920137000e00e00003
:1024e0009e013200170037000e00e00001003a00a4
:1024f000ae002000008f210060c07e000080fb0045
:102500008e0f50000f0039004c1090000000e000ca
:10251000030032000c1090000000e9000016980043
:102520006022b8006033b8000c0078002e0207006b
:1025300060012000c0de88006022b8006033b8006f
:1025400071013700ea0f570056003a000004eb0013
:102550000d0078000d0037006a44b9000800400003
:1025600008fd2f00000444008c1090004c109000d7
:10257000808f5000030031003180fb00011698006d
:10258000020037000c0078003c02070001fd2f001c
:1025900080804000e98f500003003e0081992100b7
:1025a000810f5400ecff3600800678008004eb00b9
:1025b0006055b800120037001faa9700afaa970015
:1025c0003fab9700cfab97000004420081844a00e4
:1025d00002054b0083854b000c109000cc1090003e
:1025e000810f500003003100b086fb0000169800f8
:1025f000030037000c0078002002070080067800f6
:1026000005fd2f008582460095af9f00e98f52009f
:1026100009013e0090992900919929009299290079
:10262000939921000040e10001c8e10002d0e100df
:1026300003d8e100db003e00a400200005002000dc
:102640006033b8000800be000a01be00660407003f
:102650001faa97008002eb006033b80094af9f0080
:10266000a5af9f00b6af9f00c7af9f000482ea00ee
:102670008582ea000683ea008783ea00d4b79f00d8
:10268000e5b79f00f6b79f0087bf9f000400e100f9
:102690000588e1000690e1000798e100c6ff3600da
:1026a000c00037000e00e9000e0060000300320099
:1026b0000004eb000d007800650037007770b9006a
:1026c0004500de0067006000618e21000080400050
:1026d0009000fb000004eb000d00780081047800fe
:1026e0000b0037000944dd00010474008c109000d9
:1026f0004c109000808f5000030031003180fb00af
:1027000001169800020037000c007800db0107007a
:10271000018f2100e14078008180fb008e8f500006
:1027200003003100f27f2000820f5400edff3600dd
:1027300080067800890078008004eb006055b800be
:10274000f4ff2f00f5ff2f000403be000100780006
:102750000000e900050033008703d1000683d300a1
:102760008582d3000482d300f9ff37000d00780082
:1027700081067800200037000d0178000201e90091
:10278000050033000804d0008984d2000a85d200f5
:102790008b85d200f9ff37000180fb008000eb0041
:1027a0006011b80008047000898470000a05710087
:1027b0008b8571008c1090004c109000808f500021
:1027c000030031003180fb00011698000a00370039
:1027d0000c00780094b79f00a5b79f00b6b79f0084
:1027e000c7b79f00a5010700cfb397003fb397007d
:1027f000afb297001fb29700018f2100e14078002f
:102800000181fb008e0f5100600031000440e100a7
:1028100005c8e10006d0e10007d8e100d6ff360088
:102820005a0037000ec4b900088440008c10900094
:102830004c109000808f5000030031003180fb006d
:1028400001169800020037000c0078008b01070089
:10285000018f2100e14078008180fb008e8f5000c5
:1028600003003100b2712000820f5400edff3600ea
:10287000800678008004eb006055b80098af9f0098
:10288000a9af9f00baaf9f00cbaf9f0012003700e7
:102890000002440081824c0002034d0083834d00fe
:1028a00094af9f00a5af9f00b6af9f00c7af9f003a
:1028b0000c109000cc109000810f500003003100ec
:1028c000b086fb0000169800030037000c0078006b
:1028d0006a01070080067800008f210060c07e003a
:1028e000e0cf9f00804278000580fb008e0f5000f3
:1028f000280031006174b8006055b8000802be00bd
:102900000a03be00f0ff2f00f1ff2f000001be0000
:102910004c0307001faa9700afaa97003fab970090
:10292000cfab97000020e10001a8e10002b0e10078
:1029300003b8e10017003e000802be000a03be0013
:102940001fa89700afa897003fa99700cfa99700ad
:10295000a5030700efca97000584fb008004eb0085
:102960006055b8000882ea008982ea000a83ea001a
:102970008b83ea000400e1000588e1000690e10095
:102980000798e100c2ff3600020037008006780099
:10299000040037001fac9700afac97003fad970025
:1029a000cfad9700008f210060c07e000080fb004b
:1029b0008e0f5000200031000d0078000900370014
:1029c0008c1090004c109000808f5000030031005c
:1029d0003180fb0001169800020037000c007800df
:1029e00026010700018f2100614078000080fb0074
:1029f0008e0f5000f2ff390020022000c0de880058
:102a00005fab97000608a300070032005fac970099
:102a1000efac97007fad97008fb597008003eb0078
:102a200087af9f00040037005fac9700efac9700c2
:102a30007fad97008fb597004c1090000000e0002c
:102a4000030032000c1090000000e900001698000e
:102a50005fa89700efa897007fa997008fb1970014
:102a60000040e10001c8e10002d0e10003d8e1002c
:102a70001c0039000008a3000e003a008fa8970040
:102a80000100e0000b003a0020022000c0de8800b8
:102a90005faa9700efaa97007fab97008fb39700cc
:102aa00061025200e0825a0060035b00e0835b0039
:102ab000150037005fa89700efa897007fa997003f
:102ac0008fb197000040e10001c8e10002d0e100b1
:102ad00003d8e1000300360020022000c0de880099
:102ae000140037008fa89700e18f40000b003a00d8
:102af0006000b8006011b8000802500089825800d8
:102b00000a0359008b835900d4af9f00e5af9f00a3
:102b1000f6af9f0087b79f00060037000800be0091
:102b20000a01be00d0af9f00e1af9f00f2af9f004f
:102b300083b79f005fa89700efa897007fa9970031
:102b40008fb197004f0778004f06be004f05be00bb
:102b50004f04be006f02b100000006008e0020008e
:102b6000d0fe3700a0fd2f00f1ff2f005d01070010
:102b70004f89de0082017800000006000202be00dc
:102b80008001eb000400370061f07900610252001f
:102b9000e0825a008301e800e00f5200e08f5a0003
:102ba000f9ff3a00000006000c00fa00889fbe0002
:102bb0008a9fbe008c1f7800800478000100780096
:102bc000e00f5100e08f5900810032008040780012
:102bd000804c78000202e90080747a00e20f510014
:102be000e08f59007a00360090449800a044980085
:102bf0000282e90080747a006302510080747a00d6
:102c0000e60f5100e08f590071003600b044980083
:102c10006402510080747a00e80f5100e08f59007f
:102c20006b0036000900ea006022b8006302600011
:102c30000484440004015100858159008305780013
:102c4000c0ff2f00020560000180fb008000eb0048
:102c50001210200013102000db010700008cbe00c2
:102c600064015500e0815d00020144000089be005e
:102c7000e80f5500e08f5d005500360020049800f5
:102c80003104980040049800510498006c015500ec
:102c9000e0815d00020144000089be00680155002a
:102ca000e0815d00020144000089be00f80f55007c
:102cb000e08f5d00460036006004980071049800c3
:102cc000000c9800110c9800200c9800310c980012
:102cd000400c9800510c98007c015500e0815d008b
:102ce000020144000089be0078015500e0815d00ca
:102cf000020144000089be0074015500e0815d00be
:102d0000020144000089be0070015500e0815d00b1
:102d1000020144000089be006033b800640364000f
:102d200078014300e0814b0092bf9f00a3bf9f004a
:102d30000205550083855d006011b8000203be00e6
:102d40000002be000403be006022b800d4b79f009a
:102d5000e5b79f00f6b79f0087bf9f000000720095
:102d60008180720002017300838173001fba970093
:102d7000040344008003eb0012003700009bbe00f8
:102d80000293be004003980051039800620398002c
:102d900073039800000b9800110b9800220b980009
:102da000330b9800400b9800510b9800620b980071
:102db000730b98000a02b1000b80b1000602b0004c
:102dc0000780b000ff0f5500e08f5d00ebff3e0075
:102dd000090078004f0678004f05be004f04be0082
:102de0000080fa0000000600889fbe008a9fbe0097
:102df00054109800651098007610980007189800f5
:102e0000801090002004900001045400cfc4de0024
:102e1000614db90018189800291898003a189800c0
:102e20004b189800e00f5200e08f5a00e00f5b0053
:102e3000e08f5b000c00320010149000010454007d
:102e4000cfc4de00614db9000440e10005c8e100d7
:102e500006d0e10007d8e1000300340004824000fe
:102e60004410980002003700901090004110980024
:102e70004f05be004f04be00000006002800fa0007
:102e8000889fbe008a1f7800000478008810900098
:102e90002800900000805000181a9000a81a900096
:102ea000381b9000c81b9000cf80de000402400059
:102eb00085824800068348008783480058109000a8
:102ec000e81090007811900088199000e00f5000f1
:102ed000e08f5800e00f5900e08f590005003200e4
:102ee0000020e10001a8e10002b0e10003b8e10028
:102ef0000d003d0008007800d4b79f00e5b79f00a3
:102f0000f6b79f0087bf9f00b100070080047800dc
:102f10005fb29700efb297007fb397008fbb970027
:102f20000900e00016003d0008109000a800900085
:102f3000808050004f89de000482400085024900f5
:102f40000603490087034900141c9800251c9800bb
:102f5000361c9800471c980040149800f0ff2f0082
:102f6000f1ff2f000001be0050149800611498007a
:102f700072149800031c98008084eb005400370002
:102f800061004200e0804a0060014b00e0814b009c
:102f900090bf9f00a1bf9f00b2bf9f00c3bf9f0013
:102fa00058129000e812900078139000881b90004f
:102fb00094b79f00a5b79f00b6b79f00c7b79f0003
:102fc000e00f5200e08f5a00e00f5b00e08f5b00e3
:102fd0002a00320008159000181190000a015100d3
:102fe0006112b900612bb900d4af9f00e5af9f001b
:102ff000f6af9f0087b79f001fb09700afb0970054
:103000003fb19700cfb197001fba9700afba9700b2
:103010003fbb9700cfbb970004005000858058004d
:10302000060159008781590090af9f00a1af9f0012
:10303000b2af9f00c3af9f005faa9700efaa9700af
:103040007fab97008fb397000020e10001a8e1005b
:1030500002b0e10003b8e100080034001fb397009c
:10306000afb397001fb89700afb8970000015300a7
:1030700081815b00820045000100370098109000bc
:10308000411498002801900088109000810151009f
:103090001fba9700afba97003fbb9700cfbb97000e
:1030a0004f98de0004824100850248000603480074
:1030b00087034800141c9800251c9800361c9800b3
:1030c000471c9800828f500001003e00f9f89f00d5
:1030d000090078004f0578004f04be000080fa0018
:1030e0000000060002002f00f3ff2f00820f5000a7
:1030f000838f5800040036000000ea00c0de88001c
:103100000080eb008080eb0000000600f1fb2f0048
:1031100080804000f98f500001003e000050a00068
:1031200000000600f9ff3700f1f92f008080400011
:10313000f98f500001003e00f005b20000000600cb
:10314000f9ff37000000060096f607008ef607002c
:10315000fcff3700881f780000047800000820007a
:10316000808f50001700350010082000808f50001d
:103170000b00340030082000808f500011003a000e
:103180009200780068805000000978003002be008c
:103190002003be00049cbe000694be00070037005a
:1031a0009202780064805200000978001000be008e
:1031b00051000700009cbe000294be0010002000d9
:1031c000010037000000eb004f047800000006000b
:1031d0000200fa00889fbe00000478000800780012
:1031e000120007008084eb000000e0000b003a00b2
:1031f000281290001200200003002000e6805700f3
:103200000800780004000100e10f5000e08f580032
:1032100002003a002ff897008084fb000900780034
:103220004f04be000080fa0000000600881f7800ee
:1032300000047800686090008040e90000c07000e1
:1032400060649800e800900078009000808f500043
:1032500005003600480a90006011b8008000eb00bd
:1032600008007800040001000000eb00300c98001a
:103270007004980060049800980090000118a30062
:10328000030032000140a00011049800080037003c
:1032900038009000280190000000410010149800b0
:1032a000001498000000eb000138a3000100320078
:1032b0000080eb004f047800000006000200370099
:1032c0000000060000000500fdff0700d0de8000c2
:1032d0008000eb00fbff0700a0d980008000eb001e
:1032e000f8ff070080d780008000eb00f5ff370073
:1032f00000c0da0000000600810378001d0007000e
:103300000001be006000b8000478a30013003a007a
:103310006220e10015003e000d0039008301d1005c
:103320000281d3008180d3008301d1000281d300c8
:103330008180d3008301d1000281d3008180d3003a
:103340000538b000c42add00f300b20083817200aa
:1033500007f0a70003f0a0000000060083ff27008d
:10336000020020006110b900f9ff370003ff2700b9
:10337000f7ff3700c70ade00f107b200f50fb20011
:1033800008003200e1cf4200020032000170a000cc
:1033900024000500810f70000100320004080500c0
:1033a00044000500810f700002003a00140005007f
:1033b0008502e9000000400081c04800fcff3b009e
:1033c0000170a00024000500020ab900001bb9002a
:1033d0000200b800810042008100430000000600a6
:1033e000889fbe008a9fbe0030044200b0844a001d
:1033f00030054b0090854b006000b1000898be007e
:103400000a90be000440e10005c8e10006d0e100da
:1034100007d8e10002003100680040001008e80011
:103420004f05be004f04be0000000600889fbe008e
:103430008a9fbe003004be002005be000418540060
:1034400005985c0006185d0007985d0011002000db
:103450000440e10005c8e10006d0e10007d8e10022
:10346000010039008000eb00108810004f05be00fd
:103470004f04be00000006001200fa00889fbe0044
:103480008a9fbe008c9fbe00e0b79f00f1b79f00ef
:1034900082bf9f0093bf9f000605be000404be00cc
:1034a0000000eb00d0b79f00c0b79f00b0b79f00ef
:1034b000a0b79f0090b79f00000678005fb197000b
:1034c000cfb09700820141003fb097000200e000ba
:1034d00004003d00370007007e805700c0ff070052
:1034e00003003700330007007e805700cfff07003e
:1034f000dfb697000d00e0000c0035006fb29700ba
:10350000ffb297000fbb97009fbb970010002000f1
:10351000010020006011b800000272008182720078
:1035200002037300838373001b0007000c06e8008e
:1035300001042000810f5600e0ff3a000d00e0007a
:1035400004003d000802be000a03be007e80570052
:10355000a3ff07005fa897000000e00005003a0005
:103560001fb29700afb297003fb39700cfb3970059
:10357000090007006fb09700ffb097000fb99700e0
:103580009fb997004f06be004f05be004f04be0016
:103590000080fa000000060001000700000006009d
:1035a000a4b79f00b5b79f00c6b79f00d7b79f00cd
:1035b000000006004f09de0082817100b3b79f0052
:1035c0004f01de008180400082807000a1b79f0023
:1035d0008fb097004f09de0000004000020070002d
:1035e00090b79f007fa897004f01de0081804000c8
:1035f0008280700081b79f000d0007004f3ade0007
:103600000000400004007000f0af9f0008000700b9
:103610000402420085824a0006034b0087834b0068
:10362000dfff07000802be000a03be00000006001c
:103630002fb29700bfb297004fb39700dfb3970048
:1036400000000600881f780018002000881f7800fe
:1036500089ff07008f87e9004f047800000006000b
:10366000801feb0084ff07008f87e9000000060041
:10367000889fbe008a9fbe00e00f5000e08f580078
:10368000e00f5900e08f59000c003d006044b80085
:103690006055b8000000540081805c0002015d00ac
:1036a00083815d00180020001500070008003d0020
:1036b000180007000004eb00050037000004eb00d1
:1036c0000f00070002003d00120007001800200054
:1036d000dcff07000800e000060032006022b800ae
:1036e0006033b8000000520081805a0002015b0084
:1036f00083815b004f05be004f04be000000060042
:10370000e00f5200e08f5a00e00f5b00e08f5b009b
:10371000000006006044b8006055b8000402540080
:1037200085825c0006035d0087835d000000060063
:10373000889fbe008a9fbe008c1f7800e00f50005b
:10374000e08f5800e00f5900e08f59000d003d0058
:103750006044b8006055b8000000540081805c00ef
:1037600002015d0083815d001c0020000820e10053
:1037700009a8e1000ab0e1000bb8e1000d003d002e
:10378000080037000006eb00e00f5200e08f5a00ff
:10379000e00f5b00e08f5b0006003d006044b80076
:1037a0006055b8000402540085825c0006035d0089
:1037b00087835d00aaff07000c00e00006003200ce
:1037c0006022b8006033b8000000520081805a00c7
:1037d00002015b0083815b004f0678004f05be004d
:1037e0004f04be0000000600889fbe008a9fbe00f6
:1037f0008c1f78000006eb00e00f5000e08f5800af
:10380000e00f5900e08f590007003d006044b80008
:103810006055b8000000540081805c0002015d002a
:1038200083815d001c002000e00f5200e08f5a00f1
:10383000e00f5b00e08f5b0007003d006044b800d4
:103840006055b8000402540085825c0006035d00e8
:1038500087835d000c00a2000c0007000c00e00054
:10386000060032006022b8006033b8000000520049
:1038700081805a0002015b0083815b004f06780063
:103880004f05be004f04be0000000600889fbe002a
:103890008a9fbe008c9fbe000404b8000506b800d5
:1038a0008904460060854e000606b8000a054600f9
:1038b000e0854e000706b8008b054600040eb800f0
:1038c000890446000a854e00e0854d00050eb800cb
:1038d0000a0546008b854e00060eb8008b05460093
:1038e0000416b8000a0546008b854e000516b80080
:1038f0008b054600041eb8008b0546000800be007c
:103900000a01be004f06be004f05be004f04be00b8
:0439100000000600ad
:020000040000fa
:1039140031200000524500004d2000004d410000c0
:103924004e440000454c0000425200004f54000039
:103934002042000041530000494300000a320000c5
:10394400204c00004554000020580000203d000099
:10395400203000000a330000204c000045540000d1
:1039640020590000203d0000203000000a340000ef
:10397400204c00004554000020520000203d00006f
:10398400205f000034300000393600000a350000a2
:10399400204c00004554000020490000203d000058
:1039a4002033000035300000300a000036200000cb
:1039b4004c45000054200000434f0000554e0000c9
:1039c400542000003d200000300a00003720000091
:1039d400434c000045410000520a0000382000001a
:1039e400474f0000535500004220000034300000cf
:1039f400300a000031300000204700004f5300001f
:103a04005542000020320000303000000a3200002d
:103a140030200000444f00005420000058200000d3
:103a24003a200000592000003a200000434f0000d3
:103a3400554e0000540a000033300000204c0000b2
:103a44004554000020580000203d0000205800008c
:103a5400202b0000203100000a3400003020000038
:103a64004c45000054200000522000003d2000007e
:103a7400522000002b200000383200000a350000dc
:103a8400302000004946000020580000203c00007f
:103a940020310000303000000a36000030200000e1
:103aa400474f0000544f000020310000300a00004e
:103ab40037300000204c000045540000205800001e
:103ac400203d0000203000000a38000030200000b3
:103ad4004c45000054200000522000003d2000000e
:103ae4005f34000030390000360a0000393000002d
:103af400204c00004554000020590000203d0000e7
:103b040020590000202b0000203100000a31000061
:103b140030300000204c00004554000020490000d3
:103b2400203d000020490000202d00002038000026
:103b3400320a000031310000302000004946000004
:103b440020590000203c00002031000030300000eb
:103b54000a31000032300000204700004f540000ba
:103b64004f200000313000000a31000033300000e3
:103b7400204700004f5400004f2000003939000056
:103b8400393900000a3200003030000020520000b1
:103b9400454d0000204900005445000052410000fa
:103ba400544900004f4e00000a320000313000003a
:103bb400204c000045540000204300005220000027
:103bc4003d200000520a0000323200003020000084
:103bd4004c4500005420000043490000203d0000f3
:103be400204900000a32000033300000204c00005d
:103bf40045540000204300004f5500004e5400007f
:103c0400203d0000203000000a3200003430000063
:103c1400204900004620000043520000202a0000f2
:103c240020430000522000005d20000031310000dc
:103c3400202b000020430000492000002a2000001f
:103c440043490000205d00002031000031200000c5
:103c54003e20000034300000393600000a320000f3
:103c64003530000020520000455400000a320000a4
:103c740036300000204c0000455400002043000072
:103c840052520000203d000020430000522000005a
:103c94002a20000043520000205d00002031000073
:103ca400312000002d20000043490000202a00009c
:103cb40020430000492000005d2000003131000055
:103cc400202b0000205200000a3200003730000090
:103cd400204c0000455400002043000049490000e6
:103ce400203d000020430000522000002a20000054
:103cf40043490000202a000020320000205d00001b
:103d040020310000312000002b200000490a00006f
:103d140032380000302000004c45000054200000e0
:103d240043520000203d0000204300005252000096
:103d34000a32000039300000204c000045540000d5
:103d440020430000492000003d20000043490000ba
:103d5400490a000033300000302000004c450000c8
:103d640054200000434f0000554e00005420000032
:103d74003d200000434f0000554e00005420000039
:103d84002b200000310a00003331000030200000f5
:103d940049460000204300004f5500004e540000e7
:103da400203e000020310000300a000033320000c1
:103db4003020000052450000540a00003333000054
:103dc40030200000474f0000544f00002032000014
:103dd400343000000a34000030300000204c000071
:103de4004554000020470000203d00002031000021
:103df4000a34000030310000204300004f4c000022
:103e04004f52000020470000203a000020330000f9
:103e1400312000003a200000472000002a20000042
:103e2400342000003a200000300a00003430000042
:103e3400322000004c4500005420000047200000c0
:103e44003d200000472000002b200000310a000024
:103e540034300000332000004946000020470000b1
:103e6400203c000020310000360a000034300000fd
:103e740034200000474f0000544f0000203400005d
:103e8400303100000a3400003035000020520000b8
:103e9400455400000a4300004c4500004152000014
:103ea4000a480000414300004b4900004e4700000f
:103eb4002047000049420000534f00004e2e0000ee
:103ec4002e2e00002e2e00002e2e00002e2e00007e
:103ed4002e2e00002e2e00002e2e00002e2e00006e
:103ee4002e2e00002e2e00002e2e00002e2e00005e
:103ef4002e2e00002e2e00002e2e00000a4300005d
:103f04004c450000415200000a460000494e0000a2
:103f1400444900004e470000205400005241000074
:103f24005348000020460000494c0000452e000084
:103f34002e2e00002e2e00002e2e00002e2e00000d
:103f44002e2e00002e2e00002e2e00002e2e0000fd
:103f54002e2e00002e2e00002e2e00002e2e0000ed
:103f64002e2e00000a4300004c4500004152000080
:103f74000a4400004f5700004e4c00004f4100001f
:103f8400444900004e4700002e2e00002e2e000053
:103f94002e2e00002e2e00002e2e00002e2e0000ad
:103fa4002e2e00002e2e00002e2e00002e2e00009d
:103fb4002e2e00002e2e00002e2e00002e2e00008d
:103fc4002e2e00002e2e00002e2e00000a4300008c
:103fd4004c450000415200000a520000554e0000ba
:103fe4000a000000524500004d0000004c4500004e
:103ff4005400000049460000004700004f540000f0
:104004004f0000004c4900005354000000560000cb
:10401400415200005300000050520000494e00007d
:1040240054000000525500004e000000434c0000b4
:104034004541000052000000444f000054000000bd
:10404400474f000053550000420000005245000055
:104054005400000050520000494e00005453000028
:1040640000440000554d000050000000434f000084
:104074004c4f00005200000044450000425500002f
:104084004700000042520000454100004b50000030
:104094004f4900004e5400000052000045530000f8
:1040a400554d0000450000004355000052530000e8
:1040b4004f52000000440000454c000041590000ec
:1040c400002500006420000025730000200000008b
:1040d40025640000200000006261000064200000ec
:1040e4007661000072690000616200006c65000086
:1040f400206e0000616d0000650a0000006400008d
:10410400696400006e74000020670000657400009c
:1041140020760000616c00007565000020730000cb
:104124006f6d0000656800006f7700000a000000f2
:10413400256c0000640a00000050000043200000c9
:10414400256400000a000000506100007061000056
:1041540079610000536f0000667400002042000083
:1041640061730000696300000a00000061750000cb
:10417400746f0000727500006e200000696e00000c
:104184002035000020730000656300006f6e00009e
:10419400647300002e2e00002e0a000000000000b0
:1041a4002564000020250000732000000025000085
:1041b400642000000000000025730000202500009a
:1041c4006c6400000a000000253000003258000032
:0441d40020000000c7
:020000040000fa
:1041d800d01b000002000000820000000100000067
:1041e800d21b00000200000080000000f8fb000065
:1041f800080c0000020100000000000000ff0000a1
:104208000800060008040000061004000006180054
:104218000400060020040000062804000006300000
:1042280004000600380400000640040000064800a8
:104238000400060050040000065804000006600050
:1042480004000600680400000670040000067800f8
:1042580004000600800400000688040000069000a0
:10426800040006009804000006a004000006a80048
:1042780004000600b004000006b804000006c000f0
:1042880004000600c804000006d004000006d80098
:1042980004000600e004000006e804000006f00040
:1042a80004000600f80400000600050000060800e7
:1042b800050006001005000006180500000620008d
:1042c8000500060028050000063005000006380035
:1042d80005000600400500000648050000065000dd
:1042e8000500060058050000066005000006680085
:1042f800050006007005000006780500000680002d
:1043080005000600880500000690050000069800d4
:1043180005000600a005000006a805000006b0007c
:1043280005000600b805000006c005000006c80024
:1043380005000600d005000006d805000006e000cc
:1043480005000600e805000006f005000006f80074
:10435800050006000006000006080600000610001a
:1043680006000600180600000620060000062800c1
:104378000600060030060000063806000006400069
:104388000600060048060000065006000006580011
:1043980006000600600600000668060000067000b9
:1043a8000600060078060000068006000006880061
:1043b8000600060090060000069806000006a00009
:1043c80006000600a806000006b006000006b800b1
:1043d80006000600c006000006c806000006d00059
:1043e80006000600d806000006e006000006e80001
:1043f80006000600f006000006f8060000060000a9
:10440800070006000807000006100700000618004d
:1044180007000600200700000628070000063000f5
:10442800070006003807000006400700000648009d
:104438000700060050070000065807000006600045
:1044480007000600680700000670070000067800ed
:104458000700060080070000068807000006900095
:10446800070006009807000006a007000006a8003d
:1044780007000600b007000006b807000006c000e5
:1044880007000600c807000006d007000006d8008d
:1044980007000600e007000006e807000006f00035
:1044a80007000600f80700000600080000060800dc
:1044b8000800060010080000061808000006200082
:1044c800080006002808000006300800000638002a
:1044d80008000600400800000648080000065000d2
:1044e800080006005808000006600800000668007a
:1044f8000800060070080000067808000006800022
:1045080008000600880800000690080000069800c9
:1045180008000600a008000006a808000006b00071
:1045280008000600b808000006c008000006c80019
:1045380008000600d008000006d808000006e000c1
:1045480008000600e808000006f008000006f80069
:10455800080006000009000006080900000610000f
:1045680009000600180900000620090000062800b6
:10457800090006003009000006380900000640005e
:104588000900060048090000065009000006580006
:1045980009000600600900000668090000067000ae
:1045a8000900060078090000068009000006880056
:1045b8000900060090090000069809000006a000fe
:1045c80009000600a809000006b009000006b800a6
:1045d80009000600c009000006c809000006d0004e
:1045e80009000600d809000006e009000006e800f6
:1045f80009000600f009000006f80900000600009e
:104608000a000600080a000006100a000006180042
:104618000a000600200a000006280a0000063000ea
:104628000a000600380a000006400a000006480092
:104638000a000600500a000006580a00000660003a
:104648000a000600680a000006700a0000067800e2
:104658000a000600800a000006880a00000690008a
:104668000a000600980a000006a00a000006a80032
:104678000a000600b00a000006b80a000006c000da
:104688000a000600c80a000006d00a000006d80082
:104698000a000600e00a000006e80a000006f0002a
:1046a8000a000600f80a000006000b0000060800d1
:1046b8000b000600100b000006180b000006200077
:1046c8000b000600280b000006300b00000638001f
:1046d8000b000600400b000006480b0000065000c7
:1046e8000b000600580b000006600b00000668006f
:1046f8000b000600700b000006780b000006800017
:104708000b000600880b000006900b0000069800be
:104718000b000600a00b000006a80b000006b00066
:104728000b000600b80b000006c00b000006c8000e
:104738000b000600d00b000006d80b000006e000b6
:104748000b000600e80b000006f00b000006f8005e
:104758000b000600000c0000000000000000000034
:1047680000001c00223622002a221c00001c3e00e9
:104778002a3e22003e1c000000143e003e3e1c0063
:1047880008000000081c3e003e1c080000081c0031
:104798001c083e003e08000000081c003e3e0800c1
:1047a8001c000000000000000000000000000000e5
:1047b80000000000000000000000000000000000f1
:1047c80000000000000000000000000000003800a9
:1047d800302c1200120c00001c2222001c081c00a5
:1047e80008000000000000000000000000302c005d
:1047f800342c340036060000002a1c00361c2a001f
:10480800000004000c1c3c001c0c040000101800e4
:104818001c1e1c0018100000081c3e00083e1c004e
:10482800080014001414140014001400003c2a009a
:104838002a2c2800282800001c220c00141822000a
:104848001c00000000000000001e1e0000081c00e4
:104858003e083e001c081c00081c3e000808080012
:1048680008000800080808003e1c080000000800ae
:10487800183e18000800000000080c003e0c080054
:10488800000000000000020002023e0000001400c8
:10489800143e14001400000008081c001c3e3e00d2
:1048a80000003e003e1c1c0008080000000000003c
:1048b8000000000000000000081c1c0008080000a0
:1048c8000800360036120000000000000000140046
:1048d8003e1414003e140000041c02000c100e00cc
:1048e80008002600261008000432320000040a00de
:1048f8000a042a00122c00000c0c0400000000001e
:10490800000008000404040004040800000408006f
:10491800080808000804000000141c003e1c1400cd
:104928000000000008083e00080800000000000021
:10493800000000000c0c0400000000003e00000015
:104948000000000000000000000c0c000000200027
:1049580010080400020000001c2232002a2622004f
:104968001c0008000c08080008081c00001c220095
:1049780020180400023e00001c2220001c202200f7
:104988001c001000181412003e101000003e020017
:10499800021e2000221c0000180402001e22220011
:1049a8001c003e002010080004040400001c220023
:1049b800221c2200221c00001c2222003c20100085
:1049c8000c000000000c0c00000c0c0000000000a3
:1049d8000c0c00000c0c0400100804000204080071
:1049e80010000000003e0000003e00000004080027
:1049f80010201000080400001c22200018080000e5
:104a080008001c00223a2a003a021c00001c22005e
:104a180022223e00222200001e2222001e22220004
:104a28001e001c002202020002221c00001e22009e
:104a380022222200221e00003e0202001e02020064
:104a48003e003e0002021e0002020200001c22007c
:104a5800023a2200223c0000222222003e222200aa
:104a680022001c000808080008081c00002020007c
:104a780020202200221c000022120a00060a12002e
:104a8800220002000202020002023e00002236005a
:104a98002a2222002222000022262a003222220074
:104aa80022001c002222220022221c00001e2200ba
:104ab800221e0200020200001c222200222a1200ea
:104ac8002c001e0022221e0012222200001c22009e
:104ad800021c2000221c00003e08080008080800ec
:104ae800080022002222220022221c00002222008a
:104af800222222001408000022222a002a2a2a0040
:104b0800140022002214080014222200002222008d
:104b180022140800080800001e1008000402020001
:104b28001e001c000404040004041c000000020011
:104b380004081000200000001c10100010101000c5
:104b48001c00080014220000000000000000000003
:104b58000000000000003f000c0c080000000000ee
:104b680000000000001c20003c223c000002020063
:104b78001e222200221e000000001c002202220029
:104b88001c002000203c220022223c0000000000e3
:104b98001c221e00021c0000180404001e0404004d
:104ba80004000000003c2200223c20001c020200fd
:104bb8000e1212001212000008000800080808006f
:104bc8001800100000181000101012000c0202004b
:104bd800120a06000a12000008080800080808005f
:104be8001800000000162a002a22220000000000f7
:104bf8000e1212001212000000001c0022222200d5
:104c08001c000000001e220022221e0002000000dc
:104c18003c222200223c200000001a002404040048
:104c28000e000000001c02001c201c0000000400f4
:104c38001e040400140800000000120012121a00da
:104c480014000000002222002214080000000000c6
:104c580022222a003e14000000001200120c12004a
:104c68001200000000121200121c080006000000ca
:104c78001e100c00021e00001804040006040400a4
:104c8800180008000808000008080800000c1000b8
:104c980010301000100c0000140a00000000000082
:104ca800000008001c362200223e000000ffff0022
:104cb800ffffff00ffffff005555550055555500f4
:104cc8005555ff00ffffff00ffffff00ffffff003c
:104cd800ffffff00ffffff00ffffff00ffffff00d8
:104ce800ffffff00ffffff00ffffff00ffffff00c8
:104cf800ffffff00ffffff00ffffff00ffffff00b8
:104d0800ffffff00ffffff00ffffff00ffffff00a7
:10520800ffff0000f84f0000002c000080000000a5
:105218009c1600004a020000820000000000060000
:10522800000c000012001800001e000024002a00d4
:105238000030000036003b000041000046004b00f3
:105248000050000055005900005e00006200660032
:10525800006900006c0070000072000075007700a3
:10526800007900007b007c00007d00007e007e004d
:10527800007f00007e007e00007d00007c007b0037
:1052880000790000770075000072000070006c0063
:105298000069000066006200005e000059005500c9
:1052a800005000004b004600004100003b00360063
:1052b800003000002a002400001e00001800120020
:1052c800000c00000600000000faff00f4ffee00ea
:1052d800ffe8ff00e2ffdc00ffd6ff00d0ffca00b6
:1052e800ffc5ff00bfffba00ffb5ff00b0ffab006e
:1052f800ffa7ff00a2ff9e00ff9aff0097ff940000
:10530800ff90ff008eff8b00ff89ff0087ff85005d
:10531800ff84ff0083ff8200ff82ff0081ff82007d
:10532800ff82ff0083ff8400ff85ff0087ff89005d
:10533800ff8bff008eff9000ff94ff0097ff9a00fd
:10534800ff9eff00a2ffa700ffabff00b0ffb50064
:10535800ffbaff00bfffc500ffcaff00d0ffd6009d
:10536800ffdcff00e2ffe800ffeeff00f4fffa00b9
:10537800ff7f00007f007f00007f00007f007f002c
:10538800007f00007f007f00007f00007f007f001b
:10539800007f00007f007f00007f00007f007f000b
:1053a800007f00007f007f00007f00007f007f00fb
:1053b800007f00007f007f00007f00007f007f00eb
:1053c800007f00007f007f00007f00007f007f00db
:1053d800007f00007f007f00007f00007f007f00cb
:1053e800007f00007f007f00007f00007f007f00bb
:1053f800007f00007f007f00007f00007f007f00ab
:10540800007f00007f007f00007f00007f007f009a
:10541800007f00007f007f000000000081ff810006
:10542800ff81ff0081ff8100ff81ff0081ff810074
:10543800ff81ff0081ff8100ff81ff0081ff810064
:10544800ff81ff0081ff8100ff81ff0081ff810054
:10545800ff81ff0081ff8100ff81ff0081ff810044
:10546800ff81ff0081ff8100ff81ff0081ff810034
:10547800ff81ff0081ff8100ff81ff0081ff810024
:10548800ff81ff0081ff8100ff81ff0081ff810014
:10549800ff81ff0081ff8100ff81ff0081ff810004
:1054a800ff81ff0081ff8100ff81ff0081ff8100f4
:1054b800ff81ff0081ff8100ff81ff0081ff8100e4
:1054c800ff81ff0000008000008f00009f00af00f8
:1054d80000bf0000cf00df0000ef0000ff00ef007a
:1054e80000df0000cf00bf0000af00009f008f006a
:1054f8000080000070006000005000004000300094
:105508000020000010000000001000002000300003
:10551800004000005000600000700000ffff4000e5
:10552800001000001000400000000000941b000064
:105538001600000080000000c01b000008000000ea
:1055480082000000f84f000000f84f000000000043
:10555800b61b00000a00000080000000aa1b000023
:105568000c0000008000000000080000e00b0000b4
:1055780082000000000000000000000000000000a1
:105588000000000000000000000000000000000013
:105598000000000000000000000000000000000003
:1055a800f00f000000f00f000000f0000f000000f6
:1055b800f00f0000000000000000000000000000e4
:1055c800f00f00000000000000f00f00f00ff000e6
:1055d8000ff00f00f00ff0000f00000000000000b7
:1055e80000000000000000000000000000000000b3
:1055f80000000000f00ff0000ff00f00f00fff00a8
:10560800ffffff00f00ff0000fffff00fffff000ab
:105618000ff00f00f00ff0000f0000000000000076
:10562800f00f000000ffff000ff00f000000000067
:10563800ffff00000000f0000ff0ff00ff00000077
:10564800f00f00000000000000f00f00000ff00055
:105658000ff00f000000ff000000f0000f00000036
:10566800ff000000f00ff0000ff00000f00f000046
:105678000000000000ffff0000f00f00f00f000026
:10568800ffff000000ff0f0000f00f00f0fff00028
:105698000ff00f0000ffff00ff00000000000000f7
:1056a80000f00f000000ff000000f0000f000000f5
:1056b80000000000000000000000000000000000e2
:1056c800000000000000000000000000ff000000d3
:1056d800f00f000000ff00000000ff0000000000c5
:1056e800ff00000000f00f0000000000ff000000b5
:1056f8000000000000ff00000000f0000f000000a4
:1057080000ff00000000ff0000000000ff00000094
:10571800f00f000000ff0000000000000000000083
:1057280000000000f00ff0000f00ff00ff00ff0076
:10573800ffffff0000ffff0000f00f00f00f000068
:105748000000000000000000000000000000000051
:10575800f00f000000f00f0000f0ff00ff0f000046
:10576800f00f000000f00f00000000000000000033
:105778000000000000000000000000000000000021
:105788000000000000000000000000000000000011
:10579800f00f000000f00f000000ff000000000004
:1057a8000000000000000000000000000000f00001
:1057b800ffff0f00000000000000000000000000d4
:1057c80000000000000000000000000000000000d1
:1057d80000000000000000000000000000000000c1
:1057e8000000000000f00f000000f0000f000000b3
:1057f80000000000000000000000000000ff0000a2
:1058080000f00f000000ff000000f0000f00000093
:10581800ff000000f00f0000000000000000000082
:10582800ffff0000f00ff0000ff00f00ff0ff00077
:10583800fff00f00f00ff0000ff00f00f00f000066
:10584800ffff0000000000000000f0000f00000053
:10585800f00f000000ff0f000000f0000f00000034
:10586800f00f000000f00f0000f0ff00ff0f000035
:105878000000000000ffff0000f00f00f00f000024
