:020000040000fa
:080000000002040000000000f2
:020000040000fa
:040008006e04000082
:020000040000fa
:04000c006e0400007e
:020000040000fa
:040010006e0400007a
:020000040000fa
:040014006e04000076
:020000040000fa
:040018006e04000072
:020000040000fa
:04001c006e0400006e
:020000040000fa
:040020006e0400006a
:020000040000fa
:040024006e04000066
:020000040000fa
:040028006e04000062
:020000040000fa
:04002c006e0400005e
:020000040000fa
:040030006e0400005a
:020000040000fa
:0400340004030000c1
:020000040000fa
:040038006e04000052
:020000040000fa
:04003c006e0400004e
:020000040000fa
:040040006e0400004a
:020000040000fa
:040044006e04000046
:020000040000fa
:040048006e04000042
:020000040000fa
:04004c006e0400003e
:020000040000fa
:040050006e0400003a
:020000040000fa
:04005400f2030000b3
:020000040000fa
:04005800240400007c
:020000040000fa
:04005c006e0400002e
:020000040000fa
:040060006e0400002a
:020000040000fa
:040064006e04000026
:020000040000fa
:040068006e04000022
:020000040000fa
:04006c006e0400001e
:020000040000fa
:040070006e0400001a
:020000040000fa
:040074006e04000016
:020000040000fa
:040078006e04000012
:020000040000fa
:04007c006e0400000e
:020000040000fa
:040080006e0400000a
:020000040000fa
:040084006e04000006
:020000040000fa
:040088006e04000002
:020000040000fa
:04008c006e040000fe
:020000040000fa
:040090006e040000fa
:020000040000fa
:040094006e040000f6
:020000040000fa
:040098006e040000f2
:020000040000fa
:04009c006e040000ee
:020000040000fa
:0400a0006e040000ea
:020000040000fa
:0400a4006e040000e6
:020000040000fa
:0400a8006e040000e2
:020000040000fa
:0400ac006e040000de
:020000040000fa
:0400b0006e040000da
:020000040000fa
:0400b4006e040000d6
:020000040000fa
:0400b8006e040000d2
:020000040000fa
:0400bc006e040000ce
:020000040000fa
:0400c0006e040000ca
:020000040000fa
:0400c4006e040000c6
:020000040000fa
:0400c8006e040000c2
:020000040000fa
:0400cc006e040000be
:020000040000fa
:0400d0006e040000ba
:020000040000fa
:0400d4006e040000b6
:020000040000fa
:0400d8006e040000b2
:020000040000fa
:0400dc006e040000ae
:020000040000fa
:0400e0006e040000aa
:020000040000fa
:0400e4006e040000a6
:020000040000fa
:0400e8006e040000a2
:020000040000fa
:0400ec006e0400009e
:020000040000fa
:0400f0006e0400009a
:020000040000fa
:0400f4006e04000096
:020000040000fa
:0400f8006e04000092
:020000040000fa
:0400fc006e0400008e
:020000040000fa
:040100006e04000089
:020000040000fa
:040104006e04000085
:020000040000fa
:040108006e04000081
:020000040000fa
:04010c006e0400007d
:020000040000fa
:040110006e04000079
:020000040000fa
:040114006e04000075
:020000040000fa
:040118006e04000071
:020000040000fa
:04011c006e0400006d
:020000040000fa
:040120006e04000069
:020000040000fa
:040124006e04000065
:020000040000fa
:040128006e04000061
:020000040000fa
:04012c006e0400005d
:020000040000fa
:040130006e04000059
:020000040000fa
:040134006e04000055
:020000040000fa
:040138006e04000051
:020000040000fa
:04013c006e0400004d
:020000040000fa
:040140006e04000049
:020000040000fa
:040144006e04000045
:020000040000fa
:040148006e04000041
:020000040000fa
:04014c006e0400003d
:020000040000fa
:040150006e04000039
:020000040000fa
:040154006e04000035
:020000040000fa
:040158006e04000031
:020000040000fa
:04015c006e0400002d
:020000040000fa
:040160006e04000029
:020000040000fa
:040164006e04000025
:020000040000fa
:040168006e04000021
:020000040000fa
:04016c006e0400001d
:020000040000fa
:040170006e04000019
:020000040000fa
:040174006e04000015
:020000040000fa
:040178006e04000011
:020000040000fa
:04017c006e0400000d
:020000040000fa
:040180006e04000009
:020000040000fa
:040184006e04000005
:020000040000fa
:040188006e04000001
:020000040000fa
:04018c006e040000fd
:020000040000fa
:040190006e040000f9
:020000040000fa
:040194006e040000f5
:020000040000fa
:040198006e040000f1
:020000040000fa
:04019c006e040000ed
:020000040000fa
:0401a0006e040000e9
:020000040000fa
:0401a4006e040000e5
:020000040000fa
:0401a8006e040000e1
:020000040000fa
:0401ac006e040000dd
:020000040000fa
:0401b0006e040000d9
:020000040000fa
:0401b4006e040000d5
:020000040000fa
:0401b80086030000ba
:020000040000fa
:040208006e04000080
:020000040000fa
:04020c006e0400007c
:020000040000fa
:040210006e04000078
:020000040000fa
:040214006e04000074
:020000040000fa
:040218006e04000070
:020000040000fa
:04021c006e0400006c
:020000040000fa
:040220006e04000068
:020000040000fa
:040224006e04000064
:020000040000fa
:040228006e04000060
:020000040000fa
:04022c006e0400005c
:020000040000fa
:040230006e04000058
:020000040000fa
:0402340004030000bf
:020000040000fa
:040238006e04000050
:020000040000fa
:04023c006e0400004c
:020000040000fa
:040240006e04000048
:020000040000fa
:040244006e04000044
:020000040000fa
:040248006e04000040
:020000040000fa
:04024c006e0400003c
:020000040000fa
:040250006e04000038
:020000040000fa
:04025400f2030000b1
:020000040000fa
:04025800240400007a
:020000040000fa
:04025c006e0400002c
:020000040000fa
:040260006e04000028
:020000040000fa
:040264006e04000024
:020000040000fa
:040268006e04000020
:020000040000fa
:04026c006e0400001c
:020000040000fa
:040270006e04000018
:020000040000fa
:040274006e04000014
:020000040000fa
:040278006e04000010
:020000040000fa
:04027c006e0400000c
:020000040000fa
:040280006e04000008
:020000040000fa
:040284006e04000004
:020000040000fa
:040288006e04000000
:020000040000fa
:04028c006e040000fc
:020000040000fa
:040290006e040000f8
:020000040000fa
:040294006e040000f4
:020000040000fa
:040298006e040000f0
:020000040000fa
:04029c006e040000ec
:020000040000fa
:0402a0006e040000e8
:020000040000fa
:0402a4006e040000e4
:020000040000fa
:0402a8006e040000e0
:020000040000fa
:0402ac006e040000dc
:020000040000fa
:0402b0006e040000d8
:020000040000fa
:0402b4006e040000d4
:020000040000fa
:0402b8006e040000d0
:020000040000fa
:0402bc006e040000cc
:020000040000fa
:0402c0006e040000c8
:020000040000fa
:0402c4006e040000c4
:020000040000fa
:0402c8006e040000c0
:020000040000fa
:0402cc006e040000bc
:020000040000fa
:0402d0006e040000b8
:020000040000fa
:0402d4006e040000b4
:020000040000fa
:0402d8006e040000b0
:020000040000fa
:0402dc006e040000ac
:020000040000fa
:0402e0006e040000a8
:020000040000fa
:0402e4006e040000a4
:020000040000fa
:0402e8006e040000a0
:020000040000fa
:0402ec006e0400009c
:020000040000fa
:0402f0006e04000098
:020000040000fa
:0402f4006e04000094
:020000040000fa
:0402f8006e04000090
:020000040000fa
:0402fc006e0400008c
:020000040000fa
:040300006e04000087
:020000040000fa
:040304006e04000083
:020000040000fa
:040308006e0400007f
:020000040000fa
:04030c006e0400007b
:020000040000fa
:040310006e04000077
:020000040000fa
:040314006e04000073
:020000040000fa
:040318006e0400006f
:020000040000fa
:04031c006e0400006b
:020000040000fa
:040320006e04000067
:020000040000fa
:040324006e04000063
:020000040000fa
:040328006e0400005f
:020000040000fa
:04032c006e0400005b
:020000040000fa
:040330006e04000057
:020000040000fa
:040334006e04000053
:020000040000fa
:040338006e0400004f
:020000040000fa
:04033c006e0400004b
:020000040000fa
:040340006e04000047
:020000040000fa
:040344006e04000043
:020000040000fa
:040348006e0400003f
:020000040000fa
:04034c006e0400003b
:020000040000fa
:040350006e04000037
:020000040000fa
:040354006e04000033
:020000040000fa
:040358006e0400002f
:020000040000fa
:04035c006e0400002b
:020000040000fa
:040360006e04000027
:020000040000fa
:040364006e04000023
:020000040000fa
:040368006e0400001f
:020000040000fa
:04036c006e0400001b
:020000040000fa
:040370006e04000017
:020000040000fa
:040374006e04000013
:020000040000fa
:040378006e0400000f
:020000040000fa
:04037c006e0400000b
:020000040000fa
:040380006e04000007
:020000040000fa
:040384006e04000003
:020000040000fa
:040388006e040000ff
:020000040000fa
:04038c006e040000fb
:020000040000fa
:040390006e040000f7
:020000040000fa
:040394006e040000f3
:020000040000fa
:040398006e040000ef
:020000040000fa
:04039c006e040000eb
:020000040000fa
:0403a0006e040000e7
:020000040000fa
:0403a4006e040000e3
:020000040000fa
:0403a8006e040000df
:020000040000fa
:0403ac006e040000db
:020000040000fa
:0403b0006e040000d7
:020000040000fa
:0403b4006e040000d3
:020000040000fa
:0403b80086030000b8
:020000040000fa
:100400008fbd20000ebf25000e01880000000000f7
:10041000000020000000e000020032000001200087
:1004200020028800140007002e0107000000e000f1
:1004300003003a00a0382400010020000200370029
:100440000000200001002000810f70000100320038
:1004500014000700000020000000e000020032004d
:100460000000020000000000e4470200000000005d
:100470000040da000000fe004440a9008000200097
:100480000000e000030032000020200090018800fe
:100490004440a800000006008a1f78008b1f7800e7
:1004a00000000600a1028800800478000000eb0034
:1004b0001f003700e284440054a0b4009905ba003c
:1004c000e284440054a0b4009906ba00e2844400d7
:1004d00054a0b4000006eb00476fde00fd07b20039
:1004e000ae018800636ce10003003a00eaff0700f8
:1004f0000000eb000e003700606ce10008003a00dd
:10050000004deb000a05e800020039003420ec0041
:100510000af0a0008b05e900f9ff3e000400370057
:100520006168e100010032000086eb000b0007006b
:1005300019c7ba001905ba000e04e00003003a001a
:100540000a00e000dbff3a0000000600fe07b200f0
:10055000ae0288008a047800f5ff37000cd0a300b3
:10056000e20f4d001c00390089027800354dba00b9
:100570000a05e800020039003420ec000af0a0006f
:100580008b05e9000f003200254dba000a05e8008e
:10059000020039003420ec000af0a0008b05e900cd
:1005a000080032000c00e0000600320015cdba0051
:1005b0000a05e800020039003420ec000af0a0002f
:1005c0008b05e9008984e80054a0b4000b00e0002a
:1005d000e2ff3a00000006009902ba00055d7800cb
:1005e0008b05e900f7ff3200c82ade00055d7800c0
:1005f0008b05e900f3ff32000c00e000f1ff320050
:1006000019ddba00eeff3700809fbe00829fbe005a
:10061000849fbe00869fbe00889fbe003200f80007
:100620003400f80010002000a00188000020200005
:10063000900188008040800093408000c918de004f
:100640008100d000849220006484780031408000d2
:1006500001c4b900c900de008100d00064837800c5
:100660001140800001b3b90008034300a24080009c
:10067000c910de008100d000648478005140800001
:1006800001c4b90008034300b1408000c90ade007c
:100690008502d000e4827a007440800004aab90088
:1006a000840243000400280005026a0054168800f2
:1006b0000008b40080408800030078000408b400fb
:1006c0008001780093408800020078000808b40098
:1006d00000017800a2408800010078000c08b400f6
:1006e00080007800b14088008460a9003400f900df
:1006f0003200f9004f04be004f03be004f02be009f
:100700004f01be004f00be00004006003600f8005a
:10071000809fbe00829fbe00849fbe00869fbe0059
:100720003200f8003400f80010002000a00188001a
:1007300000202000900188000a87ab0010003200e2
:100740001a28ec001828ef001c28ef000a87a900df
:10075000d040800067006000160032009080a90041
:100760003400f9003200f9004f03be004f02be0012
:100770004f01be004f00be003600f90000400600e9
:100780000a67ab00f5ff32000a67a9009080a90054
:100790003400f9003200f9004f03be004f02be00e2
:1007a0004f01be004f00be003600f90000400600b9
:1007b000f3ff3700fc3f0200000000009080a9001a
:1007c0003400f9003200f9004f03be004f02be00b2
:1007d0004f01be004f00be003600f9000040060089
:1007e000e7ff3700809fbe00829fbe003200f80006
:1007f0003400f80010002000a00188000020200034
:10080000900188001ec8bf008080fb00331180006b
:10081000c2b9200003f178000040e8001ee8b700ec
:100820001ec8bf006f4060001ee8b7002068ec00e3
:100830008560a9003400f9003200f9004f01be00c4
:100840004f00be0000400600809fbe00821f78005f
:100850003200f8003400f80010002000a0018800e9
:100860000020200090018800c1ba20002348e20047
:100870001300320022c8bf000081fb0061417900f3
:100880000281fb00221188000040e80022e8b70046
:1008900022c8bf006f40600022e8b7002368ed0067
:1008a0002322ab00f1ff32008580a9003400f9005b
:1008b0003200f9004f0178004f00be0000400600f2
:1008c0009580a9003400f9003200f9004f0178004a
:1008d0004f00be0000400600f9ff37000040da007c
:1008e0000000fe000000050003f0a200889fbe008b
:1008f0008a9fbe008c1f7800f900070000013300ba
:100900006450e1004f0032006420e10052003200e8
:1009100003826c0007003b000905d0000306d000ed
:10092000820f54000c065d00020039000200320004
:1009300089017800030678008582550004003d0097
:100940000003fd008103fd008502ea008b85420063
:10095000840f720002003b0060001000e08018006d
:100960006011b8000005eb007a28e1000a003900a8
:1009700006007800c75ddd00f707b20087807500cc
:100980002d003700828171000a0178006105600046
:100990008180d1000080d3008502e900f9ff3b008f
:1009a000060440008784480002003b0060041400f5
:1009b000e0841c000988a300070032008a817100ce
:1009c00082817100610164008904d1000884d30030
:1009d0008b05e800170037000978a30013003a00e0
:1009e0000b00e000130034008b05e900080444000c
:1009f00089844c000a4474000978a3000d003a0071
:100a00000b00e000070034008b05e90008044400f7
:100a100089844c0001003a000b0020000978a300f3
:100a2000f7ff32000001eb00020037008281710005
:100a30000a0178006f0007000cf0a70001f0a00089
:100a4000b80037006420e10002003a00838f6c0098
:100a5000b80033000801be000200be00b10037003c
:100a6000889fbe008a9fbe008c1f78009c000700f4
:100a7000a300330003866c006450e1002e003200b6
:100a80006420e100330032006150e1002f003200a9
:100a90006120e1003100320085855500eb07b00090
:100aa0000900200008042000050037000804440065
:100ab00089844c000a0031000603430087834b0001
:100ac0000001530081815b00f8ff33000203be0088
:100ad0000800a0000804440089844c00f6ff390097
:100ae000c639dd00830173000100320013002000cd
:100af0008904d1000884d3000998a30005003200be
:100b00000800a7000300a0008904d1000884d300d6
:100b10008b05e8008904d1000884d3000001eb00b4
:100b20000281d2003300070001f0a1000cf0a70001
:100b300001f0a0007b0037006420e1007d0032005e
:100b40000801be000200be00f7ff37006120e1008f
:100b5000780032006000b800f3ff3700000020008a
:100b600001f82700f0ff3700f4ff2f008400370062
:100b70000001be00450007000470a70003f0a100bb
:100b80006509b100160032000d0035006828e1004b
:100b900006003500f0ff2f00f1ff27000300e00002
:100ba00013003b0001002800000005000000400089
:100bb000818048008502e900fcff3a000800370008
:100bc000f88f420002003c008000eb0000000500ae
:100bd0008100d1000080d3008502e800fcff3a00cc
:100be0000300e00002003b0060001000e0801800fd
:100bf0000000060081002000618055000b003d00d0
:100c00000b00200061fe2f000100e1001d003400f8
:100c100082817100610164008904d1000884d300dd
:100c20000000e800faff3a00710020006100640053
:100c300003007000020060000900320061044400fb
:100c4000e0844c000988a500050032008b05e8000f
:100c50006808e10002003a008904d1000884d3004a
:100c6000f20f20000258e10005003d00c75ddd00e5
:100c7000f907b200898075000800780000000600be
:100c80000bf827008b00780000000500c70ade0083
:100c9000f107b200f50fb20008003200e1cf4200c8
:100ca000020032000170a00024000500810f7000d6
:100cb000010032000408050044000500810f7000a7
:100cc00002003a00140005008502e900000040001f
:100cd00081c04800fcff3b000170a000240005001b
:100ce0000004be00e9ff07000003be000405be00cb
:100cf0000200be00e5ff0700844f750000000600fb
:100d00000200be006450e100050036006420e100ee
:100d1000020036000968a30001003a000800be0086
:100d20000160a0004f0678004f05be004f04be00d2
:100d300000000600f0ff2f00f1ff2700f9ff370049
:100d40006022b800060220000000d0008180d2009e
:100d50000482d2008582d2000000a000020252006c
:100d600083825a00030031000202420083824a005b
:100d70000000a1000603e900f3ff3a0000000600ae
:100d8000889fbe008a9fbe00841f7800d4ff0700a2
:100d90004f00780011003300f0ff2f00838f6c00ac
:100da00006003b00040565000a00a70008003700a4
:100db00009f0a6001000200008003700820f540040
:100dc000838f5c00030039001000200001003e000a
:100dd0000000200009f0a7000000ea004f05be0057
:0c0de0004f04be000000e0000000060010
:020000040000fa
:100dec0074650000737400000d0a00000000000020
:020000040000fa
:100dfc0000000000000000000000000000000000e7
:100e0c0000000000000000000000000000000000d6
:100e1c0000000000000000000000000000000000c6
:100e2c0000000000000000000000000000000000b6
:100e3c0000000000000000000000000000000000a6
:100e4c000000000000000000000000000000000096
:100e5c000000000000010000010100000101000081
:100e6c000101000001010000010000000000000071
:100e7c000000000000000000000000000000000066
:100e8c000000000000000000000000000000000056
:100e9c000000000000000000000000000000000046
:100eac000000000000000000000000000000000036
:100ebc000000000000000000000000000000000026
:100ecc000000000000000000000000000000000016
:100edc000000000000000000000000000000000006
:100eec0000000000000000000000000000000000f6
:100efc0001010000010100000101000001010000de
:100f0c0001010000010100000101000001010000cd
:100f1c0001010000010100000101000001010000bd
:100f2c0001010000010100000101000001010000ad
:100f3c000101000001010000010100000303000099
:100f4c000303000001010000010100000101000089
:100f5c000101000001010000000000000000000081
:100f6c000000000000000000000000000000000075
:100f7c000000000000000000000000000000000065
:100f8c000000000000000000000000000000000055
:100f9c000000000000000000000000000000000045
:100fac000000000000000000000000000000000035
:100fbc000000000000000000000000000000000025
:100fcc000000000000000000000000000000000015
:100fdc0001020000020200000202000002020000f6
:100fec0002020000020200000202000002020000e5
:100ffc0002020000020200000202000002020000d5
:10100c0002020000020200000202000002020000c4
:10101c0001030000030300000303000003030000ae
:10102c00030300000303000003030000030300009c
:10103c000303000003010000010100000101000096
:10104c000000000000000000000000000000000094
:10105c000000000000000000000000000000000084
:10106c000000000000000000000000000000000074
:10107c000000000000000000000000000000000064
:10108c000000000000000000000000000000000054
:10109c000000000000000000000000000000000044
:1010ac000000000000000000000000000000000034
:1010bc000102000002020000020200000202000015
:1010cc000202000002020000020200000202000004
:1010dc0002020000020200000202000002020000f4
:1010ec0002020000020200000202000002020000e4
:1010fc0001030000030300000303000003030000ce
:10110c0003030000030300000303000003030000bb
:10111c0003030000030300000303000003010000ad
:10112c0001010000010000000000000000000000b0
:10113c0000000000000000000000000000000000a3
:10114c000000000000000000000000000000000093
:10115c000000000000000000000000000000000083
:10116c000000000000000000000000000000000073
:10117c000000000000000000000000000000000063
:10118c000000000000000000000000000000000053
:10119c000102000002020000020200000202000034
:1011ac000202000002020000020200000202000023
:1011bc000202000002020000020200000202000013
:1011cc000202000002020000020200000202000003
:1011dc0001030000030300000303000003030000ed
:1011ec0003030000030300000303000003030000db
:1011fc0003030000030300000303000003030000cb
:10120c0003030000010100000101000000000000c8
:10121c0000000000000000000000000000000000c2
:10122c0000000000000000000000000000000000b2
:10123c0000000000000000000000000000000000a2
:10124c000000000000000000000000000000000092
:10125c000000000000000000000000000000000082
:10126c000000000000000000000000000000000072
:10127c000102000002020000020200000202000053
:10128c000202000002020000020200000202000042
:10129c000202000002020000020200000202000032
:1012ac000202000002020000020200000202000022
:1012bc00010300000303000003030000030300000c
:1012cc0003030000030300000303000003030000fa
:1012dc0003030000030300000303000003030000ea
:1012ec0003030000030300000301000001010000e0
:1012fc0000000000000000000000000000000000e2
:10130c0000000000000000000000000000000000d1
:10131c0000000000000000000000000000000000c1
:10132c0000000000000000000000000000000000b1
:10133c0000000000000000000000000000000000a1
:10134c000000000000000000000000000000000091
:10135c000102000002020000020200000202000072
:10136c000202000002020000020200000202000061
:10137c000202000002020000020200000202000051
:10138c000202000002020000020200000202000041
:10139c00010300000303000003030000030300002b
:1013ac000303000003030000030300000303000019
:1013bc000303000003030000030300000303000009
:1013cc0003030000030300000303000003010000fb
:1013dc0001010000000000000000000000000000ff
:1013ec0000000000000000000000000000000000f1
:1013fc0000000000000000000000000000000000e1
:10140c0000000000000000000000000000000000d0
:10141c0000000000000000000000000000000000c0
:10142c0000000000000000000000000000000000b0
:10143c000102000002020000020200000202000091
:10144c000202000002020000020200000202000080
:10145c000202000002020000020200000202000070
:10146c000202000002020000020200000202000060
:10147c00010300000303000003030000030300004a
:10148c000303000003030000030300000303000038
:10149c000303000003030000030300000303000028
:1014ac000303000003030000030300000303000018
:1014bc00030100000101000000000000000000001a
:1014cc000000000000000000000000000000000010
:1014dc000000000000000000000000000000000000
:1014ec0000000000000000000000000000000000f0
:1014fc0000000000000000000000000000000000e0
:10150c0000000000000000000000000000000000cf
:10151c0001020000020200000202000002020000b0
:10152c00020200000202000002020000020200009f
:10153c00020200000202000002020000020200008f
:10154c00020200000202000002020000020200007f
:10155c000103000003030000030300000303000069
:10156c000303000003030000030300000303000057
:10157c000303000003030000030300000303000047
:10158c000303000003030000030300000303000037
:10159c000303000003010000010000000000000034
:1015ac00000000000000000000000000000000002f
:1015bc00000000000000000000000000000000001f
:1015cc00000000000000000000000000000000000f
:1015dc0000000000000000000000000000000000ff
:1015ec0000000000000000000000000000000000ef
:1015fc0001020000020200000202000002020000d0
:10160c0002020000020200000202000002020000be
:10161c0002020000020200000202000002020000ae
:10162c00020200000202000002020000020200009e
:10163c000103000003030000030300000303000088
:10164c000303000003030000030300000303000076
:10165c000303000003030000030300000303000066
:10166c000303000003030000030300000303000056
:10167c00030300000303000003010000010000004d
:10168c00000000000000000000000000000000004e
:10169c00000000000000000000000000000000003e
:1016ac00000000000000000000000000000000002e
:1016bc00000000000000000000000000000000001e
:1016cc00000000000000000000000000000000000e
:1016dc0001020000020200000202000002020000ef
:1016ec0002020000020200000202000002020000de
:1016fc0002020000020200000202000002020000ce
:10170c0002020000020200000202000002020000bd
:10171c0001030000030300000303000003030000a7
:10172c000303000003030000030300000303000095
:10173c000303000003030000030300000303000085
:10174c000303000003030000030300000303000075
:10175c000303000003030000030300000101000069
:10176c00000000000000000000000000000000006d
:10177c00000000000000000000000000000000005d
:10178c00000000000000000000000000000000004d
:10179c00000000000000000000000000000000003d
:1017ac00000000000000000000000000000000002d
:1017bc00010200000202000002020000020200000e
:1017cc0002020000020200000202000002020000fd
:1017dc0002020000020200000202000002020000ed
:1017ec0002020000020200000202000002020000dd
:1017fc0001030000030300000303000003030000c7
:10180c0003030000030300000303000003030000b4
:10181c0003030000030300000303000003030000a4
:10182c000303000003030000030300000303000094
:10183c000303000003030000030300000303000084
:10184c00010100000000000000000000000000008a
:10185c00000000000000000000000000000000007c
:10186c00000000000000000000000000000000006c
:10187c00000000000000000000000000000000005c
:10188c00000000000000000000000000000000004c
:10189c00010200000202000002020000020200002d
:1018ac00020200000202000002020000020200001c
:1018bc00020200000202000002020000020200000c
:1018cc0002020000020200000202000002020000fc
:1018dc0001030000030300000303000003030000e6
:1018ec0003030000030300000303000003030000d4
:1018fc0003030000030300000303000003030000c4
:10190c0003030000030300000303000003030000b3
:10191c0003030000030300000303000003030000a3
:10192c0003010000010000000000000000000000a6
:10193c00000000000000000000000000000000009b
:10194c00000000000000000000000000000000008b
:10195c00000000000000000000000000000000007b
:10196c00000000000000000000000000000000006b
:10197c00010200000202000002020000020200004c
:10198c00020200000202000002020000020200003b
:10199c00020200000202000002020000020200002b
:1019ac00020200000202000002020000020200001b
:1019bc000103000003030000030300000303000005
:1019cc0003030000030300000303000003030000f3
:1019dc0003030000030300000303000003030000e3
:1019ec0003030000030300000303000003030000d3
:1019fc0003030000030300000303000003030000c3
:101a0c0003030000010100000000000000000000c2
:101a1c0000000000000000000000000000000000ba
:101a2c0000000000000000000000000000000000aa
:101a3c00000000000000000000000000000000009a
:101a4c00000000000000000000000000000000008a
:101a5c00010200000202000002020000020200006b
:101a6c00020200000202000002020000020200005a
:101a7c00020200000202000002020000020200004a
:101a8c00020200000202000002020000020200003a
:101a9c000103000003030000030300000303000024
:101aac000303000003030000030300000303000012
:101abc000303000003030000030300000303000002
:101acc0003030000030300000303000003030000f2
:101adc0003030000030300000303000003030000e2
:101aec0003030000030300000100000000000000dd
:101afc0000000000000000000000000000000000da
:101b0c0000000000000000000000000000000000c9
:101b1c0000000000000000000000000000000000b9
:101b2c0000000000000000000000000000000000a9
:101b3c00010200000202000002020000020200008a
:101b4c000202000002020000020200000202000079
:101b5c000202000002020000020200000202000069
:101b6c000202000002020000020200000202000059
:101b7c000103000003030000030300000303000043
:101b8c000303000003030000030300000303000031
:101b9c000303000003030000030300000303000021
:101bac000303000003030000030300000303000011
:101bbc000303000003030000030300000303000001
:101bcc0003030000030300000301000000000000f9
:101bdc0000000000000000000000000000000000f9
:101bec0000000000000000000000000000000000e9
:101bfc0000000000000000000000000000000000d9
:101c0c0000000000000000000000000000000000c8
:101c1c0001020000020200000202000002020000a9
:101c2c000202000002020000020200000202000098
:101c3c000202000002020000020200000202000088
:101c4c000202000002020000020200000202000078
:101c5c000103000003030000030300000303000062
:101c6c000303000003030000030300000303000050
:101c7c000303000003030000030300000303000040
:101c8c000303000003030000030300000303000030
:101c9c000303000003030000030300000303000020
:101cac000303000003030000030300000101000014
:101cbc000000000000000000000000000000000018
:101ccc000000000000000000000000000000000008
:101cdc0000000000000000000000000000000000f8
:101cec0000000000000000000000000000000000e8
:101cfc0001020000020200000202000002020000c9
:101d0c0002020000020200000202000002020000b7
:101d1c0002020000020200000202000002020000a7
:101d2c000202000002020000020200000202000097
:101d3c000103000003030000030300000303000081
:101d4c00030300000303000003030000030300006f
:101d5c00030300000303000003030000030300005f
:101d6c00030300000303000003030000030300004f
:101d7c00030300000303000003030000030300003f
:101d8c000303000003030000030300000301000031
:101d9c000000000000000000000000000000000037
:101dac000000000000000000000000000000000027
:101dbc000000000000000000000000000000000017
:101dcc000000000000000000000000000001000006
:101ddc0001020000020200000202000002020000e8
:101dec0002020000020200000202000002020000d7
:101dfc0002020000020200000202000002020000c7
:101e0c0002020000020200000202000002020000b6
:101e1c0001030000030300000303000003030000a0
:101e2c00030300000303000003030000030300008e
:101e3c00030300000303000003030000030300007e
:101e4c00030300000303000003030000030300006e
:101e5c00030300000303000003030000030300005e
:101e6c00030300000303000003030000030300004e
:101e7c000100000000000000000000000000000055
:101e8c000000000000000000000000000000000046
:101e9c000000000000000000000000000000000036
:101eac000000000000000000000000000101000024
:101ebc000102000002020000020200000202000007
:101ecc0002020000020200000202000002020000f6
:101edc0002020000020200000202000002020000e6
:101eec0002020000020200000202000002020000d6
:101efc0001030000030300000303000003030000c0
:101f0c0003030000030300000303000003030000ad
:101f1c00030300000303000003030000030300009d
:101f2c00030300000303000003030000030300008d
:101f3c00030300000303000003030000030300007d
:101f4c00030300000303000003030000030300006d
:101f5c000301000000000000000000000000000071
:101f6c000000000000000000000000000000000065
:101f7c000000000000000000000000000000000055
:101f8c000000000000000000000100000103000040
:101f9c000102000002020000020200000202000026
:101fac000202000002020000020200000202000015
:101fbc000202000002020000020200000202000005
:101fcc0002020000020200000202000002020000f5
:101fdc0001030000030300000303000003030000df
:101fec0003030000030300000303000003030000cd
:101ffc0003030000030300000303000003030000bd
:10200c0003030000030300000303000003030000ac
:10201c00030300000303000003030000030300009c
:10202c00030300000303000003030000030300008c
:10203c00030300000100000000000000000000008d
:10204c000000000000000000000000000000000084
:10205c000000000000000000000000000000000074
:10206c00000000000000000001010000030300005c
:10207c000102000002020000020200000202000045
:10208c000202000002020000020200000202000034
:10209c000202000002020000020200000202000024
:1020ac000202000002020000020200000202000014
:1020bc0001030000030300000303000003030000fe
:1020cc0003030000030300000303000003030000ec
:1020dc0003030000030300000303000003030000dc
:1020ec0003030000030300000303000003030000cc
:1020fc0003030000030300000303000003030000bc
:10210c0003030000030300000303000003030000ab
:10211c0003030000010100000000000000000000ab
:10212c0000000000000000000000000000000000a3
:10213c000000000000000000000000000000000093
:10214c000000000000000000010300000303000079
:10215c000102000002020000020200000202000064
:10216c000202000002020000020200000202000053
:10217c000202000002020000020200000202000043
:10218c000202000002020000020200000202000033
:10219c00010300000303000003030000030300001d
:1021ac00030300000303000003030000030300000b
:1021bc0003030000030300000303000003030000fb
:1021cc0003030000030300000303000003030000eb
:1021dc0003030000030300000303000003030000db
:1021ec0003030000030300000303000003030000cb
:1021fc0003030000030100000100000000000000c8
:10220c0000000000000000000000000000000000c2
:10221c0000000000000000000000000000000000b2
:10222c000000000000010000030300000303000095
:10223c000102000002020000020200000202000083
:10224c000202000002020000020200000202000072
:10225c000202000002020000020200000202000062
:10226c000202000002020000020200000202000052
:10227c00010300000303000003030000030300003c
:10228c00030300000303000003030000030300002a
:10229c00030300000303000003030000030300001a
:1022ac00030300000303000003030000030300000a
:1022bc0003030000030300000303000003030000fa
:1022cc0003030000030300000303000003030000ea
:1022dc0003030000030300000100000000000000e5
:1022ec0000000000000000000000000000000000e2
:1022fc0000000000000000000000000000000000d2
:10230c0000000000010100000303000003030000b3
:10231c0001020000020200000202000002020000a2
:10232c000202000002020000020200000202000091
:10233c000202000002020000020200000202000081
:10234c000202000002020000020200000202000071
:10235c00010300000303000003030000030300005b
:10236c000303000003030000030300000303000049
:10237c000303000003030000030300000303000039
:10238c000303000003030000030300000303000029
:10239c000303000003030000030300000303000019
:1023ac000303000003030000030300000303000009
:1023bc000303000003030000030100000000000001
:1023cc000000000000000000000000000000000001
:1023dc0000000000000000000000000000000000f1
:1023ec0000010000010300000303000003030000d0
:1023fc0001020000020200000202000002020000c2
:10240c0002020000020200000202000002020000b0
:10241c0002020000020200000202000002020000a0
:10242c000202000002020000020200000202000090
:10243c00010300000303000003030000030300007a
:10244c000303000003030000030300000303000068
:10245c000303000003030000030300000303000058
:10246c000303000003030000030300000303000048
:10247c000303000003030000030300000303000038
:10248c000303000003030000030300000303000028
:10249c00030300000303000003010000010000001f
:1024ac000000000000000000000000000000000020
:1024bc000000000000000000000000000000000010
:1024cc0000010000030300000303000003030000ed
:1024dc0001020000020200000202000002020000e1
:1024ec0002020000020200000202000002020000d0
:1024fc0002020000020200000202000002020000c0
:10250c0002020000020200000202000002020000af
:10251c000103000003030000030300000303000099
:10252c000303000003030000030300000303000087
:10253c000303000003030000030300000303000077
:10254c000303000003030000030300000303000067
:10255c000303000003030000030300000303000057
:10256c000303000003030000030300000303000047
:10257c00030300000303000003030000010000003c
:10258c00000000000000000000000000000000003f
:10259c00000000000000000000000000000000002f
:1025ac00010100000303000003030000030300000b
:1025bc000102000002020000020200000202000000
:1025cc0002020000020200000202000002020000ef
:1025dc0002020000020200000202000002020000df
:1025ec0002020000020200000202000002020000cf
:1025fc0001030000030300000303000003030000b9
:10260c0003030000030300000303000003030000a6
:10261c000303000003030000030300000303000096
:10262c000303000003030000030300000303000086
:10263c000303000003030000030300000303000076
:10264c000303000003030000030300000303000066
:10265c000303000003030000030300000301000058
:10266c00000000000000000000000000000000005e
:10267c00000000000000000000000000000000004e
:10268c000103000003030000030300000303000028
:10269c00010200000202000002020000020200001f
:1026ac00020200000202000002020000020200000e
:1026bc0002020000020200000202000002020000fe
:1026cc0002020000020200000202000002020000ee
:1026dc0002020000020200000202000002020000de
:1026ec0002020000020200000202000002020000ce
:1026fc0002020000020200000202000002020000be
:10270c0002020000020200000202000002020000ad
:10271c00020200000202000002020000020200009d
:10272c00020200000202000002020000020200008d
:10273c000303000003030000030300000301000077
:10274c00010000000000000000000000000000007c
:10275c00000000000000000000000000000100006c
:10276c000303000003030000030300000303000045
:10277c00010200000202000002020000020200003e
:10278c00020200000202000002020000020200002d
:10279c00020200000202000002020000020200001d
:1027ac00020200000202000002020000020200000d
:1027bc000201000001010000010100000101000004
:1027cc0001010000010100000101000001010000f5
:1027dc0001010000010100000101000001010000e5
:1027ec0001010000010100000101000001010000d5
:1027fc0001010000010100000101000001010000c5
:10280c0001010000010100000101000001020000b3
:10281c000303000003030000030300000303000094
:10282c00010000000000000000000000000000009b
:10283c00000000000000000000000000000100008b
:10284c000303000003030000030300000303000064
:10285c00010200000202000002020000020200005d
:10286c00020200000202000002020000020200004c
:10287c00020200000202000002020000020200003c
:10288c00020200000202000002020000020200002c
:10289c000201000001010000010100000101000023
:1028ac000101000001010000010100000101000014
:1028bc000101000001010000010100000101000004
:1028cc0001010000010100000101000001010000f4
:1028dc0001010000010100000101000001010000e4
:1028ec0001010000010100000101000001020000d3
:1028fc0003030000030300000303000003030000b4
:10290c0001010000000000000000000000000000b9
:10291c0000000000000000000000000001030000a7
:10292c000303000003030000030300000303000083
:10293c00010200000202000002020000020200007c
:10294c00020200000202000002020000020200006b
:10295c00020200000202000002020000020200005b
:10296c00020200000202000002020000020200004b
:10297c000201000001010000010100000101000042
:10298c000101000001010000010100000101000033
:10299c000101000001010000010100000101000023
:1029ac000101000001010000010100000101000013
:1029bc000101000001010000010100000101000003
:1029cc0001010000010100000101000001020000f2
:1029dc0003030000030300000303000003030000d3
:1029ec0003010000000000000000000000000000d7
:1029fc0000000000000000000000000001030000c7
:102a0c0003030000030300000303000003030000a2
:102a1c00010200000202000002020000020200009b
:102a2c00020200000202000002020000020200008a
:102a3c00020200000202000002020000020200007a
:102a4c00020200000202000002020000020200006a
:102a5c000201000001010000010100000101000061
:102a6c000101000001010000010100000101000052
:102a7c000101000001010000010100000101000042
:102a8c000101000001010000010100000101000032
:102a9c000101000001010000010100000101000022
:102aac000101000001010000010100000102000011
:102abc0003030000030300000303000003030000f2
:102acc0003010000010000000000000000000000f5
:102adc0000000000000000000001000003030000e3
:102aec0003030000030300000303000003030000c2
:102afc0001020000020200000202000002020000bb
:102b0c0002020000020200000202000002020000a9
:102b1c000202000002020000020200000202000099
:102b2c000202000002020000020200000202000089
:102b3c000201000001010000010100000101000080
:102b4c000101000001010000010100000101000071
:102b5c000101000001010000010100000101000061
:102b6c000101000001010000010100000101000051
:102b7c000101000001010000010100000101000041
:102b8c000101000001010000010100000102000030
:102b9c000303000003030000030300000303000011
:102bac000303000001000000000000000000000012
:102bbc000000000000000000000100000303000002
:102bcc0003030000030300000303000003030000e1
:102bdc0001020000020200000202000002020000da
:102bec0002020000020200000202000002020000c9
:102bfc0002020000020200000202000002020000b9
:102c0c0002020000020200000202000002020000a8
:102c1c00020100000101000001010000010100009f
:102c2c000101000001010000010100000101000090
:102c3c000101000001010000010100000101000080
:102c4c000101000001010000010100000101000070
:102c5c000101000001010000010100000101000060
:102c6c00010100000101000001010000010200004f
:102c7c000303000003030000030300000303000030
:102c8c000303000001010000000000000000000030
:102c9c000000000000000000010100000303000020
:102cac000303000003030000030300000303000000
:102cbc0001020000020200000202000002020000f9
:102ccc0002020000020200000202000002020000e8
:102cdc0002020000020200000202000002020000d8
:102cec0002020000020200000202000002020000c8
:102cfc0002010000010100000101000001010000bf
:102d0c0001010000010100000101000001010000af
:102d1c00010100000101000001010000010100009f
:102d2c00010100000101000001010000010100008f
:102d3c00010100000101000001010000010100007f
:102d4c00010100000101000001010000010200006e
:102d5c00030300000303000003030000030300004f
:102d6c00030300000301000000000000000000004d
:102d7c00000000000000000001030000030300003d
:102d8c00030300000303000003030000030300001f
:102d9c000102000002020000020200000202000018
:102dac000202000002020000020200000202000007
:102dbc0002020000020200000202000002020000f7
:102dcc0002020000020200000202000002020000e7
:102ddc0002010000010100000101000001010000de
:102dec0001010000010100000101000001010000cf
:102dfc0001010000010100000101000001010000bf
:102e0c0001010000010100000101000001010000ae
:102e1c00010100000101000001010000010100009e
:102e2c00010100000101000001010000010200008d
:102e3c00030300000303000003030000030300006e
:102e4c00030300000301000000000000000000006c
:102e5c00000000000001000001030000030300005b
:102e6c00030300000303000003030000030300003e
:102e7c000102000002020000020200000202000037
:102e8c000202000002020000020200000202000026
:102e9c000202000002020000020200000202000016
:102eac000202000002020000020200000202000006
:102ebc0002010000010100000101000001010000fd
:102ecc0001010000010100000101000001010000ee
:102edc0001010000010100000101000001010000de
:102eec0001010000010100000101000001010000ce
:102efc0001010000010100000101000001010000be
:102f0c0001010000010100000101000001020000ac
:102f1c00030300000303000003030000030300008d
:102f2c000303000003030000010000000000000088
:102f3c000000000000010000030300000303000078
:102f4c00030300000303000003030000030300005d
:102f5c000102000002020000020200000202000056
:102f6c000202000002020000020200000202000045
:102f7c000202000002020000020200000202000035
:102f8c000202000002020000020200000202000025
:102f9c00020100000101000001010000010100001c
:102fac00010100000101000001010000010100000d
:102fbc0001010000010100000101000001010000fd
:102fcc0001010000010100000101000001010000ed
:102fdc0001010000010100000101000001010000dd
:102fec0001010000010100000101000001020000cc
:102ffc0003030000030300000303000003030000ad
:10300c0003030000030300000100000000000000a7
:10301c000000000000010000030300000303000097
:10302c00030300000303000003030000030300007c
:10303c000102000002020000020200000202000075
:10304c000202000002020000020200000202000064
:10305c000202000002020000020200000202000054
:10306c000202000002020000020200000202000044
:10307c00020100000101000001010000010100003b
:10308c00010100000101000001010000010100002c
:10309c00010100000101000001010000010100001c
:1030ac00010100000101000001010000010100000c
:1030bc0001010000010100000101000001010000fc
:1030cc0001010000010100000101000001020000eb
:1030dc0003030000030300000303000003030000cc
:1030ec0003030000030300000100000000000000c7
:1030fc0000000000000100000303000003030000b7
:10310c00030300000303000003030000030300009b
:10311c000102000002020000020200000202000094
:10312c000202000002020000020200000202000083
:10313c000202000002020000020200000202000073
:10314c000202000002020000020200000202000063
:10315c00020100000101000001010000010100005a
:10316c00010100000101000001010000010100004b
:10317c00010100000101000001010000010100003b
:10318c00010100000101000001010000010100002b
:10319c00010100000101000001010000010100001b
:1031ac00010100000101000001010000010200000a
:1031bc0003030000030300000303000003030000eb
:1031cc0003030000030300000301000000000000e3
:1031dc0000000000010300000303000003030000d3
:1031ec0003030000030300000303000003030000bb
:1031fc0001020000020200000202000002020000b4
:10320c0002020000020200000202000002020000a2
:10321c000202000002020000020200000202000092
:10322c000202000002020000020200000202000082
:10323c000201000001010000010100000101000079
:10324c00010100000101000001010000010100006a
:10325c00010100000101000001010000010100005a
:10326c00010100000101000001010000010100004a
:10327c00010100000101000001010000010100003a
:10328c000101000001010000010100000102000029
:10329c00030300000303000003030000030300000a
:1032ac000303000003030000030100000000000002
:1032bc0000000000010300000303000003030000f2
:1032cc0003030000030300000303000003030000da
:1032dc0001020000020200000202000002020000d3
:1032ec0002020000020200000202000002020000c2
:1032fc0002020000020200000202000002020000b2
:10330c0002020000020200000202000002020000a1
:10331c000201000001010000010100000101000098
:10332c000101000001010000010100000101000089
:10333c000101000001010000010100000101000079
:10334c000101000001010000010100000101000069
:10335c000101000001010000010100000101000059
:10336c000101000001010000010100000102000048
:10337c000303000003030000030300000303000029
:10338c000303000003030000030100000000000021
:10339c000000000001030000030300000303000011
:1033ac0003030000030300000303000003030000f9
:1033bc0001020000020200000202000002020000f2
:1033cc0002020000020200000202000002020000e1
:1033dc0002020000020200000202000002020000d1
:1033ec0002020000020200000202000002020000c1
:1033fc0002010000010100000101000001010000b8
:10340c0001010000010100000101000001010000a8
:10341c000101000001010000010100000101000098
:10342c000101000001010000010100000101000088
:10343c000101000001010000010100000101000078
:10344c000101000001010000010100000102000067
:10345c000303000003030000030300000303000048
:10346c00030300000303000003010000010000003f
:10347c00000100000103000003030000030300002f
:10348c000303000003030000030300000303000018
:10349c000102000002020000020200000202000011
:1034ac000202000002020000020200000202000000
:1034bc0002020000020200000202000002020000f0
:1034cc0002020000020200000202000002020000e0
:1034dc0002010000010100000101000001010000d7
:1034ec0001010000010100000101000001010000c8
:1034fc0001010000010100000101000001010000b8
:10350c0001010000010100000101000001010000a7
:10351c000101000001010000010100000101000097
:10352c000101000001010000010100000102000086
:10353c000303000003030000030300000303000067
:10354c00030300000303000003030000010000005c
:10355c00000100000103000003030000030300004e
:10356c000303000003030000030300000303000037
:10357c000102000002020000020200000202000030
:10358c00020200000202000002020000020200001f
:10359c00020200000202000002020000020200000f
:1035ac0002020000020200000202000002020000ff
:1035bc0002010000010100000101000001010000f6
:1035cc0001010000010100000101000001010000e7
:1035dc0001010000010100000101000001010000d7
:1035ec0001010000010100000101000001010000c7
:1035fc0001010000010100000101000001010000b7
:10360c0001010000010100000101000001020000a5
:10361c000303000003030000030300000303000086
:10362c00030300000303000003030000010000007b
:10363c00000100000303000003030000030300006b
:10364c000303000003030000030300000303000056
:10365c00010200000202000002020000020200004f
:10366c00020200000202000002020000020200003e
:10367c00020200000202000002020000020200002e
:10368c00020200000202000002020000020200001e
:10369c000201000001010000010100000101000015
:1036ac000101000001010000010100000101000006
:1036bc0001010000010100000101000001010000f6
:1036cc0001010000010100000101000001010000e6
:1036dc0001010000010100000101000001010000d6
:1036ec0001010000010100000101000001020000c5
:1036fc0003030000030300000303000003030000a6
:10370c00030300000303000003030000010000009a
:10371c00000100000303000003030000030300008a
:10372c000303000003030000030300000303000075
:10373c00010200000202000002020000020200006e
:10374c00020200000202000002020000020200005d
:10375c00020200000202000002020000020200004d
:10376c00020200000202000002020000020200003d
:10377c000201000001010000010100000101000034
:10378c000101000001010000010100000101000025
:10379c000101000001010000010100000101000015
:1037ac000101000001010000010100000101000005
:1037bc0001010000010100000101000001010000f5
:1037cc0001010000010100000101000001020000e4
:1037dc0003030000030300000303000003030000c5
:1037ec0003030000030300000303000001000000ba
:1037fc0000010000030300000303000003030000aa
:10380c000303000003030000030300000303000094
:10381c00010200000202000002020000020200008d
:10382c00020200000202000002020000020200007c
:10383c00020200000202000002020000020200006c
:10384c00020200000202000002020000020200005c
:10385c000201000001010000010100000101000053
:10386c000101000001010000010100000101000044
:10387c000101000001010000010100000101000034
:10388c000101000001010000010100000101000024
:10389c000101000001010000010100000101000014
:1038ac000101000001010000010100000102000003
:1038bc0003030000030300000303000003030000e4
:1038cc0003030000030300000303000001000000d9
:1038dc0000010000030300000303000003030000c9
:1038ec0003030000030300000303000003030000b4
:1038fc0001020000020200000202000002020000ad
:10390c00020200000202000002020000020200009b
:10391c00020200000202000002020000020200008b
:10392c00020200000202000002020000020200007b
:10393c000201000001010000010100000101000072
:10394c000101000001010000010100000101000063
:10395c000101000001010000010100000101000053
:10396c000101000001010000010100000101000043
:10397c000101000001010000010100000101000033
:10398c000101000001010000010100000102000022
:10399c000303000003030000030300000303000003
:1039ac0003030000030300000303000001010000f7
:1039bc0000010000030300000303000003030000e8
:1039cc0003030000030300000303000003030000d3
:1039dc0001020000020200000202000002020000cc
:1039ec0002020000020200000202000002020000bb
:1039fc0002020000020200000202000002020000ab
:103a0c00020200000202000002020000020200009a
:103a1c000201000001010000010100000101000091
:103a2c000101000001010000010100000101000082
:103a3c000101000001010000010100000101000072
:103a4c000101000001010000010100000101000062
:103a5c000101000001010000010100000101000052
:103a6c000101000001010000010100000102000041
:103a7c000303000003030000030300000303000022
:103a8c000303000003030000030300000301000014
:103a9c000101000003030000030300000303000006
:103aac0003030000030300000303000003030000f2
:103abc0001020000020200000202000002020000eb
:103acc0002020000020200000202000002020000da
:103adc0002020000020200000202000002020000ca
:103aec0002020000020200000202000002020000ba
:103afc0002010000010100000101000001010000b1
:103b0c0001010000010100000101000001010000a1
:103b1c000101000001010000010100000101000091
:103b2c000101000001010000010100000101000081
:103b3c000101000001010000010100000101000071
:103b4c000101000001010000010100000102000060
:103b5c000303000003030000030300000303000041
:103b6c000303000003030000030300000301000033
:103b7c000101000003030000030300000303000025
:103b8c000303000003030000030300000303000011
:103b9c00010200000202000002020000020200000a
:103bac0002020000020200000202000002020000f9
:103bbc0002020000020200000202000002020000e9
:103bcc0002020000020200000202000002020000d9
:103bdc0002010000010100000101000001010000d0
:103bec0001010000010100000101000001010000c1
:103bfc0001010000010100000101000001010000b1
:103c0c0001010000010100000101000001010000a0
:103c1c000101000001010000010100000101000090
:103c2c00010100000101000001010000010200007f
:103c3c000303000003030000030300000303000060
:103c4c000303000003030000030300000301000052
:103c5c000101000003030000030300000303000044
:103c6c000303000003030000030300000303000030
:103c7c000102000002020000020200000202000029
:103c8c000202000002020000020200000202000018
:103c9c000202000002020000020200000202000008
:103cac0002020000020200000202000002020000f8
:103cbc0002010000010100000101000001010000ef
:103ccc0001010000010100000101000001010000e0
:103cdc0001010000010100000101000001010000d0
:103cec0001010000010100000101000001010000c0
:103cfc0001010000010100000101000001010000b0
:103d0c00010100000101000001010000010200009e
:103d1c00030300000303000003030000030300007f
:103d2c000303000003030000030300000301000071
:103d3c000103000003030000030300000303000061
:103d4c00030300000303000003030000030300004f
:103d5c000102000002020000020200000202000048
:103d6c000202000002020000020200000202000037
:103d7c000202000002020000020200000202000027
:103d8c000202000002020000020200000202000017
:103d9c00020100000101000001010000010100000e
:103dac0001010000010100000101000001010000ff
:103dbc0001010000010100000101000001010000ef
:103dcc0001010000010100000101000001010000df
:103ddc0001010000010100000101000001010000cf
:103dec0001010000010100000101000001020000be
:103dfc00030300000303000003030000030300009f
:103e0c000303000003030000030300000301000090
:103e1c000103000003030000030300000303000080
:103e2c00030300000303000003030000030300006e
:103e3c000102000002020000020200000202000067
:103e4c000202000002020000020200000202000056
:103e5c000202000002020000020200000202000046
:103e6c000202000002020000020200000202000036
:103e7c00020100000101000001010000010100002d
:103e8c00010100000101000001010000010100001e
:103e9c00010100000101000001010000010100000e
:103eac0001010000010100000101000001010000fe
:103ebc0001010000010100000101000001010000ee
:103ecc0001010000010100000101000001020000dd
:103edc0003030000030300000303000003030000be
:103eec0003030000030300000303000003010000b0
:103efc0001030000030300000303000003030000a0
:103f0c00030300000303000003030000030300008d
:103f1c000102000002020000020200000202000086
:103f2c000202000002020000020200000202000075
:103f3c000202000002020000020200000202000065
:103f4c000202000002020000020200000202000055
:103f5c000202000002020000020200000202000045
:103f6c000202000002020000020200000202000035
:103f7c00020100000101000001010000010100002c
:103f8c00010100000101000001010000010100001d
:103f9c00010100000101000001010000010100000d
:103fac0001010000010100000101000001020000fc
:103fbc0003030000030300000303000003030000dd
:103fcc0003030000030300000303000003010000cf
:103fdc0001030000030300000303000003030000bf
:103fec0003030000030300000303000003030000ad
:103ffc0001020000020200000202000002020000a6
:10400c000202000002020000020200000202000094
:10401c000202000002020000020200000202000084
:10402c000202000002020000020200000202000074
:10403c000202000002020000020200000202000064
:10404c000202000002020000020200000202000054
:10405c00020100000101000001010000010100004b
:10406c00010100000101000001010000010100003c
:10407c00010100000101000001010000010100002c
:10408c00010100000101000001010000010200001b
:10409c0003030000030300000303000003030000fc
:1040ac0003030000030300000303000003010000ee
:1040bc0001030000030300000303000003030000de
:1040cc0003030000030300000303000003030000cc
:1040dc0001020000020200000202000002020000c5
:1040ec0002020000020200000202000002020000b4
:1040fc0002020000020200000202000002020000a4
:10410c000202000002020000020200000202000093
:10411c000202000002020000020200000202000083
:10412c000202000002020000020200000202000073
:10413c00020100000101000001010000010100006a
:10414c00010100000101000001010000010100005b
:10415c00010100000101000001010000010100004b
:10416c00010100000101000001010000010200003a
:10417c00030300000303000003030000030300001b
:10418c00030300000303000003030000030100000d
:10419c0001010000030300000303000003030000ff
:1041ac0003030000030300000303000003030000eb
:1041bc0001020000020200000202000002020000e4
:1041cc0002020000020200000202000002020000d3
:1041dc0002020000020200000202000002020000c3
:1041ec0002020000020200000202000002020000b3
:1041fc0002020000020200000202000002020000a3
:10420c000202000002020000020200000202000092
:10421c000201000001010000010100000101000089
:10422c00010100000101000001010000010100007a
:10423c00010100000101000001010000010100006a
:10424c000101000001010000010100000102000059
:10425c00030300000303000003030000030300003a
:10426c00030300000303000003030000030100002c
:10427c00010100000303000003030000030300001e
:10428c00030300000303000003030000030300000a
:10429c000102000002020000020200000202000003
:1042ac0002020000020200000202000002020000f2
:1042bc0002020000020200000202000002020000e2
:1042cc0002020000020200000202000002020000d2
:1042dc0002020000020200000202000002020000c2
:1042ec0002020000020200000202000002020000b2
:1042fc0002010000010100000101000001010000a9
:10430c000101000001010000010100000101000099
:10431c000101000001010000010100000101000089
:10432c000101000001010000010100000102000078
:10433c000303000003030000030300000303000059
:10434c00030300000303000003030000030100004b
:10435c00010100000303000003030000030300003d
:10436c000303000003030000030300000303000029
:10437c000102000002020000020200000202000022
:10438c000202000002020000020200000202000011
:10439c000202000002020000020200000202000001
:1043ac0002020000020200000202000002020000f1
:1043bc0002020000020200000202000002020000e1
:1043cc0002020000020200000202000002020000d1
:1043dc0002010000010100000101000001010000c8
:1043ec0001010000010100000101000001010000b9
:1043fc0001010000010100000101000001010000a9
:10440c000101000001010000010100000102000097
:10441c000303000003030000030300000303000078
:10442c00030300000303000003030000030100006a
:10443c00000100000303000003030000030300005d
:10444c000303000003030000030300000303000048
:10445c000102000002020000020200000202000041
:10446c000202000002020000020200000202000030
:10447c000202000002020000020200000202000020
:10448c000202000002020000020200000202000010
:10449c000202000002020000020200000202000000
:1044ac0002020000020200000202000002020000f0
:1044bc0002010000010100000101000001010000e7
:1044cc0001010000010100000101000001010000d8
:1044dc0001010000010100000101000001010000c8
:1044ec0001010000010100000101000001020000b7
:1044fc000303000003030000030300000303000098
:10450c00030300000303000003030000010100008b
:10451c00000100000303000003030000030300007c
:10452c000303000003030000030300000303000067
:10453c000102000002020000020200000202000060
:10454c00020200000202000002020000020200004f
:10455c00020200000202000002020000020200003f
:10456c00020200000202000002020000020200002f
:10457c00020200000202000002020000020200001f
:10458c00020200000202000002020000020200000f
:10459c000201000001010000010100000101000006
:1045ac0001010000010100000101000001010000f7
:1045bc0001010000010100000101000001010000e7
:1045cc0001010000010100000101000001020000d6
:1045dc0003030000030300000303000003030000b7
:1045ec0003030000030300000303000001010000ab
:1045fc00000100000303000003030000030300009c
:10460c000303000003030000030300000303000086
:10461c00010200000202000002020000020200007f
:10462c00020200000202000002020000020200006e
:10463c00020200000202000002020000020200005e
:10464c00020200000202000002020000020200004e
:10465c00020200000202000002020000020200003e
:10466c00020200000202000002020000020200002e
:10467c000201000001010000010100000101000025
:10468c000101000001010000010100000101000016
:10469c000101000001010000010100000101000006
:1046ac0001010000010100000101000001020000f5
:1046bc0003030000030300000303000003030000d6
:1046cc0003030000030300000303000001000000cb
:1046dc0000010000030300000303000003030000bb
:1046ec0003030000030300000303000003030000a6
:1046fc00010200000202000002020000020200009f
:10470c00020200000202000002020000020200008d
:10471c00020200000202000002020000020200007d
:10472c00020200000202000002020000020200006d
:10473c00020200000202000002020000020200005d
:10474c00020200000202000002020000020200004d
:10475c000201000001010000010100000101000044
:10476c000101000001010000010100000101000035
:10477c000101000001010000010100000101000025
:10478c000101000001010000010100000102000014
:10479c0003030000030300000303000003030000f5
:1047ac0003030000030300000303000001000000ea
:1047bc0000010000030300000303000003030000da
:1047cc0003030000030300000303000003030000c5
:1047dc0001020000020200000202000002020000be
:1047ec0002020000020200000202000002020000ad
:1047fc00020200000202000002020000020200009d
:10480c00020200000202000002020000020200008c
:10481c00020200000202000002020000020200007c
:10482c00020200000202000002020000020200006c
:10483c000201000001010000010100000101000063
:10484c000101000001010000010100000101000054
:10485c000101000001010000010100000101000044
:10486c000101000001010000010100000102000033
:10487c000303000003030000030300000303000014
:10488c000303000003030000030300000100000009
:10489c0000010000010300000303000003030000fb
:1048ac0003030000030300000303000003030000e4
:1048bc0001020000020200000202000002020000dd
:1048cc0002020000020200000202000002020000cc
:1048dc0002020000020200000202000002020000bc
:1048ec0002020000020200000202000002020000ac
:1048fc00020200000202000002020000020200009c
:10490c00020200000202000002020000020200008b
:10491c000201000001010000010100000101000082
:10492c000101000001010000010100000101000073
:10493c000101000001010000010100000101000063
:10494c000101000001010000010100000102000052
:10495c000303000003030000030300000303000033
:10496c000303000003030000030300000100000028
:10497c00000000000103000003030000030300001b
:10498c000303000003030000030300000303000003
:10499c0001020000020200000202000002020000fc
:1049ac0002020000020200000202000002020000eb
:1049bc0002020000020200000202000002020000db
:1049cc0002020000020200000202000002020000cb
:1049dc0002020000020200000202000002020000bb
:1049ec0002020000020200000202000002020000ab
:1049fc0002010000010100000101000001010000a2
:104a0c000101000001010000010100000101000092
:104a1c000101000001010000010100000101000082
:104a2c000101000001010000010100000102000071
:104a3c000303000003030000030300000303000052
:104a4c000303000003030000030100000100000049
:104a5c00000000000103000003030000030300003a
:104a6c000303000003030000030300000303000022
:104a7c00010200000202000002020000020200001b
:104a8c00020200000202000002020000020200000a
:104a9c0002020000020200000202000002020000fa
:104aac0002020000020200000202000002020000ea
:104abc0002020000020200000202000002020000da
:104acc0002020000020200000202000002020000ca
:104adc0002010000010100000101000001010000c1
:104aec0001010000010100000101000001010000b2
:104afc0001010000010100000101000001010000a2
:104b0c000101000001010000010100000102000090
:104b1c000303000003030000030300000303000071
:104b2c000303000003030000030100000000000069
:104b3c000000000001030000030300000303000059
:104b4c000303000003030000030300000303000041
:104b5c00010200000202000002020000020200003a
:104b6c000202000002020000020200000202000029
:104b7c000202000002020000020200000202000019
:104b8c000202000002020000020200000202000009
:104b9c0002020000020200000202000002020000f9
:104bac0002020000020200000202000002020000e9
:104bbc0002010000010100000101000001010000e0
:104bcc0001010000010100000101000001010000d1
:104bdc0001010000010100000101000001010000c1
:104bec0001010000010100000101000001020000b0
:104bfc000303000003030000030300000303000091
:104c0c000303000003030000030100000000000088
:104c1c00000000000101000003030000030300007a
:104c2c000303000003030000030300000303000060
:104c3c000102000002020000020200000202000059
:104c4c000202000002020000020200000202000048
:104c5c000202000002020000020200000202000038
:104c6c000202000002020000020200000202000028
:104c7c000202000002020000020200000202000018
:104c8c000202000002020000020200000202000008
:104c9c0002010000010100000101000001010000ff
:104cac0001010000010100000101000001010000f0
:104cbc0001010000010100000101000001010000e0
:104ccc0001010000010100000101000001020000cf
:104cdc0003030000030300000303000003030000b0
:104cec0003030000030300000301000000000000a8
:104cfc00000000000001000003030000030300009b
:104d0c00030300000303000003030000030300007f
:104d1c000102000002020000020200000202000078
:104d2c000202000002020000020200000202000067
:104d3c000202000002020000020200000202000057
:104d4c000202000002020000020200000202000047
:104d5c000202000002020000020200000202000037
:104d6c000202000002020000020200000202000027
:104d7c00020100000101000001010000010100001e
:104d8c00010100000101000001010000010100000f
:104d9c0001010000010100000101000001010000ff
:104dac0001010000010100000101000001020000ee
:104dbc0003030000030300000303000003030000cf
:104dcc0003030000030300000101000000000000c9
:104ddc0000000000000100000303000003030000ba
:104dec00030300000303000003030000030300009f
:104dfc000102000002020000020200000202000098
:104e0c000202000002020000020200000202000086
:104e1c000202000002020000020200000202000076
:104e2c000202000002020000020200000202000066
:104e3c000202000002020000020200000202000056
:104e4c000202000002020000020200000202000046
:104e5c00020100000101000001010000010100003d
:104e6c00010100000101000001010000010100002e
:104e7c00010100000101000001010000010100001e
:104e8c00010100000101000001010000010200000d
:104e9c0003030000030300000303000003030000ee
:104eac0003030000030300000100000000000000e9
:104ebc0000000000000100000103000003030000db
:104ecc0003030000030300000303000003030000be
:104edc0001020000020200000202000002020000b7
:104eec0002020000020200000202000002020000a6
:104efc000202000002020000020200000202000096
:104f0c000202000002020000020200000202000085
:104f1c000202000002020000020200000202000075
:104f2c000202000002020000020200000202000065
:104f3c00020100000101000001010000010100005c
:104f4c00010100000101000001010000010100004d
:104f5c00010100000101000001010000010100003d
:104f6c00010100000101000001010000010200002c
:104f7c00030300000303000003030000030300000d
:104f8c000303000003030000010000000000000008
:104f9c0000000000000000000103000003030000fb
:104fac0003030000030300000303000003030000dd
:104fbc0001020000020200000202000002020000d6
:104fcc0002020000020200000202000002020000c5
:104fdc0002020000020200000202000002020000b5
:104fec0002020000020200000202000002020000a5
:104ffc000202000002020000020200000202000095
:10500c000202000002020000020200000202000084
:10501c00020100000101000001010000010100007b
:10502c00010100000101000001010000010100006c
:10503c00010100000101000001010000010100005c
:10504c00010100000101000001010000010200004b
:10505c00030300000303000003030000030300002c
:10506c000303000003010000010000000000000029
:10507c00000000000000000001030000030300001a
:10508c0003030000030300000303000003030000fc
:10509c0001020000020200000202000002020000f5
:1050ac0002020000020200000202000002020000e4
:1050bc0002020000020200000202000002020000d4
:1050cc0002020000020200000202000002020000c4
:1050dc0002020000020200000202000002020000b4
:1050ec0002020000020200000202000002020000a4
:1050fc00020100000101000001010000010100009b
:10510c00010100000101000001010000010100008b
:10511c00010100000101000001010000010100007b
:10512c00010100000101000001010000010200006a
:10513c00030300000303000003030000030300004b
:10514c000303000003010000000000000000000049
:10515c00000000000000000001010000030300003b
:10516c00030300000303000003030000030300001b
:10517c000102000002020000020200000202000014
:10518c000202000002020000020200000202000003
:10519c0002020000020200000202000002020000f3
:1051ac0002020000020200000202000002020000e3
:1051bc0002020000020200000202000002020000d3
:1051cc0002020000020200000202000002020000c3
:1051dc0002010000010100000101000001010000ba
:1051ec0001010000010100000101000001010000ab
:1051fc00010100000101000001010000010100009b
:10520c000101000001010000010100000102000089
:10521c00030300000303000003030000030300006a
:10522c000303000003010000000000000000000068
:10523c00000000000000000000010000030300005b
:10524c00030300000303000003030000030300003a
:10525c000102000002020000020200000202000033
:10526c000202000002020000020200000202000022
:10527c000202000002020000020200000202000012
:10528c000202000002020000020200000202000002
:10529c0002020000020200000202000002020000f2
:1052ac0002020000020200000202000002020000e2
:1052bc0002010000010100000101000001010000d9
:1052cc0001010000010100000101000001010000ca
:1052dc0001010000010100000101000001010000ba
:1052ec0001010000010100000101000001020000a9
:1052fc00030300000303000003030000030300008a
:10530c00030300000100000000000000000000008a
:10531c00000000000000000000010000010300007c
:10532c000303000003030000030300000303000059
:10533c000102000002020000020200000202000052
:10534c000202000002020000020200000202000041
:10535c000202000002020000020200000202000031
:10536c000202000002020000020200000202000021
:10537c000202000002020000020200000202000011
:10538c000202000002020000020200000202000001
