:020000040000fa
:080000000002040000000000f2
:020000040000fa
:04000800ca04000026
:020000040000fa
:04000c00ca04000022
:020000040000fa
:04001000ca0400001e
:020000040000fa
:04001400ca0400001a
:020000040000fa
:04001800ca04000016
:020000040000fa
:04001c00ca04000012
:020000040000fa
:04002000ca0400000e
:020000040000fa
:04002400ca0400000a
:020000040000fa
:04002800ca04000006
:020000040000fa
:04002c00ca04000002
:020000040000fa
:04003000ca040000fe
:020000040000fa
:0400340004030000c1
:020000040000fa
:04003800ca040000f6
:020000040000fa
:04003c00ca040000f2
:020000040000fa
:04004000ca040000ee
:020000040000fa
:04004400ca040000ea
:020000040000fa
:04004800ca040000e6
:020000040000fa
:04004c00ca040000e2
:020000040000fa
:04005000ca040000de
:020000040000fa
:04005400ca040000da
:020000040000fa
:04005800ca040000d6
:020000040000fa
:04005c00ca040000d2
:020000040000fa
:04006000ca040000ce
:020000040000fa
:04006400ca040000ca
:020000040000fa
:04006800ca040000c6
:020000040000fa
:04006c00ca040000c2
:020000040000fa
:04007000ca040000be
:020000040000fa
:04007400ca040000ba
:020000040000fa
:04007800ca040000b6
:020000040000fa
:04007c00ca040000b2
:020000040000fa
:04008000ca040000ae
:020000040000fa
:04008400ca040000aa
:020000040000fa
:04008800ca040000a6
:020000040000fa
:04008c00ca040000a2
:020000040000fa
:04009000ca0400009e
:020000040000fa
:04009400ca0400009a
:020000040000fa
:04009800ca04000096
:020000040000fa
:04009c00ca04000092
:020000040000fa
:0400a000ca0400008e
:020000040000fa
:0400a400ca0400008a
:020000040000fa
:0400a800ca04000086
:020000040000fa
:0400ac00ca04000082
:020000040000fa
:0400b000ca0400007e
:020000040000fa
:0400b400ca0400007a
:020000040000fa
:0400b800ca04000076
:020000040000fa
:0400bc00ca04000072
:020000040000fa
:0400c000ca0400006e
:020000040000fa
:0400c400ca0400006a
:020000040000fa
:0400c800ca04000066
:020000040000fa
:0400cc00ca04000062
:020000040000fa
:0400d000ca0400005e
:020000040000fa
:0400d400ca0400005a
:020000040000fa
:0400d800ca04000056
:020000040000fa
:0400dc00ca04000052
:020000040000fa
:0400e000ca0400004e
:020000040000fa
:0400e400ca0400004a
:020000040000fa
:0400e800ca04000046
:020000040000fa
:0400ec00ca04000042
:020000040000fa
:0400f000ca0400003e
:020000040000fa
:0400f400ca0400003a
:020000040000fa
:0400f800ca04000036
:020000040000fa
:0400fc00ca04000032
:020000040000fa
:04010000ca0400002d
:020000040000fa
:04010400ca04000029
:020000040000fa
:04010800ca04000025
:020000040000fa
:04010c00ca04000021
:020000040000fa
:04011000ca0400001d
:020000040000fa
:04011400ca04000019
:020000040000fa
:04011800ca04000015
:020000040000fa
:04011c00ca04000011
:020000040000fa
:04012000ca0400000d
:020000040000fa
:04012400ca04000009
:020000040000fa
:04012800ca04000005
:020000040000fa
:04012c00ca04000001
:020000040000fa
:04013000ca040000fd
:020000040000fa
:04013400ca040000f9
:020000040000fa
:04013800ca040000f5
:020000040000fa
:04013c00ca040000f1
:020000040000fa
:04014000ca040000ed
:020000040000fa
:04014400ca040000e9
:020000040000fa
:04014800ca040000e5
:020000040000fa
:04014c00ca040000e1
:020000040000fa
:04015000ca040000dd
:020000040000fa
:04015400ca040000d9
:020000040000fa
:04015800ca040000d5
:020000040000fa
:04015c00ca040000d1
:020000040000fa
:04016000ca040000cd
:020000040000fa
:04016400ca040000c9
:020000040000fa
:04016800ca040000c5
:020000040000fa
:04016c00ca040000c1
:020000040000fa
:04017000ca040000bd
:020000040000fa
:04017400ca040000b9
:020000040000fa
:04017800ca040000b5
:020000040000fa
:04017c00ca040000b1
:020000040000fa
:04018000ca040000ad
:020000040000fa
:04018400ca040000a9
:020000040000fa
:04018800ca040000a5
:020000040000fa
:04018c00ca040000a1
:020000040000fa
:04019000ca0400009d
:020000040000fa
:04019400ca04000099
:020000040000fa
:04019800ca04000095
:020000040000fa
:04019c00ca04000091
:020000040000fa
:0401a000ca0400008d
:020000040000fa
:0401a400ca04000089
:020000040000fa
:0401a800ca04000085
:020000040000fa
:0401ac00ca04000081
:020000040000fa
:0401b000ca0400007d
:020000040000fa
:0401b400ca04000079
:020000040000fa
:0401b80096040000a9
:020000040000fa
:04020800ca04000024
:020000040000fa
:04020c00ca04000020
:020000040000fa
:04021000ca0400001c
:020000040000fa
:04021400ca04000018
:020000040000fa
:04021800ca04000014
:020000040000fa
:04021c00ca04000010
:020000040000fa
:04022000ca0400000c
:020000040000fa
:04022400ca04000008
:020000040000fa
:04022800ca04000004
:020000040000fa
:04022c00ca04000000
:020000040000fa
:04023000ca040000fc
:020000040000fa
:0402340004030000bf
:020000040000fa
:04023800ca040000f4
:020000040000fa
:04023c00ca040000f0
:020000040000fa
:04024000ca040000ec
:020000040000fa
:04024400ca040000e8
:020000040000fa
:04024800ca040000e4
:020000040000fa
:04024c00ca040000e0
:020000040000fa
:04025000ca040000dc
:020000040000fa
:04025400ca040000d8
:020000040000fa
:04025800ca040000d4
:020000040000fa
:04025c00ca040000d0
:020000040000fa
:04026000ca040000cc
:020000040000fa
:04026400ca040000c8
:020000040000fa
:04026800ca040000c4
:020000040000fa
:04026c00ca040000c0
:020000040000fa
:04027000ca040000bc
:020000040000fa
:04027400ca040000b8
:020000040000fa
:04027800ca040000b4
:020000040000fa
:04027c00ca040000b0
:020000040000fa
:04028000ca040000ac
:020000040000fa
:04028400ca040000a8
:020000040000fa
:04028800ca040000a4
:020000040000fa
:04028c00ca040000a0
:020000040000fa
:04029000ca0400009c
:020000040000fa
:04029400ca04000098
:020000040000fa
:04029800ca04000094
:020000040000fa
:04029c00ca04000090
:020000040000fa
:0402a000ca0400008c
:020000040000fa
:0402a400ca04000088
:020000040000fa
:0402a800ca04000084
:020000040000fa
:0402ac00ca04000080
:020000040000fa
:0402b000ca0400007c
:020000040000fa
:0402b400ca04000078
:020000040000fa
:0402b800ca04000074
:020000040000fa
:0402bc00ca04000070
:020000040000fa
:0402c000ca0400006c
:020000040000fa
:0402c400ca04000068
:020000040000fa
:0402c800ca04000064
:020000040000fa
:0402cc00ca04000060
:020000040000fa
:0402d000ca0400005c
:020000040000fa
:0402d400ca04000058
:020000040000fa
:0402d800ca04000054
:020000040000fa
:0402dc00ca04000050
:020000040000fa
:0402e000ca0400004c
:020000040000fa
:0402e400ca04000048
:020000040000fa
:0402e800ca04000044
:020000040000fa
:0402ec00ca04000040
:020000040000fa
:0402f000ca0400003c
:020000040000fa
:0402f400ca04000038
:020000040000fa
:0402f800ca04000034
:020000040000fa
:0402fc00ca04000030
:020000040000fa
:04030000ca0400002b
:020000040000fa
:04030400ca04000027
:020000040000fa
:04030800ca04000023
:020000040000fa
:04030c00ca0400001f
:020000040000fa
:04031000ca0400001b
:020000040000fa
:04031400ca04000017
:020000040000fa
:04031800ca04000013
:020000040000fa
:04031c00ca0400000f
:020000040000fa
:04032000ca0400000b
:020000040000fa
:04032400ca04000007
:020000040000fa
:04032800ca04000003
:020000040000fa
:04032c00ca040000ff
:020000040000fa
:04033000ca040000fb
:020000040000fa
:04033400ca040000f7
:020000040000fa
:04033800ca040000f3
:020000040000fa
:04033c00ca040000ef
:020000040000fa
:04034000ca040000eb
:020000040000fa
:04034400ca040000e7
:020000040000fa
:04034800ca040000e3
:020000040000fa
:04034c00ca040000df
:020000040000fa
:04035000ca040000db
:020000040000fa
:04035400ca040000d7
:020000040000fa
:04035800ca040000d3
:020000040000fa
:04035c00ca040000cf
:020000040000fa
:04036000ca040000cb
:020000040000fa
:04036400ca040000c7
:020000040000fa
:04036800ca040000c3
:020000040000fa
:04036c00ca040000bf
:020000040000fa
:04037000ca040000bb
:020000040000fa
:04037400ca040000b7
:020000040000fa
:04037800ca040000b3
:020000040000fa
:04037c00ca040000af
:020000040000fa
:04038000ca040000ab
:020000040000fa
:04038400ca040000a7
:020000040000fa
:04038800ca040000a3
:020000040000fa
:04038c00ca0400009f
:020000040000fa
:04039000ca0400009b
:020000040000fa
:04039400ca04000097
:020000040000fa
:04039800ca04000093
:020000040000fa
:04039c00ca0400008f
:020000040000fa
:0403a000ca0400008b
:020000040000fa
:0403a400ca04000087
:020000040000fa
:0403a800ca04000083
:020000040000fa
:0403ac00ca0400007f
:020000040000fa
:0403b000ca0400007b
:020000040000fa
:0403b400ca04000077
:020000040000fa
:0403b80096040000a7
:020000040000fa
:100400004fa920008efe24000e018800000000008d
:10041000000020000000e000020032000001200087
:1004200020028800140007005c0107000000e000c3
:1004300003003a008078200001002000020037000d
:100440000000200001002000810f70000100320038
:1004500014000700000020000000e000020032004d
:100460000000020000000000523602000000000000
:100470000040da000000fe004440a90060032000b4
:100480000000e000030032000020200090018800fe
:100490004440a800000006008a1f78008b1f7800e7
:1004a00000000600a1028800800478000000eb0034
:1004b0001f003700e284440054a0b4009905ba003c
:1004c000e284440054a0b4009906ba00e2844400d7
:1004d00054a0b4000006eb00476fde00fd07b20039
:1004e000ae018800636ce10003003a00eaff0700f8
:1004f0000000eb000e003700606ce10008003a00dd
:10050000004deb000a05e800020039003420ec0041
:100510000af0a0008b05e900f9ff3e000400370057
:100520006168e100010032000086eb000b0007006b
:1005300019c7ba001905ba000e04e00003003a001a
:100540000a00e000dbff3a0000000600fe07b200f0
:10055000ae0288008a047800f5ff37000cd0a300b3
:10056000e20f4d001c00390089027800354dba00b9
:100570000a05e800020039003420ec000af0a0006f
:100580008b05e9000f003200254dba000a05e8008e
:10059000020039003420ec000af0a0008b05e900cd
:1005a000080032000c00e0000600320015cdba0051
:1005b0000a05e800020039003420ec000af0a0002f
:1005c0008b05e9008984e80054a0b4000b00e0002a
:1005d000e2ff3a00000006009902ba00055d7800cb
:1005e0008b05e900f7ff3200c82ade00055d7800c0
:1005f0008b05e900f3ff32000c00e000f1ff320050
:1006000019ddba00eeff3700809fbe00829fbe005a
:10061000849fbe00869fbe003200f8003400f800c0
:1006200010002000a0018800002020009001880018
:100630000040800013408000224080004912de000c
:100640000402d0000192200001024200c91ade001b
:100650008502d0008180420014027800110242001d
:1006600031408000490bde00c5ff2f000503630009
:100670000603d0000582200005034300c903de0005
:100680008703d0008582430016037800950243005b
:10069000c62add004422dd000482420004f0a200ec
:1006a000541688000808b400004088000300780051
:1006b0000a08b40080017800134088000200780026
:1006c0000c08b40000017800224088000100780086
:1006d0000e08b40080007800314088001008ec005b
:1006e0008040880001002400810f50000800320083
:1006f0008460a9003400f9003200f9004f03be0005
:100700004f02be004f01be004f00be000040060079
:100710001028ef001c08ec00e0408800c12b2000ee
:10072000810f5000430032008000eb0000004000c9
:100730008180480042942100031020000001410004
:10074000818149009401800002f0a4008381d200dd
:1007500093018800120178009401880042408800cb
:10076000c2eb2100031020000001410081814900fb
:100770009401800002f0a4008381d20093018800dc
:100780001201780094018800524088004243220000
:100790000310200000014100818149009401800084
:1007a00002f0a4008381d200930188001201780036
:1007b0009401880062408800c29a22000310200041
:1007c00000014100818149009401800002f0a400f1
:1007d0008381d2009301880012017800940188007f
:1007e0007240880042f22200031020000000410005
:1007f000818049009301800000f0a4008180d20034
:1008000091018800100078009301880090408800d2
:100810008460a9003400f9003200f9004f03be00e3
:100820004f02be004f01be004f00be000040060058
:10083000b7ff370005e1a9001c28ef000000eb001e
:100840008000eb00000040008180480042942100bd
:1008500003102000000141008181490094018000c3
:1008600002f0a4008381d200930188001201780075
:100870009401880042408800c2eb21000310200050
:1008800000014100818149009401800002f0a40030
:100890008381d200930188001201780094018800be
:1008a0005240880042432200031020000001410012
:1008b000818149009401800002f0a4008381d2006c
:1008c000930188001201780094018800624088003a
:1008d000c29a2200031020000001410081814900da
:1008e0009401800002f0a4008381d200930188006b
:1008f00012017800940188007240880042f22200c0
:100900000310200000004100818049009301800015
:1009100000f0a4008180d2009101880010007800ce
:100920009301880090408800b9ff37003200f8003a
:100930003400f800881f780018002000a801880003
:1009400008202000980188004f0478000a87ab0037
:1009500008003a000a67ab00020032001428ec00dd
:100960000a67a9009080a9003400f9003200f9005c
:10097000004006001428ef001a28ef000a87a9009b
:100980009080a9003400f9003200f9000040060010
:10099000f8ff37000040da000000fe00000005000c
:1009a00003f0a200889fbe008a9fbe008c1f7800c3
:1009b000f9000700000133006450e1004f003200ed
:1009c0006420e1005200320003826c0007003b000b
:1009d0000905d0000306d000820f54000c065d000c
:1009e0000200390002003200890178000306780015
:1009f0008582550004003d000003fd008103fd00d9
:100a00008502ea008b854200840f720002003b00e1
:100a100060001000e08018006011b8000005eb00d5
:100a20007a28e1000a00390006007800c75ddd0081
:100a3000f707b200878075002d00370082817100b2
:100a40000a017800610560008180d1000080d30038
:100a50008502e900f9ff3b00060440008784480056
:100a600002003b0060041400e0841c000988a3001d
:100a7000070032008a817100828171006101640087
:100a80008904d1000884d3008b05e80017003700e3
:100a90000978a30013003a000b00e00013003400b3
:100aa0008b05e9000804440089844c000a44740062
:100ab0000978a3000d003a000b00e00007003400a5
:100ac0008b05e9000804440089844c0001003a00c9
:100ad0000b0020000978a300f7ff32000001eb00b3
:100ae00002003700828171000a0178006f00070060
:100af0000cf0a70001f0a000b80037006420e1006e
:100b000002003a00838f6c00b80033000801be0079
:100b10000200be00b1003700889fbe008a9fbe0061
:100b20008c1f78009c000700a300330003866c0034
:100b30006450e1002e0032006420e10033003200f6
:100b40006150e1002f0032006120e10031003200ed
:100b500085855500eb07b00009002000080420003f
:100b6000050037000804440089844c000a00310065
:100b70000603430087834b000001530081815b0023
:100b8000f8ff33000203be000800a0000804440080
:100b900089844c00f6ff3900c639dd0083017300fb
:100ba00001003200130020008904d1000884d30022
:100bb0000998a300050032000800a7000300a00068
:100bc0008904d1000884d3008b05e8008904d10092
:100bd0000884d3000001eb000281d200330007003b
:100be00001f0a1000cf0a70001f0a0007b0037008d
:100bf0006420e1007d0032000801be000200be005a
:100c0000f7ff37006120e100780032006000b80093
:100c1000f3ff37000000200001f82700f0ff370045
:100c2000f4ff2f00840037000001be0045000700dc
:100c30000470a70003f0a1006509b100160032009e
:100c40000d0035006828e10006003500f0ff2f0098
:100c5000f1ff27000300e00013003b000100280023
:100c60000000050000004000818048008502e90086
:100c7000fcff3a0008003700f88f420002003c00f9
:100c80008000eb00000005008100d1000080d3004f
:100c90008502e800fcff3a000300e00002003b0090
:100ca00060001000e08018000000060081002000b5
:100cb000618055000b003d000b00200061fe2f00fd
:100cc0000100e1001d0034008281710061016400b7
:100cd0008904d1000884d3000000e800faff3a003c
:100ce00071002000610064000300700002006000d9
:100cf0000900320061044400e0844c000988a5002a
:100d0000050032008b05e8006808e10002003a00a7
:100d10008904d1000884d300f20f20000258e100ba
:100d200005003d00c75ddd00f907b2008980750050
:100d300008007800000006000bf827008b00780000
:100d400000000500c70ade00f107b200f50fb2008f
:100d500008003200e1cf4200020032000170a00022
:100d600024000500810f7000010032000408050016
:100d700044000500810f700002003a0014000500d5
:100d80008502e9000000400081c04800fcff3b00f4
:100d90000170a000240005000004be00e9ff070068
:100da0000003be000405be000200be00e5ff070010
:100db000844f7500000006000200be006450e10090
:100dc000050036006420e100020036000968a30037
:100dd00001003a000800be000160a0004f06780044
:100de0004f05be004f04be0000000600f0ff2f00bc
:100df000f1ff2700f9ff37006022b800060220004b
:100e00000000d0008180d2000482d2008582d2000e
:100e10000000a0000202520083825a000300310049
:100e20000202420083824a000000a1000603e9009a
:100e3000f3ff3a0000000600889fbe008a9fbe00b4
:100e4000841f7800d4ff07004f00780011003300a2
:100e5000f0ff2f00838f6c0006003b000405650047
:100e60000a00a7000800370009f0a60010002000c3
:100e700008003700820f5400838f5c0003003900a4
:100e80001000200001003e000000200009f0a70033
:100e90000000ea004f05be004f04be000000e00065
:040ea0000000060048
:020000040000fa
:100ea400546800006973000020770000617300003b
:100eb400206100002074000072690000756d00005c
:100ec400706800000d0a00000000000000f8000037
:100ed40000fb0000e0fd0000e0df0000e087000010
:100ee400e0270000e8070000f3070000ff07000008
:100ef400ff0400001f0200001f4000001f800000cc
:0c0f04001fd8000017f800000cf80000d7
:020000040000fa
:100f100020080000400200008200000000000600df
:100f2000000c000012001800001e000024002a001f
:100f30000030000036003b000041000046004b003e
:100f40000050000055005900005e0000620066007d
:100f5000006900006c0070000072000075007700ee
:100f6000007900007b007c00007d00007e007e0098
:100f7000007f00007e007e00007d00007c007b0082
:100f800000790000770075000072000070006c00ae
:100f90000069000066006200005e00005900550014
:100fa000005000004b004600004100003b003600ae
:100fb000003000002a002400001e0000180012006b
:100fc000000c00000600000000faff00f4ffee0035
:100fd000ffe8ff00e2ffdc00ffd6ff00d0ffca0001
:100fe000ffc5ff00bfffba00ffb5ff00b0ffab00b9
:100ff000ffa7ff00a2ff9e00ff9aff0097ff94004b
:10100000ff90ff008eff8b00ff89ff0087ff8500a8
:10101000ff84ff0083ff8200ff82ff0081ff8200c8
:10102000ff82ff0083ff8400ff85ff0087ff8900a8
:10103000ff8bff008eff9000ff94ff0097ff9a0048
:10104000ff9eff00a2ffa700ffabff00b0ffb500af
:10105000ffbaff00bfffc500ffcaff00d0ffd600e8
:10106000ffdcff00e2ffe800ffeeff00f4fffa0004
:10107000ff7f00007f007f00007f00007f007f0077
:10108000007f00007f007f00007f00007f007f0066
:10109000007f00007f007f00007f00007f007f0056
:1010a000007f00007f007f00007f00007f007f0046
:1010b000007f00007f007f00007f00007f007f0036
:1010c000007f00007f007f00007f00007f007f0026
:1010d000007f00007f007f00007f00007f007f0016
:1010e000007f00007f007f00007f00007f007f0006
:1010f000007f00007f007f00007f00007f007f00f6
:10110000007f00007f007f00007f00007f007f00e5
:10111000007f00007f007f000000000081ff810051
:10112000ff81ff0081ff8100ff81ff0081ff8100bf
:10113000ff81ff0081ff8100ff81ff0081ff8100af
:10114000ff81ff0081ff8100ff81ff0081ff81009f
:10115000ff81ff0081ff8100ff81ff0081ff81008f
:10116000ff81ff0081ff8100ff81ff0081ff81007f
:10117000ff81ff0081ff8100ff81ff0081ff81006f
:10118000ff81ff0081ff8100ff81ff0081ff81005f
:10119000ff81ff0081ff8100ff81ff0081ff81004f
:1011a000ff81ff0081ff8100ff81ff0081ff81003f
:1011b000ff81ff0081ff8100ff81ff0081ff81002f
:1011c000ff81ff0000008000008f00009f00af0043
:1011d00000bf0000cf00df0000ef0000ff00ef00c5
:1011e00000df0000cf00bf0000af00009f008f00b5
:1011f00000800000700060000050000040003000df
:10120000002000001000000000100000200030004e
:101210000040000050006000007000000008000066
:1012200014000000800000001c0800000200000004
:1012300082000000ffff0000600a00003400000090
:1012400080000000f84f0000080c00008200000041
:101250000000000000ff0000080006000804000075
:101260000610040000061800040006002004000018
:1012700006280400000630000400060038040000c0
:101280000640040000064800040006005004000068
:101290000658040000066000040006006804000010
:1012a00006700400000678000400060080040000b8
:1012b0000688040000069000040006009804000060
:1012c00006a004000006a80004000600b004000008
:1012d00006b804000006c00004000600c8040000b0
:1012e00006d004000006d80004000600e004000058
:1012f00006e804000006f00004000600f804000000
:1013000006000500000608000500060010050000a4
:10131000061805000006200005000600280500004c
:1013200006300500000638000500060040050000f4
:10133000064805000006500005000600580500009c
:101340000660050000066800050006007005000044
:1013500006780500000680000500060088050000ec
:10136000069005000006980005000600a005000094
:1013700006a805000006b00005000600b80500003c
:1013800006c005000006c80005000600d0050000e4
:1013900006d805000006e00005000600e80500008c
:1013a00006f005000006f800050006000006000033
:1013b00006080600000610000600060018060000d9
:1013c0000620060000062800060006003006000081
:1013d0000638060000064000060006004806000029
:1013e00006500600000658000600060060060000d1
:1013f0000668060000067000060006007806000079
:101400000680060000068800060006009006000020
:10141000069806000006a00006000600a8060000c8
:1014200006b006000006b80006000600c006000070
:1014300006c806000006d00006000600d806000018
:1014400006e006000006e80006000600f0060000c0
:1014500006f8060000060000070006000807000066
:10146000061007000006180007000600200700000d
:1014700006280700000630000700060038070000b5
:10148000064007000006480007000600500700005d
:101490000658070000066000070006006807000005
:1014a00006700700000678000700060080070000ad
:1014b0000688070000069000070006009807000055
:1014c00006a007000006a80007000600b0070000fd
:1014d00006b807000006c00007000600c8070000a5
:1014e00006d007000006d80007000600e00700004d
:1014f00006e807000006f00007000600f8070000f5
:101500000600080000060800080006001008000099
:101510000618080000062000080006002808000041
:1015200006300800000638000800060040080000e9
:101530000648080000065000080006005808000091
:101540000660080000066800080006007008000039
:1015500006780800000680000800060088080000e1
:10156000069008000006980008000600a008000089
:1015700006a808000006b00008000600b808000031
:1015800006c008000006c80008000600d0080000d9
:1015900006d808000006e00008000600e808000081
:1015a00006f008000006f800080006000009000028
:1015b00006080900000610000900060018090000ce
:1015c0000620090000062800090006003009000076
:1015d000063809000006400009000600480900001e
:1015e00006500900000658000900060060090000c6
:1015f000066809000006700009000600780900006e
:101600000680090000068800090006009009000015
:10161000069809000006a00009000600a8090000bd
:1016200006b009000006b80009000600c009000065
:1016300006c809000006d00009000600d80900000d
:1016400006e009000006e80009000600f0090000b5
:1016500006f80900000600000a000600080a00005b
:1016600006100a00000618000a000600200a000002
:1016700006280a00000630000a000600380a0000aa
:1016800006400a00000648000a000600500a000052
:1016900006580a00000660000a000600680a0000fa
:1016a00006700a00000678000a000600800a0000a2
:1016b00006880a00000690000a000600980a00004a
:1016c00006a00a000006a8000a000600b00a0000f2
:1016d00006b80a000006c0000a000600c80a00009a
:1016e00006d00a000006d8000a000600e00a000042
:1016f00006e80a000006f0000a000600f80a0000ea
:1017000006000b00000608000b000600100b00008e
:1017100006180b00000620000b000600280b000036
:1017200006300b00000638000b000600400b0000de
:1017300006480b00000650000b000600580b000086
:1017400006600b00000668000b000600700b00002e
:1017500006780b00000680000b000600880b0000d6
:1017600006900b00000698000b000600a00b00007e
:1017700006a80b000006b0000b000600b80b000026
:1017800006c00b000006c8000b000600d00b0000ce
:1017900006d80b000006e0000b000600e80b000076
:1017a00006f00b000006f8000b000600000c00001d
:1017b000000000000000000000001c002236220093
:1017c0002a221c00001c3e002a3e22003e1c000073
:1017d00000143e003e3e1c0008000000081c3e00b5
:1017e0003e1c080000081c001c083e003e080000cb
:1017f00000081c003e3e08001c0000000000000025
:1018000000000000000000000000000000000000d8
:1018100000000000000000000000000000000000c8
:101820000000000000003800302c1200120c0000f4
:101830001c2222001c081c00080000000000000000
:101840000000000000302c00342c3400360600006c
:10185000002a1c00361c2a00000004000c1c3c005e
:101860001c0c0400001018001c1e1c0018100000a6
:10187000081c3e00083e1c0008001400141414004c
:1018800014001400003c2a002a2c280028280000fc
:101890001c220c00141822001c0000000000000094
:1018a000001e1e0000081c003e083e001c081c0014
:1018b000081c3e0008080800080008000808080086
:1018c0003e1c080000000800183e18000800000038
:1018d00000080c003e0c08000000000000000200a0
:1018e00002023e0000001400143e14001400000028
:1018f00008081c001c3e3e0000003e003e1c1c0070
:1019000008080000000000000000000000000000c7
:10191000081c1c00080800000800360036120000f1
:1019200000000000000014003e1414003e140000eb
:10193000041c02000c100e000800260026100800ef
:101940000432320000040a000a042a00122c0000ab
:101950000c0c040000000000000008000404040057
:101960000404080000040800080808000804000037
:1019700000141c003e1c14000000000008083e007b
:101980000808000000000000000000000c0c04002b
:10199000000000003e000000000000000000000009
:1019a000000c0c00000020001008040002000000e1
:1019b0001c2232002a2622001c0008000c08080005
:1019c00008081c00001c220020180400023e000031
:1019d0001c2220001c2022001c00100018141200e1
:1019e0003e101000003e0200021e2000221c0000db
:1019f000180402001e2222001c003e0020100800d5
:101a000004040400001c2200221c2200221c0000ee
:101a10001c2222003c2010000c000000000c0c00d6
:101a2000000c0c00000000000c0c00000c0c04006a
:101a3000100804000204080010000000003e00002e
:101a4000003e000000040800102010000804000000
:101a50001c2220001808000008001c00223a2a005e
:101a60003a021c00001c220022223e00222200001a
:101a70001e2222001e2222001e001c002202020042
:101a800002221c00001e220022222200221e000030
:101a90003e0202001e0202003e003e0002021e0044
:101aa00002020200001c2200023a2200223c000036
:101ab000222222003e22220022001c0008080800e8
:101ac00008081c000020200020202200221c00000a
:101ad00022120a00060a120022000200020202007c
:101ae00002023e00002236002a22220022220000aa
:101af00022262a003222220022001c00222222005a
:101b000022221c00001e2200221e020002020000ef
:101b10001c222200222a12002c001e0022221e005b
:101b200012222200001c2200021c2000221c0000a5
:101b30003e080800080808000800220022222200af
:101b400022221c000022220022222200140800006f
:101b500022222a002a2a2a00140022002214080025
:101b6000142222000022220022140800080800008b
:101b70001e100800040202001e001c0004040400e1
:101b800004041c00000002000408100020000000f3
:101b90001c101000101010001c000800142200007f
:101ba00000000000000000000000000000003f00f6
:101bb0000c0c08000000000000000000001c2000c9
:101bc0003c223c00000202001e222200221e0000d5
:101bd00000001c00220222001c002000203c2200e9
:101be00022223c00000000001c221e00021c0000fb
:101bf000180404001e04040004000000003c22003d
:101c0000223c20001c0202000e12120012120000e0
:101c1000080008000808080018001000001810004c
:101c2000101012000c020200120a06000a12000034
:101c300008080800080808001800000000162a001c
:101c40002a222200000000000e12120012120000d0
:101c500000001c00222222001c000000001e2200a6
:101c600022221e00020000003c222200223c200012
:101c700000001a00240404000e000000001c0200f2
:101c80001c201c00000004001e04040014080000b6
:101c90000000120012121a0014000000002222009c
:101ca000221408000000000022222a003e14000036
:101cb00000001200120c12001200000000121200ac
:101cc000121c0800060000001e100c00021e00007e
:101cd00018040400060404001800080008080000a6
:101ce00008080800000c100010301000100c000054
:101cf000140a000000000000000008001c3622004a
:101d0000223e000000ffff00ffffff00ffffff007b
:101d100055555500555555005555ff00ffffff001f
:101d2000ffffff00ffffff00ffffff00ffffff00bf
:101d3000ffffff00ffffff00ffffff00ffffff00af
:101d4000ffffff00ffffff00ffffff00ffffff009f
:101d5000ffffff00ffffff00ffffff00ffffff008f
:10225000ffffff00ffffff00ffff0000140800006a
:102260000800000080000000005c0000002c00005e
:10227000800000001e080000020000008200000034
:08228000010000000000000055
:020000040000fa
:102288000a87a9000887a8000a67a9000867a800a4
:10229800a080a80000000600889fbe004487a80010
:1022a80011538000c908dd00303a8000f01fb200e9
:1022b80000807000303a880001c02500c1388800cd
:1022c80000002000f00fb200d03888006138880084
:1022d8007038880081388800903888002053800042
:1022e80031538000a038880040538000515380004b
:1022f800b038880080ff2f002407b6000000a00037
:10230800203988003ea7ef00225380003353800015
:10231800f17f20000281600000802f00a438800037
:102328008401600083017100a3388800a33880000d
:1023380003816000e438800084016000830171003b
:10234800e3388800425380005353800002816000c4
:10235800b43880008401600083017100b3388800bc
:10236800b338800003816000f43880008401600085
:1023780083017100f33888008253800093538000f2
:10238800a8538000b9538000c6538000d7538000fb
:1023980024538000355380000201440006014100a7
:1023a80004014100010161000439800084016000da
:1023b8008301710003398800e2538000f3538000e1
:1023c8000854800019548000265480003754800037
:1023d8004453800055538000080141008981490019
:1023e8000601410002014100040141008100610031
:1023f8002207b600008070001039880026e7a9007f
:102408002647a90026c7a9002627a8002607a8004e
:1024180026a7a9002687a900e0538000f153800071
:1024280004548000155480002254800033548000e6
:1024380000404200024040002fe7b700f172200040
:102448009140780092722000014978008053800002
:1024580091538000a4538000b5538000c25380007c
:10246800d353800000404200024040002ee7b700ee
:10247800e37220009341780084722000034a7800b8
:10248800e0538000f15380002ce7b70080538000b0
:10249800915380002ae7b70000548000115480004f
:1024a8002de7b700a0538000b15380002be7b70099
:1024b8002667a9002727a8002707a80060538000df
:1024c800715380000041eb00e10f5000e08f58008d
:1024d8000e0036000001eb000201e80060538000a6
:1024e80071538000820178008301e9000300330002
:1024f8008100d1000080d300fbff3700e10f5000be
:10250800e08f5800f4ff3e006741610067016100f9
:102518004511dd00f1f12f002438800004806000af
:10252800000071002038880020388000000eb200ba
:102538002239800082806000810070002139880083
:102548000887a8000867a80005e7a80000e8230096
:1025580001002000ea380200000000004f04be001d
:1025680000000600889fbe0001047800e20f5000ba
:102578001101320053003600e40f5000f100320020
:10258800cb00310090012000105388000014200077
:10259800010020002053880031538800001e2000cd
:1025a8000100200040538800515388000002200099
:1025b8000100200080538800915388000403200004
:1025c80005002000a4538800b5538800c053880034
:1025d800d1538800a000200001002000e0538800ab
:1025e800f15388005400200005002000045488009e
:1025f80015548800205488003154880008538800f6
:102608008001eb00625388007353880040538000b8
:10261800515380002253800033538000fc0602008f
:10262800000000000001be00425488005354880096
:10263800e20f5400520032002053800031538000d2
:1026480048538000595380006253800073538000c0
:1026580000cab900088bb900040243000044b8005e
:10266800890442008000200001002000fc060200ce
:10267800000000000001be000800be00fc060200c9
:10268800000000000001be006254880073548800f6
:102698006000b80080548800915488006454800019
:1026a800755480000040eb0002c022001300200097
:1026b800820f5200838f5a00780036004f04be0004
:1026c800000006000000e00053003a00a0032000cc
:1026d80010538800001420000100200020538800b7
:1026e80031538800000f200001002000405388006b
:1026f8005153880000022000010020008053880008
:10270800915388000401200005002000a45388008c
:10271800b5538800c0538800d1538800500020006a
:1027280001002000e0538800f153880034002000a5
:10273800050020000454880015548800205488009f
:1027480031548800085388008001eb0062538800e8
:1027580073538800405380005153800022538000f7
:1027680033538000fc060200000000000001be0098
:102778004254880053548800e20f5400aeff3a00d8
:102788002053800031538000485380005953800003
:10279800625380007353800000cab900088bb900e7
:1027a800040243000044b80089044200800020006d
:1027b80001002000fc060200000000000001be002d
:1027c8000800be00fc0602000000000000004000f7
:1027d80081804800605488007154880060548000eb
:1027e800715480008100d1000080d300805488009b
:1027f8009154880064548000755480000040eb00b8
:1028080002c0220013002000820f5200838f5a005a
:10281800aaff3e0021003700e10f500077ff3a0081
:1028280050042000105388000005200001002000fb
:102838002053880031538800001e2000010020002a
:1028480040538800515388000002200001002000f6
:10285800805388009153880004012000050020005f
:10286800a4538800b5538800c0538800d15388000a
:10287800a000200001002000e0538800f1538800e8
:1028880054002000050020000454880015548800d6
:10289800205488003154880058ff37007efe070016
:1028a80010c0b3004f04be000000060085ff3700cb
:1028b800e50f500051ff3a00b00020001053880087
:1028c8000028200001002000205388003153880090
:1028d800001e20000100200040538800515388004a
:1028e80000012000010020008053880091538800d7
:1028f8000006200001002000a0538800b153880082
:102908000003200001002000c0538800d153880034
:10291800a000200001002000e0538800f153880047
:102928002000200001002000005488001154880075
:102938001002200001002000205488003154880033
:102948002eff37001001200010538800001e2000c1
:10295800010020002053880031538800405388002c
:102968005153880000022000010020008053880095
:10297800915388000404200005002000a453880017
:10298800b5538800c0538800d1538800a0002000a8
:1029980001002000e0538800f15388005400200013
:1029a800050020000454880015548800205488002d
:1029b8003154880011ff3700f002200010538800be
:1029c800000a2000010020002053880031538800ad
:1029d800001e200001002000405388005153880049
:1029e80000022000010020008053880091538800d5
:1029f8008401200005002000a4538800b5538800f6
:102a0800c0538800d1538800a00020000100200096
:102a1800e0538800f153880054002000050020008e
:102a280004548800155488002054880031548800c4
:102a3800f2fe3700c0388800d03888000000060051
:102a48003038800031388000c708de003338800015
:102a5800c619de00323880004511de008180710021
:102a680082807000e1806000610060000000a200c8
:102a780001007000f2ff3a0010002000d0408800ea
:102a88001a08e200feff3a0000538000e20f5000ef
:102a980001003200000006001ec8bf001f003200ff
:102aa80001c02500c1388800d138880082548000d0
:102ab80093548000828fd2008381d2000201780073
:102ac80002f0a10001027800050020008200d00079
:102ad8000403d000068140004220a80085814900f7
:102ae8004200a9004220ae004200a8000281d300a3
:102af8000607ab00feff3200623888007238880093
:102b080082388800923888000080fb000000e900c5
:102b18004f00de001ee8b700000006008254800067
:102b280093548000828fd2008382d2000202780000
:102b380004f0a10002c02500030020008400d0009a
:102b48000203d000068140004220a80083814a0089
:102b58004200a9004220ae004200a8000281d30032
:102b6800c2388800d23888000607ab00feff320062
:102b780001c02500613888007138880081388800d4
:102b8800913888000080fb000000e9004f00de005b
:102b98001ee8b700e0ff370031e7a8000000060094
:102ba80030e7b7003107a8009139880001002400f8
:102bb8008239800002806000fdff3a003107a900d9
:102bc800000006000627ab00feff3a0000a7ef0052
:102bd8000000250010388800000000000627ab0020
:102be800feff3a000027ef0000102500103888008b
:102bf800000000000627ab00feff3a0080ff24001b
:102c08000038880000002000f00fb20001202500e5
:102c18008080700011388800000000000627ab0093
:102c2800feff3a000027ef000080250010388800da
:102c3800000000000627ab00feff3a002253800088
:102c48003353800040538000515380004c11dd0005
:102c58000201700002388800205380003153800040
:102c68004c09dd004400de0000007100c408de00ed
:102c78000290250002017000123888000000000050
:102c8800000006004453800055538000750252002e
:102c9800840f510001003600040178000627ab00bc
:102ca800feff3a004c0add00020272000438880078
:102cb800c408de0002a02500010171001238880056
:102cc80000000000904078000104e000100032008d
:102cd8000001eb000000e80005382500043025005d
:102ce8000627ab00feff3a008100fb000138880090
:102cf8000304e00007003a001438880000000000d0
:102d0800e04079000201e8000104e000f4ff3a0025
:102d1800000006001538880000000000e040790037
:102d28000201e8000104e000edff3a00f8ff370077
:102d380000388800000025001038880000000600d0
:102d480000388800001025001038880000000600b0
:102d58000607ab00feff3200603888007038880034
:102d68008038880090388800000006000038880005
:102d78000060260010388800000006000627ab0017
:102d8800feff3a002453800035538000048ab900be
:102d98000402400004388800245380003553800022
:102da80001abb900040ab8008502430004004000e2
:102db800e0804a008180fb0000302600010070009e
:102dc80010388800000000000627ab00feff3a001c
:102dd8004c10dd0003007000003888004411de004c
:102de8000040260002007000103888000000000033
:102df8000627ab00feff3a000006200000388800d6
:102e0800007026001038880000000000000006004e
:102e1800889fbe008a1f780000388800006026005e
:102e28001038880089a620001900be0080017800ab
:102e3800120020008000eb0001007800cfff07009f
:102e48001901be00648554001a00be000000e900a4
:102e580082017800120020008000eb00c7ff070005
:102e680008022000090444001801be001a00be0030
:102e780082017800000178008000eb0001007800f2
:102e8800beff07001802be001a01be001903be00eb
:102e98001800be000201e900800053008401780098
:102ea8000000eb00b5ff07004f0578004f04be0097
:102eb800000006000027ef00006026001038880098
:102ec80042538000535380002053800031538000c8
:102ed80082017800000178008000eb000100780092
:102ee800a6ff370000538000e20f500008003200b0
:102ef8000607ab00feff320000c0250060388800de
:102f0800703888008038880090388800e9ff3700da
:102f18008054800091548000808fd2008180d2003c
:102f28000000780000f0a10002c025000300200086
:102f38000002d0008202d000050042004220a80012
:102f4800838048004200a9004220ae004200a80049
:102f58000080d3000607ab00feff3200603888000f
:102f6800703888008038880090388800d1ff0700c2
:102f7800dfff3700889fbe00245380003553800050
:102f8800049bb90002acb900060344000411b80060
:102f98008301430002014000838148000238880011
:102fa8008380fb0000302600010070001038880084
:102fb800405480005154800000c0a00000388800b0
:102fc80000402600103888000627ab00feff3a00b4
:102fd800000620000038880000702600103888009d
:102fe800000000004f04be0000000600f6874700fe
:102ff800889fbe008a9fbe008c9fbe008e1f7800ef
:10300800a0b79f000107780092b79f0083b79f0081
:103018000400be000605be002fb197008e0178009f
:10302800d00402000000000080017800010178004f
:1030380003047800820478000806be000df0a100a1
:103048009fb097000fb097000101780080017800c9
:103058000a00be00d00402000000000080017800d1
:103068000101780003007800820078000001be00aa
:10307800e2b79f00f3b79f000205be000bf0a10066
:103088000a01be000c00be0010060200000000008d
:103098000000e0006c0034000c0278000d05780098
:1030a800040178008a0178000800be0084bf9f00f0
:1030b8008c05020000000000d0b79f00c1b79f0038
:1030c8000fb997008a0178006fb09700ffb097009a
:1030d8008c0502000000000080067800810478005a
:1030e8008fb997000a017800030078008200780001
:1030f8001406020000000000000678000c00e00042
:103108003f0032000004eb006fd097000080fb0006
:10311800f0af9f00bcb79f001fb597000fb6970090
:103128008d05780089067800afb49700dfb0970066
:103138004fb09700010178008001780009027800fb
:103148008e00780004037800810378000600be0032
:10315800d204020000000000800478000107780013
:10316800090078008e0078001406020000000000b4
:103178006101b900e2b79f00f3b79f000b01780027
:103188008d0178000a0278008c007800040378002a
:10319800810378000600be00d2040200000000008f
:1031a8000005780001067800205380003153800024
:1031b8006fb19700ffb19700800f5100818f5900c0
:1031c8000b0031000a0078008c0078001406020019
:1031d8000000000000017800cf91de00405380001d
:1031e80051538000800f5100818f59000a00390027
:1031f8000804e8003fb19700820f5400cbff390064
:103208004f0778004f06be004f05be004f04be00b2
:103218006f01b100000006007fa897000038880001
:1032280000602600103888006fb09700ffb0970044
:1032380050ff07000804e8003fb19700820f5400d0
:10324800baff3900eeff37000a0278000b05780054
:1032580093ff37008180fb00c208de00c508dd004f
:103268000281fb004311de00810071000080fb0039
:103278004300de004b00dd00010070000000060086
:020000040000fa
:1032880010030000e4020000930200009302000013
:10329800e402000000000000000000000000000040
:1032a8000000000000000000000000000000000016
:1032b800000000000000000000000000b80100004d
:1032c80010030000e40200009302000093020000d3
:1032d80093020000e402000000000000000000006b
:1032e8004b0200004b02000093020000b8010000ee
:1032f800b80100000000000000000000000000000d
:10330800000000000000000000000000b8010000fc
:103318009302000093020000e40200001003000082
:103328001003000010030000930200002a020000ae
:103338002a0200004b0200004b0200004b02000072
:103348009302000093020000b8010000b8010000d9
:10335800b8010000e4020000e402000000000000e0
:103368000000000000000000000000000000000055
:103378000000000000000000000000000000000045
:1033880010030000e4020000930200009302000012
:10339800e40200000000000000000000000000003f
:1033a8000000000000000000000000000000000015
:1033b800000000000000000000000000b80100004c
:1033c80010030000e40200009302000093020000d2
:1033d8000000000000000000e40200004b020000b2
:1033e800000000000000000093020000b801000087
:1033f800b80100000000000000000000000000000c
:1034080000000000000000000000000000000000b4
:103418009302000093020000e40200001003000081
:103428001003000010030000930200002a020000ad
:103438002a0200002a0200004b020000930200004a
:1034480000000000b80100004b02000093020000d9
:10345800ba020000930200004b0200000b020000b9
:103468000000000000000000b8010000d2010000c8
:103478000b0200000b020000ba020000ba020000b2
:10348800930200004b0200004b0200000b020000f8
:103498004b0200000b0200000b0200000b020000b0
:1034a8000b0200000b020000b8010000d20100006e
:1034b8000b0200000b020000ba020000ba02000072
:1034c80010030000ba020000930200004b02000043
:1034d8004b02000093020000ba020000ba0200008a
:1034e800ba020000ba0200001003000070030000d6
:1034f800a4030000a4030000700300007003000090
:103508001003000010030000ba02000010030000be
:103518007003000070030000100300001003000097
:10352800ba020000ba0200004b0200000b020000c1
:103538004b020000ba020000ba0200009302000029
:103548009302000093020000e4020000e40200007d
:10355800e4020000e4020000000000000000000097
:103568000000000000000000000000000000000053
:103578000000000000000000000000000000000043
:103588000000000000000000000000000000000033
:103598000000000000000000000000000000000023
:1035a8000000000000000000000000000000000013
:1035b800000000000000000000000000b80100004a
:1035c80010030000e40200009302000093020000d0
:1035d80093020000e4020000000000000000000068
:1035e80000000000000000000000000000000000d3
:1035f80000000000000000000000000000000000c3
:1036080010030000e402000093020000930200008f
:103618009302000093020000e40200004b02000045
:103628004b0200009302000093020000b801000062
:10363800b8010000000000000000000000000000c9
:103648000000000000000000000000000000000072
:103658009302000093020000e4020000100300003f
:103668001003000010030000930200009302000002
:103678002a0200002a0200004b0200009302000008
:103688009302000093020000b8010000b801000096
:10369800b8010000e4020000000000000000000083
:1036a8000000000000000000000000000000000012
:1036b800000000000000000000000000b801000049
:1036c80010030000e40200009302000093020000cf
:1036d800e4020000000000000000000000000000fc
:1036e80000000000000000000000000000000000d2
:1036f800000000000000000000000000b801000009
:1037080010030000e402000093020000930200008e
:103718000000000000000000e40200004b0200006e
:10372800000000000000000093020000b801000043
:10373800b8010000000000000000000000000000c8
:103748000000000000000000000000000000000071
:103758009302000093020000e4020000100300003e
:103768001003000010030000930200009302000001
:103778002a0200002a0200004b0200009302000007
:1037880000000000b80100004b0200009302000096
:10379800ba020000930200004b0200000b02000076
:1037a8000000000000000000b8010000d201000085
:1037b8000b0200000b020000ba020000ba0200006f
:1037c800930200004b0200004b0200000b020000b5
:1037d8004b0200000b0200000b0200000b0200006d
:1037e8000b0200000b020000b8010000d20100002b
:1037f8000b0200000b020000ba020000ba0200002f
:1038080010030000ba020000930200004b020000ff
:103818004b02000093020000ba020000ba02000046
:10382800ba020000ba020000100300007003000092
:10383800a4030000a403000070030000700300004c
:103848001003000010030000ba020000100300007b
:10385800700300007003000010030000ba020000ab
:10386800ba020000ba0200004b0200000b0200007e
:103878004b020000ba020000ba02000093020000e6
:103888009302000093020000e4020000e40200003a
:10389800e4020000e4020000000000000000000054
:1038a8000000000000000000000000000000000010
:1038b8000000000000000000000000000000000000
:1038c80000000000000000000000000000000000f0
:1038d80000000000000000000000000000000000e0
:1038e80000000000000000000000000000000000d0
:1038f80000000000000000000000000000000000c0
:1039080010030000e402000093020000930200008c
:1039180093020000e4020000000000000000000024
:10392800000000000000000000000000000000008f
:10393800000000000000000000000000b8010000c6
:1039480010030000e402000093020000930200004c
:103958000000000000000000e40200004b0200002c
:10396800000000000000000093020000b801000001
:10397800b801000000000000000000000000000086
:10398800000000000000000000000000000000002f
:103998009302000093020000e402000010030000fc
:1039a80010030000100300009302000093020000bf
:1039b8002a0200002a0200004b02000093020000c5
:1039c8009302000093020000b8010000b801000053
:1039d800b8010000e4020000e4020000000000005a
:1039e80000000000000000000000000000000000cf
:1039f80000000000000000000000000000000000bf
:103a080010030000e402000093020000930200008b
:103a180093020000e4020000000000000000000023
:103a2800000000000000000000000000000000008e
:103a3800000000000000000000000000000000007e
:103a480010030000e402000093020000930200004b
:103a58000000000000000000e40200004b0200002b
:103a6800000000000000000093020000b801000000
:103a7800b801000000000000000000000000000085
:103a8800000000000000000000000000000000002e
:103a98009302000093020000e402000010030000fb
:103aa80010030000100300009302000093020000be
:103ab8002a0200002a0200004b02000093020000c4
:103ac80000000000b80100004b0200009302000053
:103ad800ba020000930200004b0200000b02000033
:103ae8000000000000000000b8010000d201000042
:103af8000b0200000b020000ba020000ba0200002c
:103b0800930200004b0200004b0200000b02000071
:103b18004b0200000b0200000b0200000b02000029
:103b28000b0200000b020000b8010000d2010000e7
:103b38000b0200000b020000ba020000ba020000eb
:103b480010030000ba020000930200004b020000bc
:103b58004b02000093020000ba020000ba02000003
:103b6800ba020000ba02000010030000700300004f
:103b7800a4030000a4030000700300007003000009
:103b88001003000010030000ba0200001003000038
:103b9800700300007003000010030000ba02000068
:103ba800ba020000ba0200004b0200000b0200003b
:103bb8004b020000ba020000ba02000093020000a3
:103bc8009302000093020000e4020000e4020000f7
:103bd800e4020000e4020000000000000000000011
:103be80000000000000000007003000070030000e7
:103bf800a403000070030000e40200004b02000070
:103c08004b02000093020000e4020000e4020000fe
:103c1800e4020000e40200000000000000000000d0
:103c28000000000070030000700300007003000033
:103c3800dc03000070030000e40200004b020000f7
:103c48004b02000093020000e4020000e4020000be
:103c5800e4020000e4020000000000000000000090
:103c680000000000700300007003000070030000f3
:103c7800dc03000070030000e40200004b020000b7
:103c88004b02000093020000e4020000e40200007e
:103c9800e4020000e4020000000000000000000050
:103ca8000000000000000000700300007003000026
:103cb800dc03000070030000e40200004b02000077
:103cc8004b02000093020000e4020000e40200003e
:103cd800e4020000e4020000000000000000000010
:103ce8000000000070030000700300007003000073
:103cf800dc03000070030000e40200004b02000037
:103d08004b02000093020000e4020000e4020000fd
:103d1800e4020000e40200000000000000000000cf
:103d28000000000010030000700300007003000092
:103d38007003000070030000000000000000000095
:103d48000000000010030000e4020000e40200008c
:103d5800e4020000e402000000000000000000008f
:103d6800000000000000000000000000000000004b
:020000040000fa
:103d7800000000000000000000000000000000003b
:103d8800dc0000002601000072010000260100008e
:103d9800f700000026010000720100002601000063
:103da800dc0000002601000072010000260100006e
:103db800f700000026010000720100002601000043
:103dc800dc0000002601000072010000260100004e
:103dd800f700000026010000720100002601000023
:103de800dc0000002601000072010000260100002e
:103df800f700000026010000720100002601000003
:103e0800dc0000004a010000880100004a010000af
:103e1800dc0000004a010000880100004a0100009f
:103e2800dc000000150100008801000015010000f9
:103e3800dc000000150100008801000015010000e9
:103e4800dc000000260100007201000026010000cd
:103e5800f7000000260100007201000026010000a2
:103e6800dc000000260100007201000026010000ad
:103e7800f700000026010000720100002601000082
:103e8800dc0000002601000072010000260100008d
:103e9800f700000026010000720100002601000062
:103ea800dc0000002601000072010000260100006d
:103eb800f700000026010000720100002601000042
:103ec800dc0000002601000072010000260100004d
:103ed800f700000026010000720100002601000022
:103ee800dc0000002601000072010000260100002d
:103ef800f700000026010000720100002601000002
:103f0800dc0000004a010000880100004a010000ae
:103f1800dc0000004a010000880100004a0100009e
:103f2800dc000000150100008801000015010000f8
:103f3800dc000000150100008801000015010000e8
:103f4800e9000000260100005d010000b801000042
:103f58000000000000000000000000000000000059
:103f68005d010000b80100005d01000000000000d4
:103f78004a010000880100004a010000000000001a
:103f88002601000026010000260100004a01000069
:103f98005d0100005d0100005d0100005d010000a1
:103fa8005d010000b80100005d0100000000000094
:103fb8004a010000880100004a01000000000000da
:103fc8002601000026010000260100004a01000029
:103fd8005d0100005d0100005d0100005d01000061
:103fe8002601000088010000260100008801000069
:103ff8004a010000880100004a0100008801000011
:104008005d010000b80100005d010000b80100007a
:104018005d010000b80100005d010000b80100006a
:104028002601000088010000260100008801000028
:10403800150100008801000015010000880100003a
:10404800720100000000000072010000720100000f
:1040580000000000b8010000720100002601000005
:1040680072010000000000007201000072010000ef
:1040780000000000b80100007201000026010000e5
:1040880072010000000000007201000072010000cf
:1040980000000000b80100007201000026010000c5
:1040a80072010000000000007201000072010000af
:1040b80000000000b80100007201000026010000a5
:1040c800720100000000000072010000720100008f
:1040d80000000000b8010000720100002601000085
:1040e800720100000000000072010000720100006f
:1040f80000000000b8010000720100002601000065
:10410800720100000000000072010000720100004e
:1041180000000000b8010000720100002601000044
:10412800720100000000000072010000720100002e
:1041380000000000b8010000720100002601000024
:1041480088010000000000008801000088010000cc
:104158008801000088010000000000000000000045
:104168001501000000000000150100001501000005
:10417800150100001501000000000000000000000b
:10418800dc0000002601000072010000260100008a
:10419800f70000002601000072010000260100005f
:1041a800dc0000002601000072010000260100006a
:1041b800f70000002601000072010000260100003f
:1041c800dc0000002601000072010000260100004a
:1041d800f70000002601000072010000260100001f
:1041e800dc0000002601000072010000260100002a
:1041f800f7000000260100007201000026010000ff
:10420800dc00000026010000720100002601000009
:10421800f7000000260100007201000026010000de
:10422800dc000000260100007201000026010000e9
:10423800f7000000260100007201000026010000be
:10424800dc0000004a010000880100004a0100006b
:10425800dc0000004a010000880100004a0100005b
:10426800dc000000150100008801000015010000b5
:10427800dc000000150100008801000015010000a5
:104288000000000000000000000000000000000026
:104298000000000000000000000000000000000016
:1042a80006010000060100000000000000000000f8
:1042b80006010000060100000000000000000000e8
:1042c8002601000026010000000000000000000098
:1042d80006010000060100000000000000000000c8
:1042e80006010000060100000000000000000000b8
:1042f80006010000060100000000000000000000a8
:104308002601000026010000000000000000000057
:104318000601000006010000000000000000000087
:104328002601000088010000260100008801000025
:104338004a010000880100004a01000088010000cd
:104348005d010000b80100005d010000b801000037
:104358005d010000b80100005d010000b801000027
:1043680026010000000000002601000000000000f7
:104378001501000000000000150100000000000009
:1043880072010000000000007201000072010000cc
:1043980000000000b80100007201000026010000c2
:1043a80072010000000000007201000072010000ac
:1043b80000000000b80100007201000026010000a2
:1043c800720100000000000072010000720100008c
:1043d80000000000b8010000720100002601000082
:1043e800720100000000000072010000720100006c
:1043f80000000000b8010000720100002601000062
:10440800dc00000026010000720100002601000007
:10441800f7000000260100007201000026010000dc
:10442800dc000000260100007201000026010000e7
:10443800f7000000260100007201000026010000bc
:10444800dc000000260100007201000026010000c7
:10445800f70000002601000072010000260100009c
:10446800dc000000260100007201000026010000a7
:10447800f70000002601000072010000260100007c
:10448800dc0000004a010000880100004a01000029
:10449800dc0000004a010000880100004a01000019
:1044a800dc00000015010000880100001501000073
:1044b800dc00000015010000880100001501000063
:1044c800dc00000026010000720100002601000047
:1044d800f70000002601000072010000260100001c
:1044e800dc00000026010000720100002601000027
:1044f800f7000000260100007201000026010000fc
:10450800dc00000026010000720100002601000006
:10451800f7000000260100007201000026010000db
:10452800dc000000260100007201000026010000e6
:10453800f7000000260100007201000026010000bb
:10454800dc000000260100007201000026010000c6
:10455800f70000002601000072010000260100009b
:10456800dc000000260100007201000026010000a6
:10457800f70000002601000072010000260100007b
:10458800dc0000004a010000880100004a01000028
:10459800dc0000004a010000880100004a01000018
:1045a800dc00000015010000880100001501000072
:1045b800dc00000015010000880100001501000062
:1045c80000000000000000000000000000000000e3
:1045d80000000000000000000000000000000000d3
:1045e80006010000060100000000000000000000b5
:1045f80006010000060100000000000000000000a5
:104608002601000026010000000000000000000054
:104618000601000006010000000000000000000084
:104628000601000006010000000000000000000074
:104638000601000006010000000000000000000064
:104648002601000026010000000000000000000014
:104658000601000006010000000000000000000044
:1046680026010000000000002601000000000000f4
:104678004a010000000000004a010000000000009c
:104688005d0100005d0100004a0100004a010000d0
:1046980026010000260100000601000006010000b6
:1046a800e9000000e90000005d0100005d01000074
:1046b800dc000000dc0000004a0100004a010000a4
:1046c800dc00000026010000720100002601000045
:1046d800f70000002601000072010000260100001a
:1046e800dc00000026010000720100002601000025
:1046f800f7000000260100007201000026010000fa
:10470800dc00000026010000720100002601000004
:10471800f7000000260100007201000026010000d9
:10472800dc000000260100007201000026010000e4
:10473800f7000000260100007201000026010000b9
:10474800dc000000260100007201000026010000c4
:10475800f700000026010000720100002601000099
:10476800dc000000260100007201000026010000a4
:10477800f700000026010000720100002601000079
:10478800dc00000026010000720100002601000084
:10479800f700000026010000720100002601000059
:1047a800dc00000026010000720100002601000064
:1047b800f700000026010000720100002601000039
:1047c800dc00000026010000720100002601000044
:1047d800f700000026010000720100002601000019
:1047e800dc00000026010000720100002601000024
:1047f800f7000000260100007201000026010000f9
:1048080000000000000000000000000000000000a0
:104818000000000000000000000000000000000090
:104828000000000000000000000000000000000080
:104838000000000000000000000000000000000070
:020000040000fa
:104a7800e900000000000000e9000000000000005c
:104a88000601000000000000060100000000000010
:104a98000601000000000000060100000000000000
:104aa80006010000000000000601000000000000f0
:104ab800e900000000000000e9000000000000001c
:104ac80006010000000000000601000000000000d0
:104ad800e900000000000000e900000000000000fc
:104ae80006010000000000000601000000000000b0
:104af80006010000000000000601000000000000a0
:104b0800260100000000000026010000000000004f
:104b1800e900000000000000e900000000000000bb
:104b2800dc00000000000000dc00000000000000c5
:104b3800dc00000000000000dc000000dc000000d9
:104b4800000000000000000000000000000000005d
:104b5800dc00000000000000dc000000dc000000b9
:104b6800000000000000000000000000000000003d
:104b7800dc00000000000000dc000000dc00000099
:104b8800000000000000000000000000000000001d
:104b9800dc00000000000000dc000000dc00000079
:104ba80000000000000000000000000000000000fd
:104bb800dc00000000000000dc000000dc00000059
:104bc80000000000000000000000000000000000dd
:104bd800dc00000000000000dc000000dc00000039
:104be80000000000000000000000000000000000bd
:104bf800dc00000000000000dc000000dc00000019
:104c0800000000000000000000000000000000009c
:104c1800dc00000000000000dc000000dc000000f8
:104c2800000000000000000000000000000000007c
:104c3800f700000000000000f7000000f700000087
:104c4800f7000000f700000000000000000000006e
:104c5800a500000000000000a5000000a50000005d
:104c6800a5000000a50000000000000000000000f2
:104c7800000000000000000000000000000000002c
:104c8800000000000000000000000000000000001c
:104c9800000000000000000000000000000000000c
:104ca800dc03000070030000100300001003000084
:104cb8007003000000000000000000000000000079
:104cc80000000000000000000000000000000000dc
:104cd80000000000000000000000000000000000cc
:104ce800dc03000070030000100300001003000044
:104cf80000000000000000000000000000000000ac
:104d0800000000000000000000000000000000009b
:104d1800000000000000000000000000000000008b
:104d2800000000000000000000000000000000007b
:104d3800f7000000f7000000f7000000f70000008f
:104d4800f7000000f7000000f7000000f70000007f
:104d5800a5000000a5000000a5000000a5000000b7
:104d6800a5000000a5000000a5000000a5000000a7
:104d7800000000000000000000000000000000002b
:104d8800000000000000000000000000000000001b
:104d9800dc000000dc000000000000000000000053
:104da800c4000000c4000000000000000000000073
:104db800af000000af00000000000000000000008d
:104dc800dc000000dc000000000000000000000023
:104dd800dc000000dc000000000000000000000013
:104de800c4000000c4000000000000000000000033
:104df800af000000af00000000000000000000004d
:104e0800dc000000dc0000000000000000000000e2
:104e1800000000000000000000000000000000008a
:104e2800000000000000000000000000000000007a
:104e3800000000000000000000000000000000006a
:104e4800000000000000000000000000000000005a
:104e5800000000000000000000000000000000004a
:104e6800000000000000000000000000000000003a
:104e7800000000000000000000000000000000002a
:104e8800000000000000000000000000000000001a
:104e9800000000000000000000000000000000000a
:104ea80000000000000000000000000000000000fa
:104eb80000000000000000000000000000000000ea
:104ec80000000000000000000000000000000000da
:104ed80000000000000000000000000000000000ca
:104ee80000000000000000000000000000000000ba
:104ef80000000000000000000000000000000000aa
:104f08000000000000000000000000000000000099
:104f18000000000000000000000000000000000089
:104f28000000000000000000000000000000000079
:104f38000000000000000000000000000000000069
:104f48000000000000000000000000000000000059
:104f58000000000000000000000000000000000049
:104f68000000000000000000000000000000000039
:104f78000000000000000000000000000000000029
:104f88000000000000000000000000000000000019
:104f98000000000000000000000000000000000009
:104fa80000000000000000000000000000000000f9
:104fb80000000000000000000000000000000000e9
:104fc80000000000000000000000000000000000d9
:104fd80000000000000000000000000000000000c9
:104fe800dc03000070030000100300001003000041
:104ff8007003000000000000000000000000000036
:105008000000000000000000000000000000000098
:105018000000000000000000000000000000000088
:10502800dc03000070030000100300001003000000
:10503800000000000000000070030000e40200000f
:10504800000000000000000010030000260100001e
:105058002601000000000000000000000000000021
:105068000000000000000000000000000000000038
:105078000000000000000000000000000000000028
:105088000000000000000000000000000000000018
:105098000000000000000000000000000000000008
:1050a80000000000000000000000000000000000f8
:1050b80000000000000000000000000000000000e8
:1050c80000000000000000000000000000000000d8
:1050d800dc000000dc000000000000000000000010
:1050e800c4000000c4000000000000000000000030
:1050f800af000000af00000000000000000000004a
:10510800dc000000dc0000000000000000000000df
:10511800dc000000dc0000000000000000000000cf
:10512800c4000000c40000000000000000000000ef
:10513800af000000af000000000000000000000009
:10514800dc000000dc00000000000000000000009f
:105158000000000000000000000000000000000047
:105168000000000000000000000000000000000037
:105178000000000000000000000000000000000027
:105188000000000000000000000000000000000017
:105198000000000000000000000000000000000007
:1051a80000000000000000000000000000000000f7
:1051b80000000000000000000000000000000000e7
:1051c80000000000000000000000000000000000d7
:1051d80000000000000000000000000000000000c7
:1051e80000000000100300007003000070030000be
:1051f8007003000000000000000000000000000034
:105208000000000000000000000000000000000096
:105218000000000000000000000000000000000086
:10522800000000001003000070030000700300007d
:1052380070030000000000000000000000000000f3
:105248000000000000000000000000000000000056
:105258000000000000000000000000000000000046
:10526800000000001003000070030000700300003d
:1052780070030000000000000000000000000000b3
:105288000000000000000000000000000000000016
:105298000000000000000000000000000000000006
:1052a80000000000100300007003000070030000fd
:1052b8007003000000000000000000000000000073
:1052c80000000000000000000000000000000000d6
:1052d80000000000000000000000000000000000c6
:1052e80000000000100300007003000070030000bd
:1052f8007003000000000000000000000000000033
:105308000000000000000000000000000000000095
:105318000000000000000000000000000000000085
:105328000000000000000000000000000000000075
:105338000000000000000000000000000000000065
:020000040000fa
:105628004900000049000000000000004900000097
:105638003e0000003e000000000000003e000000a8
:105648004900000049000000000000004900000077
:105658003e0000003e000000000000003e00000088
:105668004900000049000000000000004900000057
:105678003e0000003e000000000000003e00000068
:105688004900000049000000000000004900000037
:105698003e0000003e000000000000003e00000048
:1056a8004900000049000000000000004900000017
:1056b8003e0000003e000000000000003e00000028
:1056c80049000000490000000000000049000000f7
:1056d8003e0000003e000000000000003e00000008
:1056e80049000000490000000000000049000000d7
:1056f8003e0000003e000000000000003e000000e8
:1057080049000000490000000000000049000000b6
:105718003e0000003e000000000000003e000000c7
:105728005200000052000000520000005200000029
:10573800520000005d0000006200000062000000ee
:105748003700000037000000370000003700000075
:10575800370000003e000000230000002300000086
:105768004900000049000000000000004900000056
:105778003e0000003e000000000000003e00000067
:105788004900000049000000000000004900000036
:105798003e0000003e000000000000003e00000047
:1057a8004900000049000000000000004900000016
:1057b8003e0000003e000000000000003e00000027
:1057c80049000000490000000000000049000000f6
:1057d8003e0000003e000000000000003e00000007
:1057e80049000000490000000000000049000000d6
:1057f8003e0000003e000000000000003e000000e7
:1058080049000000490000000000000049000000b5
:105818003e0000003e000000000000003e000000c6
:105828005200000052000000520000005200000028
:10583800520000005d0000006200000062000000ed
:105848003700000037000000370000003700000074
:10585800370000003e00000037000000370000005d
:1058680057000000570000005700000057000000d4
:1058780057000000570000005700000057000000c4
:105888005700000057000000000000000000000062
:1058980083000000830000000000000000000000fa
:1058a8007500000075000000000000000000000006
:1058b8005700000057000000000000000000000032
:1058c8005700000057000000000000000000000022
:1058d80083000000830000000000000000000000ba
:1058e80075000000750000000000000000000000c6
:1058f80057000000570000000000000000000000f2
:1059080075000000750000007500000075000000bb
:10591800410000004100000041000000410000007b
:10592800570000005700000052000000520000001d
:10593800490000004900000041000000410000004b
:105948003a0000003a00000057000000570000002d
:10595800370000003700000052000000520000002d
:105968004900000049000000000000004900000054
:105978003e0000003e000000000000003e00000065
:105988004900000049000000000000004900000034
:105998003e0000003e000000000000003e00000045
:1059a8004900000049000000000000004900000014
:1059b8003e0000003e000000000000003e00000025
:1059c80049000000490000000000000049000000f4
:1059d8003e0000003e000000000000003e00000005
:1059e800490000004900000049000000490000008b
:1059f800000000000000000000000000000000009f
:105a0800000000000000000000000000000000008e
:105a1800000000000000000000000000000000007e
:105a2800000000000000000000000000000000006e
:105a3800000000000000000000000000000000005e
:105a4800000000000000000000000000000000004e
:105a5800000000000000000000000000000000003e
:105a6800000000000000000000000000000000002e
:105a7800000000000000000000000000000000001e
:105a8800000000000000000000000000000000000e
:105a980000000000000000000000000000000000fe
:105aa80000000000000000000000000000000000ee
:105ab80000000000000000000000000000000000de
:105ac80000000000000000000000000000000000ce
:105ad80000000000000000000000000000000000be
:105ae80049000000490000000000000049000000d3
:105af8003e0000003e000000000000003e000000e4
:105b080049000000490000000000000049000000b2
:105b18003e0000003e000000000000003e000000c3
:105b28004900000049000000000000004900000092
:105b38003e0000003e000000000000003e000000a3
:105b48004900000049000000000000004900000072
:105b58003e0000003e000000000000003e00000083
:105b680052000000520000005200000052000000e5
:105b7800520000005d0000006200000062000000aa
:105b88003700000037000000370000003700000031
:105b9800370000003e000000230000002300000042
:105ba8005700000057000000570000005700000091
:105bb8005700000057000000570000005700000081
:105bc800570000005700000000000000000000001f
:105bd80083000000830000000000000000000000b7
:105be80075000000750000000000000000000000c3
:105bf80057000000570000000000000000000000ef
:105c080057000000570000000000000000000000de
:105c18008300000083000000000000000000000076
:105c28007500000075000000000000000000000082
:105c380057000000570000000000000000000000ae
:105c48007500000075000000750000007500000078
:105c58004100000041000000410000004100000038
:105c680057000000570000005200000052000000da
:105c78004900000049000000410000004100000008
:105c88003a0000003a0000005700000057000000ea
:105c980037000000370000005200000052000000ea
:105ca8004900000049000000000000004900000011
:105cb8003e0000003e000000000000003e00000022
:105cc80049000000490000000000000049000000f1
:105cd8003e0000003e000000000000003e00000002
:105ce80049000000490000000000000049000000d1
:105cf8003e0000003e000000000000003e000000e2
:105d080049000000490000000000000049000000b0
:105d18003e0000003e000000000000003e000000c1
:105d28004900000049000000000000004900000090
:105d38003e0000003e000000000000003e000000a1
:105d48004900000049000000000000004900000070
:105d58003e0000003e000000000000003e00000081
:105d68004900000049000000000000004900000050
